:020000040800F2
:10000000000002206D370008E52D0008ED2D0008E6
:10001000F52D0008FD2D0008052E00080000000049
:100020000000000000000000000000000D2E00088D
:100030001B2E000800000000292E0008372E0008A3
:10004000BD370008BD370008BD370008BD370008C0
:10005000BD370008BD370008BD370008BD370008B0
:10006000BD370008BD370008BD370008BD370008A0
:10007000BD370008BD370008BD370008BD37000890
:10008000BD370008BD370008BD370008BD37000880
:10009000BD370008BD370008BD370008BD37000870
:1000A000BD370008BD370008BD370008BD37000860
:1000B000BD370008BD370008BD370008BD37000850
:1000C000BD370008BD370008BD370008BD37000840
:1000D000BD370008BD370008452E0008BD370008B1
:1000E000BD370008BD370008BD370008BD37000820
:1000F000BD370008BD370008BD370008BD37000810
:10010000BD370008BD370008BD370008BD370008FF
:10011000BD370008BD370008BD370008BD370008EF
:10012000BD370008BD370008BD370008BD370008DF
:10013000BD370008BD370008BD370008BD370008CF
:10014000BD370008BD370008BD370008592E00082C
:10015000BD370008BD370008BD370008BD370008AF
:10016000BD370008BD370008BD370008BD3700089F
:10017000BD370008BD370008BD370008000000008B
:08018000BD370008BD3700087F
:1001900010B5054C237833B9044B13B10448AFF3C1
:1001A00000800123237010BD2C02002000000000FD
:1001B00090F9000808B5034B1BB103490348AFF39E
:1001C000008008BD000000003002002090F9000807
:1001D00001F0FF01102A2BDB10F0070F08D010F8F8
:1001E000013B013A8B422DD010F0070F42B3F6D1FC
:1001F000F0B441EA012141EA014122F007047FF015
:1002000000070023F0E80256083C85EA010586EA6B
:10021000010685FA47F5A3FA87F586FA47F6A5FAA7
:1002200087F68EB9EED1F0BC01F0FF0102F00702B3
:1002300032B110F8013B013A83EA010313B1F8D15E
:100240000020704701387047002D06BF354603383F
:10025000073815F0010F07D1013015F4807F02BF78
:10026000013015F4C03F0130F0BC0138704700BFC9
:10027000034613F8012B002AFBD1181A01387047E6
:1002800081F0004102E000BF83F0004330B54FEA47
:1002900041044FEA430594EA050F08BF90EA020FB4
:1002A0001FBF54EA000C55EA020C7FEA645C7FEA47
:1002B000655C00F0E2804FEA5454D4EB5555B8BF6A
:1002C0006D420CDD2C4480EA020281EA030382EADB
:1002D000000083EA010180EA020281EA0303362D6D
:1002E00088BF30BD11F0004F4FEA01314FF4801C40
:1002F0004CEA113102D0404261EB410113F0004F52
:100300004FEA03334CEA133302D0524263EB430308
:1003100094EA050F00F0A780A4F10104D5F1200EA6
:100320000DDB02FA0EFC22FA05F2801841F1000101
:1003300003FA0EF2801843FA05F359410EE0A5F1D5
:1003400020050EF1200E012A03FA0EFC28BF4CF006
:10035000020C43FA05F3C01851EBE37101F00045BC
:1003600007D54FF0000EDCF1000C7EEB00006EEBC9
:100370000101B1F5801F1BD3B1F5001F0CD3490853
:100380005FEA30004FEA3C0C04F101044FEA4452AA
:1003900012F5800F80F09A80BCF1004F08BF5FEA31
:1003A000500C50F1000041EB045141EA050130BD11
:1003B0005FEA4C0C404141EB0101013C28BFB1F523
:1003C000801FE9D291F0000F04BF01460020B1FA6E
:1003D00081F308BF2033A3F10B03B3F120020CDA41
:1003E0000C3208DD02F1140CC2F10C0201FA0CF01F
:1003F00021FA02F10CE002F11402D8BFC2F1200C84
:1004000001FA02F120FA0CFCDCBF41EA0C01904039
:10041000E41AA2BF01EB0451294330BD6FEA040482
:100420001F3C1CDA0C340EDC04F11404C4F120026D
:1004300020FA04F001FA02F340EA030021FA04F37F
:1004400045EA030130BDC4F10C04C4F1200220FAD6
:1004500002F001FA04F340EA0300294630BD21FA14
:1004600004F0294630BD94F0000F83F4801306BFDA
:1004700081F480110134013D4EE77FEA645C18BFCE
:100480007FEA655C29D094EA050F08BF90EA020F65
:1004900005D054EA000C04BF1946104630BD91EA5D
:1004A000030F1EBF0021002030BD5FEA545C05D160
:1004B0004000494128BF41F0004130BD14F580049F
:1004C0003CBF01F5801130BD01F0004545F0FE4113
:1004D00041F470014FF0000030BD7FEA645C1ABF48
:1004E000194610467FEA655C1CBF0B46024650EA7F
:1004F000013406BF52EA033591EA030F41F40021AB
:1005000030BD00BF90F0000F04BF0021704730B530
:100510004FF4806404F132044FF000054FF0000105
:1005200050E700BF90F0000F04BF0021704730B5C6
:100530004FF4806404F1320410F0004548BF40429B
:100540004FF000013EE700BF42004FEAE2014FEAF0
:1005500031014FEA02701FBF12F07F4393F07F4FCB
:1005600081F06051704732F07F4208BF704793F0CE
:100570007F4F04BF41F40021704730B54FF46074E1
:1005800001F0004521F000411CE700BF50EA0102E4
:1005900008BF704730B54FF000050AE050EA01028D
:1005A00008BF704730B511F0004502D5404261EBFD
:1005B00041014FF4806404F132045FEA915C3FF43E
:1005C000D8AE4FF003025FEADC0C18BF03325FEADB
:1005D000DC0C18BF033202EBDC02C2F1200300FA8C
:1005E00003FC20FA02F001FA03FE40EA0E0021FAB1
:1005F00002F11444BDE600BF70B54FF0FF0C4CF49F
:10060000E06C1CEA11541DBF1CEA135594EA0C0F50
:1006100095EA0C0F00F0DEF82C4481EA030621EA8B
:100620004C5123EA4C5350EA013518BF52EA0335C6
:1006300041F4801143F4801338D0A0FB02CE4FF078
:100640000005E1FB02E506F00042E0FB03E54FF0A8
:100650000006E1FB03569CF0000F18BF4EF0010EA0
:10066000A4F1FF04B6F5007F64F5407404D25FEA9C
:100670004E0E6D4146EB060642EAC62141EA55514F
:100680004FEAC52040EA5E504FEACE2EB4F1FD0C91
:1006900088BFBCF5E06F1ED8BEF1004F08BF5FEA0F
:1006A000500E50F1000041EB045170BD06F00046C1
:1006B00046EA010140EA020081EA0301B4EB5C046E
:1006C000C2BFD4EB0C0541EA045170BD41F4801166
:1006D0004FF0000E013C00F3AB8014F1360FDEBF8B
:1006E000002001F0004170BDC4F10004203C35DA67
:1006F0000C341BDC04F11404C4F1200500FA05F3EA
:1007000020FA04F001FA05F240EA020001F000428A
:1007100021F0004110EBD37021FA04F642EB060100
:100720005EEA430E08BF20EAD37070BDC4F10C042A
:10073000C4F1200500FA04F320FA05F001FA04F2EE
:1007400040EA020001F0004110EBD37041F10001DA
:100750005EEA430E08BF20EAD37070BDC4F12005E5
:1007600000FA05F24EEA020E20FA04F301FA05F24D
:1007700043EA020321FA04F001F0004121FA04F2F5
:1007800020EA020000EBD3705EEA430E08BF20EAC5
:10079000D37070BD94F0000F0FD101F000464000FF
:1007A00041EB010111F4801F08BF013CF7D041EA81
:1007B000060195F0000F18BF704703F00046520085
:1007C00043EB030313F4801F08BF013DF7D043EA56
:1007D0000603704794EA0C0F0CEA135518BF95EA0C
:1007E0000C0F0CD050EA410618BF52EA4306D1D193
:1007F00081EA030101F000414FF0000070BD50EAB2
:10080000410606BF1046194652EA430619D094EA3B
:100810000C0F02D150EA013613D195EA0C0F05D125
:1008200052EA03361CBF104619460AD181EA030179
:1008300001F0004141F0FE4141F470014FF0000031
:1008400070BD41F0FE4141F4780170BD70B54FF0CC
:10085000FF0C4CF4E06C1CEA11541DBF1CEA13554C
:1008600094EA0C0F95EA0C0F00F0A7F8A4EB05042E
:1008700081EA030E52EA03354FEA013100F0888025
:100880004FEA03334FF0805545EA131343EA1263EE
:100890004FEA022245EA111545EA10654FEA0026A3
:1008A0000EF000419D4208BF964244F1FD0404F55C
:1008B000407402D25B084FEA3202B61A65EB0305B8
:1008C0005B084FEA32024FF480104FF4002CB6EB75
:1008D000020E75EB030E22BFB61A754640EA0C00F5
:1008E0005B084FEA3202B6EB020E75EB030E22BF35
:1008F000B61A754640EA5C005B084FEA3202B6EB76
:10090000020E75EB030E22BFB61A754640EA9C0034
:100910005B084FEA3202B6EB020E75EB030E22BF04
:10092000B61A754640EADC0055EA060E18D04FEAC2
:10093000051545EA16754FEA06164FEAC30343EA62
:1009400052734FEAC2025FEA1C1CC0D111F4801F2F
:100950000BD141EA00014FF000004FF0004CB6E728
:1009600011F4801F04BF01430020B4F1FD0C88BFC7
:10097000BCF5E06F3FF6AFAEB5EB030C04BFB6EBD2
:10098000020C5FEA500C50F1000041EB045170BDC5
:100990000EF0004E4EEA113114EB5C04C2BFD4EBF2
:1009A0000C0541EA045170BD41F480114FF0000E76
:1009B000013C90E645EA060E8DE60CEA135594EAF2
:1009C0000C0F08BF95EA0C0F3FF43BAF94EA0C0FF5
:1009D0000AD150EA01347FF434AF95EA0C0F7FF46A
:1009E00025AF104619462CE795EA0C0F06D152EABE
:1009F00003353FF4FDAE1046194622E750EA4106A2
:100A000018BF52EA43067FF4C5AE50EA41047FF4B2
:100A10000DAF52EA43057FF4EBAE12E74FF0FF3C17
:100A200006E000BF4FF0010C02E000BF4FF0010CE8
:100A30004DF804CD4FEA410C7FEA6C5C4FEA430C61
:100A400018BF7FEA6C5C1BD001B050EA410C0CBFB0
:100A500052EA430C91EA030F02BF90EA020F002012
:100A6000704710F1000F91EA030F58BF994208BF79
:100A700090422CBFD8176FEAE37040F00100704736
:100A80004FEA410C7FEA6C5C02D150EA013C07D18D
:100A90004FEA430C7FEA6C5CD6D152EA033CD3D0D8
:100AA0005DF8040B704700BF8446104662468C46D2
:100AB0001946634600E000BF01B5FFF7B7FF002805
:100AC00048BF10F1000F01BD4DF808EDFFF7F4FF2E
:100AD0000CBF012000205DF808FB00BF4DF808EDB9
:100AE000FFF7EAFF34BF012000205DF808FB00BFDC
:100AF0004DF808EDFFF7E0FF94BF012000205DF8FE
:100B000008FB00BF4DF808EDFFF7CEFF94BF0120B2
:100B100000205DF808FB00BF4DF808EDFFF7C4FFAB
:100B200034BF012000205DF808FB00BF4FEA410CF4
:100B30007FEA6C5C02D150EA013C0AD14FEA430CD7
:100B40007FEA6C5C02D152EA033C02D14FF0000014
:100B500070474FF0010070474FEA410212F5001252
:100B600015D211D56FF47873B3EB625212D94FEAF4
:100B7000C12343F0004343EA505311F0004F23FADE
:100B800002F018BF404270474FF00000704750EA33
:100B9000013005D111F0004008BF6FF000407047F0
:100BA0004FF00000704700BF53B94AB9002908BF91
:100BB00000281CBF4FF0FF314FF0FF3000F088B924
:100BC000ADF1080C6DE904CE00F006F8DDF804E0A4
:100BD000DDE9022304B070472DE9F047089D8E46F9
:100BE00004468846002B4AD18A42174662D9B2FA97
:100BF00082F64EB1C6F1200301FA06F820FA03F39B
:100C0000B74043EA0808B4404FEA174E1FFA87FC82
:100C1000B8FBFEF1230C0EFB118843EA084301FBED
:100C20000CF29A4209D9FB1801F1FF3080F0EA80FA
:100C30009A4240F2E78002393B449A1AA3B2B2FBCF
:100C4000FEF00EFB102243EA024300FB0CFC9C4525
:100C500009D9FB1800F1FF3280F0D6809C4540F2A4
:100C6000D3803B44023840EA0140A3EB0C0300214F
:100C70001DB1F3400022C5E90032BDE8F0878B4288
:100C800005D90DB1C5E9000100210846F5E7B3FA21
:100C900083F1002946D1734502D3824200F20581D7
:100CA000841A6EEB030201209046002DE5D0C5E9C1
:100CB0000048E2E7002A00F09080B2FA82F6002EA7
:100CC00040F0A4808A1A030C4FEA174E80B2BCB2DF
:100CD0000121B2FBFEFC0EFB1C2243EA024304FB93
:100CE0000CF29A4207D9FB180CF1FF3802D29A4253
:100CF00000F2E080C4469B1AB3FBFEF20EFB1233F7
:100D000040EA034302FB04F49C4207D9FB1802F1BA
:100D1000FF3002D29C4200F2CA8002461B1B42EA0C
:100D20000C40A5E7C1F120068B4022FA06F71F43CD
:100D30000EFA01F420FA06F32EFA06FE4FEA1749DE
:100D4000234300FA01F81FFA87FCBEFBF9F01C0CE4
:100D500009FB10EE44EA0E4400FB0CFEA64502FA25
:100D600001F209D93C1900F1FF3A80F09C80A645B8
:100D700040F2998002383C44A4EB0E041FFA83FE33
:100D8000B4FBF9F309FB13444EEA044403FB0CFCE7
:100D9000A44508D93C1903F1FF3E80F08280A445A8
:100DA0007FD9023B3C4443EA0040A4EB0C04A0FB87
:100DB00002EC64457346E14662D35FD05DB1B8EBA7
:100DC000030264EB090404FA06F622FA01F31E4357
:100DD000CC40C5E9006400214FE7B1FBF2FC010CF7
:100DE00041EA0E4180B240EA01423B4638463C4669
:100DF000B846BE462026B1FBF7F1A2EB080241EA55
:100E00000C4166E7014618E710462CE7C6F12002C0
:100E10002EFA02F3B740B14020FA02F24FEA174E21
:100E20000A43B3FBFEF8BCB20EFB1833110C41EAC7
:100E3000034108FB04F9B04089454FEA104380B2F2
:100E40003ED9791808F1FF3C01D289451FD8A1EBA2
:100E50000901B1FBFEF909FB04F80EFB191192B26E
:100E600042EA0142424529D2BA1809F1FF31C4D2FF
:100E70004245C2D2A9F102013A44BEE7F0459DD2F3
:100E8000BEEB02036CEB070C0138E14696E7A7EBDB
:100E900009094944A8F1020CB1FBFEF909FB04F869
:100EA000DBE773467FE7504666E70846FDE63B44CE
:100EB000023A33E7ACF1020C3B441CE749469CE79D
:100EC000A1EB0901C446B1FBFEF909FB04F8C4E734
:100ED000704700BF80B500AF40F2DC5200210548EA
:100EE00002F0B6FB00220421034802F0BBFA00BF67
:100EF00080BD00BF840400201C03002080B500AF2B
:100F00000821024806F08EFD00BF80BDF4030020DA
:100F100080B500AF0F4B1B78002B0CD001224FF493
:100F200000410D4803F03AF800224FF480410A488E
:100F300003F034F80BE000224FF40041064803F0C0
:100F40002DF801224FF48041034803F027F800BF39
:100F500080BD00BF00000020000C024080B582B0C0
:100F600000AF02F075F9354B1B889BB29B12DBB2C8
:100F700003F00103FB71FB79012B2BD1304B1B7864
:100F8000002B27D12F480CF045FE02F00BFA2E4B18
:100F90001B78002B02D0FFF7B1FF01E0FFF79AFFAB
:100FA000642002F07FFC284B1B78002B0CBF012330
:100FB0000023DBB21A46244B1A70FFF7A9FF224B1D
:100FC0001B78002B01D0214B00E0214B1946214812
:100FD0000CF0B8FD1A4AFB7913701B4B1B78002BE1
:100FE00001D0642300E0A0231B4A1360164B1B783A
:100FF000002B02D0194B1B6801E0194B1B68194AE2
:101000001360114B1B78002B02D0174B1B6801E0BB
:10101000164B1B68164A1360164800F0D1F90A4BAC
:101020001B78002B02D001F0F9F901E000F088F8FC
:10103000002318460837BD4680BD00BF3805002094
:1010400048020020A8F9000800000020D4F9000898
:10105000DCF90008E0F900081C0000202000002056
:101060002800002074020020240000202C00002012
:1010700078020020AC03002080B500AF0E480CF0D1
:10108000C9FD00F021F801F091F940F2DC52002195
:101090000A4802F0DDFA00220421094802F0E2F9D0
:1010A000FFF736FF4FF47A7002F0FCFB05480CF0B6
:1010B000B1FD00BF80BD00BF00FA0008840400201D
:1010C0001C03002024FA000880B500AF154B002255
:1010D0001A70144B00225A70124B00229A70124B55
:1010E0001B68124A1360104B1B68114A13600E4BA9
:1010F0001B68DBB21A4600210E4802F003FA0E4BC1
:101100001B68DBB21A460C210A4802F0FBF90B4BB4
:101110001B68DBB21A460421064802F0F3F900BF4F
:1011200080BD00BF5C0200200800002050020020AB
:1011300054020020640300200C0000200400002062
:1011400080B582B000AF8A4B1B78C3F30013DBB2CB
:10115000002B14BF01230023FB71FB79002B1ED051
:10116000844B1B7883F00103DBB2002B17D0824B3A
:101170001B78002B0CBF01230023DBB21A467E4BE9
:101180001A707D4B1B78002B02D07C4B1B6801E052
:101190007B4B1B687B4A13607B4B01221A70754A9C
:1011A000FB791370784B1B78002B34D002F052F986
:1011B0000246764B1B68D31A092B2CD902F04AF948
:1011C0000346724A1360724B1A686E4B1B689A4250
:1011D00005DA6F4B1B6801336D4A13600AE06C4BF4
:1011E0001A68684B1B689A4204DD694B1B68013B17
:1011F000674A1360664B1B68DBB21A4600216548DC
:1012000002F080F9624B1A685E4B1B689A4202D169
:101210005D4B00221A70564B1B78C3F34013DBB2B0
:10122000002B14BF01230023BB71BB79002B3AD0E4
:10123000594B1B7883F00103DBB2002B33D04E4BAC
:101240005B78002B0CBF01230023DBB21A464A4B0C
:101250005A70494B9B78002B0CBF01230023DBB253
:101260001A46454B9A70444B5B78002B03D04B4B8E
:101270001B68DBB202E04A4B1B68DBB21A460C214A
:10128000444802F03FF93C4B9B78002B03D0454B80
:101290001B68DBB202E0444B1B68DBB21A46042138
:1012A0003C4802F02FF93C4ABB791370304B1B7855
:1012B00003F00803DBB2002B0AD0002220213B48B8
:1012C00002F06CFEC8220421394802F0CBF816E087
:1012D000274B1B7803F00403DBB2002B0AD001225A
:1012E0002021324802F05AFEC8220421304802F080
:1012F000B9F804E0002204212D4802F0B3F80421DB
:101300002C4802F033FE0346002B14BF01230023B8
:10131000DAB2294B1A70164B1B7803F00103DBB2CB
:10132000002B0DD0244B1B7883F00103DBB2002B84
:1013300006D040F27E420021204802F089F913E0F5
:101340000B4B1B7803F00203DBB2002B06D040F2FC
:101350003A720021194802F07BF905E040F2DC52B4
:101360000021164802F074F900BF0837BD4680BD61
:101370006C0500205F0200205C02002014000020A9
:101380000800002054020020580200204C020020D7
:10139000500200206403002060020020180000209A
:1013A0000C00002010000020040000200008024073
:1013B0001C03002000100240590200208404002079
:1013C00080B588B000AF7860614BD3ED007AFDEE58
:1013D000E77A17EE903AFB615E4BD3ED007AFDEEB3
:1013E000E77A17EE903ABB61FB6907EE903AF8EEA8
:1013F000E77AF0EEE77AB3EE047AF4EEC77AF1EE2C
:1014000010FA01D50023FB61BB6907EE903AF8EEB4
:10141000E77AF0EEE77AB3EE047AF4EEC77AF1EE0B
:1014200010FA01D50023BB6100237B6100233B61DF
:101430000023FB60484B5B7803F00103DBB2002B19
:101440000DD000237B6100233B61444B1B68FB6094
:10145000FB69002B36DD424B1B68FB6032E03E4BE4
:101460005B7803F00203DBB2002B0FD000237B611B
:1014700000233B61394B1B685B42FB60FB69002B1F
:1014800020DD374B1B685B42FB601BE0354B1B6864
:10149000FA6902FB03F3344A82FB03121A449211E5
:1014A000DB17D31A7B612F4B1B68BA6902FB03F36E
:1014B0002D4A82FB03121A449211DB17D31A3B61A7
:1014C0000023FB60294B1B78002B05D0FA68396993
:1014D000786900F055F804E0FA683969786900F035
:1014E0002DF9234BD3ED007A4FF48053B0EE670A09
:1014F00000220221786800F0FFF91E4BD3ED007A3C
:101500004FF40053B0EE670A04220421786800F01B
:10151000F3F9194BD3ED007A4FF48043B0EE670A2C
:1015200008224FF48071786800F0E6F9134BD3ED90
:10153000007A4FF40043B0EE670A0C224FF40071BA
:10154000786800F0D9F9002318462037BD4680BDE1
:1015500058050020540500206C050020740200206E
:10156000780200201C0000200904028100000020F5
:1015700064020020680200206C020020700200203B
:1015800080B48DB000AFF860B9607A60FA68BB686B
:10159000D21A7B68134407EE903AF8EEE77AC7ED6B
:1015A0000B7AFA68BB681A447B68D31A07EE903A44
:1015B000F8EEE77AC7ED0A7ABA68FB68D21A7B6858
:1015C000134407EE903AF8EEE77AC7ED097AFA6825
:1015D000BB681A447B68134407EE903AF8EEE77A4A
:1015E000C7ED087A504AFB6A1360D7ED0A7AF1EE2C
:1015F000677A4E4BC3ED007A4D4A7B6A1360D7ED94
:10160000087AF1EE677A4B4BC3ED007A464BD3ED87
:10161000007AB0EEE77A454BD3ED007AF0EEE77A48
:10162000B4EEE77AF1EE10FA05DD3F4BD3ED007A28
:10163000F0EEE77A04E03D4BD3ED007AF0EEE77A86
:10164000C7ED077A3A4BD3ED007AB0EEE77A394B23
:10165000D3ED007AF0EEE77AB4EEE77AF1EE10FA25
:1016600005DD334BD3ED007AF0EEE77A04E0314B41
:10167000D3ED007AF0EEE77AC7ED067A97ED077AB8
:10168000D7ED067AB4EEE77AF1EE10FA01DDFB69E8
:1016900000E0BB697B61284B1B6807EE903AF8EECF
:1016A000E77A97ED057AB4EEE77AF1EE10FA33DDDA
:1016B000214B1B6807EE903AF8EEE76A97ED057A42
:1016C000C6EE877AC7ED047A174B93ED007AD7ED13
:1016D000047A67EE277A144BC3ED007A134B93ED2F
:1016E000007AD7ED047A67EE277A104BC3ED007AC3
:1016F0000F4B93ED007AD7ED047A67EE277A0C4B07
:10170000C3ED007A0B4B93ED007AD7ED047A67EEC8
:10171000277A084BC3ED007A002318463437BD46BC
:101720005DF8047B704700BF64020020680200205F
:101730006C020020700200201C00002080B48DB0DC
:1017400000AFF860B9607A60FA68BB68D21A7B684B
:10175000134407EE903AF8EEE77AC7ED0B7AFA6891
:10176000BB681A447B68D31A07EE903AF8EEE77A22
:10177000C7ED0A7ABA68FB68D21A7B68134407EE91
:10178000903AF8EEE77AC7ED097AFA68BB681A442E
:101790007B68134407EE903AF8EEE77AC7ED087AD3
:1017A000504AFB6A1360D7ED0A7AF1EE677A4E4B26
:1017B000C3ED007A4D4A7B6A1360D7ED087AF1EEEB
:1017C000677A4B4BC3ED007A464BD3ED007AB0EE0F
:1017D000E77A454BD3ED007AF0EEE77AB4EEE77A9C
:1017E000F1EE10FA05DD3F4BD3ED007AF0EEE77A2B
:1017F00004E03D4BD3ED007AF0EEE77AC7ED077ACF
:101800003A4BD3ED007AB0EEE77A394BD3ED007A5C
:10181000F0EEE77AB4EEE77AF1EE10FA05DD334B3D
:10182000D3ED007AF0EEE77A04E0314BD3ED007AA5
:10183000F0EEE77AC7ED067A97ED077AD7ED067AEC
:10184000B4EEE77AF1EE10FA01DDFB6900E0BB6966
:101850007B61284B1B6807EE903AF8EEE77A97ED2C
:10186000057AB4EEE77AF1EE10FA33DD214B1B680E
:1018700007EE903AF8EEE76A97ED057AC6EE877ABA
:10188000C7ED047A174B93ED007AD7ED047A67EE33
:10189000277A144BC3ED007A134B93ED007AD7ED02
:1018A000047A67EE277A104BC3ED007A0F4B93ED65
:1018B000007AD7ED047A67EE277A0C4BC3ED007AF5
:1018C0000B4B93ED007AD7ED047A67EE277A084B3D
:1018D000C3ED007A002318463437BD465DF8047B1B
:1018E000704700BF64020020680200206C020020E4
:1018F000700200201C00002080B586B000AF786127
:101900000846114687ED030A1A4603467B820B46BA
:101910007B7413467B81D7ED037AF5EEC07AF1EE46
:1019200010FA0CDD7B8A012219461B4802F036FBB7
:101930007B8901221946184802F030FB1AE07B8AA5
:1019400000221946144802F029FB7B89002219461F
:10195000114802F023FBD7ED037AFDEEE77A17EE8C
:10196000903A002BB8BF5B4207EE903AF8EEE77A68
:10197000C7ED037A7B7CD7ED037AFCEEE77AC7EDFF
:10198000017A3A79D2B21946786901F06BFD00BF4D
:101990001837BD4680BD00BF0008024080B500AFCB
:1019A00001F00EFF00F070F800F0D2FB00F0D6F866
:1019B00000F004F90AF0F8FF00F0C8F900F09EFB0F
:1019C00000F032FA00F0AAFA00F002FB00F050FB3F
:1019D00000F02AF90021264805F05CFF0421244884
:1019E00005F058FF0821224805F054FF0C2120483B
:1019F00005F050FF00211F4805F04CFF04211D4851
:101A000005F048FF0C211B4805F044FF00211A484F
:101A100005F040FF0421184806F0B2FB164B1B6886
:101A20005A6C154B1B6842F400425A64002113485B
:101A300005F030FF0421114805F02CFF002110486B
:101A400005F028FF0F4801F023FB40F2DC52002193
:101A50000B4801F0FDFD4FF4FA7001F023FFFFF792
:101A60000BFBFFF77BFA0AF0C5FF00BFF9E700BFE9
:101A7000AC030020640300201C0300203C04002071
:101A800084040020CC04002080B594B000AF07F19E
:101A900020033022002118460CF09CF907F10C03BA
:101AA00000221A605A609A60DA601A610023BB60F3
:101AB000284B1B6C274A43F080531364254B1B6C47
:101AC00003F08053BB60BB6800237B60224B1B6824
:101AD000214A43F4804313601F4B1B6803F4804387
:101AE0007B607B6801233B624FF480337B6202237F
:101AF000BB634FF48003FB6308233B644FF4A8737C
:101B00007B640223BB640723FB6407F120031846B0
:101B100005F00EF80346002B01D000F041FC0F2326
:101B2000FB6002233B6100237B614FF4A053BB6148
:101B30004FF48053FB6107F10C030521184605F0B3
:101B40006FFA0346002B01D000F02AFC00BF50378B
:101B5000BD4680BD003802400070004080B500AF37
:101B6000134B144A1A60124B4FF400725A60104B18
:101B700000229A600E4B0022DA600D4B4FF4007287
:101B80001A610B4B0C4A5A61094B00229A61084BAF
:101B90000022DA61064B00221A62054804F028FB95
:101BA0000346002B01D000F0FBFB00BF80BD00BF4F
:101BB0007C020020003C00400077010080B500AFAF
:101BC000174B184A1A60164B4FF482725A60144B26
:101BD00000229A60124B0022DA60114B00221A6137
:101BE0000F4B00225A610E4B4FF400729A610C4B5E
:101BF0000022DA610A4B00221A62094B00225A6263
:101C0000074B00229A62064B0A22DA62044805F06A
:101C100069FD0346002B01D000F0C2FB00BF80BD70
:101C2000C40200200030014080B592B000AF07F13F
:101C3000400300221A605A6007F1240300221A6050
:101C40005A609A60DA601A615A619A613B1D2022DB
:101C5000002118460CF0BEF83A4B3B4A1A60394B4B
:101C600053225A60374B00229A60364B44F61F626B
:101C7000DA60344B00221A61324B00225A61314B38
:101C800000229A612F4805F0B6FD0346002B01D0D3
:101C900000F086FB00233B6400237B6407F14003D4
:101CA0001946284806F026FB0346002B01D000F019
:101CB00077FB60237B6240F2DC53BB620023FB6254
:101CC00000233B6300237B630023BB630023FB6390
:101CD00007F12403002219461A4805F013FF0346B2
:101CE000002B01D000F05CFB0023BB6207F1240352
:101CF00004221946134805F005FF0346002B01D0C6
:101D000000F04EFB00237B600023BB600023FB60E0
:101D100000233B6100237B614FF40053BB61002330
:101D20003B623B1D1946074806F060FB0346002B4B
:101D300001D000F035FB034800F0C8FE00BF483773
:101D4000BD4680BD1C0300200000014080B58AB064
:101D500000AF07F1200300221A605A603B1D0022E9
:101D60001A605A609A60DA601A615A619A612D4B62
:101D70004FF080421A602B4B53225A60294B0022AD
:101D80009A60284B44F61F62DA60264B00221A61E3
:101D9000244B00229A61234805F02DFD0346002BB9
:101DA00001D000F0FDFA00233B6200237B6207F1C3
:101DB000200319461B4806F09DFA0346002B01D06C
:101DC00000F0EEFA60237B600023BB600023FB6021
:101DD00000237B613B1D00221946124805F092FE4C
:101DE0000346002B01D000F0DBFA3B1D042219460C
:101DF0000C4805F087FE0346002B01D000F0D0FA16
:101E00003B1D0C221946074805F07CFE0346002BBB
:101E100001D000F0C5FA034800F058FE00BF283793
:101E2000BD4680BD6403002080B58AB000AF07F1D5
:101E3000200300221A605A603B1D00221A605A607B
:101E40009A60DA601A615A619A61324B324A1A60BA
:101E5000304B00225A602F4B00229A602D4B41F2EA
:101E60006702DA602B4B00221A612A4B00229A612A
:101E7000284805F0C0FC0346002B01D000F090FA82
:101E800000233B6200237B6207F1200319462148AF
:101E900006F030FA0346002B01D000F081FA6023EF
:101EA0007B600023BB600023FB6000237B613B1D44
:101EB00000221946174805F025FE0346002B01D0E5
:101EC00000F06EFA3B1D04221946124805F01AFE76
:101ED0000346002B01D000F063FA3B1D082219468F
:101EE0000C4805F00FFE0346002B01D000F058FA15
:101EF0003B1D0C221946074805F004FE0346002B43
:101F000001D000F04DFA034800F0E0FD00BF283793
:101F1000BD4680BDAC0300200004004080B58AB0FF
:101F200000AF07F1200300221A605A603B1D002217
:101F30001A605A609A60DA601A615A619A61224B9B
:101F4000224A1A60204B53225A601F4B00229A608B
:101F50001D4B40F2E732DA601B4B00221A611A4B2C
:101F600080229A61184805F046FC0346002B01D0F8
:101F700000F016FA00233B6200237B6207F1200386
:101F80001946114806F0B6F90346002B01D000F0BF
:101F900007FA60237B604FF4FA73BB600023FB6099
:101FA00000237B613B1D08221946074805F0AAFD66
:101FB0000346002B01D000F0F3F9034800F086FD42
:101FC00000BF2837BD4680BDF40300200008004054
:101FD00080B588B000AF3B1D00221A605A609A603D
:101FE000DA601A615A619A611F4B204A1A601E4BCF
:101FF000A7225A601C4B00229A601B4B44F61F62BA
:10200000DA60194B00221A61174B00229A611648B8
:1020100005F0F1FB0346002B01D000F0C1F960236D
:102020007B600023BB600023FB6000237B613B1DC2
:10203000002219460C4805F065FD0346002B01D02F
:1020400000F0AEF93B1D04221946074805F05AFD81
:102050000346002B01D000F0A3F9034800F036FD41
:1020600000BF2037BD4680BD3C0400200040014039
:1020700080B588B000AF3B1D00221A605A609A609C
:10208000DA601A615A619A611A4B1B4A1A60194B3D
:1020900053225A60174B00229A60164B44F61F6277
:1020A000DA60144B00221A61124B00229A61114827
:1020B00005F0A1FB0346002B01D000F071F960236D
:1020C0007B6040F2DC53BB600023FB6000237B613C
:1020D0003B1D00221946074805F014FD0346002B5E
:1020E00001D000F05DF9034800F0F0FC00BF20379C
:1020F000BD4680BD840400200018004080B500AFBC
:10210000114B124A1A60104B4FF4E1325A600E4BD9
:1021100000229A600C4B0022DA600B4B00221A61FD
:10212000094B0C225A61084B00229A61064B00228F
:10213000DA61054806F0D1F90346002B01D000F022
:102140002FF900BF80BD00BFCC0400200044004038
:1021500080B58CB000AF07F11C0300221A605A60F2
:102160009A60DA601A610023BB61874B1B6B864A59
:1021700043F010031363844B1B6B03F01003BB612C
:10218000BB6900237B61804B1B6B7F4A43F00403D8
:1021900013637D4B1B6B03F004037B617B6900239E
:1021A0003B61794B1B6B784A43F080031363764B9A
:1021B0001B6B03F080033B613B690023FB60724BA8
:1021C0001B6B714A43F0010313636F4B1B6B03F0EE
:1021D0000103FB60FB680023BB606B4B1B6B6A4A0F
:1021E00043F002031363684B1B6B03F00203BB60F5
:1021F000BB6800237B60644B1B6B634A43F008039E
:102200001363614B1B6B03F008037B607B68002248
:1022100041F288015D4801F0C1FE012201215C48C4
:1022200001F0BCFE002240F22631594801F0B6FE12
:1022300000224FF43041574801F0B0FE00224FF227
:102240001B61554801F0AAFE0423FB6100233B6299
:1022500002237B6207F11C0319464C4801F0EAFC9B
:1022600041F28803FB6101233B6200237B62002370
:10227000BB6207F11C031946444801F0DBFC40F245
:102280002733FB6101233B6200237B620023BB6297
:1022900007F11C0319463E4801F0CCFC0823FB6102
:1022A00002233B6200237B620023BB620523FB62A7
:1022B00007F11C031946364801F0BCFC0123FB6101
:1022C0004FF490133B6200237B6207F11C03194615
:1022D000324801F0AFFC0423FB6100233B62002382
:1022E0007B6207F11C0319462A4801F0A3FC4FF456
:1022F0008063FB6102233B6200237B620023BB629D
:102300000523FB6207F11C031946224801F092FCE9
:102310004FF43043FB6101233B6200237B620023C7
:10232000BB6207F11C0319461A4801F083FC4FF207
:102330001B63FB6101233B6200237B620023BB62C2
:1023400007F11C031946144801F074FC2023FB61BB
:1023500000233B6200237B6207F11C0319460E48F1
:1023600001F068FC0223FB614FF490133B620023F1
:102370007B6207F11C031946044801F05BFC00BFB7
:102380003037BD4680BD00BF00380240001002401B
:102390000008024000040240000C0240000002401D
:1023A00080B400AF72B600BF00BFFDE780B500AFDC
:1023B000154B37221A60154B2A221A60144B002243
:1023C0001A60144B00221A600F4B1B68DBB21A46CE
:1023D0000021114801F096F800210F4805F05AFA43
:1023E000962001F05FFA094B1B68DBB21A46042104
:1023F000094801F0EFF80421074805F04BFA962050
:1024000001F050FA00BF80BD3000002034000020F1
:1024100014050020180500203C04002080B500AF02
:1024200000F004F800F07EF900BF80BD80B582B0F6
:1024300000AF01F02BFA7860954B1B7803F0100386
:10244000DBB2002B2AD0934B1B7883F00103DBB265
:10245000002B23D0904B1B78002B14BF01230023AB
:10246000DBB283F00103DBB203F00103DAB28A4B83
:102470001A70894B1B78002B07D0884B40F61B0243
:102480001A60874B2A221A6008E0844B854A1A603A
:10249000834B80221A60844B01221A707C4B1B787C
:1024A000C3F30013DBB2002B14BF01230023DAB205
:1024B000784B1A70764B1B7803F00203DBB2002BCB
:1024C0000BD07A4B1B7883F00103DBB2002B04D0D6
:1024D000724B1B68323B714A13606D4B1B7803F0E3
:1024E0000103DBB2002B0BD0714B1B7883F001038F
:1024F000DBB2002B04D0694B1B683233674A136090
:10250000634B1B7803F04003DBB2002B0CD0694B0C
:102510001B7883F00103DBB2002B05D05F4B002258
:102520001A605F4B80221A60594B1B7803F04003FE
:10253000DBB2002B0CD05F4B1B7883F00103DBB2C6
:10254000002B05D0554B00221A60554B80221A6093
:102550004F4B1B78C3F30003DBB2002B14BF0123E6
:102560000023DAB2524B1A70494B1B78C3F3400375
:10257000DBB2002B14BF01230023DAB24B4B1A70DD
:10258000434B1B78C3F30013DBB2002B14BF0123B2
:102590000023DAB23F4B1A703D4B1B78C3F3801314
:1025A000DBB2002B14BF01230023DAB2414B1A70B7
:1025B000414B1A68394B1B689A421ADA00224FF4D1
:1025C00080513E4801F076F83D4B1B7883F00103C3
:1025D000DBB2002B39D041F270720821394801F08A
:1025E00081F80821374805F055F9354B01221A705A
:1025F0002BE0314B1A68294B1B689A421ADD0122E5
:102600004FF480512D4801F055F82D4B1B7883F085
:102610000103DBB2002B18D041F270720821294867
:1026200001F060F80821274805F034F9244B012215
:102630001A700AE0224B1B78002B06D00821214893
:1026400005F0F0F91E4B00221A701F4B1B687A68C8
:102650009A425AD01C4A7B681360194B1B78002B96
:1026600053D0154B1A680D4B1B689A4230DA124B47
:102670001B680133104A13600F4B1B68B3F57A7F58
:1026800043DD2A220421114800F0A4FF3DE000BFF1
:102690006C050020260500202705002020050020CD
:1026A0001C05002024FAFFFF280500202905002032
:1026B0002A0500202B0500201805002000100240EC
:1026C00025050020F40300202C0500203C040020F8
:1026D000104B1A68104B1B689A4216DD0D4B1B6895
:1026E000013B0C4A13600D4B1B78002B0DD0094B9E
:1026F0001B6840F6B732934207DC80220421084869
:1027000000F068FF054B00221A7000BF0837BD4675
:1027100080BD00BF180500202005002028050020EE
:102720003C04002080B582B000AF244B1B7823F01E
:102730007F03DBB2002B12D0214B1B78002B0ED174
:10274000204B1B78002B14BF01230023DBB283F046
:102750000103DBB203F00103DAB21A4B1A70174B14
:102760001B78C3F3C013DBB21A46154B1A70154B16
:102770001B78002B0AD001220121134801F00EFC26
:1027800000220221104801F009FC09E00022012189
:102790000D4801F003FC012202210B4801F0FEFB71
:1027A0000121094801F0E2FB03467B607968074894
:1027B0000BF0C8F900BF0837BD4680BD6C0500208E
:1027C0003005002024050020000C02403CFA0008DF
:1027D00080B582B000AF00237B60104B5B6C0F4A6A
:1027E00043F4804353640D4B5B6C03F480437B6084
:1027F0007B6800233B60094B1B6C084A43F0805305
:102800001364064B1B6C03F080533B603B6807204E
:1028100001F03CF900BF0837BD4680BD00380240DA
:1028200080B58EB000AF786007F1240300221A60F3
:102830005A609A60DA601A6107F1140300221A6084
:102840005A609A60DA607B681B68314A93425AD1B9
:1028500001237B61C023BB610223FB6107F11403E9
:10286000184604F0FDFD0346002B01D0FFF798FD4C
:1028700000233B61274B1B6C264A43F4004313643F
:10288000244B1B6C03F400433B613B690023FB605A
:10289000204B1B6B1F4A43F0010313631D4B1B6B43
:1028A00003F00103FB60FB680023BB60194B1B6B4B
:1028B000184A43F004031363164B1B6B03F0040325
:1028C000BB60BB6810237B620223BB620023FB62F8
:1028D00000233B6306237B6307F1240319460E485C
:1028E00001F0A8F94FF4A4537B620223BB620023DA
:1028F000FB6200233B6306237B6307F12403194635
:10290000064801F097F900BF3837BD4680BD00BFCB
:10291000003C004000380240000002400008024035
:1029200080B58AB000AF786007F1140300221A6006
:102930005A609A60DA601A617B681B68194A934290
:102940002BD100233B61184B5B6C174A43F4805337
:102950005364154B5B6C03F480533B613B6900236C
:10296000FB60114B1B6B104A43F0010313630E4BCA
:102970001B6B03F00103FB60FB68E0237B61022318
:10298000BB610023FB6100233B6205237B6207F1EF
:1029900014031946054801F04DF900BF2837BD461C
:1029A00080BD00BF003001400038024000000240FE
:1029B00080B489B000AF78607B681B683D4A934261
:1029C0000ED10023FB613C4B5B6C3B4A43F001039F
:1029D0005364394B5B6C03F00103FB61FB6962E0FC
:1029E0007B681B68B3F1804F0ED10023BB61324B73
:1029F0001B6C314A43F0010313642F4B1B6C03F033
:102A00000103BB61BB694EE07B681B682B4A9342A4
:102A10000ED100237B61284B1B6C274A43F0020335
:102A20001364254B1B6C03F002037B617B693AE066
:102A30007B681B68224A93420ED100233B611E4BE8
:102A40001B6C1D4A43F0040313641B4B1B6C03F007
:102A500004033B613B6926E07B681B68194A93428B
:102A60000ED10023FB60144B5B6C134A43F480339C
:102A70005364114B5B6C03F48033FB60FB6812E022
:102A80007B681B68104A93420DD10023BB600A4B40
:102A90001B6C094A43F040031364074B1B6C03F0A3
:102AA0004003BB60BB6800BF2437BD465DF8047BB4
:102AB000704700BF000001400038024000040040A1
:102AC00000080040004001400018004080B590B070
:102AD00000AF786007F12C0300221A605A609A60F8
:102AE000DA601A617B681B688C4A93421FD100230D
:102AF000BB628B4B1B6B8A4A43F010031363884BFA
:102B00001B6B03F01003BB62BB6A4FF4C063FB6234
:102B100002233B6300237B630023BB630123FB632E
:102B200007F12C0319467F4801F084F8F2E07B6836
:102B30001B68B3F1804F3ED100237B62784B1B6B47
:102B4000774A43F001031363754B1B6B03F00103DA
:102B50007B627B6A00233B62714B1B6B704A43F0C4
:102B6000020313636E4B1B6B03F002033B623B6A71
:102B700048F20203FB6202233B6300237B630023D2
:102B8000BB630123FB6307F12C031946664801F080
:102B900051F84FF40063FB6202233B6300237B6325
:102BA0000023BB630123FB6307F12C0319465F4835
:102BB00001F040F8AEE07B681B685D4A93423CD16F
:102BC0000023FB61564B1B6B554A43F00203136312
:102BD000534B1B6B03F00203FB61FB690023BB61DA
:102BE0004F4B1B6B4E4A43F0040313634C4B1B6B60
:102BF00003F00403BB61BB692323FB6202233B6335
:102C000000237B630023BB630223FB6307F12C03D8
:102C10001946464801F00EF84023FB6202233B634D
:102C200000237B630023BB630223FB6307F12C03B8
:102C30001946404800F0FEFF6CE07B681B683E4A86
:102C400093421FD100237B61354B1B6B344A43F009
:102C500002031363324B1B6B03F002037B617B693E
:102C60004FF48073FB6202233B6300237B630023EA
:102C7000BB630223FB6307F12C0319462B4800F0CA
:102C8000D9FF47E07B681B682C4A93421ED1002382
:102C90003B61234B1B6B224A43F010031363204B11
:102CA0001B6B03F010033B613B696023FB62022353
:102CB0003B6300237B630023BB630323FB6307F1B8
:102CC0002C031946174800F0B5FF23E07B681B680A
:102CD0001B4A93421ED10023FB60114B1B6B104A11
:102CE00043F0020313630E4B1B6B03F00203FB6004
:102CF000FB684FF48043FB6202233B6300237B634A
:102D00000023BB630923FB6307F12C031946074823
:102D100000F090FF00BF4037BD4680BD000001407D
:102D2000003802400010024000000240000402404F
:102D3000000400400008024000080040004001403C
:102D40000018004080B58AB000AF786007F1140326
:102D500000221A605A609A60DA601A617B681B6808
:102D60001D4A934233D100233B611C4B1B6C1B4A11
:102D700043F400331364194B1B6C03F400333B61C1
:102D80003B690023FB60154B1B6B144A43F00103A6
:102D90001363124B1B6B03F00103FB60FB680C23F6
:102DA0007B610223BB610023FB6103233B6207239A
:102DB0007B6207F114031946094800F03BFF00222B
:102DC0000021262000F06DFE262000F086FE00BFC8
:102DD0002837BD4680BD00BF004400400038024097
:102DE0000000024080B400AF00BFFDE780B400AF38
:102DF00000BFFDE780B400AF00BFFDE780B400AFC7
:102E000000BFFDE780B400AF00BFFDE780B400AFB6
:102E100000BFBD465DF8047B704780B400AF00BFC3
:102E2000BD465DF8047B704780B400AF00BFBD466F
:102E30005DF8047B704780B500AF00F013FD00BF64
:102E400080BD000080B500AF024805F047FC00BF20
:102E500080BD00BFCC04002080B500AF024801F067
:102E600073FB00BF80BD00BF8009002080B582B029
:102E700000AF78607B681B68044A934202D178688F
:102E800000F022F900BF0837BD4680BD0044004075
:102E900080B483B000AF0346FB710F4B1B680E4A32
:102EA00043F0807313600D4B1B680C4A43F0010321
:102EB000136000BF4FF060431B6803F00103002B59
:102EC000F8D04FF06042FB79136000BF0C37BD466D
:102ED0005DF8047B704700BFFCED00E0000E00E0F1
:102EE00080B400AF01231846BD465DF8047B7047EF
:102EF00080B582B000AF786039600AF0CDFF03463C
:102F000016221A604FF0FF3318460837BD4680BDC1
:102F100080B582B000AF78604FF0FF317868FFF77E
:102F2000E7FF00BFFDE780B586B000AFF860B9608D
:102F30007A6000237B610AE0AFF300800146BB6842
:102F40005A1CBA60CAB21A707B6901337B617A6914
:102F50007B689A42F0DB7B6818461837BD4680BD17
:102F600080B586B000AFF860B9607A6000237B61FD
:102F700009E0BB685A1CBA601B781846FFF788FF47
:102F80007B6901337B617A697B689A42F1DB7B68FC
:102F900018461837BD4680BD80B483B000AF786056
:102FA0004FF0FF3318460C37BD465DF8047B704781
:102FB00080B483B000AF786039603B684FF4005252
:102FC0005A60002318460C37BD465DF8047B7047F5
:102FD00080B483B000AF7860012318460C37BD463B
:102FE0005DF8047B704780B485B000AFF860B960CD
:102FF0007A60002318461437BD465DF8047B70479D
:1030000080B586B000AF7860144A154BD31A7B6147
:103010007B693B61134B1B68002B02D1114B124A99
:103020001A60104B1A687B6813443A699A4207D2B7
:103030000AF032FF03460C221A604FF0FF3309E01A
:10304000084B1B68FB60074B1A687B681344054AF2
:103050001360FB6818461837BD4680BD000002208B
:103060000004000034050020B00E002080B400AF42
:10307000064BD3F88830054A43F47003C2F8883011
:1030800000BFBD465DF8047B704700BF00ED00E067
:1030900080B582B000AF7860084A7B68136000F0AA
:1030A000F5FB0346064A136001220649786805F0DD
:1030B000EFFA00BF0837BD4680BD00BF9C05002069
:1030C0009405002070050020B0B584B000AF786092
:1030D000534B1B78022B50D0022B00F39880002B0F
:1030E00002D0012B16D092E04E4B1B78AA2B06D1B2
:1030F0004D4BAA221A704A4B01221A7082E0494BAA
:103100001B78BB2B7ED1484BBB221A70444B01224B
:103110001A7077E0434B1A78444B1A70424B1B7875
:10312000AA2B17D1414B1B781A2B06D1404B0022FA
:103130001A703B4B02221A7066E01523FB7307F1ED
:103140000F0105230122786805F017FA344B00229D
:103150001A7059E0344B1B78BB2B55D1334B1B787D
:10316000012B06D1324B00221A702D4B02221A700D
:103170004AE02B4B00221A7046E02D4B1B785A1C5C
:10318000D1B22B4A11701A46264B1978294B995403
:10319000274B1A78254B1B789A4237D3224B1B7842
:1031A000AA2B20D1244A234B14461D460FCD0FC411
:1031B00095E8070003C4228000F012F9AC23BB732A
:1031C00007F10E0105230122786805F0D6F900F019
:1031D0005DFB0346194A1360194B00221A70194B04
:1031E00001221A700AE0104B1B78BB2B06D1114B41
:1031F0001A78154B1A70154B01221A70084B0022D1
:103200001A7003E000BF02E000BF00E000BF01222F
:103210000449786805F03CFA00BF1037BD46B0BDE0
:103220006F05002070050020900500208F0500200C
:103230008E0500207405002038050020940500202C
:10324000980500206E0500209A05002099050020B1
:1032500080B582B000AF3F4B1B78DBB2002B41D072
:103260003C4B00221A703C4B1B78DBB219463B48A2
:103270000AF068FC384B1B78DBB2013B082B2DD8D9
:1032800001A252F823F000BFAD320008DD32000881
:10329000B5320008BD320008DD320008C532000832
:1032A000CD320008DD320008D53200082C480AF083
:1032B000B1FC17E02B480AF0ADFC13E02A480AF0F5
:1032C000A9FC0FE029480AF0A5FC0BE028480AF009
:1032D000A1FC07E027480AF09DFC03E026480AF01D
:1032E00099FC00BF00F0D2FA0246244B1B68D31AA7
:1032F0007B607B68B3F5967F27D9214B1B78002B29
:1033000023D100F04FF81F4B4FF000021A601E4B04
:103310004FF000021A601D4B4FF000021A601C4B68
:103320004FF000021A601B4B4FF000021A601A4B5C
:103330004FF000021A60194B00221A80104B012234
:103340001A70796816480AF0FDFB00BF0837BD46C1
:1033500080BD00BF990500209A0500204CFA0008A6
:103360006CFA00087CFA00088CFA00089CFA000845
:10337000A8FA0008B8FA0008C8FA00089405002066
:103380009805002054050020580500205C05002009
:103390006005002064050020680500206C05002001
:1033A000D4FA000880B500AF0B4B1B6800225A63AB
:1033B000094B1B6800229A63074B1B680022DA63E3
:1033C000054B1B6800221A64002240F206310348B4
:1033D00000F0E4FD00BF80BDAC0300200008024007
:1033E00080B400AF134B144A12881A80124BD3F8E2
:1033F0000230124A1360104BD3F80630104A1360A3
:103400000D4BD3F80A300F4A13600B4BD3F80E3034
:103410000D4A1360084BD3F812300C4A1360064B68
:10342000D3F816300A4A136000BFBD465DF8047B2E
:10343000704700BF6C0500203805002054050020AF
:10344000580500205C050020600500206405002070
:103450006805002080B500AF00F018FA0346184652
:1034600080BD000080B487B000AFF860B96013463B
:10347000FB71FB681B68DB6A7B61BB68002B0CD1AE
:10348000FB797A69013203FB02F2FB681B681C4975
:10349000A1FB0212D2095A632BE0BB68042B0CD1AA
:1034A000FB797A69013202FB03F3FA681268144966
:1034B000A1FB0313DB0993631BE0BB68082B0CD152
:1034C000FB797A69013202FB03F3FA6812680C494E
:1034D000A1FB0313DB09D3630BE0FB797A690132AB
:1034E00002FB03F3FA6812680549A1FB0313DB0929
:1034F000136400BF1C37BD465DF8047B704700BFF6
:103500008180808080B483B000AF78600B46FB7010
:103510001346BB70BB78B42B01D9B423BB70FB78C6
:10352000002B11D1BB784FF47A7202FB03F3284AC7
:1035300082FB03121A44D211DB17D31A03F57A72F5
:103540007B681B685A633DE0FB78042B12D1BB7883
:103550004FF47A7202FB03F31D4A82FB03121A44F2
:10356000D211DB17D31A03F57A717B681A680B4600
:10357000936327E0FB78082B12D1BB784FF47A7263
:1035800002FB03F3124A82FB03121A44D211DB1727
:10359000D31A03F57A717B681A680B46D36311E07E
:1035A000BB784FF47A7202FB03F3094A82FB0312E1
:1035B0001A44D211DB17D31A03F57A717B681A68A3
:1035C0000B46136400BF0C37BD465DF8047B7047A3
:1035D000B7600BB680B487B000AFF860B96013462F
:1035E000FB71FB79B42B01D9B423FB71FB794FF448
:1035F000FA6202FB03F39B08144AA2FB03239B0815
:103600009BB203F5FA73FB82BB68002B04D1FB6805
:103610001B68FA8A5A6313E0BB68042B04D1FB6869
:103620001A68FB8A93630BE0BB68082B04D1FB6824
:103630001A68FB8AD36303E0FB681A68FB8A136489
:1036400000BF1C37BD465DF8047B7047176CC11680
:1036500080B485B000AFF860B9601346FB80FB888A
:10366000B3F57A7F20D3FB88B3F5FA6F1CD8BB681B
:10367000002B04D1FB681B68FA885A6315E0BB680D
:10368000042B04D1FB681A68FB8893630DE0BB68C8
:10369000082B04D1FB681A68FB88D36305E0FB683C
:1036A0001A68FB88136400E000BF1437BD465DF85C
:1036B000047B704780B582B000AF78600B467B809A
:1036C00013467B707B78012B0CBF01230023DBB2F8
:1036D0001A467B881946786800F060FC00BF0837FE
:1036E000BD4680BD80B487B000AFF860B9607A6035
:1036F0007B68092B01D80A237B601B4A7B68B2FBDD
:10370000F3F3013B7B61FB681B687A69DA62FB6853
:103710007A69DA60BB68002B05D1FB681B687A699F
:1037200052085A6316E0BB68042B05D1FB681A687F
:103730007B695B0893630DE0BB68082B05D1FB68D0
:103740001A687B695B08D36304E0FB681A687B69CD
:103750005B081364FB681B6801225A6100BF1C37B9
:10376000BD465DF8047B704740420F00DFF834D05F
:10377000FFF77CFC0C480D490D4A002302E0D458A9
:10378000C4500433C4188C42F9D30A4A0A4C0023AB
:1037900001E013600432A242FBD30AF083FBFEF780
:1037A000FDF8704700000220000000202C020020DD
:1037B000ACFE00082C020020AC0E0020FEE700004A
:1037C00080B500AF0E4B1B680D4A43F400731360C5
:1037D0000B4B1B680A4A43F480631360084B1B6859
:1037E000074A43F480731360032000F04FF9002070
:1037F00000F008F8FEF7ECFF0023184680BD00BF7C
:10380000003C024080B582B000AF7860124B1A686D
:10381000124B1B7819464FF47A73B3FBF1F3B2FBEA
:10382000F3F3184600F067F90346002B01D001239B
:103830000EE07B680F2B0AD8002279684FF0FF302A
:1038400000F02FF9064A7B681360002300E0012393
:1038500018460837BD4680BD3800002040000020D3
:103860003C00002080B400AF064B1B781A46064B84
:103870001B681344044A136000BFBD465DF8047B17
:10388000704700BF40000020A005002080B400AFBA
:10389000034B1B681846BD465DF8047B704700BFAC
:1038A000A005002080B584B000AF7860FFF7EEFF80
:1038B000B8607B68FB60FB68B3F1FF3F05D00A4B43
:1038C0001B781A46FB681344FB6000BFFFF7DEFF5E
:1038D0000246BB68D31AFA689A42F7D800BF00BF05
:1038E0001037BD4680BD00BF4000002080B485B0C9
:1038F00000AF78607B6803F00703FB600C4BDB686C
:10390000BB60BA684FF6FF031340BB60FB681A0246
:10391000BB68134343F0BF6343F40033BB60044A06
:10392000BB68D36000BF1437BD465DF8047B7047A9
:1039300000ED00E080B400AF044BDB681B0A03F02D
:1039400007031846BD465DF8047B704700ED00E0B4
:1039500080B483B000AF0346FB7197F90730002BAA
:103960000BDBFB7903F01F02074997F907305B096E
:10397000012000FA02F241F8232000BF0C37BD46B7
:103980005DF8047B704700BF00E100E080B483B0C5
:1039900000AF03463960FB7197F90730002B0ADB53
:1039A0003B68DAB20C4997F907301201D2B20B44E6
:1039B00083F800230AE03B68DAB20849FB7903F098
:1039C0000F03043B1201D2B20B441A7600BF0C372E
:1039D000BD465DF8047B704700E100E000ED00E0CB
:1039E00080B489B000AFF860B9607A60FB6803F01A
:1039F0000703FB61FB69C3F10703042B28BF042302
:103A0000BB61FB690433062B02D9FB69033B00E071
:103A100000237B614FF0FF32BB6902FA03F3DA4304
:103A2000BB681A407B699A404FF0FF317B6901FA0D
:103A300003F3D9437B680B40134318462437BD4634
:103A40005DF8047B7047000080B582B000AF7860FD
:103A50007B68013BB3F1807F01D301230FE00A4A69
:103A60007B68013B53600F214FF0FF30FFF78EFF63
:103A7000054B00229A60044B07221A600023184667
:103A80000837BD4680BD00BF10E000E080B582B0C1
:103A900000AF78607868FFF729FF00BF0837BD46A0
:103AA00080BD80B586B000AF0346B9607A60FB7315
:103AB00000237B61FFF73EFF78617A68B968786917
:103AC000FFF78EFF024697F90F3011461846FFF7B1
:103AD0005DFF00BF1837BD4680BD80B582B000AF26
:103AE0000346FB7197F907301846FFF731FF00BF17
:103AF0000837BD4680BD80B582B000AF7860786879
:103B0000FFF7A2FF034618460837BD4680BD80B5C3
:103B100084B000AF78607B689B6DFB60FFF7B6FEFA
:103B2000B8607B6893F83530DBB2022B08D07B6835
:103B300080225A657B68002283F83420012352E0FA
:103B40007B681B681A687B681B6822F016021A6083
:103B50007B681B685A697B681B6822F080025A6187
:103B60007B681B6C002B03D17B689B6C002B07D000
:103B70007B681B681A687B681B6822F008021A6061
:103B80007B681B681A687B681B6822F001021A6058
:103B900013E0FFF77BFE0246BB68D31A052B0CD956
:103BA0007B6820225A657B68032283F835207B6876
:103BB000002283F83420032315E07B681B681B6810
:103BC00003F00103002BE4D17B68DB6D3F229A40B8
:103BD000FB689A607B68012283F835207B680022AD
:103BE00083F83420002318461037BD4680BD80B4CA
:103BF00083B000AF78607B6893F83530DBB2022B7E
:103C000004D07B6880225A6501230CE07B68052282
:103C100083F835207B681B681A687B681B6822F074
:103C200001021A60002318460C37BD465DF8047B7C
:103C30007047000080B489B000AF7860396000231D
:103C40007B6100233B610023BB610023FB616BE1CF
:103C50000122FB6902FA03F37B613B681B687A6906
:103C600013403B613A697B699A4240F05A813B6854
:103C70005B6803F00303012B05D03B685B6803F02E
:103C80000303022B30D17B689B68BB61FB695B003F
:103C9000032202FA03F3DB43BA691340BB613B68BA
:103CA000DA68FB695B0002FA03F3BA691343BB618C
:103CB0007B68BA699A607B685B68BB610122FB69BB
:103CC00002FA03F3DB43BA691340BB613B685B68EC
:103CD0001B0903F00102FB6902FA03F3BA691343FB
:103CE000BB617B68BA695A603B685B6803F0030399
:103CF000032B17D07B68DB68BB61FB695B00032289
:103D000002FA03F3DB43BA691340BB613B689A686C
:103D1000FB695B0002FA03F3BA691343BB617B687A
:103D2000BA69DA603B685B6803F00303022B23D1B6
:103D3000FB69DA087B68083253F82230BB61FB6903
:103D400003F007039B000F2202FA03F3DB43BA6977
:103D50001340BB613B681A69FB6903F007039B00D2
:103D600002FA03F3BA691343BB61FB69DA087B68A3
:103D70000832B96943F822107B681B68BB61FB6994
:103D80005B00032202FA03F3DB43BA691340BB6111
:103D90003B685B6803F00302FB695B0002FA03F314
:103DA000BA691343BB617B68BA691A603B685B6898
:103DB00003F44033002B00F0B4800023FB60604B21
:103DC0005B6C5F4A43F4804353645D4B5B6C03F46C
:103DD0008043FB60FB685B4AFB699B08023352F837
:103DE0002330BB61FB6903F003039B000F2202FA3F
:103DF00003F3DB43BA691340BB617B68524A9342C9
:103E00002BD07B68514A934225D07B68504A93421D
:103E10001FD07B684F4A934219D07B684E4A934229
:103E200013D07B684D4A93420DD07B684C4A934235
:103E300007D07B684B4A934201D107230EE0082349
:103E40000CE006230AE0052308E0042306E0032330
:103E500004E0022302E0012300E00023FA6902F0FB
:103E6000030292009340BA691343BB613549FB6971
:103E70009B080233BA6941F823203B4B9B68BB6126
:103E80003B69DB43BA691340BB613B685B6803F481
:103E90008013002B03D0BA693B691343BB61324ADC
:103EA000BB699360304BDB68BB613B69DB43BA693C
:103EB0001340BB613B685B6803F40013002B03D025
:103EC000BA693B691343BB61274ABB69D360264B80
:103ED0005B68BB613B69DB43BA691340BB613B680C
:103EE0005B6803F40033002B03D0BA693B691343CA
:103EF000BB611D4ABB6953601B4B1B68BB613B69BF
:103F0000DB43BA691340BB613B685B6803F48033F1
:103F1000002B03D0BA693B691343BB61124ABB69EA
:103F20001360FB690133FB61FB690F2B7FF690AED9
:103F300000BF00BF2437BD465DF8047B704700BF5B
:103F400000380240003801400000024000040240F6
:103F500000080240000C0240001002400014024021
:103F600000180240001C0240003C014080B485B0B3
:103F700000AF78600B467B807B681A697B881340B2
:103F8000002B02D00123FB7301E00023FB73FB7BBA
:103F900018461437BD465DF8047B704780B483B083
:103FA00000AF78600B467B8013467B707B78002BDC
:103FB00003D07A887B689A6103E07B881A047B6867
:103FC0009A6100BF0C37BD465DF8047B704780B531
:103FD00086B002AF78607B68002B01D1012359E0E5
:103FE0007B681B68FB607B6893F8D533DBB2002BE2
:103FF00006D17B68002283F8D423786808F032FD6C
:104000007B68032283F8D523FB68B3F1A04F02D16C
:104010007B6800229A717B681B68184605F03FFB9D
:104020007B6818687B681A7C8DF8002004330ECBFF
:1040300005F0C0FA0346002B05D07B68022283F806
:10404000D523012326E07B681B680121184605F073
:1040500037FB0346002B05D07B68022283F8D5236B
:10406000012317E07B6818687B681A7C8DF80020B4
:1040700004330ECB05F0E0FC0346002B05D07B6833
:10408000022283F8D523012304E07B68012283F810
:10409000D523002318461037BD4680BD90B58BB0A0
:1040A00004AF7860084611461A460346FB700B467B
:1040B000BB7013467B703B8E7B617B6893F8D43377
:1040C000012B01D102239DE07B68012283F8D423D8
:1040D000FA78796813461B019B1A9B000B4419332D
:1040E00000221A70FA78796813461B019B1A9B000C
:1040F0000B4414337A781A70FA78796813461B01E6
:104100009B1A9B000B441533FA781A70FA78796879
:1041100013461B019B1A9B000B44263397F82C2057
:104120001A70FA78BB7803F07F03D8B27968134627
:104130001B019B1A9B000B44163302461A70FB7836
:104140001946786800F0A4FB97F90230002B0ADAD0
:10415000FA78796813461B019B1A9B000B441733AE
:1041600001221A7009E0FA78796813461B019B1A3C
:104170009B000B44173300221A707B681B6818469B
:1041800005F0BEFD386197F82C30012B0BD197F864
:104190002830012B07D13B69002B04D17B69BC2B54
:1041A00001D9BC237B61FA78796813461B019B1AFD
:1041B0009B000B44183397F828201A70FA787B6913
:1041C00098B2796813461B019B1A9B000B44283355
:1041D00002461A807B6818687B699BB27C78BA7843
:1041E000F978029397F82C30019397F828300093D0
:1041F000234605F0ADFD0346FB737B68002283F880
:10420000D423FB7B18461C37BD4690BD80B582B0D9
:1042100000AF7860084611461A460346FB700B460D
:10422000BB7013467B70FA78796813461B019B1AA2
:104230009B000B441733BA781A70FA7879681346E2
:104240001B019B1A9B000B4426337A781A703B7C27
:10425000002B14D1FA78796813461B019B1A9B0036
:104260000B442A3303221A70FA78796813461B012B
:104270009B1A9B000B4419333A7F1A7009E0FA78B5
:10428000796813461B019B1A9B000B442A330222B8
:104290001A707B78032B00F2028101A252F823F0FE
:1042A000B14200088944000875430008FF43000834
:1042B0003B7C012B40F0F580BB78002B2DD13B8B54
:1042C000002B09D1FA78796813461B019B1A9B00D1
:1042D0000B443D3301221A70FA78796813461B01AA
:1042E0009B1A9B000B443D331B78002B0AD1FA78B4
:1042F000796813461B019B1A9B000B442A3300224A
:104300001A70CEE0FA78796813461B019B1A9B005D
:104310000B442A3302221A70C3E0FA7879681346F4
:104320001B019B1A9B000B441A331B78012B40F096
:10433000B880FA78796813461B019B1A9B000B44DE
:104340003C331B78002B0AD1FA78796813461B019D
:104350009B1A9B000B442A3300221A70A1E0FA78C2
:10436000796813461B019B1A9B000B442A330222D7
:104370001A7096E0BB78002B20D1FA787968134642
:104380001B019B1A9B000B443D331B78002B0AD169
:10439000FA78796813461B019B1A9B000B442A3359
:1043A00000221A707EE0FA78796813461B019B1A86
:1043B0009B000B442A3302221A7073E0FA78796862
:1043C00013461B019B1A9B000B443C331B78002BAC
:1043D0000AD1FA78796813461B019B1A9B000B449B
:1043E0002A3300221A705DE0FA78796813461B01BF
:1043F0009B1A9B000B442A3302221A7052E0BB78AE
:10440000002B20D1FA78796813461B019B1A9B0078
:104410000B443D331B78002B0AD1FA787968134698
:104420001B019B1A9B000B442A3300221A7039E0AF
:10443000FA78796813461B019B1A9B000B442A33B8
:1044400002221A702EE0FA78796813461B019B1A33
:104450009B000B443C331B78002B0AD1FA78796817
:1044600013461B019B1A9B000B442A3300221A702F
:1044700018E0FA78796813461B019B1A9B000B44DD
:104480002A3302221A700DE0FA78796813461B016C
:104490009B1A9B000B442A3300221A7002E000BFD3
:1044A00000E000BFFA78796813461B019B1A9B0055
:1044B0000B442C337A691A60FA78398B7868134682
:1044C0001B019B1A9B00034434331960FA78796806
:1044D00013461B019B1A9B000B444C3300221A709D
:1044E000FA78796813461B019B1A9B000B443833FA
:1044F00000221A60FA78796813461B019B1A9B0008
:104500000B441533FA781A70FA78796813461B0150
:104510009B1A9B000B444D3300221A707B6818686D
:10452000FA7813461B019B1A9B0010337A681344D8
:10453000191D7B689B791A4605F036FD034618461F
:104540000837BD4680BD00BF80B586B000AF78603B
:104550007B681B683B613B69FB607B681B68184696
:1045600005F024FA0346012B40F0FB807B681B68B2
:10457000184605F0E7F90346002B00F0F1807B6850
:104580001B68184605F0DEF9034603F40013B3F583
:10459000001F04D17B681B684FF400125A617B68CE
:1045A0001B68184605F0CEF9034603F48013B3F5F3
:1045B000801F04D17B681B684FF480125A617B68AE
:1045C0001B68184605F0BEF9034603F08063B3F19B
:1045D000806F04D17B681B684FF080625A617B68F2
:1045E0001B68184605F0AEF9034603F00203022BE0
:1045F00003D17B681B6802225A617B681B681846DE
:1046000005F0A0F9034603F00053B3F1005F20D199
:104610007B681B684FF000525A61FB6803F58863A2
:104620001B6803F00103002B13D11021386905F03A
:1046300093F8386905F0C2F87B685B7A022B05D1E4
:104640007B681B680121184605F0BAFA786808F003
:1046500087FA7B681B68184605F074F9034603F077
:104660008073B3F1807F02D1786801F04DFD7B68E3
:104670001B68184605F066F9034603F00803082B8B
:1046800006D1786808F050FA7B681B6808225A61E6
:104690007B681B68184605F055F9034603F0007364
:1046A000B3F1007F39D17B681B68184605F0F6FE30
:1046B000B86000237B6125E07B6903F00F03BA68D3
:1046C00022FA03F303F00103002B18D07B695A018F
:1046D000FB68134403F5A0631B6803F40043B3F5C0
:1046E000004F06D17B69DBB21946786800F005F906
:1046F00005E07B69DBB21946786800F067FF7B69EB
:1047000001337B617B685B791A467B699342D3D323
:104710007B681B684FF000725A617B681B68184603
:1047200005F010F9034603F01003102B01D101230B
:1047300000E00023002B14D07B681B689A697B681B
:104740001B6822F010029A61786801F0FEFB7B681A
:104750001B689A697B681B6842F010029A6100E04E
:1047600000BF1837BD4680BD80B582B000AF78600D
:104770007B6893F8D433012B01D1022313E07B68CB
:10478000012283F8D4237B681B680121184605F0B9
:104790007EFA7B681B68184604F070FF7B68002275
:1047A00083F8D423002318460837BD4680BD80B562
:1047B00082B000AF78607B6893F8D433012B01D1CD
:1047C00002230DE07B68012283F8D4237B681B68F9
:1047D000184605F0D1FF7B68002283F8D42300231C
:1047E00018460837BD4680BD80B582B000AF7860FE
:1047F0007B681B68184605F020FA03461846083700
:10480000BD4680BD80B483B000AF78600B46FB70BE
:10481000FA78796813461B019B1A9B000B444C33B2
:104820001B7818460C37BD465DF8047B704780B492
:1048300083B000AF78600B46FB70FA787968134656
:104840001B019B1A9B000B4438331B6818460C371E
:10485000BD465DF8047B704780B582B000AF7860DC
:104860007B681B68184605F062FA0346184608374D
:10487000BD4680BD80B582B000AF78607B681B68A4
:10488000184605F03DFA034618460837BD4680BD78
:1048900080B483B000AF78600B46FB70FA7879681B
:1048A00013461B019B1A9B000B441A3300221A70FB
:1048B000FA78796813461B019B1A9B000B441B3343
:1048C00000221A70FA78796813461B019B1A9B0024
:1048D0000B44253300221A70FA78796813461B01BD
:1048E0009B1A9B000B44243300221A7000231846A5
:1048F0000C37BD465DF8047B704780B586B000AFCD
:1049000078600B46FB707B681B687B617B693B6151
:104910007B681B68FA781146184605F026F80346AE
:1049200003F00403042B1AD1FB785A013B691344AA
:1049300003F5A0631A4604239360FA787968134656
:104940001B019B1A9B000B444D3307221A707B6896
:104950001B68FA781146184605F0B1FD9EE07B68A9
:104960001B68FA781146184604F0FFFF034603F46B
:104970008073B3F5807F1BD1FB785A013B691344E8
:1049800003F5A0631A464FF480739360FA78796850
:1049900013461B019B1A9B000B444D3308221A70CF
:1049A0007B681B68FA781146184605F088FD75E0AB
:1049B0007B681B68FA781146184604F0D6FF034658
:1049C00003F00803082B1AD1FB785A013B69134402
:1049D00003F5A0631A4608239360FA7879681346B2
:1049E0001B019B1A9B000B444D3306221A707B68F7
:1049F0001B68FA781146184605F061FD4EE07B68A9
:104A00001B68FA781146184604F0AFFF034603F41A
:104A10008063B3F5806F1BD1FB785A013B69134467
:104A200003F5A0631A464FF480639360FA787968BF
:104A300013461B019B1A9B000B444D3309221A702D
:104A40007B681B68FA781146184605F038FD25E0AA
:104A50007B681B68FA781146184604F086FF034607
:104A600003F08003802B19D1FB785A013B69134472
:104A700003F5A0631A4680239360FA787968134699
:104A80001B019B1A9B000B444D3307221A707B6855
:104A90001B68FA781146184605F011FD7B681B6803
:104AA000FA781146184604F060FF034603F40073D9
:104AB000B3F5007F12D17B681B68FA78114618465F
:104AC00005F0FDFCFB785A013B69134403F5A06334
:104AD0001A464FF40073936000F075BD7B681B6845
:104AE000FA781146184604F040FF034603F001032C
:104AF000012B40F02881FB785A013B69134403F5F0
:104B0000A0631A4620239360FA78796813461B0144
:104B10009B1A9B000B441B331B78012B19D1FA788D
:104B2000796813461B019B1A9B000B441B33002220
:104B30001A70FB785A013B69134403F5A0635B6864
:104B4000FA7851013A690A4402F5A06223F48033ED
:104B500053607B689B79002B1BD0FA7879681346E9
:104B60001B019B1A9B000B4430331968FB785A01D8
:104B70003B69134403F5A0631B69C3F31203FA787E
:104B8000C91A786813461B019B1A9B0003443833EB
:104B90001960FA78796813461B019B1A9B000B4435
:104BA0004D3301221A70FA78796813461B019B1A5B
:104BB0009B000B44443300221A60FB785A013B6986
:104BC000134403F5A0631A4601239360FA787968C9
:104BD00013461B019B1A9B000B4426331B78002BAA
:104BE0000AD0FA78796813461B019B1A9B000B4484
:104BF00026331B78022B10D17B681B68FA7811468C
:104C0000184605F05CFCFB785A013B69134403F538
:104C1000A0631A46102393603DE0FA787968134642
:104C20001B019B1A9B000B4426331B78032B0AD0D5
:104C3000FA78796813461B019B1A9B000B442633B4
:104C40001B78012B27D1FB785A013B69134403F5EC
:104C5000A0631B68FA7851013A690A4402F5A06220
:104C600043F000531360FA78796813461B019B1ACE
:104C70009B000B444C3301221A70FA787968134672
:104C80001B019B1A9B000B444C331A78FB78194686
:104C9000786807F073FF7B689B79012B3BD1FA782A
:104CA000796813461B019B1A9B000B443833196823
:104CB000FA78786813461B019B1A9B00034428333B
:104CC0001B880B44591EFA78786813461B019B1AFF
:104CD0009B00034428331B88B1FBF3F303F001036B
:104CE000002B00F07084FA78796813461B019B1A38
:104CF0009B000B443C331B78FA7883F00103D8B255
:104D0000796813461B019B1A9B000B443C330246F7
:104D10001A7000F058BCFA78796813461B019B1A88
:104D20009B000B443C331B78FA7883F00103D8B224
:104D3000796813461B019B1A9B000B443C330246C7
:104D40001A7000F040BC7B681B68FA781146184660
:104D500004F00BFE034603F02003202B31D1FB7837
:104D60005A013B69134403F5A0631A46202393605C
:104D7000FA78796813461B019B1A9B000B441A337F
:104D80001B78012B40F01F84FA78796813461B01C9
:104D90009B1A9B000B441B3301221A70FA78796826
:104DA00013461B019B1A9B000B444D3303221A70C0
:104DB0007B681B68FA781146184605F080FB00F006
:104DC00002BC7B681B68FA781146184604F0CDFDDA
:104DD000034603F00203022B40F00583FB785A01DF
:104DE0003B69134403F5A0631A4602239360FA78E3
:104DF000796813461B019B1A9B000B444D331B78AB
:104E0000012B14D1FA78796813461B019B1A9B0079
:104E10000B444D3302221A70FA78796813461B014D
:104E20009B1A9B000B444C3301221A70CCE2FA7897
:104E3000796813461B019B1A9B000B444D331B786A
:104E4000062B14D1FA78796813461B019B1A9B0034
:104E50000B444D3302221A70FA78796813461B010D
:104E60009B1A9B000B444C3305221A70ACE2FA7873
:104E7000796813461B019B1A9B000B444D331B782A
:104E8000072B0BD0FA78796813461B019B1A9B00FD
:104E90000B444D331B78092B40F0A680FA787968D3
:104EA00013461B019B1A9B000B444D3302221A70C0
:104EB000FA78796813461B019B1A9B000B44443314
:104EC0001B68591C786813461B019B1A9B000344FE
:104ED00044331960FA78796813461B019B1A9B00CA
:104EE0000B4444331B68022B43D9FA787968134684
:104EF0001B019B1A9B000B44443300221A60FA7872
:104F0000796813461B019B1A9B000B441A331B78CC
:104F1000012B23D1FA78796813461B019B1A9B0059
:104F20000B441B3300221A70FA78796813461B0170
:104F30009B1A9B000B441C3300221A70FB785A0109
:104F40003B69134403F5A0635B68FA7851013A6941
:104F50000A4402F5A06223F480335360FA7879683A
:104F600013461B019B1A9B000B444C3304221A70FE
:104F700029E2FA78796813461B019B1A9B000B44BF
:104F80004C3302221A70FA78796813461B019B1A77
:104F90009B000B4426331B78002B0BD0FA787968E2
:104FA00013461B019B1A9B000B4426331B78022BD4
:104FB00040F00982FB785A013B69134403F5A06372
:104FC0001B68FB60FB6823F08043FB60FB6843F0D9
:104FD0000043FB60FB785A013B69134403F5A0636F
:104FE0001A46FB681360EEE1FA78796813461B01F4
:104FF0009B1A9B000B444D331B78052B40F0C88057
:10500000FA78796813461B019B1A9B000B444D33B9
:1050100002221A70FA78796813461B019B1A9B00CA
:105020000B441B331B78012B40F0CE81FA78796852
:1050300013461B019B1A9B000B4426331B78032B42
:105040006BD1FA78796813461B019B1A9B000B44BD
:1050500048331B68591C786813461B019B1A9B0038
:10506000034448331960FA78796813461B019B1A88
:105070009B000B4448331B68022B43D9FA787968AC
:1050800013461B019B1A9B000B44483300221A60F5
:10509000FA78796813461B019B1A9B000B441B335B
:1050A00000221A70FA78796813461B019B1A9B003C
:1050B0000B4444331B68022B09D8FA7879681346ED
:1050C0001B019B1A9B000B441C3301221A70FB78B6
:1050D0005A013B69134403F5A0635B68FA785101F8
:1050E0003A690A4402F5A06223F480335360FA78E7
:1050F000796813461B019B1A9B000B444C33042216
:105100001A7014E0FA78796813461B019B1A9B0009
:105110000B444C3302221A7009E0FA78796813467E
:105120001B019B1A9B000B444C3302221A70FA7825
:10513000796813461B019B1A9B000B4426331B788E
:10514000002B0BD0FA78796813461B019B1A9B0041
:105150000B4426331B78022B40F03681FB785A0132
:105160003B69134403F5A0631B68FB60FB6823F0F5
:105170008043FB60FB6843F00043FB60FB785A010F
:105180003B69134403F5A0631A46FB6813601BE1F7
:10519000FA78796813461B019B1A9B000B444D3328
:1051A0001B78032B40F08180FA78796813461B0145
:1051B0009B1A9B000B444D3302221A70FA787968CF
:1051C00013461B019B1A9B000B441B331B78012BBE
:1051D00040F0FA80FA78796813461B019B1A9B000D
:1051E0000B444C3302221A70FB785A013B6913447A
:1051F00003F5A0635B68FA7851013A690A4402F545
:10520000A06243F480335360FB785A013B69134436
:1052100003F5A063DB68FA7851013A690A4402F5A4
:10522000A06243F04003D360FB785A013B6913440A
:1052300003F5A063DB68FA7851013A690A4402F584
:10524000A06223F02003D360FA78796813461B012B
:105250009B1A9B000B4426331B78002B0BD0FA784B
:10526000796813461B019B1A9B000B4426331B785D
:10527000022B40F0A980FB785A013B69134403F5E7
:10528000A0631B68FB60FB6823F08043FB60FB6846
:1052900043F00043FB60FB785A013B69134403F57C
:1052A000A0631A46FB6813608EE0FA7879681346AB
:1052B0001B019B1A9B000B444D331B78042B43D1DD
:1052C000FA78796813461B019B1A9B000B444D33F7
:1052D00002221A70FA78796813461B019B1A9B0008
:1052E0000B444C3302221A70FA78796813461B017A
:1052F0009B1A9B000B4426331B78002B0AD0FA78AC
:10530000796813461B019B1A9B000B4426331B78BC
:10531000022B59D1FB785A013B69134403F5A06372
:105320001B68FB60FB6823F08043FB60FB6843F075
:105330000043FB60FB785A013B69134403F5A0630B
:105340001A46FB6813603FE0FA78796813461B0140
:105350009B1A9B000B444D331B78082B26D1FA78FF
:10536000796813461B019B1A9B000B444D330222A4
:105370001A70FA78796813461B019B1A9B000B443C
:1053800044331B68591C786813461B019B1A9B0009
:10539000034444331960FA78796813461B019B1A59
:1053A0009B000B444C3304221A700DE0FA787968A4
:1053B00013461B019B1A9B000B444D331B78022B99
:1053C00000F0008100E000BFFA78796813461B0105
:1053D0009B1A9B000B444C331A78FB78194678686B
:1053E00007F0CCFBEFE07B681B68FA7811461846A3
:1053F00004F0BBFA034603F04003402B2FD1FB78A7
:105400005A013B69134403F5A0631A464023936095
:10541000FA78796813461B019B1A9B000B444D33A5
:1054200005221A70FA78796813461B019B1A9B00B3
:105430000B441A331B78002B09D1FA78796813468C
:105440001B019B1A9B000B44443300221A607B68AB
:105450001B68FA781146184605F031F8B3E07B680E
:105460001B68FA781146184604F07FFA034603F0E9
:105470001003102B40F0A780FA78796813461B01BF
:105480009B1A9B000B4426331B78032B1BD1FA7805
:10549000796813461B019B1A9B000B44443300227E
:1054A0001A60FA78796813461B019B1A9B000B441B
:1054B0004D3304221A707B681B68FA78114618462F
:1054C00004F0FDFF3FE0FA78796813461B019B1A50
:1054D0009B000B4426331B78002B0AD0FA7879689E
:1054E00013461B019B1A9B000B4426331B78022B8F
:1054F00029D1FA78796813461B019B1A9B000B444B
:10550000443300221A607B689B79002B0AD0FA781A
:10551000796813461B019B1A9B000B441B331B78B5
:10552000012B10D1FA78796813461B019B1A9B0056
:105530000B444D3304221A707B681B68FA781146BD
:10554000184604F0BCFFFA78796813461B019B1AD1
:105550009B000B441B331B78012B29D1FA78796807
:1055600013461B019B1A9B000B441B3300221A702D
:10557000FB785A013B69134403F5A0635B68FA7832
:1055800051013A690A4402F5A06223F48033536062
:10559000FB785A013B69134403F5A063DB68FA7892
:1055A00051013A690A4402F5A06243F02003D36036
:1055B000FB785A013B69134403F5A0631A46102394
:1055C000936000E000BF1837BD4680BD80B586B04F
:1055D00000AF78600B46FB707B681B687B617B6962
:1055E0003B617B681B68FA781146184604F0BDF9E8
:1055F000034603F00403042B1BD1FB785A013B69DB
:10560000134403F5A0631A4604239360FA7879687B
:1056100013461B019B1A9B000B444D3307221A7043
:105620007B681B68FA781146184604F048FF00F0C2
:1056300089BC7B681B68FA781146184604F095F916
:10564000034603F02003202B40F08280FB785A01B0
:105650003B69134403F5A0631A4620239360FA784C
:10566000796813461B019B1A9B000B4419331B7866
:10567000012B24D1FA78796813461B019B1A9B00F1
:105680000B44193300221A70FA78796813461B010B
:105690009B1A9B000B444C3302221A70FA787968EB
:1056A00013461B019B1A9B000B444D3303221A70B7
:1056B0007B681B68FA781146184604F000FFFA78F8
:1056C000796813461B019B1A9B000B441A331B7805
:1056D000012B40F03784FA78796813461B019B1A36
:1056E0009B000B441B331B78002B40F02B84FA7873
:1056F000796813461B019B1A9B000B4426331B78C9
:10570000012B09D0FA78796813461B019B1A9B007C
:105710000B441B3301221A70FA78796813461B0177
:105720009B1A9B000B444D3303221A707B681B6845
:10573000FA781146184604F0C2FEFA7879681346E2
:105740001B019B1A9B000B44443300221A60F9E3AF
:105750007B681B68FA781146184604F006F9034680
:1057600003F40073B3F5007F11D1FB785A013B6954
:10577000134403F5A0631A464FF4007393607B68EB
:105780001B68FA781146184604F099FEDAE37B6844
:105790001B68FA781146184604F0E7F8034603F050
:1057A0000103012B68D1FA78796813461B019B1A13
:1057B0009B000B44443300221A607B681B68FA7814
:1057C0001146184604F0D1F8034603F04003402B7D
:1057D00012D1FA78796813461B019B1A9B000B447F
:1057E000193301221A70FB785A013B69134403F5FF
:1057F000A0631A4640239360FA78796813461B0128
:105800009B1A9B000B441B331B78002B19D0FA7892
:10581000796813461B019B1A9B000B441B33002223
:105820001A70FB785A013B69134403F5A0635B6867
:10583000FA7851013A690A4402F5A06223F48033F0
:105840005360FB785A013B69134403F5A0631A4681
:1058500001239360FA78796813461B019B1A9B0019
:105860000B444D3301221A707B681B68FA7811468D
:10587000184604F024FE65E37B681B68FA7811463D
:10588000184604F072F8034603F04003402B39D168
:10589000FA78796813461B019B1A9B000B444D3321
:1058A00005221A70FA78796813461B019B1A9B002F
:1058B0000B441A331B78002B09D1FA787968134608
:1058C0001B019B1A9B000B44193301221A70FA78B2
:1058D000796813461B019B1A9B000B44443300223A
:1058E0001A607B681B68FA781146184604F0E7FDD9
:1058F000FB785A013B69134403F5A0631A46402321
:1059000093601FE37B681B68FA781146184604F021
:105910002CF8034603F00803082B1AD1FB785A0130
:105920003B69134403F5A0631A4608239360FA7891
:10593000796813461B019B1A9B000B444D330622CA
:105940001A707B681B68FA781146184604F0B7FD98
:10595000F8E27B681B68FA781146184604F005F8EF
:10596000034603F01003102B44D1FA7879681346EC
:105970001B019B1A9B000B44443300221A60FA78E7
:10598000796813461B019B1A9B000B444D3304227C
:105990001A70FA78796813461B019B1A9B000B4416
:1059A00019331B78002B14D1FA78796813461B0140
:1059B0009B1A9B000B4418331B78002B09D1FA78F3
:1059C000796813461B019B1A9B000B441933012273
:1059D0001A707B681B68FA781146184604F06FFD50
:1059E000FB785A013B69134403F5A0631A46102360
:1059F0009360A7E27B681B68FA781146184603F0AB
:105A0000B4FF034603F08003802B40F083807B6863
:105A10009B79002B11D1FA78796813461B019B1AE8
:105A20009B000B444D3307221A707B681B68FA7881
:105A30001146184604F043FD62E0FA78796813468F
:105A40001B019B1A9B000B4444331B68591C78684C
:105A500013461B019B1A9B00034444331960FA78D8
:105A6000796813461B019B1A9B000B4444331B6847
:105A7000022B22D9FA78796813461B019B1A9B00E6
:105A80000B44443300221A60FA78796813461B01EC
:105A90009B1A9B000B444C3304221A70FA787968E5
:105AA00013461B019B1A9B000B444C331A78FB785E
:105AB0001946786807F062F822E0FA7879681346A8
:105AC0001B019B1A9B000B444C3302221A70FB787B
:105AD0005A013B69134403F5A0631B68FB60FB6834
