:020000040800F2
:10000000000002204D300008F5280008FD280008F7
:10001000052900080D290008152900080000000026
:100020000000000000000000000000001D29000882
:100030002B29000800000000392900084729000882
:100040009D3000089D3000089D3000089D3000085C
:100050009D3000089D3000089D3000089D3000084C
:100060009D3000089D3000089D3000089D3000083C
:100070009D3000089D3000089D3000089D3000082C
:100080009D3000089D3000089D3000089D3000081C
:100090009D3000089D3000089D3000089D3000080C
:1000A0009D3000089D3000089D3000089D300008FC
:1000B0009D3000089D3000089D3000089D300008EC
:1000C0009D3000089D3000089D3000089D300008DC
:1000D0009D3000089D3000089D3000089D300008CC
:1000E0009D3000089D3000089D3000089D300008BC
:1000F0009D3000089D3000089D3000089D300008AC
:100100009D3000089D3000089D3000089D3000089B
:100110009D3000089D3000089D3000089D3000088B
:100120009D3000089D3000089D3000089D3000087B
:100130009D3000089D3000089D3000089D3000086B
:100140009D3000089D3000089D30000855290008AA
:100150009D3000089D3000089D3000089D3000084B
:100160009D3000089D3000089D3000089D3000083B
:100170009D3000089D3000089D3000080000000000
:080180009D3000089D300008CD
:1001900010B5054C237833B9044B13B10448AFF3C1
:1001A00000800123237010BD1C020020000000000D
:1001B000E8E6000808B5034B1BB103490348AFF359
:1001C000008008BD0000000020020020E8E60008D2
:1001D00001F0FF01102A2BDB10F0070F08D010F8F8
:1001E000013B013A8B422DD010F0070F42B3F6D1FC
:1001F000F0B441EA012141EA014122F007047FF015
:1002000000070023F0E80256083C85EA010586EA6B
:10021000010685FA47F5A3FA87F586FA47F6A5FAA7
:1002200087F68EB9EED1F0BC01F0FF0102F00702B3
:1002300032B110F8013B013A83EA010313B1F8D15E
:100240000020704701387047002D06BF354603383F
:10025000073815F0010F07D1013015F4807F02BF78
:10026000013015F4C03F0130F0BC0138704700BFC9
:10027000034613F8012B002AFBD1181A01387047E6
:1002800081F0004102E000BF83F0004330B54FEA47
:1002900041044FEA430594EA050F08BF90EA020FB4
:1002A0001FBF54EA000C55EA020C7FEA645C7FEA47
:1002B000655C00F0E2804FEA5454D4EB5555B8BF6A
:1002C0006D420CDD2C4480EA020281EA030382EADB
:1002D000000083EA010180EA020281EA0303362D6D
:1002E00088BF30BD11F0004F4FEA01314FF4801C40
:1002F0004CEA113102D0404261EB410113F0004F52
:100300004FEA03334CEA133302D0524263EB430308
:1003100094EA050F00F0A780A4F10104D5F1200EA6
:100320000DDB02FA0EFC22FA05F2801841F1000101
:1003300003FA0EF2801843FA05F359410EE0A5F1D5
:1003400020050EF1200E012A03FA0EFC28BF4CF006
:10035000020C43FA05F3C01851EBE37101F00045BC
:1003600007D54FF0000EDCF1000C7EEB00006EEBC9
:100370000101B1F5801F1BD3B1F5001F0CD3490853
:100380005FEA30004FEA3C0C04F101044FEA4452AA
:1003900012F5800F80F09A80BCF1004F08BF5FEA31
:1003A000500C50F1000041EB045141EA050130BD11
:1003B0005FEA4C0C404141EB0101013C28BFB1F523
:1003C000801FE9D291F0000F04BF01460020B1FA6E
:1003D00081F308BF2033A3F10B03B3F120020CDA41
:1003E0000C3208DD02F1140CC2F10C0201FA0CF01F
:1003F00021FA02F10CE002F11402D8BFC2F1200C84
:1004000001FA02F120FA0CFCDCBF41EA0C01904039
:10041000E41AA2BF01EB0451294330BD6FEA040482
:100420001F3C1CDA0C340EDC04F11404C4F120026D
:1004300020FA04F001FA02F340EA030021FA04F37F
:1004400045EA030130BDC4F10C04C4F1200220FAD6
:1004500002F001FA04F340EA0300294630BD21FA14
:1004600004F0294630BD94F0000F83F4801306BFDA
:1004700081F480110134013D4EE77FEA645C18BFCE
:100480007FEA655C29D094EA050F08BF90EA020F65
:1004900005D054EA000C04BF1946104630BD91EA5D
:1004A000030F1EBF0021002030BD5FEA545C05D160
:1004B0004000494128BF41F0004130BD14F580049F
:1004C0003CBF01F5801130BD01F0004545F0FE4113
:1004D00041F470014FF0000030BD7FEA645C1ABF48
:1004E000194610467FEA655C1CBF0B46024650EA7F
:1004F000013406BF52EA033591EA030F41F40021AB
:1005000030BD00BF90F0000F04BF0021704730B530
:100510004FF4806404F132044FF000054FF0000105
:1005200050E700BF90F0000F04BF0021704730B5C6
:100530004FF4806404F1320410F0004548BF40429B
:100540004FF000013EE700BF42004FEAE2014FEAF0
:1005500031014FEA02701FBF12F07F4393F07F4FCB
:1005600081F06051704732F07F4208BF704793F0CE
:100570007F4F04BF41F40021704730B54FF46074E1
:1005800001F0004521F000411CE700BF50EA0102E4
:1005900008BF704730B54FF000050AE050EA01028D
:1005A00008BF704730B511F0004502D5404261EBFD
:1005B00041014FF4806404F132045FEA915C3FF43E
:1005C000D8AE4FF003025FEADC0C18BF03325FEADB
:1005D000DC0C18BF033202EBDC02C2F1200300FA8C
:1005E00003FC20FA02F001FA03FE40EA0E0021FAB1
:1005F00002F11444BDE600BF70B54FF0FF0C4CF49F
:10060000E06C1CEA11541DBF1CEA135594EA0C0F50
:1006100095EA0C0F00F0DEF82C4481EA030621EA8B
:100620004C5123EA4C5350EA013518BF52EA0335C6
:1006300041F4801143F4801338D0A0FB02CE4FF078
:100640000005E1FB02E506F00042E0FB03E54FF0A8
:100650000006E1FB03569CF0000F18BF4EF0010EA0
:10066000A4F1FF04B6F5007F64F5407404D25FEA9C
:100670004E0E6D4146EB060642EAC62141EA55514F
:100680004FEAC52040EA5E504FEACE2EB4F1FD0C91
:1006900088BFBCF5E06F1ED8BEF1004F08BF5FEA0F
:1006A000500E50F1000041EB045170BD06F00046C1
:1006B00046EA010140EA020081EA0301B4EB5C046E
:1006C000C2BFD4EB0C0541EA045170BD41F4801166
:1006D0004FF0000E013C00F3AB8014F1360FDEBF8B
:1006E000002001F0004170BDC4F10004203C35DA67
:1006F0000C341BDC04F11404C4F1200500FA05F3EA
:1007000020FA04F001FA05F240EA020001F000428A
:1007100021F0004110EBD37021FA04F642EB060100
:100720005EEA430E08BF20EAD37070BDC4F10C042A
:10073000C4F1200500FA04F320FA05F001FA04F2EE
:1007400040EA020001F0004110EBD37041F10001DA
:100750005EEA430E08BF20EAD37070BDC4F12005E5
:1007600000FA05F24EEA020E20FA04F301FA05F24D
:1007700043EA020321FA04F001F0004121FA04F2F5
:1007800020EA020000EBD3705EEA430E08BF20EAC5
:10079000D37070BD94F0000F0FD101F000464000FF
:1007A00041EB010111F4801F08BF013CF7D041EA81
:1007B000060195F0000F18BF704703F00046520085
:1007C00043EB030313F4801F08BF013DF7D043EA56
:1007D0000603704794EA0C0F0CEA135518BF95EA0C
:1007E0000C0F0CD050EA410618BF52EA4306D1D193
:1007F00081EA030101F000414FF0000070BD50EAB2
:10080000410606BF1046194652EA430619D094EA3B
:100810000C0F02D150EA013613D195EA0C0F05D125
:1008200052EA03361CBF104619460AD181EA030179
:1008300001F0004141F0FE4141F470014FF0000031
:1008400070BD41F0FE4141F4780170BD70B54FF0CC
:10085000FF0C4CF4E06C1CEA11541DBF1CEA13554C
:1008600094EA0C0F95EA0C0F00F0A7F8A4EB05042E
:1008700081EA030E52EA03354FEA013100F0888025
:100880004FEA03334FF0805545EA131343EA1263EE
:100890004FEA022245EA111545EA10654FEA0026A3
:1008A0000EF000419D4208BF964244F1FD0404F55C
:1008B000407402D25B084FEA3202B61A65EB0305B8
:1008C0005B084FEA32024FF480104FF4002CB6EB75
:1008D000020E75EB030E22BFB61A754640EA0C00F5
:1008E0005B084FEA3202B6EB020E75EB030E22BF35
:1008F000B61A754640EA5C005B084FEA3202B6EB76
:10090000020E75EB030E22BFB61A754640EA9C0034
:100910005B084FEA3202B6EB020E75EB030E22BF04
:10092000B61A754640EADC0055EA060E18D04FEAC2
:10093000051545EA16754FEA06164FEAC30343EA62
:1009400052734FEAC2025FEA1C1CC0D111F4801F2F
:100950000BD141EA00014FF000004FF0004CB6E728
:1009600011F4801F04BF01430020B4F1FD0C88BFC7
:10097000BCF5E06F3FF6AFAEB5EB030C04BFB6EBD2
:10098000020C5FEA500C50F1000041EB045170BDC5
:100990000EF0004E4EEA113114EB5C04C2BFD4EBF2
:1009A0000C0541EA045170BD41F480114FF0000E76
:1009B000013C90E645EA060E8DE60CEA135594EAF2
:1009C0000C0F08BF95EA0C0F3FF43BAF94EA0C0FF5
:1009D0000AD150EA01347FF434AF95EA0C0F7FF46A
:1009E00025AF104619462CE795EA0C0F06D152EABE
:1009F00003353FF4FDAE1046194622E750EA4106A2
:100A000018BF52EA43067FF4C5AE50EA41047FF4B2
:100A10000DAF52EA43057FF4EBAE12E74FF0FF3C17
:100A200006E000BF4FF0010C02E000BF4FF0010CE8
:100A30004DF804CD4FEA410C7FEA6C5C4FEA430C61
:100A400018BF7FEA6C5C1BD001B050EA410C0CBFB0
:100A500052EA430C91EA030F02BF90EA020F002012
:100A6000704710F1000F91EA030F58BF994208BF79
:100A700090422CBFD8176FEAE37040F00100704736
:100A80004FEA410C7FEA6C5C02D150EA013C07D18D
:100A90004FEA430C7FEA6C5CD6D152EA033CD3D0D8
:100AA0005DF8040B704700BF8446104662468C46D2
:100AB0001946634600E000BF01B5FFF7B7FF002805
:100AC00048BF10F1000F01BD4DF808EDFFF7F4FF2E
:100AD0000CBF012000205DF808FB00BF4DF808EDB9
:100AE000FFF7EAFF34BF012000205DF808FB00BFDC
:100AF0004DF808EDFFF7E0FF94BF012000205DF8FE
:100B000008FB00BF4DF808EDFFF7CEFF94BF0120B2
:100B100000205DF808FB00BF4DF808EDFFF7C4FFAB
:100B200034BF012000205DF808FB00BF4FEA410CF4
:100B30007FEA6C5C02D150EA013C0AD14FEA430CD7
:100B40007FEA6C5C02D152EA033C02D14FF0000014
:100B500070474FF0010070474FEA410212F5001252
:100B600015D211D56FF47873B3EB625212D94FEAF4
:100B7000C12343F0004343EA505311F0004F23FADE
:100B800002F018BF404270474FF00000704750EA33
:100B9000013005D111F0004008BF6FF000407047F0
:100BA0004FF00000704700BF53B94AB9002908BF91
:100BB00000281CBF4FF0FF314FF0FF3000F088B924
:100BC000ADF1080C6DE904CE00F006F8DDF804E0A4
:100BD000DDE9022304B070472DE9F047089D8E46F9
:100BE00004468846002B4AD18A42174662D9B2FA97
:100BF00082F64EB1C6F1200301FA06F820FA03F39B
:100C0000B74043EA0808B4404FEA174E1FFA87FC82
:100C1000B8FBFEF1230C0EFB118843EA084301FBED
:100C20000CF29A4209D9FB1801F1FF3080F0EA80FA
:100C30009A4240F2E78002393B449A1AA3B2B2FBCF
:100C4000FEF00EFB102243EA024300FB0CFC9C4525
:100C500009D9FB1800F1FF3280F0D6809C4540F2A4
:100C6000D3803B44023840EA0140A3EB0C0300214F
:100C70001DB1F3400022C5E90032BDE8F0878B4288
:100C800005D90DB1C5E9000100210846F5E7B3FA21
:100C900083F1002946D1734502D3824200F20581D7
:100CA000841A6EEB030201209046002DE5D0C5E9C1
:100CB0000048E2E7002A00F09080B2FA82F6002EA7
:100CC00040F0A4808A1A030C4FEA174E80B2BCB2DF
:100CD0000121B2FBFEFC0EFB1C2243EA024304FB93
:100CE0000CF29A4207D9FB180CF1FF3802D29A4253
:100CF00000F2E080C4469B1AB3FBFEF20EFB1233F7
:100D000040EA034302FB04F49C4207D9FB1802F1BA
:100D1000FF3002D29C4200F2CA8002461B1B42EA0C
:100D20000C40A5E7C1F120068B4022FA06F71F43CD
:100D30000EFA01F420FA06F32EFA06FE4FEA1749DE
:100D4000234300FA01F81FFA87FCBEFBF9F01C0CE4
:100D500009FB10EE44EA0E4400FB0CFEA64502FA25
:100D600001F209D93C1900F1FF3A80F09C80A645B8
:100D700040F2998002383C44A4EB0E041FFA83FE33
:100D8000B4FBF9F309FB13444EEA044403FB0CFCE7
:100D9000A44508D93C1903F1FF3E80F08280A445A8
:100DA0007FD9023B3C4443EA0040A4EB0C04A0FB87
:100DB00002EC64457346E14662D35FD05DB1B8EBA7
:100DC000030264EB090404FA06F622FA01F31E4357
:100DD000CC40C5E9006400214FE7B1FBF2FC010CF7
:100DE00041EA0E4180B240EA01423B4638463C4669
:100DF000B846BE462026B1FBF7F1A2EB080241EA55
:100E00000C4166E7014618E710462CE7C6F12002C0
:100E10002EFA02F3B740B14020FA02F24FEA174E21
:100E20000A43B3FBFEF8BCB20EFB1833110C41EAC7
:100E3000034108FB04F9B04089454FEA104380B2F2
:100E40003ED9791808F1FF3C01D289451FD8A1EBA2
:100E50000901B1FBFEF909FB04F80EFB191192B26E
:100E600042EA0142424529D2BA1809F1FF31C4D2FF
:100E70004245C2D2A9F102013A44BEE7F0459DD2F3
:100E8000BEEB02036CEB070C0138E14696E7A7EBDB
:100E900009094944A8F1020CB1FBFEF909FB04F869
:100EA000DBE773467FE7504666E70846FDE63B44CE
:100EB000023A33E7ACF1020C3B441CE749469CE79D
:100EC000A1EB0901C446B1FBFEF909FB04F8C4E734
:100ED000704700BF80B582B000AF354801F04CFECE
:100EE000344800F0BDF9344B1B889BB29B12DBB237
:100EF00003F00103FB71FB79012B35D12F4B1B78DC
:100F0000002B31D12E4B1B78002B0CBF012300236B
:100F1000DBB21A462A4B1A702A480BF027FD284BE1
:100F20001B78002B01D0284B00E0284B194628489D
:100F30000BF0B4FC27480BF019FD214B1B78012B5B
:100F400006D101224FF48041234802F0EDFB0BE073
:100F500000224FF48041204802F0E6FB00224FF4CB
:100F600000411D4802F0E0FB144AFB791370144B5A
:100F70001B78012B15D101F09DF802F0F7F802461D
:100F8000164B1B68D31AB3F5FA7F0CD34FF400410C
:100F9000114802F0E2FB02F0E9F803460F4A136041
:100FA00001E000F075F8002318460837BD4680BD03
:100FB000B00400209003002010050020380200201B
:100FC0000000002000E7000828E7000830E70008DC
:100FD00034E7000854E70008000C02403C020020FF
:100FE00080B500AF0C480BF0C1FC00F019F801F01F
:100FF00029F801224FF48041084802F095FB0022B5
:101000004FF40041054802F08FFB4FF47A7002F074
:10101000B9F800BF80BD00BF7CE70008000C0240AB
:1010200080B500AF154B00221A70144B00225A7085
:10103000124B00229A70124B1B68DBB21A46002139
:10104000104801F033FF322002F09CF80E4B1B6871
:10105000DBB21A460C210B4801F028FF322002F0C7
:1010600091F80A4B1B68DBB21A460421054801F0CF
:101070001DFF322002F086F800BF80BD4002002034
:101080000C0000204803002004000020080000207D
:1010900080B582B000AF654B1B78C3F30013DBB2A1
:1010A000002B14BF01230023FB71FB79002B20D000
:1010B0005F4B1B7883F00103DBB2002B19D05D4B33
:1010C0001B78002B0CBF01230023DBB21A46594BBF
:1010D0001A70584B1B78002B03D0574B1B68DBB2A0
:1010E00002E0564B1B68DBB21A460021544801F05F
:1010F000DDFE4F4AFB7913704C4B1B78C3F3401352
:10110000DBB2002B14BF01230023BB71BB79002B82
:101110003AD04C4B1B7883F00103DBB2002B33D069
:10112000444B5B78002B0CBF01230023DBB21A4633
:10113000404B5A703F4B9B78002B0CBF0123002380
:10114000DBB21A463B4B9A703A4B5B78002B03D0CC
:101150003D4B1B68DBB202E03C4B1B68DBB21A461E
:101160000C21374801F0A2FE324B9B78002B03D0B4
:10117000374B1B68DBB202E0364B1B68DBB21A460A
:1011800004212F4801F092FE2E4ABB791370274BA1
:101190001B7803F00403DBB2002B0AD0012280216C
:1011A0002D4802F0C1FAC82204212C4801F044FE67
:1011B00016E01E4B1B7803F00803DBB2002B0AD0AD
:1011C00000228021244802F0AFFAC82204212348DB
:1011D00001F032FE04E000220421204801F02CFE40
:1011E000124B1B7803F00103DBB2002B06D040F258
:1011F000A4620021194801F09BFE13E00B4B1B7801
:1012000003F00203DBB2002B06D040F2145200219F
:10121000124801F08DFE05E040F2DC5200210F483B
:1012200001F086FE00BF0837BD4680BD44050020A2
:101230004302002040020020180000200C00002083
:101240004803002044020020100000200400002079
:1012500014000020080000200010024000030020BD
:1012600080B588B000AF7860494BD3ED007AFDEED1
:10127000E77A17EE903AFB61464BD3ED007AFDEE2C
:10128000E77A17EE903ABB61434BD3ED007AFDEE5F
:10129000E77A17EE903A7B61FB6913F1130F04DBD9
:1012A000FB69132B01DC0023FB61BB6913F1130FF6
:1012B00004DBBB69132B01DC0023BB617B6913F1E9
:1012C000130F04DB7B69132B01DC00237B61FA69BC
:1012D00013461B029B1A314A82FB03121A449211D5
:1012E000DB17D31A3B61BA6913461B029B1A2B4AC0
:1012F00082FB03121A449211DB17D31AFB607A693E
:1013000013461B029B1A254A82FB03121A449211B0
:10131000DB17D31ABB60BA68F968386900F048F87F
:101320001F4BD3ED007A4FF48053B0EE670A0022D2
:101330000221786800F016F91A4BD3ED007A4FF4C9
:101340000053B0EE670A04220421786800F00AF91D
:10135000154BD3ED007A4FF48043B0EE670A0822B4
:101360004FF48071786800F0FDF8104BD3ED007AEF
:101370004FF40043B0EE670A0C224FF40071786816
:1013800000F0F0F8002318462037BD4680BD00BFAE
:10139000300500202C0500203405002009040281BE
:1013A000480200204C02002050020020540200207D
:1013B00080B588B000AFF860B9607A60FA68BB6841
:1013C0001A447B68134407EE903AF8EEE77A5E4BD6
:1013D000C3ED007AFA68BB68D21A7B68134407EE43
:1013E000903AF8EEE77A594BC3ED007AFA68BB6899
:1013F0001A447B68D31A07EE903AF8EEE77A544B1A
:10140000C3ED007AFA68BB68D21A7B68D31A07EE7C
:10141000903AF8EEE77A4F4BC3ED007A4A4BD3EDA2
:10142000007AB0EEE77A494BD3ED007AF0EEE77A36
:10143000B4EEE77AF1EE10FA05DD434BD3ED007A16
:10144000F0EEE77A04E0414BD3ED007AF0EEE77A74
:10145000C7ED077A3E4BD3ED007AB0EEE77A3D4B0D
:10146000D3ED007AF0EEE77AB4EEE77AF1EE10FA17
:1014700005DD374BD3ED007AF0EEE77A04E0354B2B
:10148000D3ED007AF0EEE77AC7ED067A97ED077AAA
:10149000D7ED067AB4EEE77AF1EE10FA01DDFB69DA
:1014A00000E0BB697B61D7ED057A9FED2B7AF4EE06
:1014B000C77AF1EE10FA2FDDDFED276A97ED057A96
:1014C000C6EE877AC7ED047A1F4B93ED007AD7ED0D
:1014D000047A67EE277A1C4BC3ED007A1B4B93ED21
:1014E000007AD7ED047A67EE277A184BC3ED007ABD
:1014F000174B93ED007AD7ED047A67EE277A144BF9
:10150000C3ED007A134B93ED007AD7ED047A67EEC2
:10151000277A104BC3ED007A01F026FB03460F4AF1
:1015200013600E4B1A680E4B1B68D31AB3F57A7F03
:1015300004D301F019FB0346094A1360002318463F
:101540002037BD4680BD00BF480200204C0200206D
:10155000500200205402002000007F435802002067
:101560005C02002080B586B000AF78610846114665
:1015700087ED030A1A4603467B820B467B741346AB
:101580007B81D7ED037AF5EEC07AF1EE10FA0CDD2F
:101590007B8A012219461B4802F0C6F87B8901228A
:1015A0001946184802F0C0F81AE07B8A0022194652
:1015B000144802F0B9F87B8900221946114802F05C
:1015C000B3F8D7ED037AFDEEE77A17EE903A002BE9
:1015D000B8BF5B4207EE903AF8EEE77AC7ED037AC0
:1015E0007B7CD7ED037AFCEEE77AC7ED017A3A7996
:1015F000D2B21946786901F01FFC00BF1837BD460A
:1016000080BD00BF0008024080B500AF01F048FD7A
:1016100000F07AF800F0F4FB00F0E0F800F00EF9CA
:101620000AF06EF800F0C4F900F0C0FB00F02EFAEA
:1016300000F0A6FA00F024FB00F072FB00F034F991
:101640000021284805F006FD0421264805F002FD8A
:101650000821244805F0FEFC0C21224805F0FAFC84
:101660000021214805F0F6FC04211F4805F0F2FC9A
:101670000C211D4805F0EEFC00211C4805F0EAFC99
:1016800004211A4805F0E6FC184B1B685A6C174BEE
:101690001B6842F400425A640021154805F0DAFC48
:1016A0000421134805F0D6FCFFF79AFCFFF712FC63
:1016B0000AF04CF8022200210E480BF037FA0E4BCC
:1016C0004FF000021A600D4B4FF000021A600C4BF5
:1016D0004FF000021A600B4B4FF000021A6000BF7F
:1016E000E4E700BF9003002048030020000300202F
:1016F00020040020440500202C0500203005002097
:10170000340500203805002080B594B000AF07F103
:1017100020033022002118460BF008FA07F10C03D1
:1017200000221A605A609A60DA601A610023BB6076
:10173000284B1B6C274A43F080531364254B1B6CCA
:1017400003F08053BB60BB6800237B60224B1B68A7
:10175000214A43F4804313601F4B1B6803F480430A
:101760007B607B6801233B624FF480337B62022302
:10177000BB634FF48003FB6308233B644FF4A873FF
:101780007B640223BB640723FB6407F12003184634
:1017900004F0AEFD0346002B01D000F04DFC0F23FA
:1017A000FB6002233B6100237B614FF4A053BB61CC
:1017B0004FF48053FB6107F10C030521184605F037
:1017C0000FF80346002B01D000F036FC00BF503765
:1017D000BD4680BD003802400070004080B500AFBB
:1017E000134B144A1A60124B4FF400725A60104B9C
:1017F00000229A600E4B0022DA600D4B4FF400720B
:101800001A610B4B0C4A5A61094B00229A61084B32
:101810000022DA61064B00221A62054804F0C8F87B
:101820000346002B01D000F007FC00BF80BD00BFC5
:1018300060020020003C00400077010080B500AF4E
:10184000174B184A1A60164B4FF482725A60144BA9
:1018500000229A60124B0022DA60114B00221A61BA
:101860000F4B00225A610E4B4FF400729A610C4BE1
:101870000022DA610A4B00221A62094B00225A62E6
:10188000074B00229A62064B0A22DA62044805F0EE
:1018900009FB0346002B01D000F0CEFB00BF80BD4A
:1018A000A80200200030014080B592B000AF07F1DF
:1018B000400300221A605A6007F1240300221A60D4
:1018C0005A609A60DA601A615A619A613B1D20225F
:1018D000002118460BF02AF9334B344A1A60324B78
:1018E00053225A60304B00229A602F4B44F61F62FD
:1018F000DA602D4B00221A612B4B00225A612A4BD1
:1019000000229A61284805F056FB0346002B01D0BF
:1019100000F092FB00233B6400237B6407F140034B
:101920001946214806F00CF80346002B01D000F0C0
:1019300083FB60237B620023BB620023FB620023E6
:101940003B6300237B630023BB630023FB6307F13E
:10195000240300221946144805F0B4FC0346002B6A
:1019600001D000F069FB00237B600023BB600023F3
:10197000FB6000233B6100237B614FF40053BB619C
:1019800000233B623B1D1946074806F055F8034605
:10199000002B01D000F050FB034800F027FE00BFF1
:1019A0004837BD4680BD00BF000300200000014055
:1019B00080B58AB000AF07F1200300221A605A6098
:1019C0003B1D00221A605A609A60DA601A615A61FF
:1019D0009A612D4B4FF080421A602B4B53225A6074
:1019E000294B00229A60284B44F61F62DA60264B8E
:1019F00000221A61244B00229A61234805F0DBFA89
:101A00000346002B01D000F017FB00233B620023AC
:101A10007B6207F1200319461B4805F091FF03463E
:101A2000002B01D000F008FB60237B600023BB602B
:101A30000023FB6000237B613B1D002219461248F6
:101A400005F040FC0346002B01D000F0F5FA3B1DE9
:101A5000042219460C4805F035FC0346002B01D042
:101A600000F0EAFA3B1D0C221946074805F02AFC53
:101A70000346002B01D000F0DFFA034800F0B6FD6A
:101A800000BF2837BD4680BD4803002080B58AB01E
:101A900000AF07F1200300221A605A603B1D0022AC
:101AA0001A605A609A60DA601A615A619A61324B20
:101AB000324A1A60304B00225A602F4B00229A6043
:101AC0002D4B41F26702DA602B4B00221A612A4B40
:101AD00000229A61284805F06EFA0346002B01D0D7
:101AE00000F0AAFA00233B6200237B6207F1200387
:101AF0001946214805F024FF0346002B01D000F0D1
:101B00009BFA60237B600023BB600023FB60002303
:101B10007B613B1D00221946174805F0D3FB0346A5
:101B2000002B01D000F088FA3B1D04221946124810
:101B300005F0C8FB0346002B01D000F07DFA3B1DE9
:101B4000082219460C4805F0BDFB0346002B01D0C6
:101B500000F072FA3B1D0C221946074805F0B2FB53
:101B60000346002B01D000F067FA034800F03EFD69
:101B700000BF2837BD4680BD900300200004004010
:101B800080B58AB000AF07F1200300221A605A60C6
:101B90003B1D00221A605A609A60DA601A615A612D
:101BA0009A61354B354A1A60334B53225A60324B97
:101BB00000229A60304B40F2E732DA602E4B00226E
:101BC0001A612D4B80229A612B4805F0F4F90346E7
:101BD000002B01D000F030FA00233B6200237B622F
:101BE00007F120031946244805F0AAFE0346002BFE
:101BF00001D000F021FA60237B600023BB6000234A
:101C0000FB6000237B613B1D002219461A4805F04A
:101C100059FB0346002B01D000F00EFA3B1D0422B5
:101C20001946154805F04EFB0346002B01D000F085
:101C300003FA4FF4FA73BB603B1D082219460E48A5
:101C400005F040FB0346002B01D000F0F5F900231E
:101C5000BB603B1D0C221946074805F033FB0346C9
:101C6000002B01D000F0E8F9034800F0BFFC00BFF2
:101C70002837BD4680BD00BFD803002000080040C3
:101C800080B588B000AF3B1D00221A605A609A6090
:101C9000DA601A615A619A611F4B204A1A601E4B22
:101CA000A7225A601C4B00229A601B4B44F61F620D
:101CB000DA60194B00221A61174B00229A6116480C
:101CC00005F079F90346002B01D000F0B5F9602347
:101CD0007B600023BB600023FB6000237B613B1D16
:101CE000002219460C4805F0EDFA0346002B01D0FE
:101CF00000F0A2F93B1D04221946074805F0E2FA5C
:101D00000346002B01D000F097F9034800F06EFC69
:101D100000BF2037BD4680BD2004002000400140A8
:101D200080B588B000AF3B1D00221A605A609A60EF
:101D3000DA601A615A619A611A4B1B4A1A60194B90
:101D400000225A60174B00229A60164B4FF6FF7222
:101D5000DA60144B00221A61124B00229A6111487A
:101D600005F029F90346002B01D000F065F9602346
:101D70007B600023BB600023FB6000237B613B1D75
:101D800000221946074805F09DFA0346002B01D0B2
:101D900000F052F9034800F029FC00BF2037BD468F
:101DA00080BD00BF680400200018004080B500AF6F
:101DB000114B124A1A60104B4FF4E1325A600E4B2D
:101DC00000229A600C4B0022DA600B4B00221A6151
:101DD000094B0C225A61084B00229A61064B0022E3
:101DE000DA61054805F07AFE0346002B01D000F0C9
:101DF00023F900BF80BD00BFB004002000440040B4
:101E000080B58CB000AF07F11C0300221A605A6045
:101E10009A60DA601A610023BB61814B1B6B804AB8
:101E200043F0100313637E4B1B6B03F01003BB6185
:101E3000BB6900237B617A4B1B6B794A43F0040337
:101E40001363774B1B6B03F004037B617B690023F7
:101E50003B61734B1B6B724A43F080031363704BFF
:101E60001B6B03F080033B613B690023FB606C4B01
:101E70001B6B6B4A43F001031363694B1B6B03F04D
:101E80000103FB60FB680023BB60654B1B6B644A6E
:101E900043F002031363624B1B6B03F00203BB604E
:101EA000BB6800237B605E4B1B6B5D4A43F00803FD
:101EB00013635B4B1B6B03F008037B607B680022A2
:101EC00041F20801574801F02FFC01220121564838
:101ED00001F02AFC002240F20631534801F024FCB4
:101EE00000224FF43041514801F01EFC00224FF215
:101EF0001B614F4801F018FC41F20803FB6101230C
:101F00003B6200237B620023BB6207F11C0319467E
:101F1000444801F06DFA40F20733FB6101233B6254
:101F200000237B620023BB6207F11C0319463E4875
:101F300001F05EFA0823FB6102233B6200237B620F
:101F40000023BB620523FB6207F11C0319463648D8
:101F500001F04EFA0123FB614FF490133B62002322
:101F60007B6207F11C031946324801F041FA042351
:101F7000FB6100233B6200237B6207F11C031946CF
:101F80002A4801F035FA4FF48063FB6102233B627B
:101F900000237B620023BB620523FB6207F11C0365
:101FA0001946224801F024FA4FF43043FB61012323
:101FB0003B6200237B620023BB6207F11C031946CE
:101FC0001A4801F015FA4FF21B63FB6101233B62D3
:101FD00000237B620023BB6207F11C0319461448EF
:101FE00001F006FA2023FB6100233B6200237B62A1
:101FF00007F11C0319460E4801F0FAF90223FB61B0
:102000004FF490133B6200237B6207F11C031946D7
:10201000044801F0EDF900BF3037BD4680BD00BF78
:102020000038024000100240000802400004024054
:10203000000C02400000024080B400AF72B600BF46
:1020400000BFFDE780B500AF154B5A221A60154B53
:102050005A221A60144B00221A60144B00221A6094
:102060000F4B1B68DBB21A460021114800F01EFF1F
:1020700000210F4804F0EEFF962001F083F8094B91
:102080001B68DBB21A460421094800F00FFF042147
:10209000074804F0DFFF962001F074F800BF80BD10
:1020A0001C00002020000020F8040020FC04002078
:1020B0002004002080B582B000AF01F057F87860AE
:1020C0007E4B1B78C3F30013DBB2002B14BF01233C
:1020D0000023FB70794B1B78C3F34013DBB2002B5A
:1020E00014BF01230023BB70FB78002B02D1BB7807
:1020F000002B64D0724B1B78FA789A4214BF0123EC
:1021000000237B707B78002B0DD06E4B1B78002B4F
:1021100009D008216C4805F065F86A4B00221A7056
:10212000012001F02FF8FB78002B09D001224FF499
:102130008051664800F02EFF614B01221A7008E0C2
:1021400000224FF48051614800F024FF5C4B0022D4
:102150001A705C4B1B7883F00103DBB2002B0CD0B0
:1021600040F2DC520821584800F030FF0821564860
:1021700004F070FF534B01221A70554B1B687A68AC
:102180009A422CD0524A7B681360FB78002B0BD00C
:10219000504B1B6840F29E22934220DC4D4B1B6843
:1021A00001334C4A13601AE04A4B1B684A4A934277
:1021B00015DB484B1B68013B464A13600FE0414B5F
:1021C0001B78002B06D008213F4805F00BF83D4B4B
:1021D00000221A703F4B1B68404A136000E000BFAA
:1021E0003F4B1B687A68D31A132B62D93C4A7B6831
:1021F0001360324B1B7803F00103DBB2002B05D0D8
:10220000384B1B6802331A46364B1A602B4B1B782F
:1022100003F00203DBB2002B05D0324B1B68023BFC
:102220001A46304B1A60254B1B7803F00403DBB2CF
:10223000002B05D02C4B1B6802331A462A4B1A6020
:102240001E4B1B7803F00803DBB2002B05D0264B96
:102250001B68023B1A46244B1A60224B1B68AA2BB0
:1022600002DD204BAA221A601E4B1B68092B02DCE0
:102270001C4B0A221A601C4B1B68B42B02DD1A4B44
:10228000B4221A60184B1B68002B02DA164B00228E
:102290001A60144B1B68DBB21A460021134800F089
:1022A00005FE114B1B68DBB21A4604210F4800F0F3
:1022B000FDFD00BF0837BD4680BD00BF44050020BE
:1022C0002400002000050020D80300200010024058
:1022D00004050020FC04002062FDFFFFF80400203C
:1022E000080500201C000020200000202004002001
:1022F00080B582B000AF00237B60104B5B6C0F4A4F
:1023000043F4804353640D4B5B6C03F480437B6068
:102310007B6800233B60094B1B6C084A43F08053E9
:102320001364064B1B6C03F080533B603B68072033
:1023300001F01CF800BF0837BD4680BD00380240E0
:1023400080B58EB000AF786007F1240300221A60D8
:102350005A609A60DA601A6107F1140300221A6069
:102360005A609A60DA607B681B68314A93425AD19E
:1023700001237B61C023BB610223FB6107F11403CE
:10238000184604F04DFC0346002B01D0FFF754FE25
:1023900000233B61274B1B6C264A43F40043136424
:1023A000244B1B6C03F400433B613B690023FB603F
:1023B000204B1B6B1F4A43F0010313631D4B1B6B28
:1023C00003F00103FB60FB680023BB60194B1B6B30
:1023D000184A43F004031363164B1B6B03F004030A
:1023E000BB60BB6810237B620223BB620023FB62DD
:1023F00000233B6306237B6307F1240319460E4841
:1024000000F0F6FF4FF4A4537B620223BB6200236B
:10241000FB6200233B6306237B6307F12403194619
:10242000064800F0E5FF00BF3837BD4680BD00BF5D
:10243000003C00400038024000000240000802401A
:1024400080B58AB000AF786007F1140300221A60EB
:102450005A609A60DA601A617B681B68194A934275
:102460002BD100233B61184B5B6C174A43F480531C
:102470005364154B5B6C03F480533B613B69002351
:10248000FB60114B1B6B104A43F0010313630E4BAF
:102490001B6B03F00103FB60FB68E0237B610223FD
:1024A000BB610023FB6100233B6205237B6207F1D4
:1024B00014031946054800F09BFF00BF2837BD46AE
:1024C00080BD00BF003001400038024000000240E3
:1024D00080B489B000AF78607B681B683D4A934246
:1024E0000ED10023FB613C4B5B6C3B4A43F0010384
:1024F0005364394B5B6C03F00103FB61FB6962E0E1
:102500007B681B68B3F1804F0ED10023BB61324B57
:102510001B6C314A43F0010313642F4B1B6C03F017
:102520000103BB61BB694EE07B681B682B4A934289
:102530000ED100237B61284B1B6C274A43F002031A
:102540001364254B1B6C03F002037B617B693AE04B
:102550007B681B68224A93420ED100233B611E4BCD
:102560001B6C1D4A43F0040313641B4B1B6C03F0EC
:1025700004033B613B6926E07B681B68194A934270
:102580000ED10023FB60144B5B6C134A43F4803381
:102590005364114B5B6C03F48033FB60FB6812E007
:1025A0007B681B68104A93420DD10023BB600A4B25
:1025B0001B6C094A43F040031364074B1B6C03F088
:1025C0004003BB60BB6800BF2437BD465DF8047B99
:1025D000704700BF00000140003802400004004086
:1025E00000080040004001400018004080B590B055
:1025F00000AF786007F12C0300221A605A609A60DD
:10260000DA601A617B681B688C4A93421FD10023F1
:10261000BB628B4B1B6B8A4A43F010031363884BDE
:102620001B6B03F01003BB62BB6A4FF40073FB62C9
:1026300002233B6300237B630023BB630123FB6313
:1026400007F12C0319467F4800F0D2FEF2E07B68C8
:102650001B68B3F1804F3ED100237B62784B1B6B2C
:10266000774A43F001031363754B1B6B03F00103BF
:102670007B627B6A00233B62714B1B6B704A43F0A9
:10268000020313636E4B1B6B03F002033B623B6A56
:1026900048F20203FB6202233B6300237B630023B7
:1026A000BB630123FB6307F12C031946664800F066
:1026B0009FFE4FF40063FB6202233B6300237B63B6
:1026C0000023BB630123FB6307F12C0319465F481A
:1026D00000F08EFEAEE07B681B685D4A93423CD101
:1026E0000023FB61564B1B6B554A43F002031363F7
:1026F000534B1B6B03F00203FB61FB690023BB61BF
:102700004F4B1B6B4E4A43F0040313634C4B1B6B44
:1027100003F00403BB61BB692323FB6202233B6319
:1027200000237B630023BB630223FB6307F12C03BD
:102730001946464800F05CFE4023FB6202233B63DF
:1027400000237B630023BB630223FB6307F12C039D
:102750001946404800F04CFE6CE07B681B683E4A1E
:1027600093421FD100237B61354B1B6B344A43F0EE
:1027700002031363324B1B6B03F002037B617B6923
:102780004FF47073FB6202233B6300237B630023DF
:10279000BB630223FB6307F12C0319462B4800F0AF
:1027A00027FE47E07B681B682C4A93421ED100231A
:1027B0003B61234B1B6B224A43F010031363204BF6
:1027C0001B6B03F010033B613B696023FB62022338
:1027D0003B6300237B630023BB630323FB6307F19D
:1027E0002C031946174800F003FE23E07B681B68A2
:1027F0001B4A93421ED10023FB60114B1B6B104AF6
:1028000043F0020313630E4B1B6B03F00203FB60E8
:10281000FB684FF48043FB6202233B6300237B632E
:102820000023BB630923FB6307F12C031946074808
:1028300000F0DEFD00BF4037BD4680BD0000014016
:102840000038024000100240000002400004024034
:102850000004004000080240000800400040014021
:102860000018004080B58AB000AF786007F114030B
:1028700000221A605A609A60DA601A617B681B68ED
:10288000194A93422BD100233B61184B1B6C174A0A
:1028900043F400331364154B1B6C03F400333B61AA
:1028A0003B690023FB60114B1B6B104A43F0010393
:1028B00013630E4B1B6B03F00103FB60FB680C23DF
:1028C0007B610223BB610023FB6103233B6207237F
:1028D0007B6207F114031946054800F089FD00BF2B
:1028E0002837BD4680BD00BF00440040003802408C
:1028F0000000024080B400AF00BFFDE780B400AF2D
:1029000000BFFDE780B400AF00BFFDE780B400AFBB
:1029100000BFFDE780B400AF00BFFDE780B400AFAB
:1029200000BFBD465DF8047B704780B400AF00BFB8
:10293000BD465DF8047B704780B400AF00BFBD4664
:102940005DF8047B704780B500AF00F0FBFB00BF73
:1029500080BD000080B500AF024801F0D5F900BF8E
:1029600080BD00BF2809002080B483B000AF0346BB
:10297000FB710F4B1B680E4A43F0807313600D4BC5
:102980001B680C4A43F00103136000BF4FF0604323
:102990001B6803F00103002BF8D04FF06042FB7975
:1029A000136000BF0C37BD465DF8047B704700BF65
:1029B000FCED00E0000E00E080B400AF01231846FB
:1029C000BD465DF8047B704780B582B000AF78608B
:1029D00039600AF00DF9034616221A604FF0FF33F2
:1029E00018460837BD4680BD80B582B000AF78601C
:1029F0004FF0FF317868FFF7E7FF00BFFDE780B5D4
:102A000086B000AFF860B9607A6000237B610AE0AD
:102A1000AFF300800146BB685A1CBA60CAB21A7094
:102A20007B6901337B617A697B689A42F0DB7B6862
:102A300018461837BD4680BD80B586B000AFF86037
:102A4000B9607A6000237B6109E0BB685A1CBA60F8
:102A50001B781846FFF788FF7B6901337B617A6931
:102A60007B689A42F1DB7B6818461837BD4680BD0B
:102A700080B483B000AF78604FF0FF3318460C3756
:102A8000BD465DF8047B704780B483B000AF7860CA
:102A900039603B684FF400525A60002318460C37E7
:102AA000BD465DF8047B704780B483B000AF7860AA
:102AB000012318460C37BD465DF8047B704780B48F
:102AC00085B000AFF860B9607A600023184614370B
:102AD000BD465DF8047B704780B586B000AF786076
:102AE000144A154BD31A7B617B693B61134B1B68FE
:102AF000002B02D1114B124A1A60104B1A687B68E6
:102B000013443A699A4207D20AF072F803460C223B
:102B10001A604FF0FF3309E0084B1B68FB60074B5E
:102B20001A687B681344054A1360FB681846183717
:102B3000BD4680BD00000220000400000C050020FE
:102B4000580E002080B400AF064BD3F88830054AF9
:102B500043F47003C2F8883000BFBD465DF8047BC3
:102B6000704700BF00ED00E080B500AF00F0FEFA56
:102B70000346184680BD000080B582B000AF786083
:102B8000052301221449786804F0F8FF0346002B5E
:102B90001ED1114B1B78AA2B1BD1052301220F49F3
:102BA000786804F0EBFF0346002B12D10B4B1B7827
:102BB0001A2B0ED1094B1B781A460A23084978684C
:102BC00004F0DCFF0346002B03D100F00BF800E01B
:102BD00000BF0837BD4680BD2A0500202B05002018
:102BE000100500202DE9F04F8FB00AAF7A4B7B4AD9
:102BF00012881A80794BD3F80230794A1360774BE8
:102C0000D3F80630774A1360744BD3F80A30764A0B
:102C10001360724BD3F80E30744A13606F4BD3F8C5
:102C20001230734A13606D4BD3F81630714A13603B
:102C30006A4B1B881E466A4B1B681846FDF784FCCE
:102C4000C7E90201674B1B681846FDF77DFC044687
:102C50000D46654B1B681846FDF776FC8046894695
:102C6000624B1B681846FDF76FFC82468B46604B33
:102C70001B681846FDF768FCC7E900015D4B1B683F
:102C80001846FDF761FC02460B46CDE9082397ED97
:102C9000007B8DED067BCDE904ABCDE90289CDE962
:102CA0000045D7E902233146534809F0F7FD4A4B66
:102CB0001B7803F00103DBB2002B02D04F4809F070
:102CC000EDFD454B1B7803F00203DBB2002B02D075
:102CD0004B4809F0E3FD404B1B7803F00403DBB2E3
:102CE000002B02D0474809F0D9FD3B4B1B7803F07D
:102CF0000803DBB2002B02D0434809F0CFFD364B6E
:102D00001B7803F01003DBB2002B02D03F4809F020
:102D1000C5FD314B1B7803F02003DBB2002B02D042
:102D20003B4809F0BBFD2C4B1B7803F04003DBB2A2
:102D3000002B02D0374809F0B1FD274B1B7823F058
:102D40007F03DBB2002B02D0334809F0A7FD224BF2
:102D50005B7803F00103DBB2002B02D02F4809F0AF
:102D60009DFD1D4B5B7803F00203DBB2002B02D00C
:102D70002B4809F093FD184B5B7803F00403DBB29A
:102D8000002B02D0274809F089FD134B5B7803F034
:102D90000803DBB2002B02D0234809F07FFD0E4B65
:102DA0005B7803F01003DBB2002B02D01F4809F060
:102DB00075FD094B5B7803F02003DBB2002B02D0DA
:102DC0001B4809F06BFD1B4809F0D0FD00BF14370C
:102DD000BD46BDE8F08F00BF44050020100500206F
:102DE0002C05002030050020340500203805002087
:102DF0003C05002040050020A4E70008ECE700089F
:102E0000F0E70008F8E7000800E8000808E8000814
:102E100014E800081CE8000824E800082CE8000872
:102E200030E8000834E8000840E8000844E80008FA
:102E30004CE8000858E8000880B487B000AFF8609C
:102E4000B9601346FB71FB681B68DB6A7B61FB7929
:102E50007A69013202FB03F3134AA2FB0323DB0965
:102E60003B61BB68002B04D1FB681B683A695A635D
:102E700013E0BB68042B04D1FB681A683B699363B9
:102E80000BE0BB68082B04D1FB681A683B69D3636D
:102E900003E0FB681A683B69136400BF1C37BD463A
:102EA0005DF8047B704700BF8180808080B485B06E
:102EB00000AF78600B46FB701346BB70BB78B42B39
:102EC00001D9B423BB70BB784FF47A7202FB03F3D1
:102ED000164A82FB03121A44D211DB17D31A9BB293
:102EE00003F57A73FB81FB78002B04D17B681B68A8
:102EF000FA895A6313E0FB78042B04D17B681A68C3
:102F0000FB8993630BE0FB78082B04D17B681A687C
:102F1000FB89D36303E07B681A68FB89136400BFF5
:102F20001437BD465DF8047B704700BFB7600BB631
:102F300080B485B000AFF860B9601346FB80FB88B1
:102F4000B3F57A7F20D3FB88B3F5FA6F1CD8BB6842
:102F5000002B04D1FB681B68FA885A6315E0BB6834
:102F6000042B04D1FB681A68FB8893630DE0BB68EF
:102F7000082B04D1FB681A68FB88D36305E0FB6863
:102F80001A68FB88136400E000BF1437BD465DF883
:102F9000047B704780B582B000AF78600B467B80C1
:102FA00013467B707B78012B06D17B880122194662
:102FB000786800F0B9FB05E07B8800221946786844
:102FC00000F0B2FB00BF0837BD4680BD80B487B0BB
:102FD00000AFF860B9607A607B68092B01D80A23DA
:102FE0007B60194A7B68B2FBF3F3013B7B61FB68B2
:102FF0001B687A69DA62FB687A69DA60BB68002B61
:1030000005D1FB681B687A6952085A6316E0BB68F1
:10301000042B05D1FB681A687B695B0893630DE09C
:10302000BB68082B05D1FB681A687B695B08D36312
:1030300004E0FB681A687B695B08136400BF1C37F7
:10304000BD465DF8047B704740420F00DFF834D086
:10305000FFF778FD0C480D490D4A002302E0D458D3
:10306000C4500433C4188C42F9D30A4A0A4C0023D2
:1030700001E013600432A242FBD309F0BFFDFEF76A
:10308000C3FA704700000220000000201C0200204C
:10309000FCEB00081C020020540E0020FEE700009C
:1030A00080B500AF0E4B1B680D4A43F400731360EC
:1030B0000B4B1B680A4A43F480631360084B1B6880
:1030C000074A43F480731360032000F04FF9002097
:1030D00000F008F8FFF70CF90023184680BD00BF88
:1030E000003C024080B582B000AF7860124B1A6895
:1030F000124B1B7819464FF47A73B3FBF1F3B2FB12
:10310000F3F3184600F067F90346002B01D00123C2
:103110000EE07B680F2B0AD8002279684FF0FF3051
:1031200000F02FF9064A7B681360002300E00123BA
:1031300018460837BD4680BD28000020300000201A
:103140002C00002080B400AF064B1B781A46064BBB
:103150001B681344044A136000BFBD465DF8047B3E
:10316000704700BF300000204805002080B400AF49
:10317000034B1B681846BD465DF8047B704700BFD3
:103180004805002080B584B000AF7860FFF7EEFFFF
:10319000B8607B68FB60FB68B3F1FF3F05D00A4B6A
:1031A0001B781A46FB681344FB6000BFFFF7DEFF85
:1031B0000246BB68D31AFA689A42F7D800BF00BF2C
:1031C0001037BD4680BD00BF3000002080B485B000
:1031D00000AF78607B6803F00703FB600C4BDB6893
:1031E000BB60BA684FF6FF031340BB60FB681A026E
:1031F000BB68134343F0BF6343F40033BB60044A2E
:10320000BB68D36000BF1437BD465DF8047B7047D0
:1032100000ED00E080B400AF044BDB681B0A03F054
:1032200007031846BD465DF8047B704700ED00E0DB
:1032300080B483B000AF0346FB7197F90730002BD1
:103240000BDBFB7903F01F02074997F907305B0995
:10325000012000FA02F241F8232000BF0C37BD46DE
:103260005DF8047B704700BF00E100E080B483B0EC
:1032700000AF03463960FB7197F90730002B0ADB7A
:103280003B68DAB20C4997F907301201D2B20B440D
:1032900083F800230AE03B68DAB20849FB7903F0BF
:1032A0000F03043B1201D2B20B441A7600BF0C3755
:1032B000BD465DF8047B704700E100E000ED00E0F2
:1032C00080B489B000AFF860B9607A60FB6803F041
:1032D0000703FB61FB69C3F10703042B28BF042329
:1032E000BB61FB690433062B02D9FB69033B00E099
:1032F00000237B614FF0FF32BB6902FA03F3DA432C
:10330000BB681A407B699A404FF0FF317B6901FA34
:1033100003F3D9437B680B40134318462437BD465B
:103320005DF8047B7047000080B582B000AF786024
:103330007B68013BB3F1807F01D301230FE00A4A90
:103340007B68013B53600F214FF0FF30FFF78EFF8A
:10335000054B00229A60044B07221A60002318468E
:103360000837BD4680BD00BF10E000E080B582B0E8
:1033700000AF78607868FFF729FF00BF0837BD46C7
:1033800080BD80B586B000AF0346B9607A60FB733C
:1033900000237B61FFF73EFF78617A68B96878693E
:1033A000FFF78EFF024697F90F3011461846FFF7D8
:1033B0005DFF00BF1837BD4680BD80B582B000AF4D
:1033C0000346FB7197F907301846FFF731FF00BF3E
:1033D0000837BD4680BD80B582B000AF78607868A0
:1033E000FFF7A2FF034618460837BD4680BD000020
:1033F00080B489B000AF7860396000237B6100231E
:103400003B610023BB610023FB616BE10122FB698F
:1034100002FA03F37B613B681B687A6913403B61E6
:103420003A697B699A4240F05A813B685B6803F0D5
:103430000303012B05D03B685B6803F00303022BF9
:1034400030D17B689B68BB61FB695B00032202FA99
:1034500003F3DB43BA691340BB613B68DA68FB697D
:103460005B0002FA03F3BA691343BB617B68BA6974
:103470009A607B685B68BB610122FB6902FA03F317
:10348000DB43BA691340BB613B685B681B0903F00F
:103490000102FB6902FA03F3BA691343BB617B685B
:1034A000BA695A603B685B6803F00303032B17D0CB
:1034B0007B68DB68BB61FB695B00032202FA03F3F4
:1034C000DB43BA691340BB613B689A68FB695B00E8
:1034D00002FA03F3BA691343BB617B68BA69DA6025
:1034E0003B685B6803F00303022B23D1FB69DA0816
:1034F0007B68083253F82230BB61FB6903F0070395
:103500009B000F2202FA03F3DB43BA691340BB614D
:103510003B681A69FB6903F007039B0002FA03F397
:10352000BA691343BB61FB69DA087B680832B96981
:1035300043F822107B681B68BB61FB695B000322B8
:1035400002FA03F3DB43BA691340BB613B685B6873
:1035500003F00302FB695B0002FA03F3BA69134349
:10356000BB617B68BA691A603B685B6803F44033EF
:10357000002B00F0B4800023FB60604B5B6C5F4A63
:1035800043F4804353645D4B5B6C03F48043FB6006
:10359000FB685B4AFB699B08023352F82330BB612E
:1035A000FB6903F003039B000F2202FA03F3DB43E2
:1035B000BA691340BB617B68524A93422BD07B6847
:1035C000514A934225D07B68504A93421FD07B6872
:1035D0004F4A934219D07B684E4A934213D07B687E
:1035E0004D4A93420DD07B684C4A934207D07B688A
:1035F0004B4A934201D107230EE008230CE0062337
:103600000AE0052308E0042306E0032304E0022384
:1036100002E0012300E00023FA6902F003029200B5
:103620009340BA691343BB613549FB699B08023378
:10363000BA6941F823203B4B9B68BB613B69DB4384
:10364000BA691340BB613B685B6803F48013002BCD
:1036500003D0BA693B691343BB61324ABB699360CB
:10366000304BDB68BB613B69DB43BA691340BB612C
:103670003B685B6803F40013002B03D0BA693B6915
:103680001343BB61274ABB69D360264B5B68BB61B0
:103690003B69DB43BA691340BB613B685B6803F479
:1036A0000033002B03D0BA693B691343BB611D4A49
:1036B000BB6953601B4B1B68BB613B69DB43BA6949
:1036C0001340BB613B685B6803F48033002B03D07D
:1036D000BA693B691343BB61124ABB691360FB695A
:1036E0000133FB61FB690F2B7FF690AE00BF00BF7B
:1036F0002437BD465DF8047B704700BF00380240A8
:10370000003801400000024000040240000802406E
:10371000000C024000100240001402400018024059
:10372000001C0240003C014080B483B000AF7860D0
:103730000B467B8013467B707B78002B03D07A8806
:103740007B689A6103E07B881A047B689A6100BFFA
:103750000C37BD465DF8047B704780B485B000AF80
:1037600078600B467B807B685B69FB607A88FB68CE
:1037700013401A04FB68D9437B880B401A437B68CB
:103780009A6100BF1437BD465DF8047B704780B571
:1037900086B002AF78607B68002B01D1012359E02D
:1037A0007B681B68FB607B6893F8D533DBB2002B2A
:1037B00006D17B68002283F8D423786807F0FEFFE7
:1037C0007B68032283F8D523FB68B3F1A04F02D1B5
:1037D0007B6800229A717B681B68184604F00BFE18
:1037E0007B6818687B681A7C8DF8002004330ECB48
:1037F00004F08CFD0346002B05D07B68022283F881
:10380000D523012326E07B681B680121184604F0BC
:1038100003FE0346002B05D07B68022283F8D523E4
:10382000012317E07B6818687B681A7C8DF80020FC
:1038300004330ECB04F0ACFF0346002B05D07B68AD
:10384000022283F8D523012304E07B68012283F858
:10385000D523002318461037BD4680BD90B58BB0E8
:1038600004AF7860084611461A460346FB700B46C3
:10387000BB7013467B703B8E7B617B6893F8D433BF
:10388000012B01D102239DE07B68012283F8D42320
:10389000FA78796813461B019B1A9B000B44193375
:1038A00000221A70FA78796813461B019B1A9B0054
:1038B0000B4414337A781A70FA78796813461B012E
:1038C0009B1A9B000B441533FA781A70FA787968C2
:1038D00013461B019B1A9B000B44263397F82C20A0
:1038E0001A70FA78BB7803F07F03D8B27968134670
:1038F0001B019B1A9B000B44163302461A70FB787F
:103900001946786800F0A4FB97F90230002B0ADA18
:10391000FA78796813461B019B1A9B000B441733F6
:1039200001221A7009E0FA78796813461B019B1A84
:103930009B000B44173300221A707B681B681846E3
:1039400005F08AF8386197F82C30012B0BD197F8E5
:103950002830012B07D13B69002B04D17B69BC2B9C
:1039600001D9BC237B61FA78796813461B019B1A45
:103970009B000B44183397F828201A70FA787B695B
:1039800098B2796813461B019B1A9B000B4428339D
:1039900002461A807B6818687B699BB27C78BA788B
:1039A000F978029397F82C30019397F82830009318
:1039B000234605F079F80346FB737B68002283F801
:1039C000D423FB7B18461C37BD4690BD80B582B022
:1039D00000AF7860084611461A460346FB700B4656
:1039E000BB7013467B70FA78796813461B019B1AEB
:1039F0009B000B441733BA781A70FA78796813462B
:103A00001B019B1A9B000B4426337A781A703B7C6F
:103A1000002B14D1FA78796813461B019B1A9B007E
:103A20000B442A3303221A70FA78796813461B0173
:103A30009B1A9B000B4419333A7F1A7009E0FA78FD
:103A4000796813461B019B1A9B000B442A33022200
:103A50001A707B78032B00F2028101A252F823F046
:103A6000713A0008493C0008353B0008BF3B00089C
:103A70003B7C012B40F0F580BB78002B2DD13B8B9C
:103A8000002B09D1FA78796813461B019B1A9B0019
:103A90000B443D3301221A70FA78796813461B01F2
:103AA0009B1A9B000B443D331B78002B0AD1FA78FC
:103AB000796813461B019B1A9B000B442A33002292
:103AC0001A70CEE0FA78796813461B019B1A9B00A6
:103AD0000B442A3302221A70C3E0FA78796813463D
:103AE0001B019B1A9B000B441A331B78012B40F0DF
:103AF000B880FA78796813461B019B1A9B000B4427
:103B00003C331B78002B0AD1FA78796813461B01E5
:103B10009B1A9B000B442A3300221A70A1E0FA780A
:103B2000796813461B019B1A9B000B442A3302221F
:103B30001A7096E0BB78002B20D1FA78796813468A
:103B40001B019B1A9B000B443D331B78002B0AD1B1
:103B5000FA78796813461B019B1A9B000B442A33A1
:103B600000221A707EE0FA78796813461B019B1ACE
:103B70009B000B442A3302221A7073E0FA787968AA
:103B800013461B019B1A9B000B443C331B78002BF4
:103B90000AD1FA78796813461B019B1A9B000B44E3
:103BA0002A3300221A705DE0FA78796813461B0107
:103BB0009B1A9B000B442A3302221A7052E0BB78F6
:103BC000002B20D1FA78796813461B019B1A9B00C1
:103BD0000B443D331B78002B0AD1FA7879681346E1
:103BE0001B019B1A9B000B442A3300221A7039E0F8
:103BF000FA78796813461B019B1A9B000B442A3301
:103C000002221A702EE0FA78796813461B019B1A7B
:103C10009B000B443C331B78002B0AD1FA7879685F
:103C200013461B019B1A9B000B442A3300221A7077
:103C300018E0FA78796813461B019B1A9B000B4425
:103C40002A3302221A700DE0FA78796813461B01B4
:103C50009B1A9B000B442A3300221A7002E000BF1B
:103C600000E000BFFA78796813461B019B1A9B009D
:103C70000B442C337A691A60FA78398B78681346CA
:103C80001B019B1A9B00034434331960FA7879684E
:103C900013461B019B1A9B000B444C3300221A70E5
:103CA000FA78796813461B019B1A9B000B44383342
:103CB00000221A60FA78796813461B019B1A9B0050
:103CC0000B441533FA781A70FA78796813461B0199
:103CD0009B1A9B000B444D3300221A707B681868B6
:103CE000FA7813461B019B1A9B0010337A68134421
:103CF000191D7B689B791A4605F002F803461846A1
:103D00000837BD4680BD00BF80B586B000AF786083
:103D10007B681B683B613B69FB607B681B681846DE
:103D200004F0F0FC0346012B40F0FB807B681B682D
:103D3000184604F0B3FC0346002B00F0F1807B68CA
:103D40001B68184604F0AAFC034603F40013B3F5FD
:103D5000001F04D17B681B684FF400125A617B6816
:103D60001B68184604F09AFC034603F48013B3F56D
:103D7000801F04D17B681B684FF480125A617B68F6
:103D80001B68184604F08AFC034603F08063B3F115
:103D9000806F04D17B681B684FF080625A617B683A
:103DA0001B68184604F07AFC034603F00203022B5A
:103DB00003D17B681B6802225A617B681B68184626
:103DC00004F06CFC034603F00053B3F1005F20D114
:103DD0007B681B684FF000525A61FB6803F58863EB
:103DE0001B6803F00103002B13D11021386904F084
:103DF0005FFB386904F08EFB7B685B7A022B05D190
:103E00007B681B680121184604F086FD786807F07E
:103E100053FD7B681B68184604F040FC034603F022
:103E20008073B3F1807F02D1786801F04DFD7B682B
:103E30001B68184604F032FC034603F00803082B05
:103E400006D1786807F01CFD7B681B6808225A6160
:103E50007B681B68184604F021FC034603F00073DE
:103E6000B3F1007F39D17B681B68184605F0C2F9B1
:103E7000B86000237B6125E07B6903F00F03BA681B
:103E800022FA03F303F00103002B18D07B695A01D7
:103E9000FB68134403F5A0631B6803F40043B3F508
:103EA000004F06D17B69DBB21946786800F005F94E
:103EB00005E07B69DBB21946786800F067FF7B6933
:103EC00001337B617B685B791A467B699342D3D36C
:103ED0007B681B684FF000725A617B681B6818464C
:103EE00004F0DCFB034603F01003102B01D1012387
:103EF00000E00023002B14D07B681B689A697B6864
:103F00001B6822F010029A61786801F0FEFB7B6862
:103F10001B689A697B681B6842F010029A6100E096
:103F200000BF1837BD4680BD80B582B000AF786055
:103F30007B6893F8D433012B01D1022313E07B6813
:103F4000012283F8D4237B681B680121184604F002
:103F50004AFD7B681B68184604F03CFA7B68002227
:103F600083F8D423002318460837BD4680BD80B5AA
:103F700082B000AF78607B6893F8D433012B01D115
:103F800002230DE07B68012283F8D4237B681B6841
:103F9000184605F09DFA7B68002283F8D42300239D
:103FA00018460837BD4680BD80B582B000AF786046
:103FB0007B681B68184604F0ECFC0346184608377B
:103FC000BD4680BD80B483B000AF78600B46FB7007
:103FD000FA78796813461B019B1A9B000B444C33FB
:103FE0001B7818460C37BD465DF8047B704780B4DB
:103FF00083B000AF78600B46FB70FA78796813469F
:104000001B019B1A9B000B4438331B6818460C3766
:10401000BD465DF8047B704780B582B000AF786024
:104020007B681B68184604F02EFD034618460837C7
:10403000BD4680BD80B582B000AF78607B681B68EC
:10404000184604F009FD034618460837BD4680BDF2
:1040500080B483B000AF78600B46FB70FA78796863
:1040600013461B019B1A9B000B441A3300221A7043
:10407000FA78796813461B019B1A9B000B441B338B
:1040800000221A70FA78796813461B019B1A9B006C
:104090000B44253300221A70FA78796813461B0105
:1040A0009B1A9B000B44243300221A7000231846ED
:1040B0000C37BD465DF8047B704780B586B000AF15
:1040C00078600B46FB707B681B687B617B693B619A
:1040D0007B681B68FA781146184604F0F2FA03462A
:1040E00003F00403042B1AD1FB785A013B691344F3
:1040F00003F5A0631A4604239360FA78796813469F
:104100001B019B1A9B000B444D3307221A707B68DE
:104110001B68FA781146184605F07DF89EE07B682A
:104120001B68FA781146184604F0CBFA034603F4EC
:104130008073B3F5807F1BD1FB785A013B69134430
:1041400003F5A0631A464FF480739360FA78796898
:1041500013461B019B1A9B000B444D3308221A7017
:104160007B681B68FA781146184605F054F875E02C
:104170007B681B68FA781146184604F0A2FA0346D9
:1041800003F00803082B1AD1FB785A013B6913444A
:1041900003F5A0631A4608239360FA7879681346FA
:1041A0001B019B1A9B000B444D3306221A707B683F
:1041B0001B68FA781146184605F02DF84EE07B682A
:1041C0001B68FA781146184604F07BFA034603F49C
:1041D0008063B3F5806F1BD1FB785A013B691344B0
:1041E00003F5A0631A464FF480639360FA78796808
:1041F00013461B019B1A9B000B444D3309221A7076
:104200007B681B68FA781146184605F004F825E02B
:104210007B681B68FA781146184604F052FA034688
:1042200003F08003802B19D1FB785A013B691344BA
:1042300003F5A0631A4680239360FA7879681346E1
:104240001B019B1A9B000B444D3307221A707B689D
:104250001B68FA781146184604F0DDFF7B681B687E
:10426000FA781146184604F02CFA034603F400735A
:10427000B3F5007F12D17B681B68FA7811461846A7
:1042800004F0C9FFFB785A013B69134403F5A063AE
:104290001A464FF40073936000F075BD7B681B688D
:1042A000FA781146184604F00CFA034603F00103AD
:1042B000012B40F02881FB785A013B69134403F538
:1042C000A0631A4620239360FA78796813461B018D
:1042D0009B1A9B000B441B331B78012B19D1FA78D6
:1042E000796813461B019B1A9B000B441B33002269
:1042F0001A70FB785A013B69134403F5A0635B68AD
:10430000FA7851013A690A4402F5A06223F4803335
:1043100053607B689B79002B1BD0FA787968134631
:104320001B019B1A9B000B4430331968FB785A0120
:104330003B69134403F5A0631B69C3F31203FA78C6
:10434000C91A786813461B019B1A9B000344383333
:104350001960FA78796813461B019B1A9B000B447D
:104360004D3301221A70FA78796813461B019B1AA3
:104370009B000B44443300221A60FB785A013B69CE
:10438000134403F5A0631A4601239360FA78796811
:1043900013461B019B1A9B000B4426331B78002BF2
:1043A0000AD0FA78796813461B019B1A9B000B44CC
:1043B00026331B78022B10D17B681B68FA781146D4
:1043C000184604F028FFFB785A013B69134403F5B3
:1043D000A0631A46102393603DE0FA78796813468B
:1043E0001B019B1A9B000B4426331B78032B0AD01E
:1043F000FA78796813461B019B1A9B000B442633FD
:104400001B78012B27D1FB785A013B69134403F534
:10441000A0631B68FA7851013A690A4402F5A06268
:1044200043F000531360FA78796813461B019B1A16
:104430009B000B444C3301221A70FA7879681346BA
:104440001B019B1A9B000B444C331A78FB781946CE
:10445000786807F03FFA7B689B79012B3BD1FA78AB
:10446000796813461B019B1A9B000B44383319686B
:10447000FA78786813461B019B1A9B000344283383
:104480001B880B44591EFA78786813461B019B1A47
:104490009B00034428331B88B1FBF3F303F00103B3
:1044A000002B00F07084FA78796813461B019B1A80
:1044B0009B000B443C331B78FA7883F00103D8B29D
:1044C000796813461B019B1A9B000B443C33024640
:1044D0001A7000F058BCFA78796813461B019B1AD1
:1044E0009B000B443C331B78FA7883F00103D8B26D
:1044F000796813461B019B1A9B000B443C33024610
:104500001A7000F040BC7B681B68FA7811461846A8
:1045100004F0D7F8034603F02003202B31D1FB78B9
:104520005A013B69134403F5A0631A4620239360A4
:10453000FA78796813461B019B1A9B000B441A33C7
:104540001B78012B40F01F84FA78796813461B0111
:104550009B1A9B000B441B3301221A70FA7879686E
:1045600013461B019B1A9B000B444D3303221A7008
:104570007B681B68FA781146184604F04CFE00F080
:1045800002BC7B681B68FA781146184604F099F85B
:10459000034603F00203022B40F00583FB785A0127
:1045A0003B69134403F5A0631A4602239360FA782B
:1045B000796813461B019B1A9B000B444D331B78F3
:1045C000012B14D1FA78796813461B019B1A9B00C2
:1045D0000B444D3302221A70FA78796813461B0196
:1045E0009B1A9B000B444C3301221A70CCE2FA78E0
:1045F000796813461B019B1A9B000B444D331B78B3
:10460000062B14D1FA78796813461B019B1A9B007C
:104610000B444D3302221A70FA78796813461B0155
:104620009B1A9B000B444C3305221A70ACE2FA78BB
:10463000796813461B019B1A9B000B444D331B7872
:10464000072B0BD0FA78796813461B019B1A9B0045
:104650000B444D331B78092B40F0A680FA7879681B
:1046600013461B019B1A9B000B444D3302221A7008
:10467000FA78796813461B019B1A9B000B4444335C
:104680001B68591C786813461B019B1A9B00034446
:1046900044331960FA78796813461B019B1A9B0012
:1046A0000B4444331B68022B43D9FA7879681346CC
:1046B0001B019B1A9B000B44443300221A60FA78BA
:1046C000796813461B019B1A9B000B441A331B7815
:1046D000012B23D1FA78796813461B019B1A9B00A2
:1046E0000B441B3300221A70FA78796813461B01B9
:1046F0009B1A9B000B441C3300221A70FB785A0152
:104700003B69134403F5A0635B68FA7851013A6989
:104710000A4402F5A06223F480335360FA78796882
:1047200013461B019B1A9B000B444C3304221A7046
:1047300029E2FA78796813461B019B1A9B000B4407
:104740004C3302221A70FA78796813461B019B1ABF
:104750009B000B4426331B78002B0BD0FA7879682A
:1047600013461B019B1A9B000B4426331B78022B1C
:1047700040F00982FB785A013B69134403F5A063BA
:104780001B68FB60FB6823F08043FB60FB6843F021
:104790000043FB60FB785A013B69134403F5A063B7
:1047A0001A46FB681360EEE1FA78796813461B013C
:1047B0009B1A9B000B444D331B78052B40F0C8809F
:1047C000FA78796813461B019B1A9B000B444D3302
:1047D00002221A70FA78796813461B019B1A9B0013
:1047E0000B441B331B78012B40F0CE81FA7879689B
:1047F00013461B019B1A9B000B4426331B78032B8B
:104800006BD1FA78796813461B019B1A9B000B4405
:1048100048331B68591C786813461B019B1A9B0080
:10482000034448331960FA78796813461B019B1AD0
:104830009B000B4448331B68022B43D9FA787968F4
:1048400013461B019B1A9B000B44483300221A603D
:10485000FA78796813461B019B1A9B000B441B33A3
:1048600000221A70FA78796813461B019B1A9B0084
:104870000B4444331B68022B09D8FA787968134635
:104880001B019B1A9B000B441C3301221A70FB78FE
:104890005A013B69134403F5A0635B68FA78510140
:1048A0003A690A4402F5A06223F480335360FA782F
:1048B000796813461B019B1A9B000B444C3304225E
:1048C0001A7014E0FA78796813461B019B1A9B0052
:1048D0000B444C3302221A7009E0FA7879681346C7
:1048E0001B019B1A9B000B444C3302221A70FA786E
:1048F000796813461B019B1A9B000B4426331B78D7
:10490000002B0BD0FA78796813461B019B1A9B0089
:104910000B4426331B78022B40F03681FB785A017A
:104920003B69134403F5A0631B68FB60FB6823F03D
:104930008043FB60FB6843F00043FB60FB785A0157
:104940003B69134403F5A0631A46FB6813601BE13F
:10495000FA78796813461B019B1A9B000B444D3370
:104960001B78032B40F08180FA78796813461B018D
:104970009B1A9B000B444D3302221A70FA78796817
:1049800013461B019B1A9B000B441B331B78012B06
:1049900040F0FA80FA78796813461B019B1A9B0055
:1049A0000B444C3302221A70FB785A013B691344C2
:1049B00003F5A0635B68FA7851013A690A4402F58D
:1049C000A06243F480335360FB785A013B6913447F
:1049D00003F5A063DB68FA7851013A690A4402F5ED
:1049E000A06243F04003D360FB785A013B69134453
:1049F00003F5A063DB68FA7851013A690A4402F5CD
:104A0000A06223F02003D360FA78796813461B0173
:104A10009B1A9B000B4426331B78002B0BD0FA7893
:104A2000796813461B019B1A9B000B4426331B78A5
:104A3000022B40F0A980FB785A013B69134403F52F
:104A4000A0631B68FB60FB6823F08043FB60FB688E
:104A500043F00043FB60FB785A013B69134403F5C4
:104A6000A0631A46FB6813608EE0FA7879681346F3
:104A70001B019B1A9B000B444D331B78042B43D125
:104A8000FA78796813461B019B1A9B000B444D333F
:104A900002221A70FA78796813461B019B1A9B0050
:104AA0000B444C3302221A70FA78796813461B01C2
:104AB0009B1A9B000B4426331B78002B0AD0FA78F4
:104AC000796813461B019B1A9B000B4426331B7805
:104AD000022B59D1FB785A013B69134403F5A063BB
:104AE0001B68FB60FB6823F08043FB60FB6843F0BE
:104AF0000043FB60FB785A013B69134403F5A06354
:104B00001A46FB6813603FE0FA78796813461B0188
:104B10009B1A9B000B444D331B78082B26D1FA7847
:104B2000796813461B019B1A9B000B444D330222EC
:104B30001A70FA78796813461B019B1A9B000B4484
:104B400044331B68591C786813461B019B1A9B0051
:104B5000034444331960FA78796813461B019B1AA1
:104B60009B000B444C3304221A700DE0FA787968EC
:104B700013461B019B1A9B000B444D331B78022BE1
:104B800000F0008100E000BFFA78796813461B014D
:104B90009B1A9B000B444C331A78FB7819467868B3
:104BA00006F098FEEFE07B681B68FA78114618461D
:104BB00003F087FD034603F04003402B2FD1FB7821
:104BC0005A013B69134403F5A0631A4640239360DE
:104BD000FA78796813461B019B1A9B000B444D33EE
:104BE00005221A70FA78796813461B019B1A9B00FC
:104BF0000B441A331B78002B09D1FA7879681346D5
:104C00001B019B1A9B000B44443300221A607B68F3
:104C10001B68FA781146184604F0FDFAB3E07B6889
:104C20001B68FA781146184603F04BFD034603F063
:104C30001003102B40F0A780FA78796813461B0107
:104C40009B1A9B000B4426331B78032B1BD1FA784D
:104C5000796813461B019B1A9B000B4444330022C6
:104C60001A60FA78796813461B019B1A9B000B4463
:104C70004D3304221A707B681B68FA781146184677
:104C800004F0C9FA3FE0FA78796813461B019B1AD1
:104C90009B000B4426331B78002B0AD0FA787968E6
:104CA00013461B019B1A9B000B4426331B78022BD7
:104CB00029D1FA78796813461B019B1A9B000B4493
:104CC000443300221A607B689B79002B0AD0FA7863
:104CD000796813461B019B1A9B000B441B331B78FE
:104CE000012B10D1FA78796813461B019B1A9B009F
:104CF0000B444D3304221A707B681B68FA78114606
:104D0000184604F088FAFA78796813461B019B1A52
:104D10009B000B441B331B78012B29D1FA7879684F
:104D200013461B019B1A9B000B441B3300221A7075
:104D3000FB785A013B69134403F5A0635B68FA787A
:104D400051013A690A4402F5A06223F480335360AA
:104D5000FB785A013B69134403F5A063DB68FA78DA
:104D600051013A690A4402F5A06243F02003D3607E
:104D7000FB785A013B69134403F5A0631A461023DC
:104D8000936000E000BF1837BD4680BD80B586B097
:104D900000AF78600B46FB707B681B687B617B69AA
:104DA0003B617B681B68FA781146184603F089FC62
:104DB000034603F00403042B1BD1FB785A013B6923
:104DC000134403F5A0631A4604239360FA787968C4
:104DD00013461B019B1A9B000B444D3307221A708C
:104DE0007B681B68FA781146184604F014FA00F044
:104DF00089BC7B681B68FA781146184603F061FC91
:104E0000034603F02003202B40F08280FB785A01F8
:104E10003B69134403F5A0631A4620239360FA7894
:104E2000796813461B019B1A9B000B4419331B78AE
:104E3000012B24D1FA78796813461B019B1A9B0039
:104E40000B44193300221A70FA78796813461B0153
:104E50009B1A9B000B444C3302221A70FA78796833
:104E600013461B019B1A9B000B444D3303221A70FF
:104E70007B681B68FA781146184604F0CCF9FA787A
:104E8000796813461B019B1A9B000B441A331B784D
:104E9000012B40F03784FA78796813461B019B1A7E
:104EA0009B000B441B331B78002B40F02B84FA78BB
:104EB000796813461B019B1A9B000B4426331B7811
:104EC000012B09D0FA78796813461B019B1A9B00C5
:104ED0000B441B3301221A70FA78796813461B01C0
:104EE0009B1A9B000B444D3303221A707B681B688E
:104EF000FA781146184604F08EF9FA787968134664
:104F00001B019B1A9B000B44443300221A60F9E3F7
:104F10007B681B68FA781146184603F0D2FB0346FB
:104F200003F40073B3F5007F11D1FB785A013B699C
:104F3000134403F5A0631A464FF4007393607B6833
:104F40001B68FA781146184604F065F9DAE37B68C5
:104F50001B68FA781146184603F0B3FB034603F0CA
:104F60000103012B68D1FA78796813461B019B1A5B
:104F70009B000B44443300221A607B681B68FA785C
:104F80001146184603F09DFB034603F04003402BF7
:104F900012D1FA78796813461B019B1A9B000B44C7
:104FA000193301221A70FB785A013B69134403F547
:104FB000A0631A4640239360FA78796813461B0170
:104FC0009B1A9B000B441B331B78002B19D0FA78DB
:104FD000796813461B019B1A9B000B441B3300226C
:104FE0001A70FB785A013B69134403F5A0635B68B0
:104FF000FA7851013A690A4402F5A06223F4803339
:105000005360FB785A013B69134403F5A0631A46C9
:1050100001239360FA78796813461B019B1A9B0061
:105020000B444D3301221A707B681B68FA781146D5
:10503000184604F0F0F865E37B681B68FA781146BF
:10504000184603F03EFB034603F04003402B39D1E2
:10505000FA78796813461B019B1A9B000B444D3369
:1050600005221A70FA78796813461B019B1A9B0077
:105070000B441A331B78002B09D1FA787968134650
:105080001B019B1A9B000B44193301221A70FA78FA
:10509000796813461B019B1A9B000B444433002282
:1050A0001A607B681B68FA781146184604F0B3F85A
:1050B000FB785A013B69134403F5A0631A46402369
:1050C00093601FE37B681B68FA781146184603F06B
:1050D000F8FA034603F00803082B1AD1FB785A01AB
:1050E0003B69134403F5A0631A4608239360FA78DA
:1050F000796813461B019B1A9B000B444D33062213
:105100001A707B681B68FA781146184604F083F819
:10511000F8E27B681B68FA781146184603F0D1FA6A
:10512000034603F01003102B44D1FA787968134634
:105130001B019B1A9B000B44443300221A60FA782F
:10514000796813461B019B1A9B000B444D330422C4
:105150001A70FA78796813461B019B1A9B000B445E
:1051600019331B78002B14D1FA78796813461B0188
:105170009B1A9B000B4418331B78002B09D1FA783B
:10518000796813461B019B1A9B000B4419330122BB
:105190001A707B681B68FA781146184604F03BF8D1
:1051A000FB785A013B69134403F5A0631A461023A8
:1051B0009360A7E27B681B68FA781146184603F0F3
:1051C00080FA034603F08003802B40F083807B68E5
:1051D0009B79002B11D1FA78796813461B019B1A31
:1051E0009B000B444D3307221A707B681B68FA78CA
:1051F0001146184604F00FF862E0FA787968134611
:105200001B019B1A9B000B4444331B68591C786894
:1052100013461B019B1A9B00034444331960FA7820
:10522000796813461B019B1A9B000B4444331B688F
:10523000022B22D9FA78796813461B019B1A9B002E
:105240000B44443300221A60FA78796813461B0134
:105250009B1A9B000B444C3304221A70FA7879682D
:1052600013461B019B1A9B000B444C331A78FB78A6
:105270001946786806F02EFB22E0FA787968134622
:105280001B019B1A9B000B444C3302221A70FB78C3
:105290005A013B69134403F5A0631B68FB60FB687C
:1052A00023F08043FB60FB6843F00043FB60FB7826
:1052B0005A013B69134403F5A0631A46FB68136067
:1052C000FB785A013B69134403F5A0631A46802317
:1052D000936017E27B681B68FA781146184603F062
:1052E000F0F9034603F48063B3F5806F1BD1FA78BD
:1052F000796813461B019B1A9B000B444D3309220E
:105300001A707B681B68FA781146184603F083FF11
:10531000FB785A013B69134403F5A0631A464FF426
:1053200080639360EEE17B681B68FA78114618464B
:1053300003F0C7F9034603F00203022B40F0DF81BC
:10534000FB785A013B69134403F5A0631A46022314
:105350009360FA78796813461B019B1A9B000B44F3
:105360004D331B78012B40F09380FA78796813460F
:105370001B019B1A9B000B444D3302221A70FA78D2
:10538000796813461B019B1A9B000B444C33012286
:105390001A70FA78796813461B019B1A9B000B441C
:1053A00026331B78022B0BD0FA78796813461B0141
:1053B0009B1A9B000B4426331B78032B40F09081F3
:1053C0007B689B79002B15D1FA78796813461B010D
:1053D0009B1A9B000B443D331B78FA7883F0010342
:1053E000D8B2796813461B019B1A9B000B443D33CE
:1053F00002461A707B689B79012B40F07181FA7824
:10540000796813461B019B1A9B000B4434331B68BD
:10541000002B00F06581FA78796813461B019B1A0E
:105420009B000B4434331968FA78786813461B01E3
:105430009B1A9B00034428331B880B44591EFA789F
:10544000786813461B019B1A9B00034428331B8872
:10545000B1FBF3F3BB60BB6803F00103002B00F06A
:105460003F81FA78796813461B019B1A9B000B4415
:105470003D331B78FA7883F00103D8B2796813467C
:105480001B019B1A9B000B443D3302461A7027E117
:10549000FA78796813461B019B1A9B000B444D3325
:1054A0001B78032B20D1FA78796813461B019B1ACD
:1054B0009B000B444D3302221A70FA787968134628
:1054C0001B019B1A9B000B441B331B78012B40F0E4
:1054D0000781FA78796813461B019B1A9B000B44DD
:1054E0004C3302221A70FBE0FA78796813461B01EC
:1054F0009B1A9B000B444D331B78042B3AD1FA784E
:10550000796813461B019B1A9B000B444D33022202
:105510001A70FA78796813461B019B1A9B000B449A
:105520004C3302221A70FA78796813461B019B1AD1
:105530009B000B441B331B78012B40F0D180FA7881
:10554000796813461B019B1A9B000B441B330022F6
:105550001A70FB785A013B69134403F5A0635B683A
:10556000FA7851013A690A4402F5A06223F48033C3
:105570005360B5E0FA78796813461B019B1A9B00CB
:105580000B444D331B78052B14D1FA7879681346F8
:105590001B019B1A9B000B444D3302221A70FA78B0
:1055A000796813461B019B1A9B000B444C33022263
:1055B0001A7095E0FA78796813461B019B1A9B00D4
:1055C0000B444D331B78062B14D1FA7879681346B7
:1055D0001B019B1A9B000B444D3302221A70FA7870
:1055E000796813461B019B1A9B000B444C33052220
:1055F0001A7075E0FA78796813461B019B1A9B00B4
:105600000B444D331B78072B0AD0FA787968134680
:105610001B019B1A9B000B444D331B78092B70D147
:10562000FA78796813461B019B1A9B000B444D3393
:1056300002221A70FA78796813461B019B1A9B00A4
:105640000B4444331B68591C786813461B019B1A92
:105650009B00034444331960FA78796813461B01B0
:105660009B1A9B000B4444331B68022B14D9FA7815
:10567000796813461B019B1A9B000B44443300229C
:105680001A60FA78796813461B019B1A9B000B4439
:105690004C3304221A7022E0FA78796813461B0111
:1056A0009B1A9B000B444C3302221A70FB785A0160
:1056B0003B69134403F5A0631B68FB60FB6823F0A0
:1056C0008043FB60FB6843F00043FB60FB785A01BA
:1056D0003B69134403F5A0631A46FB68136000BFDF
:1056E000FA78796813461B019B1A9B000B444C33D4
:1056F0001A78FB781946786806F0ECF802E000BFEB
:1057000000E000BF1837BD4680BD80B58AB000AF4D
:1057100078607B681B687B627B6A3B627B681B6886
:105720001B6AFB61FB6903F00F03BB61FB695B0C48
:1057300003F00F037B61FB691B09C3F30A033B61A1
:105740007B69022B04D07B69052B00F0B680B7E0A3
:105750003B69002B00F0B3807968BA6913461B01DE
:105760009B1A9B000B442C331B68002B00F0A78076
:105770007968BA6913461B019B1A9B000B443833A6
:105780001A683B69D1187868BA6913461B019B1ADD
:105790009B00034434331B68994200F283807B688A
:1057A00018687968BA6913461B019B1A9B000B4461
:1057B0002C331B683A6992B2194602F017FF7968D8
:1057C000BA6913461B019B1A9B000B442C331A68C1
:1057D0003B69D1187868BA6913461B019B1A9B0074
:1057E00003442C3319607968BA6913461B019B1A6C
:1057F0009B000B4438331A683B69D1187868BA6942
:1058000013461B019B1A9B00034438331960BB6984
:105810005A013B6A134403F5A0631B69DB0CC3F315
:105820000903FB607968BA6913461B019B1A9B0048
:105830000B4428331B881A463B6993423FD1FB68CF
:10584000002B3CD0BB695A013B6A134403F5A063AB
:105850001B68BB60BB6823F08043BB60BB6843F040
:105860000043BB60BB695A013B6A134403F5A06364
:105870001A46BB6813607968BA6913461B019B1A04
:105880009B000B443C331B7883F00103D8B279684A
:10589000BA6913461B019B1A9B000B443C3302461A
:1058A0001A700CE07968BA6913461B019B1A9B00B9
:1058B0000B444C3304221A7001E000BF00E000BF2B
:1058C00000BF2837BD4680BD80B586B000AF786088
:1058D0007B681B687B617B693B613B6903F588637F
:1058E0001B68FB603B6903F588631B68BB60BB6892
:1058F00023F02E03BB60FB6803F00203022B0BD1E5
:10590000FB6803F00103012B02D1786805F0C6FFA4
:10591000BB6843F00203BB60FB6803F00803082B7D
:1059200032D1BB6843F00803BB60FB6803F004039B
:10593000042B26D17B685B7A022B13D1FB6803F41E
:10594000C023B3F5802F06D17B681B68022118465F
:1059500002F0E2FF11E07B681B680121184602F0AB
:10596000DBFF0AE07B68DB79012B06D13B6903F59D
:1059700080631A464EF660235360786805F0B8FFDE
:1059800002E0786805F0C2FFFB6803F02003202BDB
:1059900003D1BB6843F02003BB603B6903F5886318
:1059A0001A46BB68136000BF1837BD4680BD0000B3
:1059B00080B588B000AF78607B68002B01D10123EF
:1059C00028E17B6893F84130DBB2002B09D17B687A
:1059D000002283F840207B68904A5A637868FCF77D
:1059E000AFFC7B68022283F841207B681B68DB697F
:1059F0007A68126823F47B6323F00F03D3617B681A
:105A00001B6802221A627B685B69022B60D07B688C
:105A1000DB68002B02D110237B6101E020237B6136
:105A20007B689B68202B02D87B695B007B6101202F
:105A300001F0D8F9F8607B681B69B3F5007F25D1C8
:105A40007B68DB68002B10D07B699B00FA68B2FB97
:105A5000F3F213469B0013445B001A467B685B69B4
:105A6000B2FBF3F305333B611FE07B69DB00FA68AF
:105A7000B2FBF3F213469B0013445B001A467B68AB
:105A80005B69B2FBF3F305333B610EE0FA687B69B7
:105A9000B2FBF3F213469B0013445B001A467B688B
:105AA0005B69B2FBF3F305333B613B695C4AA2FBE4
:105AB0000323DB083B613B6903F00103BB613A69E7
:105AC000BB69D31A5B08FB61BB691B02BB6103E0C6
:105AD0000223FB610023BB61FB69012B02D9FB6937
