:020000040800F2
:1000000000000220D92C0008AD250008B525000805
:10001000BD250008C5250008CD250008000000000A
:10002000000000000000000000000000D5250008CE
:10003000E325000800000000F1250008FF25000866
:10004000292D0008292D0008292D0008292D000838
:10005000292D0008292D0008292D0008292D000828
:10006000292D0008292D0008292D0008292D000818
:10007000292D0008292D0008292D0008292D000808
:10008000292D0008292D0008292D0008292D0008F8
:10009000292D0008292D0008292D0008292D0008E8
:1000A000292D0008292D0008292D0008292D0008D8
:1000B000292D0008292D0008292D0008292D0008C8
:1000C000292D0008292D0008292D0008292D0008B8
:1000D000292D0008292D0008292D0008292D0008A8
:1000E000292D0008292D0008292D0008292D000898
:1000F000292D0008292D0008292D0008292D000888
:10010000292D0008292D0008292D0008292D000877
:10011000292D0008292D0008292D0008292D000867
:10012000292D0008292D0008292D0008292D000857
:10013000292D0008292D0008292D0008292D000847
:10014000292D0008292D0008292D00080D2600085A
:10015000292D0008292D0008292D0008292D000827
:10016000292D0008292D0008292D0008292D000817
:10017000292D0008292D0008292D00080000000065
:08018000292D0008292D0008BB
:1001900010B5054C237833B9044B13B10448AFF3C1
:1001A00000800123237010BD0C020020000000001D
:1001B00060E2000808B5034B1BB103490348AFF3E5
:1001C000008008BD000000001002002060E200086E
:1001D00001F0FF01102A2BDB10F0070F08D010F8F8
:1001E000013B013A8B422DD010F0070F42B3F6D1FC
:1001F000F0B441EA012141EA014122F007047FF015
:1002000000070023F0E80256083C85EA010586EA6B
:10021000010685FA47F5A3FA87F586FA47F6A5FAA7
:1002200087F68EB9EED1F0BC01F0FF0102F00702B3
:1002300032B110F8013B013A83EA010313B1F8D15E
:100240000020704701387047002D06BF354603383F
:10025000073815F0010F07D1013015F4807F02BF78
:10026000013015F4C03F0130F0BC0138704700BFC9
:10027000034613F8012B002AFBD1181A01387047E6
:1002800081F0004102E000BF83F0004330B54FEA47
:1002900041044FEA430594EA050F08BF90EA020FB4
:1002A0001FBF54EA000C55EA020C7FEA645C7FEA47
:1002B000655C00F0E2804FEA5454D4EB5555B8BF6A
:1002C0006D420CDD2C4480EA020281EA030382EADB
:1002D000000083EA010180EA020281EA0303362D6D
:1002E00088BF30BD11F0004F4FEA01314FF4801C40
:1002F0004CEA113102D0404261EB410113F0004F52
:100300004FEA03334CEA133302D0524263EB430308
:1003100094EA050F00F0A780A4F10104D5F1200EA6
:100320000DDB02FA0EFC22FA05F2801841F1000101
:1003300003FA0EF2801843FA05F359410EE0A5F1D5
:1003400020050EF1200E012A03FA0EFC28BF4CF006
:10035000020C43FA05F3C01851EBE37101F00045BC
:1003600007D54FF0000EDCF1000C7EEB00006EEBC9
:100370000101B1F5801F1BD3B1F5001F0CD3490853
:100380005FEA30004FEA3C0C04F101044FEA4452AA
:1003900012F5800F80F09A80BCF1004F08BF5FEA31
:1003A000500C50F1000041EB045141EA050130BD11
:1003B0005FEA4C0C404141EB0101013C28BFB1F523
:1003C000801FE9D291F0000F04BF01460020B1FA6E
:1003D00081F308BF2033A3F10B03B3F120020CDA41
:1003E0000C3208DD02F1140CC2F10C0201FA0CF01F
:1003F00021FA02F10CE002F11402D8BFC2F1200C84
:1004000001FA02F120FA0CFCDCBF41EA0C01904039
:10041000E41AA2BF01EB0451294330BD6FEA040482
:100420001F3C1CDA0C340EDC04F11404C4F120026D
:1004300020FA04F001FA02F340EA030021FA04F37F
:1004400045EA030130BDC4F10C04C4F1200220FAD6
:1004500002F001FA04F340EA0300294630BD21FA14
:1004600004F0294630BD94F0000F83F4801306BFDA
:1004700081F480110134013D4EE77FEA645C18BFCE
:100480007FEA655C29D094EA050F08BF90EA020F65
:1004900005D054EA000C04BF1946104630BD91EA5D
:1004A000030F1EBF0021002030BD5FEA545C05D160
:1004B0004000494128BF41F0004130BD14F580049F
:1004C0003CBF01F5801130BD01F0004545F0FE4113
:1004D00041F470014FF0000030BD7FEA645C1ABF48
:1004E000194610467FEA655C1CBF0B46024650EA7F
:1004F000013406BF52EA033591EA030F41F40021AB
:1005000030BD00BF90F0000F04BF0021704730B530
:100510004FF4806404F132044FF000054FF0000105
:1005200050E700BF90F0000F04BF0021704730B5C6
:100530004FF4806404F1320410F0004548BF40429B
:100540004FF000013EE700BF42004FEAE2014FEAF0
:1005500031014FEA02701FBF12F07F4393F07F4FCB
:1005600081F06051704732F07F4208BF704793F0CE
:100570007F4F04BF41F40021704730B54FF46074E1
:1005800001F0004521F000411CE700BF50EA0102E4
:1005900008BF704730B54FF000050AE050EA01028D
:1005A00008BF704730B511F0004502D5404261EBFD
:1005B00041014FF4806404F132045FEA915C3FF43E
:1005C000D8AE4FF003025FEADC0C18BF03325FEADB
:1005D000DC0C18BF033202EBDC02C2F1200300FA8C
:1005E00003FC20FA02F001FA03FE40EA0E0021FAB1
:1005F00002F11444BDE600BF70B54FF0FF0C4CF49F
:10060000E06C1CEA11541DBF1CEA135594EA0C0F50
:1006100095EA0C0F00F0DEF82C4481EA030621EA8B
:100620004C5123EA4C5350EA013518BF52EA0335C6
:1006300041F4801143F4801338D0A0FB02CE4FF078
:100640000005E1FB02E506F00042E0FB03E54FF0A8
:100650000006E1FB03569CF0000F18BF4EF0010EA0
:10066000A4F1FF04B6F5007F64F5407404D25FEA9C
:100670004E0E6D4146EB060642EAC62141EA55514F
:100680004FEAC52040EA5E504FEACE2EB4F1FD0C91
:1006900088BFBCF5E06F1ED8BEF1004F08BF5FEA0F
:1006A000500E50F1000041EB045170BD06F00046C1
:1006B00046EA010140EA020081EA0301B4EB5C046E
:1006C000C2BFD4EB0C0541EA045170BD41F4801166
:1006D0004FF0000E013C00F3AB8014F1360FDEBF8B
:1006E000002001F0004170BDC4F10004203C35DA67
:1006F0000C341BDC04F11404C4F1200500FA05F3EA
:1007000020FA04F001FA05F240EA020001F000428A
:1007100021F0004110EBD37021FA04F642EB060100
:100720005EEA430E08BF20EAD37070BDC4F10C042A
:10073000C4F1200500FA04F320FA05F001FA04F2EE
:1007400040EA020001F0004110EBD37041F10001DA
:100750005EEA430E08BF20EAD37070BDC4F12005E5
:1007600000FA05F24EEA020E20FA04F301FA05F24D
:1007700043EA020321FA04F001F0004121FA04F2F5
:1007800020EA020000EBD3705EEA430E08BF20EAC5
:10079000D37070BD94F0000F0FD101F000464000FF
:1007A00041EB010111F4801F08BF013CF7D041EA81
:1007B000060195F0000F18BF704703F00046520085
:1007C00043EB030313F4801F08BF013DF7D043EA56
:1007D0000603704794EA0C0F0CEA135518BF95EA0C
:1007E0000C0F0CD050EA410618BF52EA4306D1D193
:1007F00081EA030101F000414FF0000070BD50EAB2
:10080000410606BF1046194652EA430619D094EA3B
:100810000C0F02D150EA013613D195EA0C0F05D125
:1008200052EA03361CBF104619460AD181EA030179
:1008300001F0004141F0FE4141F470014FF0000031
:1008400070BD41F0FE4141F4780170BD70B54FF0CC
:10085000FF0C4CF4E06C1CEA11541DBF1CEA13554C
:1008600094EA0C0F95EA0C0F00F0A7F8A4EB05042E
:1008700081EA030E52EA03354FEA013100F0888025
:100880004FEA03334FF0805545EA131343EA1263EE
:100890004FEA022245EA111545EA10654FEA0026A3
:1008A0000EF000419D4208BF964244F1FD0404F55C
:1008B000407402D25B084FEA3202B61A65EB0305B8
:1008C0005B084FEA32024FF480104FF4002CB6EB75
:1008D000020E75EB030E22BFB61A754640EA0C00F5
:1008E0005B084FEA3202B6EB020E75EB030E22BF35
:1008F000B61A754640EA5C005B084FEA3202B6EB76
:10090000020E75EB030E22BFB61A754640EA9C0034
:100910005B084FEA3202B6EB020E75EB030E22BF04
:10092000B61A754640EADC0055EA060E18D04FEAC2
:10093000051545EA16754FEA06164FEAC30343EA62
:1009400052734FEAC2025FEA1C1CC0D111F4801F2F
:100950000BD141EA00014FF000004FF0004CB6E728
:1009600011F4801F04BF01430020B4F1FD0C88BFC7
:10097000BCF5E06F3FF6AFAEB5EB030C04BFB6EBD2
:10098000020C5FEA500C50F1000041EB045170BDC5
:100990000EF0004E4EEA113114EB5C04C2BFD4EBF2
:1009A0000C0541EA045170BD41F480114FF0000E76
:1009B000013C90E645EA060E8DE60CEA135594EAF2
:1009C0000C0F08BF95EA0C0F3FF43BAF94EA0C0FF5
:1009D0000AD150EA01347FF434AF95EA0C0F7FF46A
:1009E00025AF104619462CE795EA0C0F06D152EABE
:1009F00003353FF4FDAE1046194622E750EA4106A2
:100A000018BF52EA43067FF4C5AE50EA41047FF4B2
:100A10000DAF52EA43057FF4EBAE12E74FF0FF3C17
:100A200006E000BF4FF0010C02E000BF4FF0010CE8
:100A30004DF804CD4FEA410C7FEA6C5C4FEA430C61
:100A400018BF7FEA6C5C1BD001B050EA410C0CBFB0
:100A500052EA430C91EA030F02BF90EA020F002012
:100A6000704710F1000F91EA030F58BF994208BF79
:100A700090422CBFD8176FEAE37040F00100704736
:100A80004FEA410C7FEA6C5C02D150EA013C07D18D
:100A90004FEA430C7FEA6C5CD6D152EA033CD3D0D8
:100AA0005DF8040B704700BF8446104662468C46D2
:100AB0001946634600E000BF01B5FFF7B7FF002805
:100AC00048BF10F1000F01BD4DF808EDFFF7F4FF2E
:100AD0000CBF012000205DF808FB00BF4DF808EDB9
:100AE000FFF7EAFF34BF012000205DF808FB00BFDC
:100AF0004DF808EDFFF7E0FF94BF012000205DF8FE
:100B000008FB00BF4DF808EDFFF7CEFF94BF0120B2
:100B100000205DF808FB00BF4DF808EDFFF7C4FFAB
:100B200034BF012000205DF808FB00BF4FEA410CF4
:100B30007FEA6C5C02D150EA013C0AD14FEA430CD7
:100B40007FEA6C5C02D152EA033C02D14FF0000014
:100B500070474FF0010070474FEA410212F5001252
:100B600015D211D56FF47873B3EB625212D94FEAF4
:100B7000C12343F0004343EA505311F0004F23FADE
:100B800002F018BF404270474FF00000704750EA33
:100B9000013005D111F0004008BF6FF000407047F0
:100BA0004FF00000704700BF53B94AB9002908BF91
:100BB00000281CBF4FF0FF314FF0FF3000F088B924
:100BC000ADF1080C6DE904CE00F006F8DDF804E0A4
:100BD000DDE9022304B070472DE9F047089D8E46F9
:100BE00004468846002B4AD18A42174662D9B2FA97
:100BF00082F64EB1C6F1200301FA06F820FA03F39B
:100C0000B74043EA0808B4404FEA174E1FFA87FC82
:100C1000B8FBFEF1230C0EFB118843EA084301FBED
:100C20000CF29A4209D9FB1801F1FF3080F0EA80FA
:100C30009A4240F2E78002393B449A1AA3B2B2FBCF
:100C4000FEF00EFB102243EA024300FB0CFC9C4525
:100C500009D9FB1800F1FF3280F0D6809C4540F2A4
:100C6000D3803B44023840EA0140A3EB0C0300214F
:100C70001DB1F3400022C5E90032BDE8F0878B4288
:100C800005D90DB1C5E9000100210846F5E7B3FA21
:100C900083F1002946D1734502D3824200F20581D7
:100CA000841A6EEB030201209046002DE5D0C5E9C1
:100CB0000048E2E7002A00F09080B2FA82F6002EA7
:100CC00040F0A4808A1A030C4FEA174E80B2BCB2DF
:100CD0000121B2FBFEFC0EFB1C2243EA024304FB93
:100CE0000CF29A4207D9FB180CF1FF3802D29A4253
:100CF00000F2E080C4469B1AB3FBFEF20EFB1233F7
:100D000040EA034302FB04F49C4207D9FB1802F1BA
:100D1000FF3002D29C4200F2CA8002461B1B42EA0C
:100D20000C40A5E7C1F120068B4022FA06F71F43CD
:100D30000EFA01F420FA06F32EFA06FE4FEA1749DE
:100D4000234300FA01F81FFA87FCBEFBF9F01C0CE4
:100D500009FB10EE44EA0E4400FB0CFEA64502FA25
:100D600001F209D93C1900F1FF3A80F09C80A645B8
:100D700040F2998002383C44A4EB0E041FFA83FE33
:100D8000B4FBF9F309FB13444EEA044403FB0CFCE7
:100D9000A44508D93C1903F1FF3E80F08280A445A8
:100DA0007FD9023B3C4443EA0040A4EB0C04A0FB87
:100DB00002EC64457346E14662D35FD05DB1B8EBA7
:100DC000030264EB090404FA06F622FA01F31E4357
:100DD000CC40C5E9006400214FE7B1FBF2FC010CF7
:100DE00041EA0E4180B240EA01423B4638463C4669
:100DF000B846BE462026B1FBF7F1A2EB080241EA55
:100E00000C4166E7014618E710462CE7C6F12002C0
:100E10002EFA02F3B740B14020FA02F24FEA174E21
:100E20000A43B3FBFEF8BCB20EFB1833110C41EAC7
:100E3000034108FB04F9B04089454FEA104380B2F2
:100E40003ED9791808F1FF3C01D289451FD8A1EBA2
:100E50000901B1FBFEF909FB04F80EFB191192B26E
:100E600042EA0142424529D2BA1809F1FF31C4D2FF
:100E70004245C2D2A9F102013A44BEE7F0459DD2F3
:100E8000BEEB02036CEB070C0138E14696E7A7EBDB
:100E900009094944A8F1020CB1FBFEF909FB04F869
:100EA000DBE773467FE7504666E70846FDE63B44CE
:100EB000023A33E7ACF1020C3B441CE749469CE79D
:100EC000A1EB0901C446B1FBFEF909FB04F8C4E734
:100ED000704700BF80B500AF054801F0A9FC054888
:100EE00000F03CF900F052F80023184680BD00BF26
:100EF000980400207803002080B500AF06480BF06E
:100F0000F1FA00F00BF801F027F84FF47A7001F0D5
:100F10007FFF00BF80BD00BF78E2000880B500AF52
:100F2000154B00221A70144B00225A70124B0022EB
:100F30009A70124B1B68DBB21A460021104801F070
:100F4000FBFD322001F064FF0E4B1B68DBB21A463A
:100F50000C210B4801F0F0FD322001F059FF0A4B43
:100F60001B68DBB21A460421054801F0E5FD32207A
:100F700001F04EFF00BF80BD2802002008000020C5
:100F800030030020000000200400002080B582B063
:100F900000AF654B1B78C3F30013DBB2002B14BF0B
:100FA00001230023FB71FB79002B20D05F4B1B78C2
:100FB00083F00103DBB2002B19D05D4B1B78002BB3
:100FC0000CBF01230023DBB21A46594B1A70584B51
:100FD0001B78002B03D0574B1B68DBB202E0564B4B
:100FE0001B68DBB21A460021544801F0A5FD4F4AA8
:100FF000FB7913704C4B1B78C3F3C013DBB2002B8F
:1010000014BF01230023BB71BB79002B3AD04C4B9A
:101010001B7883F00103DBB2002B33D0444B5B78A9
:10102000002B0CBF01230023DBB21A46404B5A7041
:101030003F4B9B78002B0CBF01230023DBB21A46E9
:101040003B4B9A703A4B5B78002B03D03D4B1B68AF
:10105000DBB202E03C4B1B68DBB21A460C2137487E
:1010600001F06AFD324B9B78002B03D0374B1B6895
:10107000DBB202E0364B1B68DBB21A4604212F4874
:1010800001F05AFD2E4ABB791370274B1B7803F0F1
:101090000403DBB2002B0AD0012280212D4802F08C
:1010A00089F9C82204212C4801F00CFD16E01E4BE2
:1010B0001B7803F00803DBB2002B0AD0002280214A
:1010C000244802F077F9C8220421234801F0FAFCF1
:1010D00004E000220421204801F0F4FC124B1B78AC
:1010E00003F00103DBB2002B06D040F2A462002122
:1010F000194801F063FD13E00B4B1B7803F002036A
:10110000DBB2002B06D040F214520021124801F04D
:1011100055FD05E040F2DC5200210F4801F04EFD84
:1011200000BF0837BD4680BD180500202B020020F7
:1011300028020020140000200800002030030020B6
:101140002C0200200C0000200000002010000020D5
:101150000400002000100240E802002080B588B0A2
:1011600000AF7860494BD3ED007AFDEEE77A17EED9
:10117000903AFB61464BD3ED007AFDEEE77A17EE2D
:10118000903ABB61434BD3ED007AFDEEE77A17EE60
:10119000903A7B61FB6913F1130F04DBFB69132B9E
:1011A00001DC0023FB61BB6913F1130F04DBBB6996
:1011B000132B01DC0023BB617B6913F1130F04DBEC
:1011C0007B69132B01DC00237B61FA6913461B0248
:1011D0009B1A314A82FB03121A449211DB17D31A6D
:1011E0003B61BA6913461B029B1A2B4A82FB03120E
:1011F0001A449211DB17D31AFB607A6913461B025B
:101200009B1A254A82FB03121A449211DB17D31A48
:10121000BB60BA68F968386900F048F81F4BD3ED35
:10122000007A4FF48053B0EE670A002202217868FA
:1012300000F040F91A4BD3ED007A4FF40053B0EEB2
:10124000670A04220421786800F034F9154BD3EDC5
:10125000007A4FF48043B0EE670A08224FF48071A1
:10126000786800F027F9104BD3ED007A4FF4004373
:10127000B0EE670A0C224FF40071786800F01AF99A
:10128000002318462037BD4680BD00BF040500205E
:10129000000500200805002009040281300200201A
:1012A00034020020380200203C0200202DE9B04F1B
:1012B0008EB006AFF860B9607A60FA68BB681A440D
:1012C0007B68134407EE903AF8EEE77A714BC3ED72
:1012D000007AFA68BB68D21A7B68134407EE903A2A
:1012E000F8EEE77A6C4BC3ED007AFA68BB681A44F3
:1012F0007B68D31A07EE903AF8EEE77A674BC3EDB6
:10130000007AFA68BB68D21A7B68D31A07EE903A63
:10131000F8EEE77A624BC3ED007A5E4BD3ED007ACC
:10132000B0EEE77A5C4BD3ED007AF0EEE77AB4EEFC
:10133000E77AF1EE10FA05DD564BD3ED007AF0EEC8
:10134000E77A04E0544BD3ED007AF0EEE77AC7ED8C
:10135000077A524BD3ED007AB0EEE77A504BD3EDDB
:10136000007AF0EEE77AB4EEE77AF1EE10FA05DDF6
:101370004A4BD3ED007AF0EEE77A04E0484BD3ED28
:10138000007AF0EEE77AC7ED067A97ED077AD7EDA7
:10139000067AB4EEE77AF1EE10FA01DDFB6900E0BF
:1013A000BB697B61D7ED057A9FED3E7AF4EEC77A93
:1013B000F1EE10FA2FDDDFED3B6A97ED057AC6EE10
:1013C000877AC7ED047A334B93ED007AD7ED047A30
:1013D00067EE277A2F4BC3ED007A2F4B93ED007AFF
:1013E000D7ED047A67EE277A2B4BC3ED007A2B4BAF
:1013F00093ED007AD7ED047A67EE277A274BC3ED99
:10140000007A274B93ED007AD7ED047A67EE277ABE
:10141000234BC3ED007A01F003FA0346224A13601E
:10142000214B1A68214B1B68D31AB3F57A7F2BD353
:10143000184B1B681846FFF787F882468B46164BF9
:101440001B681846FFF780F804460D46134B1B68CF
:101450001846FFF779F880468946114B1B681846F5
:10146000FFF772F802460B46CDE90423CDE9028965
:10147000CDE9004552465B460D480AF0CBFF01F02E
:10148000CFF90346094A1360002318462037BD46AA
:10149000BDE8B08F30020020340200203802002066
:1014A0003C02002000007F43400200204402002054
:1014B00084E2000880B586B000AF78610846114626
:1014C00087ED030A1A4603467B820B467B7413465C
:1014D0007B81D7ED037AF5EEC07AF1EE10FA0CDDE0
:1014E0007B8A012219461B4801F064FF7B89012297
:1014F0001946184801F05EFF1AE07B8A002219465F
:10150000144801F057FF7B8900221946114801F069
:1015100051FFD7ED037AFDEEE77A17EE903A002BF4
:10152000B8BF5B4207EE903AF8EEE77AC7ED037A70
:101530007B7CD7ED037AFCEEE77AC7ED017A3A7946
:10154000D2B21946786901F0BDFA00BF1837BD461E
:1015500080BD00BF0008024080B500AF01F0E6FB8F
:1015600000F07AF800F0EEFB00F0E0F800F00EF981
:1015700009F082FE00F0C4F900F0BAFB00F02EFA88
:1015800000F0A6FA00F01EFB00F06CFB00F034F94E
:101590000021284805F08AFB0421264805F086FB37
:1015A0000821244805F082FB0C21224805F07EFB2F
:1015B0000021214805F07AFB04211F4805F076FB45
:1015C0000C211D4805F072FB00211C4805F06EFB44
:1015D00004211A4805F06AFB184B1B685A6C174B1C
:1015E0001B6842F400425A640021154805F05EFB76
:1015F0000421134805F05AFBFFF77EFCFFF76AFC55
:1016000009F060FE022200210E480BF04BF80E4B51
:101610004FF000021A600D4B4FF000021A600C4BA5
:101620004FF000021A600B4B4FF000021A6000BF2F
:10163000E4E700BF7803002030030020E802002028
:1016400008040020180500200005002004050020E3
:10165000080500200C05002080B594B000AF07F10C
:1016600020033022002118460BF01CF807F10C0370
:1016700000221A605A609A60DA601A610023BB6027
:10168000284B1B6C274A43F080531364254B1B6C7B
:1016900003F08053BB60BB6800237B60224B1B6858
:1016A000214A43F4804313601F4B1B6803F48043BB
:1016B0007B607B6801233B624FF480337B620223B3
:1016C000BB634FF48003FB6308233B644FF4A873B0
:1016D0007B640223BB640723FB6407F120031846E5
:1016E00004F032FC0346002B01D000F02FFC0F2346
:1016F000FB6002233B6100237B614FF4A053BB617D
:101700004FF48053FB6107F10C030521184604F0E8
:1017100093FE0346002B01D000F018FC00BF5037A9
:10172000BD4680BD003802400070004080B500AF6B
:10173000134B144A1A60124B4FF400725A60104B4C
:1017400000229A600E4B0022DA600D4B4FF40072BB
:101750001A610B4B0C4A5A61094B00229A61084BE3
:101760000022DA61064B00221A62054803F04CFFA2
:101770000346002B01D000F0E9FB00BF80BD00BF95
:1017800048020020003C00400077010080B500AF17
:10179000174B184A1A60164B4FF482725A60144B5A
:1017A00000229A60124B0022DA60114B00221A616B
:1017B0000F4B00225A610E4B4FF400729A610C4B92
:1017C0000022DA610A4B00221A62094B00225A6297
:1017D000074B00229A62064B0A22DA62044805F09F
:1017E0008DF90346002B01D000F0B0FB00BF80BD97
:1017F000900200200030014080B592B000AF07F1A8
:10180000400300221A605A6007F1240300221A6084
:101810005A609A60DA601A615A619A613B1D20220F
:10182000002118460AF03EFF334B344A1A60324B0F
:1018300053225A60304B00229A602F4B44F61F62AD
:10184000DA602D4B00221A612B4B00225A612A4B81
:1018500000229A61284805F0DAF90346002B01D0EE
:1018600000F074FB00233B6400237B6407F140031A
:101870001946214805F020FE0346002B01D000F058
:1018800065FB60237B620023BB620023FB620023B5
:101890003B6300237B630023BB630023FB6307F1EF
:1018A000240300221946144805F0C8FA0346002B09
:1018B00001D000F04BFB00237B600023BB600023C2
:1018C000FB6000233B6100237B614FF40053BB614D
:1018D00000233B623B1D1946074805F069FE03469D
:1018E000002B01D000F032FB034800F0DBFC00BF0E
:1018F0004837BD4680BD00BFE8020020000001401F
:1019000080B58AB000AF07F1200300221A605A6048
:101910003B1D00221A605A609A60DA601A615A61AF
:101920009A612D4B4FF080421A602B4B53225A6024
:10193000294B00229A60284B44F61F62DA60264B3E
:1019400000221A61244B00229A61234805F05FF9B6
:101950000346002B01D000F0F9FA00233B6200237C
:101960007B6207F1200319461B4805F0A5FD0346DD
:10197000002B01D000F0EAFA60237B600023BB60FB
:101980000023FB6000237B613B1D002219461248A7
:1019900005F054FA0346002B01D000F0D7FA3B1DA6
:1019A000042219460C4805F049FA0346002B01D0E1
:1019B00000F0CCFA3B1D0C221946074805F03EFA10
:1019C0000346002B01D000F0C1FA034800F06AFC86
:1019D00000BF2837BD4680BD3003002080B58AB0E7
:1019E00000AF07F1200300221A605A603B1D00225D
:1019F0001A605A609A60DA601A615A619A61324BD1
:101A0000324A1A60304B00225A602F4B00229A60F3
:101A10002D4B41F26702DA602B4B00221A612A4BF0
:101A200000229A61284805F0F2F80346002B01D005
:101A300000F08CFA00233B6200237B6207F1200355
:101A40001946214805F038FD0346002B01D000F06F
:101A50007DFA60237B600023BB600023FB600023D2
:101A60007B613B1D00221946174805F0E7F9034644
:101A7000002B01D000F06AFA3B1D042219461248DF
:101A800005F0DCF90346002B01D000F05FFA3B1DA6
:101A9000082219460C4805F0D1F90346002B01D065
:101AA00000F054FA3B1D0C221946074805F0C6F910
:101AB0000346002B01D000F049FA034800F0F2FB86
:101AC00000BF2837BD4680BD7803002000040040D9
:101AD00080B58AB000AF07F1200300221A605A6077
:101AE0003B1D00221A605A609A60DA601A615A61DE
:101AF0009A61324B324A1A60304B53225A602F4B54
:101B000000229A602D4B4FF6FF72DA602B4B0022B9
:101B10001A612A4B00229A61284805F078F803469A
:101B2000002B01D000F012FA00233B6200237B62FD
:101B300007F120031946214805F0BEFC0346002B9F
:101B400001D000F003FA60237B600023BB60002318
:101B5000FB6000237B613B1D00221946174805F0FE
:101B60006DF90346002B01D000F0F0F93B1D042273
:101B70001946124805F062F90346002B01D000F027
:101B8000E5F93B1D082219460C4805F057F90346B4
:101B9000002B01D000F0DAF93B1D0C221946074852
:101BA00005F04CF90346002B01D000F0CFF90348B3
:101BB00000F078FB00BF2837BD4680BDC003002081
:101BC0000008004080B588B000AF3B1D00221A60BD
:101BD0005A609A60DA601A615A619A611F4B204A12
:101BE0001A601E4B53225A601C4B00229A601B4BFA
:101BF0004FF47A72DA60194B00221A61174B0022F7
:101C00009A61164805F003F80346002B01D000F056
:101C10009DF960237B600023BB600023FB600023F1
:101C20007B613B1D002219460C4805F007F903466D
:101C3000002B01D000F08AF93B1D04221946074809
:101C400005F0FCF80346002B01D000F07FF90348B3
:101C500000F028FB00BF2037BD4680BD08040020EF
:101C60000040014080B588B000AF3B1D00221A60E3
:101C70005A609A60DA601A615A619A611A4B1B4A7B
:101C80001A60194B00225A60174B00229A60164BBB
:101C90004FF6FF72DA60144B00221A61124B0022D9
:101CA0009A61114804F0B3FF0346002B01D000F005
:101CB0004DF960237B600023BB600023FB600023A1
:101CC0007B613B1D00221946074805F0B7F8034623
:101CD000002B01D000F03AF9034800F0E3FA00BF0E
:101CE0002037BD4680BD00BF5004002000180040D2
:101CF00080B500AF114B124A1A60104B4FF4E1321D
:101D00005A600E4B00229A600C4B0022DA600B4B9B
:101D100000221A61094B0C225A61084B00229A6179
:101D2000064B0022DA61054805F094FC0346002BBF
:101D300001D000F00BF900BF80BD00BF9804002067
:101D40000044004080B58CB000AF07F11C030022B6
:101D50001A605A609A60DA601A610023BB61754BA1
:101D60001B6B744A43F010031363724B1B6B03F03D
:101D70001003BB61BB6900237B616E4B1B6B6D4A1B
:101D800043F0040313636B4B1B6B03F004037B6191
:101D90007B6900233B61674B1B6B664A43F0800302
:101DA0001363644B1B6B03F080033B613B690023AF
:101DB000FB60604B1B6B5F4A43F0010313635D4B99
:101DC0001B6B03F00103FB60FB680023BB60594BF6
:101DD0001B6B584A43F002031363564B1B6B03F013
:101DE0000203BB60BB6800237B60524B1B6B514AF4
:101DF00043F0080313634F4B1B6B03F008037B6036
:101E00007B68002208214C4801F0D4FA012201210C
:101E10004A4801F0CFFA002240F20631474801F06B
:101E2000C9FA00224FF21B61454801F0C3FA0823AA
:101E3000FB6101233B6200237B620023BB6207F14D
:101E40001C0319463C4801F019F940F20733FB61C5
:101E500001233B6200237B620023BB6207F11C036A
:101E60001946364801F00AF90823FB6102233B6258
:101E700000237B620023BB620523FB6207F11C0386
:101E800019462E4801F0FAF80123FB614FF4901334
:101E90003B6200237B6207F11C031946294801F0CD
:101EA000EDF80423FB6100233B6200237B6207F112
:101EB0001C031946244801F0E1F84FF48063FB61EC
:101EC00002233B6200237B620023BB620523FB628B
:101ED00007F11C0319461C4801F0D0F84FF21B63B0
:101EE000FB6101233B6200237B620023BB6207F19D
:101EF0001C031946124801F0C1F82023FB6100239E
:101F00003B6200237B6207F11C0319460C4801F079
:101F1000B5F80223FB614FF490133B6200237B6210
:101F200007F11C031946044801F0A8F800BF303738
:101F3000BD4680BD0038024000100240000802404B
:101F4000000C0240000002400004024080B400AFD8
:101F500072B600BF00BFFDE780B500AF00224FF4AE
:101F600080510E4800F05CFE4FF47A7208210C4854
:101F700000F072FE08210A4804F098FE5A2200215F
:101F8000084800F0D9FD5A220421064800F0D4FD8B
:101F9000322000F03DFF00BF80BD00BF00100240B6
:101FA000C00300200804002080B582B000AF0023E9
:101FB0007B60104B5B6C0F4A43F4804353640D4BC2
:101FC0005B6C03F480437B607B6800233B60094BC0
:101FD0001B6C084A43F080531364064B1B6C03F0E0
:101FE00080533B603B68072001F006F800BF0837CC
:101FF000BD4680BD0038024080B58EB000AF78602D
:1020000007F1240300221A605A609A60DA601A61AC
:1020100007F1140300221A605A609A60DA607B6844
:102020001B68314A93425AD101237B61C023BB61B3
:102030000223FB6107F11403184604F01DFC03465C
:10204000002B01D0FFF782FF00233B61274B1B6C65
:10205000264A43F400431364244B1B6C03F40043EF
:102060003B613B690023FB60204B1B6B1F4A43F025
:10207000010313631D4B1B6B03F00103FB60FB6843
:102080000023BB60194B1B6B184A43F00403136316
:10209000164B1B6B03F00403BB60BB6810237B6211
:1020A0000223BB620023FB6200233B6306237B63A6
:1020B00007F1240319460E4800F0E0FF4FF4A45343
:1020C0007B620223BB620023FB6200233B63062387
:1020D0007B6307F124031946064800F0CFFF00BFD9
:1020E0003837BD4680BD00BF003C0040003802408C
:1020F000000002400008024080B58AB000AF78605E
:1021000007F1140300221A605A609A60DA601A61BB
:102110007B681B68194A93422BD100233B61184B03
:102120005B6C174A43F480535364154B5B6C03F4A8
:1021300080533B613B690023FB60114B1B6B104AD2
:1021400043F0010313630E4B1B6B03F00103FB60B1
:10215000FB68E0237B610223BB610023FB6100235A
:102160003B6205237B6207F114031946054800F022
:1021700085FF00BF2837BD4680BD00BF003001404D
:10218000003802400000024080B489B000AF78609F
:102190007B681B683D4A93420ED10023FB613C4B98
:1021A0005B6C3B4A43F001035364394B5B6C03F0B7
:1021B0000103FB61FB6962E07B681B68B3F1804F40
:1021C0000ED10023BB61324B1B6C314A43F001033B
:1021D00013642F4B1B6C03F00103BB61BB694EE022
:1021E0007B681B682B4A93420ED100237B61284BEE
:1021F0001B6C274A43F002031364254B1B6C03F04E
:1022000002037B617B693AE07B681B68224A934248
:102210000ED100233B611E4B1B6C1D4A43F004038F
:1022200013641B4B1B6C03F004033B613B6926E00A
:102230007B681B68194A93420ED10023FB60144B44
:102240005B6C134A43F480335364114B5B6C03F4AF
:102250008033FB60FB6812E07B681B68104A934286
:102260000DD10023BB600A4B1B6C094A43F04003AD
:102270001364074B1B6C03F04003BB60BB6800BFDB
:102280002437BD465DF8047B704700BF0000014065
:1022900000380240000400400008004000400140B7
:1022A0000018004080B590B000AF786007F12C03B3
:1022B00000221A605A609A60DA601A617B681B68B3
:1022C0008C4A93421FD10023BB628B4B1B6B8A4A03
:1022D00043F010031363884B1B6B03F01003BB62C6
:1022E000BB6A4FF40073FB6202233B6300237B63F2
:1022F0000023BB630123FB6307F12C0319467F48CE
:1023000000F0BCFEF2E07B681B68B3F1804F3ED169
:1023100000237B62784B1B6B774A43F00103136306
:10232000754B1B6B03F001037B627B6A00233B62EE
:10233000714B1B6B704A43F0020313636E4B1B6BB4
:1023400003F002033B623B6A48F20203FB62022392
:102350003B6300237B630023BB630123FB6307F123
:102360002C031946664800F089FE4FF40063FB62B7
:1023700002233B6300237B630023BB630123FB63D6
:1023800007F12C0319465F4800F078FEAEE07B6849
:102390001B685D4A93423CD10023FB61564B1B6B8B
:1023A000554A43F002031363534B1B6B03F00203C4
:1023B000FB61FB690023BB614F4B1B6B4E4A43F033
:1023C000040313634C4B1B6B03F00403BB61BB6939
:1023D0002323FB6202233B6300237B630023BB6355
:1023E0000223FB6307F12C031946464800F046FE22
:1023F0004023FB6202233B6300237B630023BB6318
:102400000223FB6307F12C031946404800F036FE17
:102410006CE07B681B683E4A93421FD100237B61BE
:10242000354B1B6B344A43F002031363324B1B6B77
:1024300003F002037B617B694FF47073FB6202233C
:102440003B6300237B630023BB630223FB6307F131
:102450002C0319462B4800F011FE47E07B681B68EF
:102460002C4A93421ED100233B61234B1B6B224A13
:1024700043F010031363204B1B6B03F010033B610D
:102480003B696023FB6202233B6300237B630023E1
:10249000BB630323FB6307F12C031946174800F0C5
:1024A000EDFD23E07B681B681B4A93421ED100238D
:1024B000FB60114B1B6B104A43F0020313630E4B7E
:1024C0001B6B03F00203FB60FB684FF48043FB626D
:1024D00002233B6300237B630023BB630923FB636D
:1024E00007F12C031946074800F0C8FD00BF40372C
:1024F000BD4680BD0000014000380240001002408F
:1025000000000240000402400004004000080240B5
:1025100000080040004001400018004080B58AB02B
:1025200000AF786007F1140300221A605A609A60C5
:10253000DA601A617B681B68194A93422BD1002329
:102540003B61184B1B6C174A43F400331364154B63
:102550001B6C03F400333B613B690023FB60114BB0
:102560001B6B104A43F0010313630E4B1B6B03F00C
:102570000103FB60FB680C237B610223BB6100232A
:10258000FB6103233B6207237B6207F114031946B7
:10259000054800F073FD00BF2837BD4680BD00BF71
:1025A00000440040003802400000024080B400AF08
:1025B00000BFFDE780B400AF00BFFDE780B400AF0F
:1025C00000BFFDE780B400AF00BFFDE780B400AFFF
:1025D00000BFFDE780B400AF00BFBD465DF8047BDF
:1025E000704780B400AF00BFBD465DF8047B704704
:1025F00080B400AF00BFBD465DF8047B704780B576
:1026000000AF00F0E5FB00BF80BD000080B500AF6B
:10261000024801F0A5F900BF80BD00BFFC08002002
:1026200080B483B000AF0346FB710F4B1B680E4AAA
:1026300043F0807313600D4B1B680C4A43F0010399
:10264000136000BF4FF060431B6803F00103002BD1
:10265000F8D04FF06042FB79136000BF0C37BD46E5
:102660005DF8047B704700BFFCED00E0000E00E069
:1026700080B400AF01231846BD465DF8047B704767
:1026800080B582B000AF786039600AF06DF803461B
:1026900016221A604FF0FF3318460837BD4680BD3A
:1026A00080B582B000AF78604FF0FF317868FFF7F7
:1026B000E7FF00BFFDE780B586B000AFF860B96006
:1026C0007A6000237B610AE0AFF300800146BB68BB
:1026D0005A1CBA60CAB21A707B6901337B617A698D
:1026E0007B689A42F0DB7B6818461837BD4680BD90
:1026F00080B586B000AFF860B9607A6000237B6176
:1027000009E0BB685A1CBA601B781846FFF788FFBF
:102710007B6901337B617A697B689A42F1DB7B6874
:1027200018461837BD4680BD80B483B000AF7860CE
:102730004FF0FF3318460C37BD465DF8047B7047F9
:1027400080B483B000AF786039603B684FF40052CA
:102750005A60002318460C37BD465DF8047B70476D
:1027600080B483B000AF7860012318460C37BD46B3
:102770005DF8047B704780B485B000AFF860B96045
:102780007A60002318461437BD465DF8047B704715
:1027900080B586B000AF7860144A154BD31A7B61C0
:1027A0007B693B61134B1B68002B02D1114B124A12
:1027B0001A60104B1A687B6813443A699A4207D230
:1027C00009F0D2FF03460C221A604FF0FF3309E0F4
:1027D000084B1B68FB60074B1A687B681344054A6B
:1027E0001360FB6818461837BD4680BD0000022004
:1027F00000040000E0040020280E002080B400AF98
:10280000064BD3F88830054A43F47003C2F8883089
:1028100000BFBD465DF8047B704700BF00ED00E0DF
:1028200080B500AF00F0E8FA0346184680BD00000E
:1028300080B582B000AF78604FF0FF3301221249BB
:10284000786804F057FF104B1B78AA2BF4D14FF097
:10285000FF3301220D49786804F04CFF0B4B1B78C5
:102860001A2B09D1094B1B781A464FF0FF33084940
:10287000786804F03FFF01E000BFDDE700F00AF8F0
:1028800000BF0837BD4680BDFE040020FF040020C5
:10289000E40400202DE9F04F8FB00AAF764B1B887F
:1028A00003F40073002B07D0744809F01BFE744A30
:1028B000537843F0020353706F4B1B8803F480730B
:1028C000002B07D06F4809F00DFE6D4A537843F096
:1028D00001035370684B1B8803F08003002B07D063
:1028E000694809F0FFFD664A137843F080031370CE
:1028F000614B1B8803F04003002B07D0634809F0AD
:10290000F1FD5F4A137843F0400313705A4B1B8864
:1029100003F02003002B07D05D4809F0E3FD584A7F
:10292000137843F020031370534B1B8803F01003FC
:10293000002B07D0574809F0D5FD514A137843F0D2
:10294000100313704C4B1B8803F00803002B07D0B7
:10295000514809F0C7FD4A4A137843F00803137041
:10296000454B1B8803F00403002B07D04B4809F0AC
:10297000B9FD434A137843F0040313703E4B1B88A0
:1029800003F00203002B07D0454809F0ABFD3C4A99
:10299000137843F002031370374B1B8803F00103D5
:1029A000002B07D03F4809F09DFD354A137843F0CE
:1029B00001031370304BD3F802303B4A13602E4BA7
:1029C000D3F80630394A13602B4BD3F80A30384A13
:1029D0001360294BD3F80E30364A1360264BD3F8D8
:1029E0001230354A1360244BD3F81630334A136043
:1029F000214B1B881E462C4B1B681846FDF7A4FD77
:102A0000C7E90201294B1B681846FDF79DFD0446E6
:102A10000D46274B1B681846FDF796FD80468946F4
:102A2000244B1B681846FDF78FFD82468B46224BD0
:102A30001B681846FDF788FDC7E900011F4B1B689E
:102A40001846FDF781FD02460B46CDE9082397EDB8
:102A5000007B8DED067BCDE904ABCDE90289CDE9A4
:102A60000045D7E902233146154809F0D3FC00BFE1
:102A70001437BD46BDE8F08FE4040020A0E3000851
:102A800018050020ACE30008B8E30008C8E300081C
:102A9000D8E30008E8E30008FCE300080CE40008C1
:102AA0001CE400082CE400080005002004050020B8
:102AB000080500200C05002010050020140500204A
:102AC00038E4000880B487B000AFF860B9601346FE
:102AD000FB71FB681B68DB6A7B61FB797A690132F9
:102AE00002FB03F3134AA2FB0323DB093B61BB6830
:102AF000002B04D1FB681B683A695A6313E0BB687A
:102B0000042B04D1FB681A683B6993630BE0BB6834
:102B1000082B04D1FB681A683B69D36303E0FB68A8
:102B20001A683B69136400BF1C37BD465DF8047B1F
:102B3000704700BF8180808080B485B000AF78602E
:102B40000B46FB701346BB70BB78B42B01D9B42382
:102B5000BB70BB784FF47A7202FB03F3164A82FB18
:102B600003121A44D211DB17D31A9BB203F57A73FE
:102B7000FB81FB78002B04D17B681B68FA895A63C0
:102B800013E0FB78042B04D17B681A68FB899363FC
:102B90000BE0FB78082B04D17B681A68FB89D363B0
:102BA00003E07B681A68FB89136400BF1437BD46D5
:102BB0005DF8047B704700BFB7600BB680B485B08A
:102BC00000AFF860B9601346FB80FB88B3F57A7FED
:102BD00020D3FB88B3F5FA6F1CD8BB68002B04D157
:102BE000FB681B68FA885A6315E0BB68042B04D1A4
:102BF000FB681A68FB8893630DE0BB68082B04D15F
:102C0000FB681A68FB88D36305E0FB681A68FB88D9
:102C1000136400E000BF1437BD465DF8047B7047C5
:102C200080B582B000AF78600B467B8013467B7026
:102C30007B78002B06D17B8801221946786800F04A
:102C4000B9FB05E07B8800221946786800F0B2FBEA
:102C500000BF0837BD4680BD80B487B000AFF860C4
:102C6000B9607A607B68092B01D80A237B60194A16
:102C70007B68B2FBF3F3013B7B61FB681B687A69FD
:102C8000DA62FB687A69DA60BB68002B05D1FB6801
:102C90001B687A6952085A6316E0BB68042B05D199
:102CA000FB681A687B695B0893630DE0BB68082BBF
:102CB00005D1FB681A687B695B08D36304E0FB6895
:102CC0001A687B695B08136400BF1C37BD465DF85A
:102CD000047B704740420F00DFF834D0FFF78EFDD1
:102CE0000C480D490D4A002302E0D458C450043367
:102CF000C4188C42F9D30A4A0A4C002301E013603D
:102D00000432A242FBD309F035FDFEF725FC7047E3
:102D100000000220000000200C02002034E800081F
:102D20000C020020280E0020FEE7000080B500AF56
:102D30000E4B1B680D4A43F4007313600B4B1B686A
:102D40000A4A43F480631360084B1B68074A43F444
:102D500080731360032000F04FF9002000F008F8A2
:102D6000FFF722F90023184680BD00BF003C024057
:102D700080B582B000AF7860124B1A68124B1B7896
:102D800019464FF47A73B3FBF1F3B2FBF3F3184631
:102D900000F067F90346002B01D001230EE07B68A9
:102DA0000F2B0AD8002279684FF0FF3000F02FF97E
:102DB000064A7B681360002300E0012318460837A9
:102DC000BD4680BD18000020200000201C0000200F
:102DD00080B400AF064B1B781A46064B1B681344A1
:102DE000044A136000BFBD465DF8047B704700BF16
:102DF000200000201C05002080B400AF034B1B689E
:102E00001846BD465DF8047B704700BF1C050020D6
:102E100080B584B000AF7860FFF7EEFFB8607B68E4
:102E2000FB60FB68B3F1FF3F05D00A4B1B781A46E5
:102E3000FB681344FB6000BFFFF7DEFF0246BB6880
:102E4000D31AFA689A42F7D800BF00BF1037BD46C0
:102E500080BD00BF2000002080B485B000AF786046
:102E60007B6803F00703FB600C4BDB68BB60BA6850
:102E70004FF6FF031340BB60FB681A02BB681343A5
:102E800043F0BF6343F40033BB60044ABB68D360C4
:102E900000BF1437BD465DF8047B704700ED00E0CD
:102EA00080B400AF044BDB681B0A03F0070318462D
:102EB000BD465DF8047B704700ED00E080B483B050
:102EC00000AF0346FB7197F90730002B0BDBFB7952
:102ED00003F01F02074997F907305B09012000FA48
:102EE00002F241F8232000BF0C37BD465DF8047B99
:102EF000704700BF00E100E080B483B000AF03463C
:102F00003960FB7197F90730002B0ADB3B68DAB2B6
:102F10000C4997F907301201D2B20B4483F8002311
:102F20000AE03B68DAB20849FB7903F00F03043B7F
:102F30001201D2B20B441A7600BF0C37BD465DF8C1
:102F4000047B704700E100E000ED00E080B489B050
:102F500000AFF860B9607A60FB6803F00703FB61BB
:102F6000FB69C3F10703042B28BF0423BB61FB6982
:102F70000433062B02D9FB69033B00E000237B618D
:102F80004FF0FF32BB6902FA03F3DA43BB681A4021
:102F90007B699A404FF0FF317B6901FA03F3D94313
:102FA0007B680B40134318462437BD465DF8047B0D
:102FB0007047000080B582B000AF78607B68013B4D
:102FC000B3F1807F01D301230FE00A4A7B68013B04
:102FD00053600F214FF0FF30FFF78EFF054B0022AB
:102FE0009A60044B07221A60002318460837BD4632
:102FF00080BD00BF10E000E080B582B000AF786017
:103000007868FFF729FF00BF0837BD4680BD80B54F
:1030100086B000AF0346B9607A60FB7300237B6122
:10302000FFF73EFF78617A68B9687869FFF78EFF2D
:10303000024697F90F3011461846FFF75DFF00BFB3
:103040001837BD4680BD80B582B000AF0346FB7126
:1030500097F907301846FFF731FF00BF0837BD4624
:1030600080BD80B582B000AF78607868FFF7A2FFBE
:10307000034618460837BD4680BD000080B489B0BD
:1030800000AF7860396000237B6100233B6100233F
:10309000BB610023FB616BE10122FB6902FA03F3D0
:1030A0007B613B681B687A6913403B613A697B69C5
:1030B0009A4240F05A813B685B6803F00303012B9E
:1030C00005D03B685B6803F00303022B30D17B68BB
:1030D0009B68BB61FB695B00032202FA03F3DB43DD
:1030E000BA691340BB613B68DA68FB695B0002FAAE
:1030F00003F3BA691343BB617B68BA699A607B6862
:103100005B68BB610122FB6902FA03F3DB43BA6926
:103110001340BB613B685B681B0903F00102FB695C
:1031200002FA03F3BA691343BB617B68BA695A6058
:103130003B685B6803F00303032B17D07B68DB68F5
:10314000BB61FB695B00032202FA03F3DB43BA694C
:103150001340BB613B689A68FB695B0002FA03F3AA
:10316000BA691343BB617B68BA69DA603B685B6824
:1031700003F00303022B23D1FB69DA087B680832D2
:1031800053F82230BB61FB6903F007039B000F2259
:1031900002FA03F3DB43BA691340BB613B681A6967
:1031A000FB6903F007039B0002FA03F3BA691343B8
:1031B000BB61FB69DA087B680832B96943F8221001
:1031C0007B681B68BB61FB695B00032202FA03F3A7
:1031D000DB43BA691340BB613B685B6803F00302E1
:1031E000FB695B0002FA03F3BA691343BB617B68B6
:1031F000BA691A603B685B6803F44033002B00F047
:10320000B4800023FB60604B5B6C5F4A43F48043F7
:1032100053645D4B5B6C03F48043FB60FB685B4A6B
:10322000FB699B08023352F82330BB61FB6903F052
:1032300003039B000F2202FA03F3DB43BA69134036
:10324000BB617B68524A93422BD07B68514A9342C0
:1032500025D07B68504A93421FD07B684F4A9342E7
:1032600019D07B684E4A934213D07B684D4A9342F3
:103270000DD07B684C4A934207D07B684B4A9342FF
:1032800001D107230EE008230CE006230AE0052302
:1032900008E0042306E0032304E0022302E0012304
:1032A00000E00023FA6902F0030292009340BA6939
:1032B0001343BB613549FB699B080233BA6941F886
:1032C00023203B4B9B68BB613B69DB43BA691340DE
:1032D000BB613B685B6803F48013002B03D0BA69C1
:1032E0003B691343BB61324ABB699360304BDB6877
:1032F000BB613B69DB43BA691340BB613B685B68F8
:1033000003F40013002B03D0BA693B691343BB617C
:10331000274ABB69D360264B5B68BB613B69DB43D3
:10332000BA691340BB613B685B6803F40033002B50
:1033300003D0BA693B691343BB611D4ABB69536043
:103340001B4B1B68BB613B69DB43BA691340BB6124
:103350003B685B6803F48033002B03D0BA693B6998
:103360001343BB61124ABB691360FB690133FB6104
:10337000FB690F2B7FF690AE00BF00BF2437BD4620
:103380005DF8047B704700BF003802400038014000
:10339000000002400004024000080240000C02400D
:1033A000001002400014024000180240001C0240BD
:1033B000003C014080B483B000AF78600B467B8056
:1033C00013467B707B78002B03D07A887B689A61E8
:1033D00003E07B881A047B689A6100BF0C37BD4606
:1033E0005DF8047B704780B586B002AF78607B687B
:1033F000002B01D1012359E07B681B68FB607B68CF
:1034000093F8D533DBB2002B06D17B68002283F81A
:10341000D423786807F08EFF7B68032283F8D523D6
:10342000FB68B3F1A04F02D17B6800229A717B68E0
:103430001B68184604F09BFD7B6818687B681A7C43
:103440008DF8002004330ECB04F01CFD0346002B46
:1034500005D07B68022283F8D523012326E07B6810
:103460001B680121184604F093FD0346002B05D08C
:103470007B68022283F8D523012317E07B68186854
:103480007B681A7C8DF8002004330ECB04F03CFFDF
:103490000346002B05D07B68022283F8D523012345
:1034A00004E07B68012283F8D523002318461037F7
:1034B000BD4680BD90B58BB004AF7860084611461C
:1034C0001A460346FB700B46BB7013467B703B8E5F
:1034D0007B617B6893F8D433012B01D102239DE0FB
:1034E0007B68012283F8D423FA78796813461B019C
:1034F0009B1A9B000B44193300221A70FA787968E2
:1035000013461B019B1A9B000B4414337A781A70E4
:10351000FA78796813461B019B1A9B000B441533FC
:10352000FA781A70FA78796813461B019B1A9B0087
:103530000B44263397F82C201A70FA78BB7803F0E6
:103540007F03D8B2796813461B019B1A9B000B447A
:10355000163302461A70FB781946786800F0A4FB0F
:1035600097F90230002B0ADAFA78796813461B01C2
:103570009B1A9B000B44173301221A7009E0FA785A
:10358000796813461B019B1A9B000B4417330022DA
:103590001A707B681B68184605F01AF8386197F8AE
:1035A0002C30012B0BD197F82830012B07D13B6928
:1035B000002B04D17B69BC2B01D9BC237B61FA7839
:1035C000796813461B019B1A9B000B44183397F82C
:1035D00028201A70FA787B6998B2796813461B0123
:1035E0009B1A9B000B44283302461A807B6818689C
:1035F0007B699BB27C78BA78F978029397F82C3083
:10360000019397F828300093234605F009F8034604
:10361000FB737B68002283F8D423FB7B18461C379E
:10362000BD4690BD80B582B000AF786008461146B7
:103630001A460346FB700B46BB7013467B70FA7844
:10364000796813461B019B1A9B000B441733BA7809
:103650001A70FA78796813461B019B1A9B000B4479
:1036600026337A781A703B7C002B14D1FA7879686B
:1036700013461B019B1A9B000B442A3303221A702A
:10368000FA78796813461B019B1A9B000B44193387
:103690003A7F1A7009E0FA78796813461B019B1A81
:1036A0009B000B442A3302221A707B78032B00F212
:1036B000028101A252F823F0C9360008A13800089F
:1036C0008D370008173800083B7C012B40F0F5804F
:1036D000BB78002B2DD13B8B002B09D1FA78796870
:1036E00013461B019B1A9B000B443D3301221A70A9
:1036F000FA78796813461B019B1A9B000B443D33F3
:103700001B78002B0AD1FA78796813461B019B1AA3
:103710009B000B442A3300221A70CEE0FA787968B5
:1037200013461B019B1A9B000B442A3302221A707A
:10373000C3E0FA78796813461B019B1A9B000B447F
:103740001A331B78012B40F0B880FA787968134659
:103750001B019B1A9B000B443C331B78002B0AD1A6
:10376000FA78796813461B019B1A9B000B442A3395
:1037700000221A70A1E0FA78796813461B019B1A9F
:103780009B000B442A3302221A7096E0BB78002B70
:1037900020D1FA78796813461B019B1A9B000B44D1
:1037A0003D331B78002B0AD1FA78796813461B0148
:1037B0009B1A9B000B442A3300221A707EE0FA7891
:1037C000796813461B019B1A9B000B442A33022283
:1037D0001A7073E0FA78796813461B019B1A9B00F4
:1037E0000B443C331B78002B0AD1FA7879681346D6
:1037F0001B019B1A9B000B442A3300221A705DE0C8
:10380000FA78796813461B019B1A9B000B442A33F4
:1038100002221A7052E0BB78002B20D1FA78796826
:1038200013461B019B1A9B000B443D331B78002B56
:103830000AD1FA78796813461B019B1A9B000B4446
:103840002A3300221A7039E0FA78796813461B018E
:103850009B1A9B000B442A3302221A702EE0FA783E
:10386000796813461B019B1A9B000B443C331B7861
:10387000002B0AD1FA78796813461B019B1A9B002A
:103880000B442A3300221A7018E0FA78796813463C
:103890001B019B1A9B000B442A3302221A700DE075
:1038A000FA78796813461B019B1A9B000B442A3354
:1038B00000221A7002E000BF00E000BFFA787968C9
:1038C00013461B019B1A9B000B442C337A691A6028
:1038D000FA78398B786813461B019B1A9B000344C6
:1038E00034331960FA78796813461B019B1A9B00E0
:1038F0000B444C3300221A70FA78796813461B0186
:103900009B1A9B000B44383300221A60FA787968BE
:1039100013461B019B1A9B000B441533FA781A704F
:10392000FA78796813461B019B1A9B000B444D33B0
:1039300000221A707B681868FA7813461B019B1ADC
:103940009B0010337A681344191D7B689B791A46D3
:1039500004F092FF034618460837BD4680BD00BFFD
:1039600080B586B000AF78607B681B683B613B69BF
:10397000FB607B681B68184604F080FC0346012B43
:1039800040F0FB807B681B68184604F043FC03464C
:10399000002B00F0F1807B681B68184604F03AFCAD
:1039A000034603F40013B3F5001F04D17B681B68C2
:1039B0004FF400125A617B681B68184604F02AFC19
:1039C000034603F48013B3F5801F04D17B681B68A2
:1039D0004FF480125A617B681B68184604F01AFC89
:1039E000034603F08063B3F1806F04D17B681B68EA
:1039F0004FF080625A617B681B68184604F00AFC2D
:103A0000034603F00203022B03D17B681B680222EA
:103A10005A617B681B68184604F0FCFB034603F000
:103A20000053B3F1005F20D17B681B684FF0005258
:103A30005A61FB6803F588631B6803F00103002BE0
:103A400013D11021386904F0EFFA386904F01EFB35
:103A50007B685B7A022B05D17B681B6801211846C5
:103A600004F016FD786807F0E3FC7B681B681846D5
:103A700004F0D0FB034603F08073B3F1807F02D1E2
:103A8000786801F04DFD7B681B68184604F0C2FBA6
:103A9000034603F00803082B06D1786807F0ACFC56
:103AA0007B681B6808225A617B681B68184604F013
:103AB000B1FB034603F00073B3F1007F39D17B689B
:103AC0001B68184605F052F9B86000237B6125E0B9
:103AD0007B6903F00F03BA6822FA03F303F00103D2
:103AE000002B18D07B695A01FB68134403F5A063CF
:103AF0001B6803F40043B3F5004F06D17B69DBB2CA
:103B00001946786800F005F905E07B69DBB21946D3
:103B1000786800F067FF7B6901337B617B685B79C4
:103B20001A467B699342D3D37B681B684FF00072BF
:103B30005A617B681B68184604F06CFB034603F06F
:103B40001003102B01D1012300E00023002B14D01F
:103B50007B681B689A697B681B6822F010029A6177
:103B6000786801F0FEFB7B681B689A697B681B68BC
:103B700042F010029A6100E000BF1837BD4680BDD8
:103B800080B582B000AF78607B6893F8D433012BA6
:103B900001D1022313E07B68012283F8D4237B68E0
:103BA0001B680121184604F0DAFC7B681B68184684
:103BB00004F0CCF97B68002283F8D4230023184654
:103BC0000837BD4680BD80B582B000AF78607B68A5
:103BD00093F8D433012B01D102230DE07B6801223D
:103BE00083F8D4237B681B68184605F02DFA7B68A0
:103BF000002283F8D423002318460837BD4680BD31
:103C000080B582B000AF78607B681B68184604F00E
:103C10007CFC034618460837BD4680BD80B483B09F
:103C200000AF78600B46FB70FA78796813461B0189
:103C30009B1A9B000B444C331B7818460C37BD462F
:103C40005DF8047B704780B483B000AF78600B46AA
:103C5000FB70FA78796813461B019B1A9B000B4492
:103C600038331B6818460C37BD465DF8047B704737
:103C700080B582B000AF78607B681B68184604F09E
:103C8000BEFC034618460837BD4680BD80B582B0ED
:103C900000AF78607B681B68184604F099FC034607
:103CA00018460837BD4680BD80B483B000AF786049
:103CB0000B46FB70FA78796813461B019B1A9B0030
:103CC0000B441A3300221A70FA78796813461B01E4
:103CD0009B1A9B000B441B3300221A70FA787968F8
:103CE00013461B019B1A9B000B44253300221A70BC
:103CF000FA78796813461B019B1A9B000B44243306
:103D000000221A70002318460C37BD465DF8047B6C
:103D1000704780B586B000AF78600B46FB707B685B
:103D20001B687B617B693B617B681B68FA78114685
:103D3000184604F082FA034603F00403042B1AD158
:103D4000FB785A013B69134403F5A0631A46042328
:103D50009360FA78796813461B019B1A9B000B4409
:103D60004D3307221A707B681B68FA781146184693
:103D700005F00DF89EE07B681B68FA78114618463E
:103D800004F05BFA034603F48073B3F5807F1BD124
:103D9000FB785A013B69134403F5A0631A464FF4BC
:103DA00080739360FA78796813461B019B1A9B0015
:103DB0000B444D3308221A707B681B68FA78114651
:103DC000184604F0E4FF75E07B681B68FA7811463A
:103DD000184604F032FA034603F00803082B1AD100
:103DE000FB785A013B69134403F5A0631A46082384
:103DF0009360FA78796813461B019B1A9B000B4469
:103E00004D3306221A707B681B68FA7811461846F3
:103E100004F0BDFF4EE07B681B68FA781146184637
:103E200004F00BFA034603F48063B3F5806F1BD1F3
:103E3000FB785A013B69134403F5A0631A464FF41B
:103E400080639360FA78796813461B019B1A9B0084
:103E50000B444D3309221A707B681B68FA781146AF
:103E6000184604F094FF25E07B681B68FA78114639
:103E7000184604F0E2F9034603F08003802B19D1C1
:103E8000FB785A013B69134403F5A0631A4680236B
:103E90009360FA78796813461B019B1A9B000B44C8
:103EA0004D3307221A707B681B68FA781146184652
:103EB00004F06DFF7B681B68FA781146184604F021
:103EC000BCF9034603F40073B3F5007F12D17B689D
:103ED0001B68FA781146184604F059FFFB785A011E
:103EE0003B69134403F5A0631A464FF400739360D3
:103EF00000F075BD7B681B68FA781146184604F01F
:103F00009CF9034603F00103012B40F02881FB7864
:103F10005A013B69134403F5A0631A4620239360BA
:103F2000FA78796813461B019B1A9B000B441B33DC
:103F30001B78012B19D1FA78796813461B019B1A5B
:103F40009B000B441B3300221A70FB785A013B691B
:103F5000134403F5A0635B68FA7851013A690A4497
:103F600002F5A06223F4803353607B689B79002BB9
:103F70001BD0FA78796813461B019B1A9B000B44EF
:103F800030331968FB785A013B69134403F5A06389
:103F90001B69C3F31203FA78C91A786813461B0128
:103FA0009B1A9B00034438331960FA7879681346EA
:103FB0001B019B1A9B000B444D3301221A70FA78A7
:103FC000796813461B019B1A9B000B444433002263
:103FD0001A60FB785A013B69134403F5A0631A4643
:103FE00001239360FA78796813461B019B1A9B00A2
:103FF0000B4426331B78002B0AD0FA7879681346D5
:104000001B019B1A9B000B4426331B78022B10D1FB
:104010007B681B68FA781146184604F0B8FEFB78F6
:104020005A013B69134403F5A0631A4610239360B9
:104030003DE0FA78796813461B019B1A9B000B44FC
:1040400026331B78032B0AD0FA78796813461B01B4
:104050009B1A9B000B4426331B78012B27D1FB783E
:104060005A013B69134403F5A0631B68FA785101B8
:104070003A690A4402F5A06243F000531360FA78EB
:10408000796813461B019B1A9B000B444C33012299
:104090001A70FA78796813461B019B1A9B000B442F
:1040A0004C331A78FB781946786807F0CFF97B68AB
:1040B0009B79012B3BD1FA78796813461B019B1A37
:1040C0009B000B4438331968FA78786813461B0153
:1040D0009B1A9B00034428331B880B44591EFA7813
:1040E000786813461B019B1A9B00034428331B88E6
:1040F000B1FBF3F303F00103002B00F07084FA78B6
:10410000796813461B019B1A9B000B443C331B78B8
:10411000FA7883F00103D8B2796813461B019B1A21
:104120009B000B443C3302461A7000F058BCFA78EE
:10413000796813461B019B1A9B000B443C331B7888
:10414000FA7883F00103D8B2796813461B019B1AF1
:104150009B000B443C3302461A7000F040BC7B6865
:104160001B68FA781146184604F067F8034603F016
:104170002003202B31D1FB785A013B69134403F50E
:10418000A0631A4620239360FA78796813461B01CE
:104190009B1A9B000B441A331B78012B40F01F84A1
:1041A000FA78796813461B019B1A9B000B441B335A
:1041B00001221A70FA78796813461B019B1A9B003A
:1041C0000B444D3303221A707B681B68FA78114642
:1041D000184604F0DCFD00F002BC7B681B68FA782E
:1041E0001146184604F029F8034603F00203022B97
:1041F00040F00583FB785A013B69134403F5A06343
:104200001A4602239360FA78796813461B019B1AB9
:104210009B000B444D331B78012B14D1FA7879683D
:1042200013461B019B1A9B000B444D3302221A704C
:10423000FA78796813461B019B1A9B000B444C3398
:1042400001221A70CCE2FA78796813461B019B1A96
:104250009B000B444D331B78062B14D1FA787968F8
:1042600013461B019B1A9B000B444D3302221A700C
:10427000FA78796813461B019B1A9B000B444C3358
:1042800005221A70ACE2FA78796813461B019B1A72
:104290009B000B444D331B78072B0BD0FA787968C1
:1042A00013461B019B1A9B000B444D331B78092BB3
:1042B00040F0A680FA78796813461B019B1A9B0090
:1042C0000B444D3302221A70FA78796813461B01A9
:1042D0009B1A9B000B4444331B68591C7868134697
:1042E0001B019B1A9B00034444331960FA787968D8
:1042F00013461B019B1A9B000B4444331B68022B83
:1043000043D9FA78796813461B019B1A9B000B442A
:10431000443300221A60FA78796813461B019B1A0D
:104320009B000B441A331B78012B23D1FA78796850
:1043300013461B019B1A9B000B441B3300221A706F
:10434000FA78796813461B019B1A9B000B441C33B7
:1043500000221A70FB785A013B69134403F5A063ED
:104360005B68FA7851013A690A4402F5A06223F4C5
:1043700080335360FA78796813461B019B1A9B00BF
:104380000B444C3304221A7029E2FA7879681346F8
:104390001B019B1A9B000B444C3302221A70FA78C3
:1043A000796813461B019B1A9B000B4426331B782C
:1043B000002B0BD0FA78796813461B019B1A9B00DF
:1043C0000B4426331B78022B40F00982FB785A01FC
:1043D0003B69134403F5A0631B68FB60FB6823F093
:1043E0008043FB60FB6843F00043FB60FB785A01AD
:1043F0003B69134403F5A0631A46FB681360EEE1C2
:10440000FA78796813461B019B1A9B000B444D33C5
:104410001B78052B40F0C880FA78796813461B0199
:104420009B1A9B000B444D3302221A70FA7879686C
:1044300013461B019B1A9B000B441B331B78012B5B
:1044400040F0CE81FA78796813461B019B1A9B00D5
:104450000B4426331B78032B6BD1FA78796813460B
:104460001B019B1A9B000B4448331B68591C78683E
:1044700013461B019B1A9B00034448331960FA78CA
:10448000796813461B019B1A9B000B4448331B6839
:10449000022B43D9FA78796813461B019B1A9B00BB
:1044A0000B44483300221A60FA78796813461B01DE
:1044B0009B1A9B000B441B3300221A70FA78796810
:1044C00013461B019B1A9B000B4444331B68022BB1
:1044D00009D8FA78796813461B019B1A9B000B4494
:1044E0001C3301221A70FB785A013B69134403F50F
:1044F000A0635B68FA7851013A690A4402F5A06248
:1045000023F480335360FA78796813461B019B1AB1
:104510009B000B444C3304221A7014E0FA7879683B
:1045200013461B019B1A9B000B444C3302221A704A
:1045300009E0FA78796813461B019B1A9B000B442B
:104540004C3302221A70FA78796813461B019B1AC1
:104550009B000B4426331B78002B0BD0FA7879682C
:1045600013461B019B1A9B000B4426331B78022B1E
:1045700040F03681FB785A013B69134403F5A06390
:104580001B68FB60FB6823F08043FB60FB6843F023
:104590000043FB60FB785A013B69134403F5A063B9
:1045A0001A46FB6813601BE1FA78796813461B0111
:1045B0009B1A9B000B444D331B78032B40F08180EA
:1045C000FA78796813461B019B1A9B000B444D3304
:1045D00002221A70FA78796813461B019B1A9B0015
:1045E0000B441B331B78012B40F0FA80FA78796872
:1045F00013461B019B1A9B000B444C3302221A707A
:10460000FB785A013B69134403F5A0635B68FA78B1
:1046100051013A690A4402F5A06243F480335360C1
:10462000FB785A013B69134403F5A063DB68FA7811
:1046300051013A690A4402F5A06243F04003D36095
:10464000FB785A013B69134403F5A063DB68FA78F1
:1046500051013A690A4402F5A06223F02003D360B5
:10466000FA78796813461B019B1A9B000B4426338A
:104670001B78002B0BD0FA78796813461B019B1A24
:104680009B000B4426331B78022B40F0A980FB785B
:104690005A013B69134403F5A0631B68FB60FB6888
:1046A00023F08043FB60FB6843F00043FB60FB7832
:1046B0005A013B69134403F5A0631A46FB68136073
:1046C0008EE0FA78796813461B019B1A9B000B4415
:1046D0004D331B78042B43D1FA78796813461B01BC
:1046E0009B1A9B000B444D3302221A70FA787968AA
:1046F00013461B019B1A9B000B444C3302221A7079
:10470000FA78796813461B019B1A9B000B442633E9
:104710001B78002B0AD0FA78796813461B019B1A84
:104720009B000B4426331B78022B59D1FB785A018E
:104730003B69134403F5A0631B68FB60FB6823F02F
:104740008043FB60FB6843F00043FB60FB785A0149
:104750003B69134403F5A0631A46FB6813603FE00E
:10476000FA78796813461B019B1A9B000B444D3362
:104770001B78082B26D1FA78796813461B019B1AFF
:104780009B000B444D3302221A70FA787968134665
:104790001B019B1A9B000B4444331B68591C78680F
:1047A00013461B019B1A9B00034444331960FA789B
:1047B000796813461B019B1A9B000B444C3304225F
:1047C0001A700DE0FA78796813461B019B1A9B005A
:1047D0000B444D331B78022B00F0008100E000BF3A
:1047E000FA78796813461B019B1A9B000B444C33E3
:1047F0001A78FB781946786806F028FEEFE07B68A7
:104800001B68FA781146184603F017FD034603F0BB
:104810004003402B2FD1FB785A013B69134403F529
:10482000A0631A4640239360FA78796813461B0107
:104830009B1A9B000B444D3305221A70FA78796855
:1048400013461B019B1A9B000B441A331B78002B49
:1048500009D1FA78796813461B019B1A9B000B4417
:10486000443300221A607B681B68FA7811461846A8
:1048700004F08DFAB3E07B681B68FA78114618469D
:1048800003F0DBFC034603F01003102B40F0A7807D
:10489000FA78796813461B019B1A9B000B44263358
:1048A0001B78032B1BD1FA78796813461B019B1ADE
:1048B0009B000B44443300221A60FA78796813464F
:1048C0001B019B1A9B000B444D3304221A707B681A
:1048D0001B68FA781146184604F059FA3FE0FA7856
:1048E000796813461B019B1A9B000B4426331B78E7
:1048F000002B0AD0FA78796813461B019B1A9B009B
:104900000B4426331B78022B29D1FA787968134699
:104910001B019B1A9B000B44443300221A607B68E6
:104920009B79002B0AD0FA78796813461B019B1AF1
:104930009B000B441B331B78012B10D1FA7879684C
:1049400013461B019B1A9B000B444D3304221A7023
:104950007B681B68FA781146184604F018FAFA7852
:10496000796813461B019B1A9B000B441B331B7871
:10497000012B29D1FA78796813461B019B1A9B00F9
:104980000B441B3300221A70FB785A013B69134415
:1049900003F5A0635B68FA7851013A690A4402F5AD
:1049A000A06223F480335360FB785A013B691344BF
:1049B00003F5A063DB68FA7851013A690A4402F50D
:1049C000A06243F02003D360FB785A013B69134493
:1049D00003F5A0631A461023936000E000BF183768
:1049E000BD4680BD80B586B000AF78600B46FB70D9
:1049F0007B681B687B617B693B617B681B68FA781D
:104A00001146184603F019FC034603F00403042B77
:104A10001BD1FB785A013B69134403F5A0631A4686
:104A200004239360FA78796813461B019B1A9B0054
:104A30000B444D3307221A707B681B68FA781146C5
:104A4000184604F0A4F900F089BC7B681B68FA786A
:104A50001146184603F0F1FB034603F02003202B18
:104A600040F08280FB785A013B69134403F5A06350
:104A70001A4620239360FA78796813461B019B1A23
:104A80009B000B4419331B78012B24D1FA787968E9
:104A900013461B019B1A9B000B44193300221A700A
:104AA000FA78796813461B019B1A9B000B444C3320
:104AB00002221A70FA78796813461B019B1A9B0030
:104AC0000B444D3303221A707B681B68FA78114639
:104AD000184604F05CF9FA78796813461B019B1AB2
:104AE0009B000B441A331B78012B40F03784FA7873
:104AF000796813461B019B1A9B000B441B331B78E0
:104B0000002B40F02B84FA78796813461B019B1A1E
:104B10009B000B4426331B78012B09D0FA78796867
:104B200013461B019B1A9B000B441B3301221A7076
:104B3000FA78796813461B019B1A9B000B444D338E
:104B400003221A707B681B68FA781146184604F035
:104B50001EF9FA78796813461B019B1A9B000B44D7
:104B6000443300221A60F9E37B681B68FA78114627
:104B7000184603F062FB034603F40073B3F5007FAD
:104B800011D1FB785A013B69134403F5A0631A461F
:104B90004FF4007393607B681B68FA7811461846DF
:104BA00004F0F5F8DAE37B681B68FA7811461846DA
:104BB00003F043FB034603F00103012B68D1FA78AD
:104BC000796813461B019B1A9B000B444433002257
:104BD0001A607B681B68FA781146184603F02DFBB3
:104BE000034603F04003402B12D1FA78796813464C
:104BF0001B019B1A9B000B44193301221A70FB788E
:104C00005A013B69134403F5A0631A46402393609D
:104C1000FA78796813461B019B1A9B000B441B33DF
:104C20001B78002B19D0FA78796813461B019B1A60
:104C30009B000B441B3300221A70FB785A013B691E
:104C4000134403F5A0635B68FA7851013A690A449A
:104C500002F5A06223F480335360FB785A013B696C
:104C6000134403F5A0631A4601239360FA78796828
:104C700013461B019B1A9B000B444D3301221A70F3
:104C80007B681B68FA781146184604F080F865E3E3
:104C90007B681B68FA781146184603F0CEFA034683
:104CA00003F04003402B39D1FA78796813461B0191
:104CB0009B1A9B000B444D3305221A70FA787968D1
:104CC00013461B019B1A9B000B441A331B78002BC5
:104CD00009D1FA78796813461B019B1A9B000B4493
:104CE000193301221A70FA78796813461B019B1A4E
:104CF0009B000B44443300221A607B681B68FA78DF
:104D00001146184604F043F8FB785A013B691344F6
:104D100003F5A0631A46402393601FE37B681B687A
:104D2000FA781146184603F088FA034603F00803A0
:104D3000082B1AD1FB785A013B69134403F5A06391
:104D40001A4608239360FA78796813461B019B1A68
:104D50009B000B444D3306221A707B681B68FA785F
:104D60001146184604F013F8F8E27B681B68FA78DD
:104D70001146184603F061FA034603F01003102BA6
:104D800044D1FA78796813461B019B1A9B000B44A7
:104D9000443300221A60FA78796813461B019B1A83
:104DA0009B000B444D3304221A70FA78796813463D
:104DB0001B019B1A9B000B4419331B78002B14D149
:104DC000FA78796813461B019B1A9B000B44183331
:104DD0001B78002B09D1FA78796813461B019B1ABE
:104DE0009B000B44193301221A707B681B68FA7808
:104DF0001146184603F0CBFFFB785A013B69134478
:104E000003F5A0631A4610239360A7E27B681B6832
:104E1000FA781146184603F010FA034603F08003AF
:104E2000802B40F083807B689B79002B11D1FA782E
:104E3000796813461B019B1A9B000B444D330722D4
:104E40001A707B681B68FA781146184603F09FFFBA
:104E500062E0FA78796813461B019B1A9B000B44A9
:104E600044331B68591C786813461B019B1A9B002E
:104E7000034444331960FA78796813461B019B1A7E
:104E80009B000B4444331B68022B22D9FA787968C3
:104E900013461B019B1A9B000B44443300221A60EB
:104EA000FA78796813461B019B1A9B000B444C331C
:104EB00004221A70FA78796813461B019B1A9B002A
:104EC0000B444C331A78FB781946786806F0BEFA22
:104ED00022E0FA78796813461B019B1A9B000B4469
:104EE0004C3302221A70FB785A013B69134403F5D4
:104EF000A0631B68FB60FB6823F08043FB60FB68DA
:104F000043F00043FB60FB785A013B69134403F50F
:104F1000A0631A46FB681360FB785A013B6913448F
:104F200003F5A0631A468023936017E27B681B6831
:104F3000FA781146184603F080F9034603F48063BB
:104F4000B3F5806F1BD1FA78796813461B019B1A61
:104F50009B000B444D3309221A707B681B68FA785A
:104F60001146184603F013FFFB785A013B691344BE
:104F700003F5A0631A464FF480639360EEE17B680B
:104F80001B68FA781146184603F057F9034603F0F8
:104F90000203022B40F0DF81FB785A013B69134486
:104FA00003F5A0631A4602239360FA7879681346E2
:104FB0001B019B1A9B000B444D331B78012B40F0C7
:104FC0009380FA78796813461B019B1A9B000B4467
:104FD0004D3302221A70FA78796813461B019B1A26
:104FE0009B000B444C3301221A70FA7879681346FF
:104FF0001B019B1A9B000B4426331B78022B0BD002
:10500000FA78796813461B019B1A9B000B442633E0
:105010001B78032B40F090817B689B79002B15D186
:10502000FA78796813461B019B1A9B000B443D33A9
:105030001B78FA7883F00103D8B2796813461B0114
:105040009B1A9B000B443D3302461A707B689B7988
:10505000012B40F07181FA78796813461B019B1A85
:105060009B000B4434331B68002B00F06581FA78F9
:10507000796813461B019B1A9B000B443433196853
:10508000FA78786813461B019B1A9B000344283367
:105090001B880B44591EFA78786813461B019B1A2B
:1050A0009B00034428331B88B1FBF3F3BB60BB6850
:1050B00003F00103002B00F03F81FA787968134672
:1050C0001B019B1A9B000B443D331B78FA7883F03D
:1050D0000103D8B2796813461B019B1A9B000B444D
:1050E0003D3302461A7027E1FA78796813461B01AE
:1050F0009B1A9B000B444D331B78032B20D1FA786D
:10510000796813461B019B1A9B000B444D33022206
:105110001A70FA78796813461B019B1A9B000B449E
:105120001B331B78012B40F00781FA78796813460E
:105130001B019B1A9B000B444C3302221A70FBE0AC
:10514000FA78796813461B019B1A9B000B444D3378
:105150001B78042B3AD1FA78796813461B019B1A05
:105160009B000B444D3302221A70FA78796813467B
:105170001B019B1A9B000B444C3302221A70FA78D5
:10518000796813461B019B1A9B000B441B331B7849
:10519000012B40F0D180FA78796813461B019B1AE5
:1051A0009B000B441B3300221A70FB785A013B69A9
:1051B000134403F5A0635B68FA7851013A690A4425
:1051C00002F5A06223F480335360B5E0FA78796881
:1051D00013461B019B1A9B000B444D331B78052B78
:1051E00014D1FA78796813461B019B1A9B000B4473
:1051F0004D3302221A70FA78796813461B019B1A04
:105200009B000B444C3302221A7095E0FA787968BF
:1052100013461B019B1A9B000B444D331B78062B36
:1052200014D1FA78796813461B019B1A9B000B4432
:105230004D3302221A70FA78796813461B019B1AC3
:105240009B000B444C3305221A7075E0FA7879689C
:1052500013461B019B1A9B000B444D331B78072BF5
:105260000AD0FA78796813461B019B1A9B000B44FD
:105270004D331B78092B70D1FA78796813461B01DE
:105280009B1A9B000B444D3302221A70FA787968FE
:1052900013461B019B1A9B000B4444331B68591C8B
:1052A000786813461B019B1A9B0003444433196022
:1052B000FA78796813461B019B1A9B000B44443310
:1052C0001B68022B14D9FA78796813461B019B1AC4
:1052D0009B000B44443300221A60FA787968134625
:1052E0001B019B1A9B000B444C3304221A7022E0D2
:1052F000FA78796813461B019B1A9B000B444C33C8
:1053000002221A70FB785A013B69134403F5A0632B
:105310001B68FB60FB6823F08043FB60FB6843F085
:105320000043FB60FB785A013B69134403F5A0631B
:105330001A46FB68136000BFFA78796813461B01B0
:105340009B1A9B000B444C331A78FB7819467868FB
:1053500006F07CF802E000BF00E000BF1837BD4651
:1053600080BD80B58AB000AF78607B681B687B62C7
:105370007B6A3B627B681B681B6AFB61FB6903F00D
:105380000F03BB61FB695B0C03F00F037B61FB69DF
:105390001B09C3F30A033B617B69022B04D07B69C1
:1053A000052B00F0B680B7E03B69002B00F0B3801E
:1053B0007968BA6913461B019B1A9B000B442C3376
:1053C0001B68002B00F0A7807968BA6913461B019F
:1053D0009B1A9B000B4438331A683B69D1187868D4
:1053E000BA6913461B019B1A9B00034434331B68A4
:1053F000994200F283807B6818687968BA6913461D
:105400001B019B1A9B000B442C331B683A6992B218
:10541000194602F0A7FE7968BA6913461B019B1A68
:105420009B000B442C331A683B69D1187868BA6921
:1054300013461B019B1A9B0003442C3319607968A7
:10544000BA6913461B019B1A9B000B4438331A6838
:105450003B69D1187868BA6913461B019B1A9B00F7
:10546000034438331960BB695A013B6A134403F59E
:10547000A0631B69DB0CC3F30903FB607968BA699D
:1054800013461B019B1A9B000B4428331B881A46AA
:105490003B6993423FD1FB68002B3CD0BB695A016A
:1054A0003B6A134403F5A0631B68BB60BB6823F031
:1054B0008043BB60BB6843F00043BB60BB695A01DB
:1054C0003B6A134403F5A0631A46BB68136079680E
:1054D000BA6913461B019B1A9B000B443C331B7893
:1054E00083F00103D8B27968BA6913461B019B1A8D
:1054F0009B000B443C3302461A700CE07968BA6991
:1055000013461B019B1A9B000B444C3304221A7058
:1055100001E000BF00E000BF00BF2837BD4680BDEE
:1055200080B586B000AF78607B681B687B617B6963
:105530003B613B6903F588631B68FB603B6903F5CE
:1055400088631B68BB60BB6823F02E03BB60FB68ED
:1055500003F00203022B0BD1FB6803F00103012BC4
:1055600002D1786805F056FFBB6843F00203BB60C8
:10557000FB6803F00803082B32D1BB6843F0080333
:10558000BB60FB6803F00403042B26D17B685B7AC5
:10559000022B13D1FB6803F4C023B3F5802F06D18F
:1055A0007B681B680221184602F072FF11E07B68DD
:1055B0001B680121184602F06BFF0AE07B68DB796B
:1055C000012B06D13B6903F580631A464EF6602332
:1055D0005360786805F048FF02E0786805F052FFF4
:1055E000FB6803F02003202B03D1BB6843F02003AA
:1055F000BB603B6903F588631A46BB68136000BF54
:105600001837BD4680BD000080B588B000AF786017
:105610007B68002B01D1012328E17B6893F841309E
:10562000DBB2002B09D17B68002283F840207B6825
:10563000904A5A637868FCF7DFFC7B68022283F8A3
:1056400041207B681B68DB697A68126823F47B63FE
:1056500023F00F03D3617B681B6802221A627B6808
:105660005B69022B60D07B68DB68002B02D11023C2
:105670007B6101E020237B617B689B68202B02D843
:105680007B695B007B61012001F0D8F9F8607B68E1
:105690001B69B3F5007F25D17B68DB68002B10D038
:1056A0007B699B00FA68B2FBF3F213469B0013443C
:1056B0005B001A467B685B69B2FBF3F305333B6121
:1056C0001FE07B69DB00FA68B2FBF3F213469B0034
:1056D00013445B001A467B685B69B2FBF3F3053346
:1056E0003B610EE0FA687B69B2FBF3F213469B0064
:1056F00013445B001A467B685B69B2FBF3F3053326
:105700003B613B695C4AA2FB0323DB083B613B69CD
:1057100003F00103BB613A69BB69D31A5B08FB6103
:10572000BB691B02BB6103E00223FB610023BB6179
:10573000FB69012B02D9FB69FF2B07D97B685B6CE6
:1057400043F010027B685A6401238FE07B681A697A
:10575000BB6942EA03017B681B68FA690A431A6263
:105760007B681B68DB6923F47B6323F00F037A6893
:1057700051687A68926811437A68D26811437A68EE
:1057800092690A431A437B681B6842F40062DA613B
:105790007B681B6A012B61D17B68384A5A637B683E
:1057A0001B68374A934201D1364B01E04FF040234A
:1057B000DB697A68126832498A4201D1314A01E0D4
:1057C0004FF0402223F47B6323F00F03D3617B6807
:1057D0001B682B4A934201D12A4B01E04FF0402332
:1057E00002221A627B681B68254A934201D1254B2D
:1057F00001E04FF04023DB697B817B685B68B3F598
:10580000007F03D07B685B68002B03D14FF480736B
:105810003B6101E000233B613B699AB27B689B6876
:105820009BB213439AB27B68DB689BB213439AB274
:105830007B689B699BB213439AB27B8913439BB2EB
:1058400043F400637B817B681B680D4A934201D15E
:105850000C4B01E04FF040237A89DA617B6800222B
:105860005A647B68012283F84120002318462037C0
:10587000BD4680BD7F590008CDCCCCCC955A0008E0
:10588000003800400034004080B483B000AF78603E
:1058900000BF0C37BD465DF8047B704780B483B011
:1058A00000AF786000BF0C37BD465DF8047B7047E1
:1058B00080B483B000AF786000BF0C37BD465DF8A0
:1058C000047B704780B582B000AF78607B685B6A0C
:1058D0001A887B681B68DA607B685B6A9A1C7B6845
:1058E0005A627B685B8D9BB2013B9AB27B685A859A
:1058F0007B685B8D9BB2002B0ED17B681B685A685E
:105900007B681B6822F0A0025A607B68012283F842
:1059100041207868FFF7B8FF00BF0837BD4680BD5B
:1059200080B582B000AF78607B681B68DA687B68FE
:10593000DB6A92B21A807B68DB6A9A1C7B68DA6247
:105940007B685B8E9BB2013B9AB27B685A867B6810
:105950005B8E9BB2002B0ED17B681B685A687B68FC
:105960001B6822F060025A607B68012283F84120A4
:105970007868FFF793FF00BF0837BD4680BD80B54C
:1059800086B000AF78607B681B689B687B617B6832
:1059900093F84130DBB2042B3AD17B6903F0010369
:1059A000012B09D17B681B685B6803F04003402B27
:1059B00002D17868FFF7B4FF7B6903F04003402B06
:1059C00026D17B681B685B6803F02003202B1FD166
:1059D0007B681B685A687B681B6822F060025A600B
:1059E00000233B617B681B68DB683B617B681B684D
:1059F0009B683B613B697B68012283F841207B689F
:105A00005B6C43F002027B685A647868FFF750FFD2
:105A10007B6893F84130DBB2032B36D17B6903F00E
:105A20000203022B09D17B681B685B6803F08003CB
:105A3000802B02D17868FFF745FF7B6903F00803EC
:105A4000082B22D17B681B685B6803F02003202BA6
:105A50001BD17B681B685A687B681B6822F0A00218
:105A60005A600023FB607B681B689B68FB60FB68D7
:105A70007B68012283F841207B685B6C43F0040261
:105A80007B685A647868FFF713FF00BF1837BD467C
:105A900080BD000080B588B000AF78607B681B686F
:105AA0009B68FB617B681B68924A934201D1924BD1
:105AB00001E04FF040239B68BB617B681B685B681B
:105AC0007B617B681B688B4A934201D18A4B01E062
:105AD0004FF040235B683B617B685B68B3F5007FF8
