:020000040800F2
:1000000000000220592400089D1F0008A51F0008B9
:10001000AD1F0008B51F0008BD1F0008000000004C
:10002000000000000000000000000000C51F0008E4
:10003000D31F000800000000E11F0008EF1F0008A8
:10004000A9240008A9240008A9240008A92400085C
:10005000A9240008A9240008A9240008A92400084C
:10006000A9240008A9240008A9240008A92400083C
:10007000A9240008A9240008A9240008A92400082C
:10008000A9240008A9240008A9240008A92400081C
:10009000A9240008A9240008A9240008A92400080C
:1000A000A9240008A9240008A9240008A9240008FC
:1000B000A9240008A9240008A9240008A9240008EC
:1000C000A9240008A9240008A9240008A9240008DC
:1000D000A9240008A9240008A9240008A9240008CC
:1000E000A9240008A9240008A9240008A9240008BC
:1000F000A9240008A9240008A9240008A9240008AC
:10010000A9240008A9240008A9240008A92400089B
:10011000A9240008A9240008A9240008A92400088B
:10012000A9240008A9240008A9240008A92400087B
:10013000A9240008A9240008A9240008A92400086B
:10014000A9240008A9240008A9240008FD1F00080C
:10015000A9240008A9240008A9240008A92400084B
:10016000A9240008A9240008A9240008A92400083B
:10017000A9240008A9240008A92400080000000000
:08018000A9240008A9240008CD
:1001900010B5054C237833B9044B13B10448AFF3C1
:1001A00000800123237010BDF40100200000000036
:1001B00038D9000808B5034B1BB103490348AFF316
:1001C000008008BD00000000F801002038D90008B8
:1001D00001F0FF01102A2BDB10F0070F08D010F8F8
:1001E000013B013A8B422DD010F0070F42B3F6D1FC
:1001F000F0B441EA012141EA014122F007047FF015
:1002000000070023F0E80256083C85EA010586EA6B
:10021000010685FA47F5A3FA87F586FA47F6A5FAA7
:1002200087F68EB9EED1F0BC01F0FF0102F00702B3
:1002300032B110F8013B013A83EA010313B1F8D15E
:100240000020704701387047002D06BF354603383F
:10025000073815F0010F07D1013015F4807F02BF78
:10026000013015F4C03F0130F0BC0138704700BFC9
:10027000034613F8012B002AFBD1181A01387047E6
:1002800081F0004102E000BF83F0004330B54FEA47
:1002900041044FEA430594EA050F08BF90EA020FB4
:1002A0001FBF54EA000C55EA020C7FEA645C7FEA47
:1002B000655C00F0E2804FEA5454D4EB5555B8BF6A
:1002C0006D420CDD2C4480EA020281EA030382EADB
:1002D000000083EA010180EA020281EA0303362D6D
:1002E00088BF30BD11F0004F4FEA01314FF4801C40
:1002F0004CEA113102D0404261EB410113F0004F52
:100300004FEA03334CEA133302D0524263EB430308
:1003100094EA050F00F0A780A4F10104D5F1200EA6
:100320000DDB02FA0EFC22FA05F2801841F1000101
:1003300003FA0EF2801843FA05F359410EE0A5F1D5
:1003400020050EF1200E012A03FA0EFC28BF4CF006
:10035000020C43FA05F3C01851EBE37101F00045BC
:1003600007D54FF0000EDCF1000C7EEB00006EEBC9
:100370000101B1F5801F1BD3B1F5001F0CD3490853
:100380005FEA30004FEA3C0C04F101044FEA4452AA
:1003900012F5800F80F09A80BCF1004F08BF5FEA31
:1003A000500C50F1000041EB045141EA050130BD11
:1003B0005FEA4C0C404141EB0101013C28BFB1F523
:1003C000801FE9D291F0000F04BF01460020B1FA6E
:1003D00081F308BF2033A3F10B03B3F120020CDA41
:1003E0000C3208DD02F1140CC2F10C0201FA0CF01F
:1003F00021FA02F10CE002F11402D8BFC2F1200C84
:1004000001FA02F120FA0CFCDCBF41EA0C01904039
:10041000E41AA2BF01EB0451294330BD6FEA040482
:100420001F3C1CDA0C340EDC04F11404C4F120026D
:1004300020FA04F001FA02F340EA030021FA04F37F
:1004400045EA030130BDC4F10C04C4F1200220FAD6
:1004500002F001FA04F340EA0300294630BD21FA14
:1004600004F0294630BD94F0000F83F4801306BFDA
:1004700081F480110134013D4EE77FEA645C18BFCE
:100480007FEA655C29D094EA050F08BF90EA020F65
:1004900005D054EA000C04BF1946104630BD91EA5D
:1004A000030F1EBF0021002030BD5FEA545C05D160
:1004B0004000494128BF41F0004130BD14F580049F
:1004C0003CBF01F5801130BD01F0004545F0FE4113
:1004D00041F470014FF0000030BD7FEA645C1ABF48
:1004E000194610467FEA655C1CBF0B46024650EA7F
:1004F000013406BF52EA033591EA030F41F40021AB
:1005000030BD00BF90F0000F04BF0021704730B530
:100510004FF4806404F132044FF000054FF0000105
:1005200050E700BF90F0000F04BF0021704730B5C6
:100530004FF4806404F1320410F0004548BF40429B
:100540004FF000013EE700BF42004FEAE2014FEAF0
:1005500031014FEA02701FBF12F07F4393F07F4FCB
:1005600081F06051704732F07F4208BF704793F0CE
:100570007F4F04BF41F40021704730B54FF46074E1
:1005800001F0004521F000411CE700BF50EA0102E4
:1005900008BF704730B54FF000050AE050EA01028D
:1005A00008BF704730B511F0004502D5404261EBFD
:1005B00041014FF4806404F132045FEA915C3FF43E
:1005C000D8AE4FF003025FEADC0C18BF03325FEADB
:1005D000DC0C18BF033202EBDC02C2F1200300FA8C
:1005E00003FC20FA02F001FA03FE40EA0E0021FAB1
:1005F00002F11444BDE600BF70B54FF0FF0C4CF49F
:10060000E06C1CEA11541DBF1CEA135594EA0C0F50
:1006100095EA0C0F00F0DEF82C4481EA030621EA8B
:100620004C5123EA4C5350EA013518BF52EA0335C6
:1006300041F4801143F4801338D0A0FB02CE4FF078
:100640000005E1FB02E506F00042E0FB03E54FF0A8
:100650000006E1FB03569CF0000F18BF4EF0010EA0
:10066000A4F1FF04B6F5007F64F5407404D25FEA9C
:100670004E0E6D4146EB060642EAC62141EA55514F
:100680004FEAC52040EA5E504FEACE2EB4F1FD0C91
:1006900088BFBCF5E06F1ED8BEF1004F08BF5FEA0F
:1006A000500E50F1000041EB045170BD06F00046C1
:1006B00046EA010140EA020081EA0301B4EB5C046E
:1006C000C2BFD4EB0C0541EA045170BD41F4801166
:1006D0004FF0000E013C00F3AB8014F1360FDEBF8B
:1006E000002001F0004170BDC4F10004203C35DA67
:1006F0000C341BDC04F11404C4F1200500FA05F3EA
:1007000020FA04F001FA05F240EA020001F000428A
:1007100021F0004110EBD37021FA04F642EB060100
:100720005EEA430E08BF20EAD37070BDC4F10C042A
:10073000C4F1200500FA04F320FA05F001FA04F2EE
:1007400040EA020001F0004110EBD37041F10001DA
:100750005EEA430E08BF20EAD37070BDC4F12005E5
:1007600000FA05F24EEA020E20FA04F301FA05F24D
:1007700043EA020321FA04F001F0004121FA04F2F5
:1007800020EA020000EBD3705EEA430E08BF20EAC5
:10079000D37070BD94F0000F0FD101F000464000FF
:1007A00041EB010111F4801F08BF013CF7D041EA81
:1007B000060195F0000F18BF704703F00046520085
:1007C00043EB030313F4801F08BF013DF7D043EA56
:1007D0000603704794EA0C0F0CEA135518BF95EA0C
:1007E0000C0F0CD050EA410618BF52EA4306D1D193
:1007F00081EA030101F000414FF0000070BD50EAB2
:10080000410606BF1046194652EA430619D094EA3B
:100810000C0F02D150EA013613D195EA0C0F05D125
:1008200052EA03361CBF104619460AD181EA030179
:1008300001F0004141F0FE4141F470014FF0000031
:1008400070BD41F0FE4141F4780170BD70B54FF0CC
:10085000FF0C4CF4E06C1CEA11541DBF1CEA13554C
:1008600094EA0C0F95EA0C0F00F0A7F8A4EB05042E
:1008700081EA030E52EA03354FEA013100F0888025
:100880004FEA03334FF0805545EA131343EA1263EE
:100890004FEA022245EA111545EA10654FEA0026A3
:1008A0000EF000419D4208BF964244F1FD0404F55C
:1008B000407402D25B084FEA3202B61A65EB0305B8
:1008C0005B084FEA32024FF480104FF4002CB6EB75
:1008D000020E75EB030E22BFB61A754640EA0C00F5
:1008E0005B084FEA3202B6EB020E75EB030E22BF35
:1008F000B61A754640EA5C005B084FEA3202B6EB76
:10090000020E75EB030E22BFB61A754640EA9C0034
:100910005B084FEA3202B6EB020E75EB030E22BF04
:10092000B61A754640EADC0055EA060E18D04FEAC2
:10093000051545EA16754FEA06164FEAC30343EA62
:1009400052734FEAC2025FEA1C1CC0D111F4801F2F
:100950000BD141EA00014FF000004FF0004CB6E728
:1009600011F4801F04BF01430020B4F1FD0C88BFC7
:10097000BCF5E06F3FF6AFAEB5EB030C04BFB6EBD2
:10098000020C5FEA500C50F1000041EB045170BDC5
:100990000EF0004E4EEA113114EB5C04C2BFD4EBF2
:1009A0000C0541EA045170BD41F480114FF0000E76
:1009B000013C90E645EA060E8DE60CEA135594EAF2
:1009C0000C0F08BF95EA0C0F3FF43BAF94EA0C0FF5
:1009D0000AD150EA01347FF434AF95EA0C0F7FF46A
:1009E00025AF104619462CE795EA0C0F06D152EABE
:1009F00003353FF4FDAE1046194622E750EA4106A2
:100A000018BF52EA43067FF4C5AE50EA41047FF4B2
:100A10000DAF52EA43057FF4EBAE12E74FF0FF3C17
:100A200006E000BF4FF0010C02E000BF4FF0010CE8
:100A30004DF804CD4FEA410C7FEA6C5C4FEA430C61
:100A400018BF7FEA6C5C1BD001B050EA410C0CBFB0
:100A500052EA430C91EA030F02BF90EA020F002012
:100A6000704710F1000F91EA030F58BF994208BF79
:100A700090422CBFD8176FEAE37040F00100704736
:100A80004FEA410C7FEA6C5C02D150EA013C07D18D
:100A90004FEA430C7FEA6C5CD6D152EA033CD3D0D8
:100AA0005DF8040B704700BF8446104662468C46D2
:100AB0001946634600E000BF01B5FFF7B7FF002805
:100AC00048BF10F1000F01BD4DF808EDFFF7F4FF2E
:100AD0000CBF012000205DF808FB00BF4DF808EDB9
:100AE000FFF7EAFF34BF012000205DF808FB00BFDC
:100AF0004DF808EDFFF7E0FF94BF012000205DF8FE
:100B000008FB00BF4DF808EDFFF7CEFF94BF0120B2
:100B100000205DF808FB00BF4DF808EDFFF7C4FFAB
:100B200034BF012000205DF808FB00BF4FEA410CF4
:100B30007FEA6C5C02D150EA013C0AD14FEA430CD7
:100B40007FEA6C5C02D152EA033C02D14FF0000014
:100B500070474FF0010070474FEA410212F5001252
:100B600015D211D56FF47873B3EB625212D94FEAF4
:100B7000C12343F0004343EA505311F0004F23FADE
:100B800002F018BF404270474FF00000704750EA33
:100B9000013005D111F0004008BF6FF000407047F0
:100BA0004FF00000704700BF53B94AB9002908BF91
:100BB00000281CBF4FF0FF314FF0FF3000F088B924
:100BC000ADF1080C6DE904CE00F006F8DDF804E0A4
:100BD000DDE9022304B070472DE9F047089D8E46F9
:100BE00004468846002B4AD18A42174662D9B2FA97
:100BF00082F64EB1C6F1200301FA06F820FA03F39B
:100C0000B74043EA0808B4404FEA174E1FFA87FC82
:100C1000B8FBFEF1230C0EFB118843EA084301FBED
:100C20000CF29A4209D9FB1801F1FF3080F0EA80FA
:100C30009A4240F2E78002393B449A1AA3B2B2FBCF
:100C4000FEF00EFB102243EA024300FB0CFC9C4525
:100C500009D9FB1800F1FF3280F0D6809C4540F2A4
:100C6000D3803B44023840EA0140A3EB0C0300214F
:100C70001DB1F3400022C5E90032BDE8F0878B4288
:100C800005D90DB1C5E9000100210846F5E7B3FA21
:100C900083F1002946D1734502D3824200F20581D7
:100CA000841A6EEB030201209046002DE5D0C5E9C1
:100CB0000048E2E7002A00F09080B2FA82F6002EA7
:100CC00040F0A4808A1A030C4FEA174E80B2BCB2DF
:100CD0000121B2FBFEFC0EFB1C2243EA024304FB93
:100CE0000CF29A4207D9FB180CF1FF3802D29A4253
:100CF00000F2E080C4469B1AB3FBFEF20EFB1233F7
:100D000040EA034302FB04F49C4207D9FB1802F1BA
:100D1000FF3002D29C4200F2CA8002461B1B42EA0C
:100D20000C40A5E7C1F120068B4022FA06F71F43CD
:100D30000EFA01F420FA06F32EFA06FE4FEA1749DE
:100D4000234300FA01F81FFA87FCBEFBF9F01C0CE4
:100D500009FB10EE44EA0E4400FB0CFEA64502FA25
:100D600001F209D93C1900F1FF3A80F09C80A645B8
:100D700040F2998002383C44A4EB0E041FFA83FE33
:100D8000B4FBF9F309FB13444EEA044403FB0CFCE7
:100D9000A44508D93C1903F1FF3E80F08280A445A8
:100DA0007FD9023B3C4443EA0040A4EB0C04A0FB87
:100DB00002EC64457346E14662D35FD05DB1B8EBA7
:100DC000030264EB090404FA06F622FA01F31E4357
:100DD000CC40C5E9006400214FE7B1FBF2FC010CF7
:100DE00041EA0E4180B240EA01423B4638463C4669
:100DF000B846BE462026B1FBF7F1A2EB080241EA55
:100E00000C4166E7014618E710462CE7C6F12002C0
:100E10002EFA02F3B740B14020FA02F24FEA174E21
:100E20000A43B3FBFEF8BCB20EFB1833110C41EAC7
:100E3000034108FB04F9B04089454FEA104380B2F2
:100E40003ED9791808F1FF3C01D289451FD8A1EBA2
:100E50000901B1FBFEF909FB04F80EFB191192B26E
:100E600042EA0142424529D2BA1809F1FF31C4D2FF
:100E70004245C2D2A9F102013A44BEE7F0459DD2F3
:100E8000BEEB02036CEB070C0138E14696E7A7EBDB
:100E900009094944A8F1020CB1FBFEF909FB04F869
:100EA000DBE773467FE7504666E70846FDE63B44CE
:100EB000023A33E7ACF1020C3B441CE749469CE79D
:100EC000A1EB0901C446B1FBFEF909FB04F8C4E734
:100ED000704700BF80B58CB002AFA64BD3F8053089
:100EE0003B62D7ED087AFDEEE77A17EE903A002BD9
:100EF000B8BF5B4207EE903AF8EEE77AC7ED097AA1
:100F0000D7ED087AFDEEE77A17EE903A002BB8BFDE
:100F10005B42092B02D84FF000037B62D7ED097AC0
:100F2000FDEEE77AC823009300237F22002117EE0D
:100F3000900A01F075FA07EE900AF8EEE77AC7ED2D
:100F4000097AD7ED097A9FED8C7A77EE877AFDEEF4
:100F5000E77A17EE903AFB61D7ED097A9FED867A32
:100F600077EE877AFDEEE77A17EE903ABB619FED58
:100F7000827AD7ED097A77EE677AFDEEE77A17EE97
:100F8000903A7B619FED7C7AD7ED097A77EE677AAC
:100F9000FDEEE77A17EE903A3B61D7ED097A9FEDC7
:100FA000767A77EE877AFDEEE77A17EE903AFB6075
:100FB0009FED717AD7ED097A77EE677AFDEEE77AE1
:100FC00017EE903ABB609FED6C7AD7ED097A77EE19
:100FD000677AFDEEE77A17EE903A7B60D7ED097AF3
:100FE0009FED657A77EE877AFDEEE77A17EE903A15
:100FF0003B60624B1B7803F01003DBB2002B1ED06A
:10100000FB699BB21A4604215D4801F0D7F9BB6920
:101010009BB21A460C215A4801F0D0F9574A13786E
:1010200023F01003137001224FF40051554801F0D2
:1010300081FDBA69F96954480AF05AFD95E04F4BB1
:101040001B7803F02003DBB2002B1ED0FB699BB2A0
:101050001A4604214A4801F0B1F9BB699BB21A460D
:101060000C21474801F0AAF9444A137823F02003E1
:10107000137001224FF40041424801F05BFD3A69D0
:10108000796942480AF034FD6FE03C4B1B7803F06D
:101090004003DBB2002B1ED0FB699BB21A46042131
:1010A000374801F08BF9BB699BB21A460C213448D2
:1010B00001F084F9314A137823F0400313700122C0
:1010C0004FF480512F4801F035FDBA68F968304877
:1010D0000AF00EFD49E0294B1B7823F07F03DBB2B9
:1010E000002B1ED0FB699BB21A460421244801F054
:1010F00065F9BB699BB21A460C21214801F05EF9E3
:101100001E4A137823F08003137001224FF48041AC
:101110001C4801F00FFD3A6879681E480AF0E8FCA7
:1011200023E040F2DC520421154801F047F940F277
:10113000DC520C21124801F041F900224FF4805199
:10114000104801F0F7FC00224FF400510D4801F067
:10115000F1FC00224FF480410A4801F0EBFC002230
:101160004FF40041074801F0E5FC002318462837FA
:10117000BD4680BD640400200080BB44880400207C
:10118000B0020020000C024050D900088CD90008A1
:10119000C8D9000800DA000880B500AF01F086F970
:1011A00000F04CF800F032FB00F0B2F800F0E0F88C
:1011B00009F0D0FB00F012F900F0FEFA00F072F92D
:1011C00000F0EAF900F062FA00F0B0FA00211748E6
:1011D00005F02CF90421154805F028F908211348D9
:1011E00005F024F90C21114805F020F904211048DC
:1011F00005F01CF90C210E4805F018F90D480AF00D
:10120000DFFC40F2DC520421094801F0D7F840F23B
:10121000DC520C21064801F0D1F8074800F0F8FF35
:10122000FFF758FE09F0BCFB00BFF6E7F80200200C
:10123000B002002038DA00081804002080B594B00D
:1012400000AF07F120033022002118460AF098FD74
:1012500007F10C0300221A605A609A60DA601A6182
:101260000023BB60284B1B6C274A43F08053136458
:10127000254B1B6C03F08053BB60BB6800237B6075
:10128000224B1B68214A43F4804313601F4B1B68A9
:1012900003F480437B607B6801233B624FF480331F
:1012A0007B620223BB634FF48003FB6308233B6430
:1012B0004FF4A8737B640223BB640723FB6407F12C
:1012C0002003184604F000FA0346002B01D000F07A
:1012D0009BFB0F23FB6002233B6100237B614FF4E8
:1012E000A053BB614FF48053FB6107F10C03052150
:1012F000184604F061FC0346002B01D000F084FB8B
:1013000000BF5037BD4680BD00380240007000402D
:1013100080B500AF134B144A1A60124B4FF40072A1
:101320005A60104B00229A600E4B0022DA600D4B7F
:101330004FF400721A610B4B0C4A5A61094B0022A0
:101340009A61084B0022DA61064B00221A620548B6
:1013500003F01AFD0346002B01D000F055FB00BF3F
:1013600080BD00BF10020020003C0040007701005B
:1013700080B500AF174B184A1A60164B4FF48272B3
:101380005A60144B00229A60124B0022DA60114B13
:1013900000221A610F4B00225A610E4B4FF400726B
:1013A0009A610C4B0022DA610A4B00221A62094B47
:1013B00000225A62074B00229A62064B0A22DA6226
:1013C000044804F05BFF0346002B01D000F01CFB37
:1013D00000BF80BD580200200030014080B58AB0B7
:1013E00000AF07F1200300221A605A603B1D002263
:1013F0001A605A609A60DA601A615A619A61284BE1
:101400004FF080421A60264B53225A60244B002230
:101410009A60234B44F61F62DA60214B00221A6166
:101420001F4B00229A611E4804F0B1FF0346002BB7
:1014300001D000F0E9FA00233B6200237B6207F150
:1014400020031946164805F0F7FB0346002B01D090
:1014500000F0DAFA60237B600023BB600023FB60AE
:1014600000237B613B1D042219460D4805F0A6F8B8
:101470000346002B01D000F0C7FA3B1D0C22194691
:10148000074805F09BF80346002B01D000F0BCFA9A
:10149000034800F027FC00BF2837BD4680BD00BFD1
:1014A000B002002080B58AB000AF07F1200300220F
:1014B0001A605A603B1D00221A605A609A60DA6016
:1014C0001A615A619A61324B324A1A60304B532288
:1014D0005A602F4B00229A602D4B40F2E732DA60BF
:1014E0002B4B00221A612A4B00229A61284804F0F3
:1014F0004EFF0346002B01D000F086FA00233B622A
:1015000000237B6207F120031946214805F094FB74
:101510000346002B01D000F077FA60237B600023A4
:10152000BB600023FB6000237B613B1D002219464A
:10153000174805F043F80346002B01D000F064FA89
:101540003B1D04221946124805F038F80346002BCB
:1015500001D000F059FA3B1D082219460C4805F04D
:101560002DF80346002B01D000F04EFA3B1D0C2253
:101570001946074805F022F80346002B01D000F079
:1015800043FA034800F0AEFB00BF2837BD4680BDDC
:10159000F80200200004004080B58AB000AF07F1D7
:1015A000200300221A605A603B1D00221A605A6014
:1015B0009A60DA601A615A619A61324B324A1A6053
:1015C000304B00225A602F4B00229A602D4B4FF671
:1015D000FF72DA602B4B00221A612A4B00229A61BB
:1015E000284804F0D4FE0346002B01D000F00CFA8A
:1015F00000233B6200237B6207F120031946214848
:1016000005F01AFB0346002B01D000F0FDF9602322
:101610007B600023BB600023FB6000237B613B1DDC
:1016200000221946174804F0C9FF0346002B01D0D9
:1016300000F0EAF93B1D04221946124804F0BEFFEF
:101640000346002B01D000F0DFF93B1D08221946AC
:101650000C4804F0B3FF0346002B01D000F0D4F98E
:101660003B1D0C221946074804F0A8FF0346002B37
:1016700001D000F0C9F9034800F034FB00BF28375F
:10168000BD4680BD400300200008004080B588B002
:1016900000AF3B1D00221A605A609A60DA601A613E
:1016A0005A619A611F4B204A1A601E4B00225A60F1
:1016B0001C4B00229A601B4B4FF6FF72DA60194BED
:1016C00000221A61174B00229A61164804F05FFE4F
:1016D0000346002B01D000F097F960237B600023C4
:1016E000BB600023FB6000237B613B1D0022194689
:1016F0000C4804F063FF0346002B01D000F084F98E
:101700003B1D04221946074804F058FF0346002BEE
:1017100001D000F079F9034800F0E4FA00BF203767
:10172000BD4680BD880300200040014080B588B0E0
:1017300000AF3B1D00221A605A609A60DA601A619D
:101740005A619A611A4B1B4A1A60194B00225A605F
:10175000174B00229A60164B4FF6FF72DA60144B5B
:1017600000221A61124B00229A61114804F00FFE08
:101770000346002B01D000F047F960237B60002373
:10178000BB600023FB6000237B613B1D00221946E8
:10179000074804F013FF0346002B01D000F034F992
:1017A000034800F09FFA00BF2037BD4680BD00BF50
:1017B000D00300200018004080B500AF114B124A42
:1017C0001A60104B4FF4E1325A600E4B00229A60BF
:1017D0000C4B0022DA600B4B00221A61094B0C22E1
:1017E0005A61084B00229A61064B0022DA610548D3
:1017F00005F09EFA0346002B01D000F005F900BF6A
:1018000080BD00BF180400200044004080B58CB0AB
:1018100000AF07F11C0300221A605A609A60DA6078
:101820001A610023BB61724B1B6B714A43F01003BA
:1018300013636F4B1B6B03F01003BB61BB69002389
:101840007B616B4B1B6B6A4A43F004031363684B69
:101850001B6B03F004037B617B6900233B61644BDA
:101860001B6B634A43F080031363614B1B6B03F0F4
:1018700080033B613B690023FB605D4B1B6B5C4A53
:1018800043F0010313635A4B1B6B03F00103FB602E
:10189000FB680023BB60564B1B6B554A43F00203A9
:1018A0001363534B1B6B03F00203BB60BB68002345
:1018B0007B604F4B1B6B4E4A43F0080313634C4B4A
:1018C0001B6B03F008037B607B68002208214948FA
:1018D00001F030F901220121474801F02BF90022E3
:1018E0004FF21B61454801F025F90823FB610123F4
:1018F0003B6200237B620023BB6207F11C03194695
:101900003C4800F07BFF0123FB6101233B62002385
:101910007B620023BB6207F11C031946364800F0C6
:101920006DFF0823FB6102233B6200237B620023DF
:10193000BB620523FB6207F11C0319462E4800F029
:101940005DFF0123FB614FF490133B6200237B6238
:1019500007F11C0319462A4800F050FF0423FB61DD
:1019600000233B6200237B6207F11C0319462548D4
:1019700000F044FF4FF48063FB6102233B620023CD
:101980007B620023BB620523FB6207F11C0319463F
:101990001C4800F033FF4FF21B63FB6101233B62E5
:1019A00000237B620023BB6207F11C031946134826
:1019B00000F024FF2023FB6100233B6200237B62B5
:1019C00007F11C0319460D4800F018FF0223FB61C4
:1019D0004FF490133B6200237B6207F11C0319460E
:1019E000044800F00BFF00BF3037BD4680BD00BF8C
:1019F000003802400010024000080240000C024083
:101A0000000002400004024080B400AF72B600BF84
:101A100000BFFDE780B582B000AF00237B60104BB4
:101A20005B6C0F4A43F4804353640D4B5B6C03F4CF
:101A300080437B607B6800233B60094B1B6C084A3A
:101A400043F080531364064B1B6C03F080533B60E0
:101A50003B68072000F090FE00BF0837BD4680BD00
:101A60000038024080B58EB000AF786007F12403E3
:101A700000221A605A609A60DA601A6107F1140352
:101A800000221A605A609A60DA607B681B68314AEB
:101A900093425AD101237B61C023BB610223FB61C6
:101AA00007F11403184604F0A7FA0346002B01D0EF
:101AB000FFF7AAFF00233B61274B1B6C264A43F428
:101AC00000431364244B1B6C03F400433B613B69EC
:101AD0000023FB60204B1B6B1F4A43F00103136381
:101AE0001D4B1B6B03F00103FB60FB680023BB6015
:101AF000194B1B6B184A43F004031363164B1B6B03
:101B000003F00403BB60BB6810237B620223BB624B
:101B10000023FB6200233B6306237B6307F124035E
:101B200019460E4800F06AFE4FF4A4537B6202236C
:101B3000BB620023FB6200233B6306237B6307F148
:101B400024031946064800F059FE00BF3837BD4649
:101B500080BD00BF003C0040003802400000024051
:101B60000008024080B58AB000AF786007F1140326
:101B700000221A605A609A60DA601A617B681B68FA
:101B8000194A93422BD100233B61184B5B6C174AD7
:101B900043F480535364154B5B6C03F480533B61F7
:101BA0003B690023FB60114B1B6B104A43F00103A0
:101BB00013630E4B1B6B03F00103FB60FB68E02318
:101BC0007B610223BB610023FB6100233B62052391
:101BD0007B6207F114031946054800F00FFE00BFB1
:101BE0002837BD4680BD00BF0030014000380240AC
:101BF0000000024080B489B000AF78607B681B6849
:101C0000B3F1804F0ED10023FB61314B1B6C304A86
:101C100043F0010313642E4B1B6C03F00103FB61C3
:101C2000FB694EE07B681B682A4A93420ED1002371
:101C3000BB61274B1B6C264A43F002031364244B01
:101C40001B6C03F00203BB61BB693AE07B681B6855
:101C5000214A93420ED100237B611D4B1B6C1C4A11
:101C600043F0040313641A4B1B6C03F004037B6101
:101C70007B6926E07B681B68184A93420ED10023DB
:101C80003B61134B5B6C124A43F480335364104B3B
:101C90005B6C03F480333B613B6912E07B681B683B
:101CA0000F4A93420DD10023FB60094B1B6C084A7D
:101CB00043F040031364064B1B6C03F04003FB60CE
:101CC000FB6800BF2437BD465DF8047B704700BF4A
:101CD000003802400004004000080040004001407D
:101CE0000018004080B58EB000AF786007F1240383
:101CF00000221A605A609A60DA601A617B681B6879
:101D0000B3F1804F3DD100233B62774B1B6B764A8A
:101D100043F001031363744B1B6B03F001033B623D
:101D20003B6A0023FB61704B1B6B6F4A43F002035D
:101D300013636D4B1B6B03F00203FB61FB69022312
:101D40007B620223BB620023FB6200233B6301230F
:101D50007B6307F124031946644800F04FFD4FF4FC
:101D600000637B620223BB620023FB6200233B63B0
:101D700001237B6307F1240319465D4800F03EFD13
:101D8000AEE07B681B685B4A93423CD10023BB6199
:101D9000554B1B6B544A43F002031363524B1B6BAE
:101DA00003F00203BB61BB6900237B614E4B1B6BDD
:101DB0004D4A43F0040313634B4B1B6B03F00403C6
:101DC0007B617B6923237B620223BB620023FB626E
:101DD00000233B6302237B6307F124031946444835
:101DE00000F00CFD40237B620223BB620023FB62F8
:101DF00000233B6302237B6307F1240319463E481B
:101E000000F0FCFC6CE07B681B683C4A93421FD1ED
:101E100000233B61344B1B6B334A43F002031363D3
:101E2000314B1B6B03F002033B613B694FF4707352
:101E30007B620223BB620023FB6200233B6302231D
:101E40007B6307F124031946294800F0D7FC47E0DB
:101E50007B681B682A4A93421ED10023FB60224BF9
:101E60001B6B214A43F0100313631F4B1B6B03F0E2
:101E70001003FB60FB6860237B620223BB620023CC
:101E8000FB6200233B6303237B6307F124031946B2
:101E90001C4800F0B3FC23E07B681B681A4A93429D
:101EA0001ED10023BB60104B1B6B0F4A43F0020393
:101EB00013630D4B1B6B03F00203BB60BB684FF455
:101EC00080437B620223BB620023FB6200233B63EF
:101ED00009237B6307F124031946054800F08EFCB3
:101EE00000BF3837BD4680BD0038024000000240C8
:101EF00000040240000400400008024000080040C6
:101F000000400140001002400018004080B58AB037
:101F100000AF786007F1140300221A605A609A60DB
:101F2000DA601A617B681B68194A93422BD100233F
:101F30003B61184B1B6C174A43F400331364154B79
:101F40001B6C03F400333B613B690023FB60114BC6
:101F50001B6B104A43F0010313630E4B1B6B03F022
:101F60000103FB60FB680C237B610223BB61002340
:101F7000FB6103233B6207237B6207F114031946CD
:101F8000054800F03BFC00BF2837BD4680BD00BFC0
:101F900000440040003802400000024080B400AF1E
:101FA00000BFFDE780B400AF00BFFDE780B400AF25
:101FB00000BFFDE780B400AF00BFFDE780B400AF15
:101FC00000BFFDE780B400AF00BFBD465DF8047BF5
:101FD000704780B400AF00BFBD465DF8047B70471A
:101FE00080B400AF00BFBD465DF8047B704780B58C
:101FF00000AF00F0ADFA00BF80BD000080B500AFBB
:10200000024801F06DF800BF80BD00BF6C080020E1
:1020100080B483B000AF0346FB710F4B1B680E4AC0
:1020200043F0807313600D4B1B680C4A43F00103AF
:10203000136000BF4FF060431B6803F00103002BE7
:10204000F8D04FF06042FB79136000BF0C37BD46FB
:102050005DF8047B704700BFFCED00E0000E00E07F
:1020600080B400AF01231846BD465DF8047B70477D
:1020700080B582B000AF7860396009F0E3FE0346B6
:1020800016221A604FF0FF3318460837BD4680BD50
:1020900080B582B000AF78604FF0FF317868FFF70D
:1020A000E7FF00BFFDE780B586B000AFF860B9601C
:1020B0007A6000237B610AE0AFF300800146BB68D1
:1020C0005A1CBA60CAB21A707B6901337B617A69A3
:1020D0007B689A42F0DB7B6818461837BD4680BDA6
:1020E00080B586B000AFF860B9607A6000237B618C
:1020F00009E0BB685A1CBA601B781846FFF788FFD6
:102100007B6901337B617A697B689A42F1DB7B688A
:1021100018461837BD4680BD80B483B000AF7860E4
:102120004FF0FF3318460C37BD465DF8047B70470F
:1021300080B483B000AF786039603B684FF40052E0
:102140005A60002318460C37BD465DF8047B704783
:1021500080B483B000AF7860012318460C37BD46C9
:102160005DF8047B704780B485B000AFF860B9605B
:102170007A60002318461437BD465DF8047B70472B
:1021800080B586B000AF7860144A154BD31A7B61D6
:102190007B693B61134B1B68002B02D1114B124A28
:1021A0001A60104B1A687B6813443A699A4207D246
:1021B00009F048FE03460C221A604FF0FF3309E095
:1021C000084B1B68FB60074B1A687B681344054A81
:1021D0001360FB6818461837BD4680BD000002201A
:1021E0000004000060040020980D002080B400AFBF
:1021F000064BD3F88830054A43F47003C2F88830A0
:1022000000BFBD465DF8047B704700BF00ED00E0F5
:1022100080B582B000AF78604FF0FF3301221249E1
:10222000786804F0D5FD104B1B78AA2BF4D14FF041
:10223000FF3301220D49786804F0CAFD0B4B1B786F
:10224000112B09D1094B1B781A464FF0FF3308496F
:10225000786804F0BDFD01E000BFDDE700F00AF89A
:1022600000BF0837BD4680BD7504002076040020FD
:102270006404002080B500AF424B1B785BB2002B9A
:1022800007DA414809F09CFC404A137843F0800388
:1022900013703C4B1B7803F04003002B07D03C48E5
:1022A00009F08EFC394A137843F040031370354B24
:1022B0001B7803F02003002B07D0364809F080FC80
:1022C000324A137843F0200313702E4B1B7803F02F
:1022D0001003002B07D0304809F072FC2B4A13780A
:1022E00043F010031370274B1B7803F00803002BF7
:1022F00007D02A4809F064FC244A137843F0080305
:102300001370204B1B7803F00403002B07D02448E4
:1023100009F056FC1D4A137843F004031370194B5F
:102320001B7803F00203002B07D01E4809F048FC7D
:10233000164A137843F002031370124B1B7803F014
:102340000103002B07D0184809F03AFC0F4A137814
:1023500043F0010313700B4BD3F80130134A1360A1
:10236000084BD3F80530124A1360064BD3F80930F6
:10237000104A1360034BD3F80D300F4A136000BFAF
:1023800080BD00BF6404002044DA000888040020F7
:1023900054DA000864DA000874DA000888DA000801
:1023A00098DA0008A8DA0008B8DA000878040020F3
:1023B0007C040020800400208404002080B485B0C8
:1023C00000AFF860B9601346FB80FB88B3F57A7FF5
:1023D00020D3FB88B3F5FA6F1CD8BB68002B04D15F
:1023E000FB681B68FA885A6315E0BB68042B04D1AC
:1023F000FB681A68FB8893630DE0BB68082B04D167
:10240000FB681A68FB88D36305E0FB681A68FB88E1
:10241000136400E000BF1437BD465DF8047B7047CD
:1024200080B485B000AFF860B9607A603B60FA684C
:10243000BB68D31AB9693A688A1A03FB02F2796851
:10244000BB68CB1A92FBF3F23B681344184614376F
:10245000BD465DF8047B7047DFF834D0FFF7C6FE59
:102460000C480D490D4A002302E0D458C4500433EF
:10247000C4188C42F9D30A4A0A4C002301E01360C5
:102480000432A242FBD309F0E3FCFEF785FE70475D
:102490000000022000000020F401002064DE00089B
:1024A000F4010020980D0020FEE7000080B500AF89
:1024B0000E4B1B680D4A43F4007313600B4B1B68F3
:1024C0000A4A43F480631360084B1B68074A43F4CD
:1024D00080731360032000F04FF9002000F008F82B
:1024E000FFF798FA0023184680BD00BF003C024069
:1024F00080B582B000AF7860124B1A68124B1B781F
:1025000019464FF47A73B3FBF1F3B2FBF3F31846B9
:1025100000F067F90346002B01D001230EE07B6831
:102520000F2B0AD8002279684FF0FF3000F02FF906
:10253000064A7B681360002300E001231846083731
:10254000BD4680BD000000200800002004000020DF
:1025500080B400AF064B1B781A46064B1B68134429
:10256000044A136000BFBD465DF8047B704700BF9E
:10257000080000208C04002080B400AF034B1B68CF
:102580001846BD465DF8047B704700BF8C040020F0
:1025900080B584B000AF7860FFF7EEFFB8607B686D
:1025A000FB60FB68B3F1FF3F05D00A4B1B781A466E
:1025B000FB681344FB6000BFFFF7DEFF0246BB6809
:1025C000D31AFA689A42F7D800BF00BF1037BD4649
:1025D00080BD00BF0800002080B485B000AF7860E7
:1025E0007B6803F00703FB600C4BDB68BB60BA68D9
:1025F0004FF6FF031340BB60FB681A02BB6813432E
:1026000043F0BF6343F40033BB60044ABB68D3604C
:1026100000BF1437BD465DF8047B704700ED00E055
:1026200080B400AF044BDB681B0A03F007031846B5
:10263000BD465DF8047B704700ED00E080B483B0D8
:1026400000AF0346FB7197F90730002B0BDBFB79DA
:1026500003F01F02074997F907305B09012000FAD0
:1026600002F241F8232000BF0C37BD465DF8047B21
:10267000704700BF00E100E080B483B000AF0346C4
:102680003960FB7197F90730002B0ADB3B68DAB23F
:102690000C4997F907301201D2B20B4483F800239A
:1026A0000AE03B68DAB20849FB7903F00F03043B08
:1026B0001201D2B20B441A7600BF0C37BD465DF84A
:1026C000047B704700E100E000ED00E080B489B0D9
:1026D00000AFF860B9607A60FB6803F00703FB6144
:1026E000FB69C3F10703042B28BF0423BB61FB690B
:1026F0000433062B02D9FB69033B00E000237B6116
:102700004FF0FF32BB6902FA03F3DA43BB681A40A9
:102710007B699A404FF0FF317B6901FA03F3D9439B
:102720007B680B40134318462437BD465DF8047B95
:102730007047000080B582B000AF78607B68013BD5
:10274000B3F1807F01D301230FE00A4A7B68013B8C
:1027500053600F214FF0FF30FFF78EFF054B002233
:102760009A60044B07221A60002318460837BD46BA
:1027700080BD00BF10E000E080B582B000AF78609F
:102780007868FFF729FF00BF0837BD4680BD80B5D8
:1027900086B000AF0346B9607A60FB7300237B61AB
:1027A000FFF73EFF78617A68B9687869FFF78EFFB6
:1027B000024697F90F3011461846FFF75DFF00BF3C
:1027C0001837BD4680BD80B582B000AF0346FB71AF
:1027D00097F907301846FFF731FF00BF0837BD46AD
:1027E00080BD80B582B000AF78607868FFF7A2FF47
:1027F000034618460837BD4680BD000080B489B046
:1028000000AF7860396000237B6100233B610023C7
:10281000BB610023FB616BE10122FB6902FA03F358
:102820007B613B681B687A6913403B613A697B694D
:102830009A4240F05A813B685B6803F00303012B26
:1028400005D03B685B6803F00303022B30D17B6843
:102850009B68BB61FB695B00032202FA03F3DB4365
:10286000BA691340BB613B68DA68FB695B0002FA36
:1028700003F3BA691343BB617B68BA699A607B68EA
:102880005B68BB610122FB6902FA03F3DB43BA69AF
:102890001340BB613B685B681B0903F00102FB69E5
:1028A00002FA03F3BA691343BB617B68BA695A60E1
:1028B0003B685B6803F00303032B17D07B68DB687E
:1028C000BB61FB695B00032202FA03F3DB43BA69D5
:1028D0001340BB613B689A68FB695B0002FA03F333
:1028E000BA691343BB617B68BA69DA603B685B68AD
:1028F00003F00303022B23D1FB69DA087B6808325B
:1029000053F82230BB61FB6903F007039B000F22E1
:1029100002FA03F3DB43BA691340BB613B681A69EF
:10292000FB6903F007039B0002FA03F3BA69134340
:10293000BB61FB69DA087B680832B96943F8221089
:102940007B681B68BB61FB695B00032202FA03F32F
:10295000DB43BA691340BB613B685B6803F0030269
:10296000FB695B0002FA03F3BA691343BB617B683E
:10297000BA691A603B685B6803F44033002B00F0CF
:10298000B4800023FB60604B5B6C5F4A43F4804380
:1029900053645D4B5B6C03F48043FB60FB685B4AF4
:1029A000FB699B08023352F82330BB61FB6903F0DB
:1029B00003039B000F2202FA03F3DB43BA691340BF
:1029C000BB617B68524A93422BD07B68514A934249
:1029D00025D07B68504A93421FD07B684F4A934270
:1029E00019D07B684E4A934213D07B684D4A93427C
:1029F0000DD07B684C4A934207D07B684B4A934288
:102A000001D107230EE008230CE006230AE005238A
:102A100008E0042306E0032304E0022302E001238C
:102A200000E00023FA6902F0030292009340BA69C1
:102A30001343BB613549FB699B080233BA6941F80E
:102A400023203B4B9B68BB613B69DB43BA69134066
:102A5000BB613B685B6803F48013002B03D0BA6949
:102A60003B691343BB61324ABB699360304BDB68FF
:102A7000BB613B69DB43BA691340BB613B685B6880
:102A800003F40013002B03D0BA693B691343BB6105
:102A9000274ABB69D360264B5B68BB613B69DB435C
:102AA000BA691340BB613B685B6803F40033002BD9
:102AB00003D0BA693B691343BB611D4ABB695360CC
:102AC0001B4B1B68BB613B69DB43BA691340BB61AD
:102AD0003B685B6803F48033002B03D0BA693B6921
:102AE0001343BB61124ABB691360FB690133FB618D
:102AF000FB690F2B7FF690AE00BF00BF2437BD46A9
:102B00005DF8047B704700BF003802400038014088
:102B1000000002400004024000080240000C024095
:102B2000001002400014024000180240001C024045
:102B3000003C014080B483B000AF78600B467B80DE
:102B400013467B707B78002B03D07A887B689A6170
:102B500003E07B881A047B689A6100BF0C37BD468E
:102B60005DF8047B704780B586B002AF78607B6803
:102B7000002B01D1012359E07B681B68FB607B6857
:102B800093F8D533DBB2002B06D17B68002283F8A3
:102B9000D423786807F03CFF7B68032283F8D523B1
:102BA000FB68B3F1A04F02D17B6800229A717B6869
:102BB0001B68184604F049FD7B6818687B681A7C1E
:102BC0008DF8002004330ECB04F0CAFC0346002B22
:102BD00005D07B68022283F8D523012326E07B6899
:102BE0001B680121184604F041FD0346002B05D067
:102BF0007B68022283F8D523012317E07B681868DD
:102C00007B681A7C8DF8002004330ECB04F0EAFEBA
:102C10000346002B05D07B68022283F8D5230123CD
:102C200004E07B68012283F8D5230023184610377F
:102C3000BD4680BD90B58BB004AF786008461146A4
:102C40001A460346FB700B46BB7013467B703B8EE7
:102C50007B617B6893F8D433012B01D102239DE083
:102C60007B68012283F8D423FA78796813461B0124
:102C70009B1A9B000B44193300221A70FA7879686A
:102C800013461B019B1A9B000B4414337A781A706D
:102C9000FA78796813461B019B1A9B000B44153385
:102CA000FA781A70FA78796813461B019B1A9B0010
:102CB0000B44263397F82C201A70FA78BB7803F06F
:102CC0007F03D8B2796813461B019B1A9B000B4403
:102CD000163302461A70FB781946786800F0A4FB98
:102CE00097F90230002B0ADAFA78796813461B014B
:102CF0009B1A9B000B44173301221A7009E0FA78E3
:102D0000796813461B019B1A9B000B441733002262
:102D10001A707B681B68184604F0C8FF386197F882
:102D20002C30012B0BD197F82830012B07D13B69B0
:102D3000002B04D17B69BC2B01D9BC237B61FA78C1
:102D4000796813461B019B1A9B000B44183397F8B4
:102D500028201A70FA787B6998B2796813461B01AB
:102D60009B1A9B000B44283302461A807B68186824
:102D70007B699BB27C78BA78F978029397F82C300B
:102D8000019397F828300093234604F0B7FF0346D9
:102D9000FB737B68002283F8D423FB7B18461C3727
:102DA000BD4690BD80B582B000AF78600846114640
:102DB0001A460346FB700B46BB7013467B70FA78CD
:102DC000796813461B019B1A9B000B441733BA7892
:102DD0001A70FA78796813461B019B1A9B000B4402
:102DE00026337A781A703B7C002B14D1FA787968F4
:102DF00013461B019B1A9B000B442A3303221A70B3
:102E0000FA78796813461B019B1A9B000B4419330F
:102E10003A7F1A7009E0FA78796813461B019B1A09
:102E20009B000B442A3302221A707B78032B00F29A
:102E3000028101A252F823F0492E00082130000837
:102E40000D2F0008972F00083B7C012B40F0F580E8
:102E5000BB78002B2DD13B8B002B09D1FA787968F8
:102E600013461B019B1A9B000B443D3301221A7031
:102E7000FA78796813461B019B1A9B000B443D337B
:102E80001B78002B0AD1FA78796813461B019B1A2C
:102E90009B000B442A3300221A70CEE0FA7879683E
:102EA00013461B019B1A9B000B442A3302221A7003
:102EB000C3E0FA78796813461B019B1A9B000B4408
:102EC0001A331B78012B40F0B880FA7879681346E2
:102ED0001B019B1A9B000B443C331B78002B0AD12F
:102EE000FA78796813461B019B1A9B000B442A331E
:102EF00000221A70A1E0FA78796813461B019B1A28
:102F00009B000B442A3302221A7096E0BB78002BF8
:102F100020D1FA78796813461B019B1A9B000B4459
:102F20003D331B78002B0AD1FA78796813461B01D0
:102F30009B1A9B000B442A3300221A707EE0FA7819
:102F4000796813461B019B1A9B000B442A3302220B
:102F50001A7073E0FA78796813461B019B1A9B007C
:102F60000B443C331B78002B0AD1FA78796813465E
:102F70001B019B1A9B000B442A3300221A705DE050
:102F8000FA78796813461B019B1A9B000B442A337D
:102F900002221A7052E0BB78002B20D1FA787968AF
:102FA00013461B019B1A9B000B443D331B78002BDF
:102FB0000AD1FA78796813461B019B1A9B000B44CF
:102FC0002A3300221A7039E0FA78796813461B0117
:102FD0009B1A9B000B442A3302221A702EE0FA78C7
:102FE000796813461B019B1A9B000B443C331B78EA
:102FF000002B0AD1FA78796813461B019B1A9B00B3
:103000000B442A3300221A7018E0FA7879681346C4
:103010001B019B1A9B000B442A3302221A700DE0FD
:10302000FA78796813461B019B1A9B000B442A33DC
:1030300000221A7002E000BF00E000BFFA78796851
:1030400013461B019B1A9B000B442C337A691A60B0
:10305000FA78398B786813461B019B1A9B0003444E
:1030600034331960FA78796813461B019B1A9B0068
:103070000B444C3300221A70FA78796813461B010E
:103080009B1A9B000B44383300221A60FA78796847
:1030900013461B019B1A9B000B441533FA781A70D8
:1030A000FA78796813461B019B1A9B000B444D3339
:1030B00000221A707B681868FA7813461B019B1A65
:1030C0009B0010337A681344191D7B689B791A465C
:1030D00004F040FF034618460837BD4680BD00BFD8
:1030E00080B586B000AF78607B681B683B613B6948
:1030F000FB607B681B68184604F02EFC0346012B1E
:1031000040F0FB807B681B68184604F0F1FB034627
:10311000002B00F0F1807B681B68184604F0E8FB88
:10312000034603F40013B3F5001F04D17B681B684A
:103130004FF400125A617B681B68184604F0D8FBF4
:10314000034603F48013B3F5801F04D17B681B682A
:103150004FF480125A617B681B68184604F0C8FB64
:10316000034603F08063B3F1806F04D17B681B6872
:103170004FF080625A617B681B68184604F0B8FB08
:10318000034603F00203022B03D17B681B68022273
:103190005A617B681B68184604F0AAFB034603F0DB
:1031A0000053B3F1005F20D17B681B684FF00052E1
:1031B0005A61FB6803F588631B6803F00103002B69
:1031C00013D11021386904F09DFA386904F0CCFA63
:1031D0007B685B7A022B05D17B681B68012118464E
:1031E00004F0C4FC786807F091FC7B681B68184603
:1031F00004F07EFB034603F08073B3F1807F02D1BD
:10320000786801F04DFD7B681B68184604F070FB80
:10321000034603F00803082B06D1786807F05AFC30
:103220007B681B6808225A617B681B68184604F09B
:103230005FFB034603F00073B3F1007F39D17B6875
:103240001B68184605F000F9B86000237B6125E093
:103250007B6903F00F03BA6822FA03F303F001035A
:10326000002B18D07B695A01FB68134403F5A06357
:103270001B6803F40043B3F5004F06D17B69DBB252
:103280001946786800F005F905E07B69DBB219465C
:10329000786800F067FF7B6901337B617B685B794D
:1032A0001A467B699342D3D37B681B684FF0007248
:1032B0005A617B681B68184604F01AFB034603F04A
:1032C0001003102B01D1012300E00023002B14D0A8
:1032D0007B681B689A697B681B6822F010029A6100
:1032E000786801F0FEFB7B681B689A697B681B6845
:1032F00042F010029A6100E000BF1837BD4680BD61
:1033000080B582B000AF78607B6893F8D433012B2E
:1033100001D1022313E07B68012283F8D4237B6868
:103320001B680121184604F088FC7B681B6818465E
:1033300004F07AF97B68002283F8D423002318462E
:103340000837BD4680BD80B582B000AF78607B682D
:1033500093F8D433012B01D102230DE07B680122C5
:1033600083F8D4237B681B68184605F0DBF97B687B
:10337000002283F8D423002318460837BD4680BDB9
:1033800080B582B000AF78607B681B68184604F097
:103390002AFC034618460837BD4680BD80B483B07A
:1033A00000AF78600B46FB70FA78796813461B0112
:1033B0009B1A9B000B444C331B7818460C37BD46B8
:1033C0005DF8047B704780B483B000AF78600B4633
:1033D000FB70FA78796813461B019B1A9B000B441B
:1033E00038331B6818460C37BD465DF8047B7047C0
:1033F00080B582B000AF78607B681B68184604F027
:103400006CFC034618460837BD4680BD80B582B0C7
:1034100000AF78607B681B68184604F047FC0346E1
:1034200018460837BD4680BD80B483B000AF7860D1
:103430000B46FB70FA78796813461B019B1A9B00B8
:103440000B441A3300221A70FA78796813461B016C
:103450009B1A9B000B441B3300221A70FA78796880
:1034600013461B019B1A9B000B44253300221A7044
:10347000FA78796813461B019B1A9B000B4424338E
:1034800000221A70002318460C37BD465DF8047BF5
:10349000704780B586B000AF78600B46FB707B68E4
:1034A0001B687B617B693B617B681B68FA7811460E
:1034B000184604F030FA034603F00403042B1AD133
:1034C000FB785A013B69134403F5A0631A460423B1
:1034D0009360FA78796813461B019B1A9B000B4492
:1034E0004D3307221A707B681B68FA78114618461C
:1034F00004F0BBFF9EE07B681B68FA781146184613
:1035000004F009FA034603F48073B3F5807F1BD1FE
:10351000FB785A013B69134403F5A0631A464FF444
:1035200080739360FA78796813461B019B1A9B009D
:103530000B444D3308221A707B681B68FA781146D9
:10354000184604F092FF75E07B681B68FA78114614
:10355000184604F0E0F9034603F00803082B1AD1DB
:10356000FB785A013B69134403F5A0631A4608230C
:103570009360FA78796813461B019B1A9B000B44F1
:103580004D3306221A707B681B68FA78114618467C
:1035900004F06BFF4EE07B681B68FA781146184612
:1035A00004F0B9F9034603F48063B3F5806F1BD1CF
:1035B000FB785A013B69134403F5A0631A464FF4A4
:1035C00080639360FA78796813461B019B1A9B000D
:1035D0000B444D3309221A707B681B68FA78114638
:1035E000184604F042FF25E07B681B68FA78114614
:1035F000184604F090F9034603F08003802B19D19C
:10360000FB785A013B69134403F5A0631A468023F3
:103610009360FA78796813461B019B1A9B000B4450
:103620004D3307221A707B681B68FA7811461846DA
:1036300004F01BFF7B681B68FA781146184604F0FB
:103640006AF9034603F40073B3F5007F12D17B6877
:103650001B68FA781146184604F007FFFB785A01F8
:103660003B69134403F5A0631A464FF4007393605B
:1036700000F075BD7B681B68FA781146184604F0A7
:103680004AF9034603F00103012B40F02881FB783F
:103690005A013B69134403F5A0631A462023936043
:1036A000FA78796813461B019B1A9B000B441B3365
:1036B0001B78012B19D1FA78796813461B019B1AE4
:1036C0009B000B441B3300221A70FB785A013B69A4
:1036D000134403F5A0635B68FA7851013A690A4420
:1036E00002F5A06223F4803353607B689B79002B42
:1036F0001BD0FA78796813461B019B1A9B000B4478
:1037000030331968FB785A013B69134403F5A06311
:103710001B69C3F31203FA78C91A786813461B01B0
:103720009B1A9B00034438331960FA787968134672
:103730001B019B1A9B000B444D3301221A70FA782F
:10374000796813461B019B1A9B000B4444330022EB
:103750001A60FB785A013B69134403F5A0631A46CB
:1037600001239360FA78796813461B019B1A9B002A
:103770000B4426331B78002B0AD0FA78796813465D
:103780001B019B1A9B000B4426331B78022B10D184
:103790007B681B68FA781146184604F066FEFB78D1
:1037A0005A013B69134403F5A0631A461023936042
:1037B0003DE0FA78796813461B019B1A9B000B4485
:1037C00026331B78032B0AD0FA78796813461B013D
:1037D0009B1A9B000B4426331B78012B27D1FB78C7
:1037E0005A013B69134403F5A0631B68FA78510141
:1037F0003A690A4402F5A06243F000531360FA7874
:10380000796813461B019B1A9B000B444C33012221
:103810001A70FA78796813461B019B1A9B000B44B7
:103820004C331A78FB781946786807F07DF97B6885
:103830009B79012B3BD1FA78796813461B019B1ABF
:103840009B000B4438331968FA78786813461B01DB
:103850009B1A9B00034428331B880B44591EFA789B
:10386000786813461B019B1A9B00034428331B886E
:10387000B1FBF3F303F00103002B00F07084FA783E
:10388000796813461B019B1A9B000B443C331B7841
:10389000FA7883F00103D8B2796813461B019B1AAA
:1038A0009B000B443C3302461A7000F058BCFA7877
:1038B000796813461B019B1A9B000B443C331B7811
:1038C000FA7883F00103D8B2796813461B019B1A7A
:1038D0009B000B443C3302461A7000F040BC7B68EE
:1038E0001B68FA781146184604F015F8034603F0F1
:1038F0002003202B31D1FB785A013B69134403F597
:10390000A0631A4620239360FA78796813461B0156
:103910009B1A9B000B441A331B78012B40F01F8429
:10392000FA78796813461B019B1A9B000B441B33E2
:1039300001221A70FA78796813461B019B1A9B00C2
:103940000B444D3303221A707B681B68FA781146CA
:10395000184604F08AFD00F002BC7B681B68FA7808
:103960001146184603F0D7FF034603F00203022B6B
:1039700040F00583FB785A013B69134403F5A063CB
:103980001A4602239360FA78796813461B019B1A42
:103990009B000B444D331B78012B14D1FA787968C6
:1039A00013461B019B1A9B000B444D3302221A70D5
:1039B000FA78796813461B019B1A9B000B444C3321
:1039C00001221A70CCE2FA78796813461B019B1A1F
:1039D0009B000B444D331B78062B14D1FA78796881
:1039E00013461B019B1A9B000B444D3302221A7095
:1039F000FA78796813461B019B1A9B000B444C33E1
:103A000005221A70ACE2FA78796813461B019B1AFA
:103A10009B000B444D331B78072B0BD0FA78796849
:103A200013461B019B1A9B000B444D331B78092B3B
:103A300040F0A680FA78796813461B019B1A9B0018
:103A40000B444D3302221A70FA78796813461B0131
:103A50009B1A9B000B4444331B68591C786813461F
:103A60001B019B1A9B00034444331960FA78796860
:103A700013461B019B1A9B000B4444331B68022B0B
:103A800043D9FA78796813461B019B1A9B000B44B3
:103A9000443300221A60FA78796813461B019B1A96
:103AA0009B000B441A331B78012B23D1FA787968D9
:103AB00013461B019B1A9B000B441B3300221A70F8
:103AC000FA78796813461B019B1A9B000B441C3340
:103AD00000221A70FB785A013B69134403F5A06376
:103AE0005B68FA7851013A690A4402F5A06223F44E
:103AF00080335360FA78796813461B019B1A9B0048
:103B00000B444C3304221A7029E2FA787968134680
:103B10001B019B1A9B000B444C3302221A70FA784B
:103B2000796813461B019B1A9B000B4426331B78B4
:103B3000002B0BD0FA78796813461B019B1A9B0067
:103B40000B4426331B78022B40F00982FB785A0184
:103B50003B69134403F5A0631B68FB60FB6823F01B
:103B60008043FB60FB6843F00043FB60FB785A0135
:103B70003B69134403F5A0631A46FB681360EEE14A
:103B8000FA78796813461B019B1A9B000B444D334E
:103B90001B78052B40F0C880FA78796813461B0122
:103BA0009B1A9B000B444D3302221A70FA787968F5
:103BB00013461B019B1A9B000B441B331B78012BE4
:103BC00040F0CE81FA78796813461B019B1A9B005E
:103BD0000B4426331B78032B6BD1FA787968134694
:103BE0001B019B1A9B000B4448331B68591C7868C7
:103BF00013461B019B1A9B00034448331960FA7853
:103C0000796813461B019B1A9B000B4448331B68C1
:103C1000022B43D9FA78796813461B019B1A9B0043
:103C20000B44483300221A60FA78796813461B0166
:103C30009B1A9B000B441B3300221A70FA78796898
:103C400013461B019B1A9B000B4444331B68022B39
:103C500009D8FA78796813461B019B1A9B000B441C
:103C60001C3301221A70FB785A013B69134403F597
:103C7000A0635B68FA7851013A690A4402F5A062D0
:103C800023F480335360FA78796813461B019B1A3A
:103C90009B000B444C3304221A7014E0FA787968C4
:103CA00013461B019B1A9B000B444C3302221A70D3
:103CB00009E0FA78796813461B019B1A9B000B44B4
:103CC0004C3302221A70FA78796813461B019B1A4A
:103CD0009B000B4426331B78002B0BD0FA787968B5
:103CE00013461B019B1A9B000B4426331B78022BA7
:103CF00040F03681FB785A013B69134403F5A06319
:103D00001B68FB60FB6823F08043FB60FB6843F0AB
:103D10000043FB60FB785A013B69134403F5A06341
:103D20001A46FB6813601BE1FA78796813461B0199
:103D30009B1A9B000B444D331B78032B40F0818072
:103D4000FA78796813461B019B1A9B000B444D338C
:103D500002221A70FA78796813461B019B1A9B009D
:103D60000B441B331B78012B40F0FA80FA787968FA
:103D700013461B019B1A9B000B444C3302221A7002
:103D8000FB785A013B69134403F5A0635B68FA783A
:103D900051013A690A4402F5A06243F4803353604A
:103DA000FB785A013B69134403F5A063DB68FA789A
:103DB00051013A690A4402F5A06243F04003D3601E
:103DC000FB785A013B69134403F5A063DB68FA787A
:103DD00051013A690A4402F5A06223F02003D3603E
:103DE000FA78796813461B019B1A9B000B44263313
:103DF0001B78002B0BD0FA78796813461B019B1AAD
:103E00009B000B4426331B78022B40F0A980FB78E3
:103E10005A013B69134403F5A0631B68FB60FB6810
:103E200023F08043FB60FB6843F00043FB60FB78BA
:103E30005A013B69134403F5A0631A46FB681360FB
:103E40008EE0FA78796813461B019B1A9B000B449D
:103E50004D331B78042B43D1FA78796813461B0144
:103E60009B1A9B000B444D3302221A70FA78796832
:103E700013461B019B1A9B000B444C3302221A7001
:103E8000FA78796813461B019B1A9B000B44263372
:103E90001B78002B0AD0FA78796813461B019B1A0D
:103EA0009B000B4426331B78022B59D1FB785A0117
:103EB0003B69134403F5A0631B68FB60FB6823F0B8
:103EC0008043FB60FB6843F00043FB60FB785A01D2
:103ED0003B69134403F5A0631A46FB6813603FE097
:103EE000FA78796813461B019B1A9B000B444D33EB
:103EF0001B78082B26D1FA78796813461B019B1A88
:103F00009B000B444D3302221A70FA7879681346ED
:103F10001B019B1A9B000B4444331B68591C786897
:103F200013461B019B1A9B00034444331960FA7823
:103F3000796813461B019B1A9B000B444C330422E7
:103F40001A700DE0FA78796813461B019B1A9B00E2
:103F50000B444D331B78022B00F0008100E000BFC2
:103F6000FA78796813461B019B1A9B000B444C336B
:103F70001A78FB781946786806F0D6FDEFE07B6882
:103F80001B68FA781146184603F0C5FC034603F097
:103F90004003402B2FD1FB785A013B69134403F5B2
:103FA000A0631A4640239360FA78796813461B0190
:103FB0009B1A9B000B444D3305221A70FA787968DE
:103FC00013461B019B1A9B000B441A331B78002BD2
:103FD00009D1FA78796813461B019B1A9B000B44A0
:103FE000443300221A607B681B68FA781146184631
:103FF00004F03BFAB3E07B681B68FA781146184678
:1040000003F089FC034603F01003102B40F0A78057
:10401000FA78796813461B019B1A9B000B442633E0
:104020001B78032B1BD1FA78796813461B019B1A66
:104030009B000B44443300221A60FA7879681346D7
:104040001B019B1A9B000B444D3304221A707B68A2
:104050001B68FA781146184604F007FA3FE0FA7830
:10406000796813461B019B1A9B000B4426331B786F
:10407000002B0AD0FA78796813461B019B1A9B0023
:104080000B4426331B78022B29D1FA787968134622
:104090001B019B1A9B000B44443300221A607B686F
:1040A0009B79002B0AD0FA78796813461B019B1A7A
:1040B0009B000B441B331B78012B10D1FA787968D5
:1040C00013461B019B1A9B000B444D3304221A70AC
:1040D0007B681B68FA781146184604F0C6F9FA782E
:1040E000796813461B019B1A9B000B441B331B78FA
:1040F000012B29D1FA78796813461B019B1A9B0082
:104100000B441B3300221A70FB785A013B6913449D
:1041100003F5A0635B68FA7851013A690A4402F535
:10412000A06223F480335360FB785A013B69134447
:1041300003F5A063DB68FA7851013A690A4402F595
:10414000A06243F02003D360FB785A013B6913441B
:1041500003F5A0631A461023936000E000BF1837F0
:10416000BD4680BD80B586B000AF78600B46FB7061
:104170007B681B687B617B693B617B681B68FA78A5
:104180001146184603F0C7FB034603F00403042B53
:104190001BD1FB785A013B69134403F5A0631A460F
:1041A00004239360FA78796813461B019B1A9B00DD
:1041B0000B444D3307221A707B681B68FA7811464E
:1041C000184604F052F900F089BC7B681B68FA7845
:1041D0001146184603F09FFB034603F02003202BF3
:1041E00040F08280FB785A013B69134403F5A063D9
:1041F0001A4620239360FA78796813461B019B1AAC
:104200009B000B4419331B78012B24D1FA78796871
:1042100013461B019B1A9B000B44193300221A7092
:10422000FA78796813461B019B1A9B000B444C33A8
:1042300002221A70FA78796813461B019B1A9B00B8
:104240000B444D3303221A707B681B68FA781146C1
:10425000184604F00AF9FA78796813461B019B1A8C
:104260009B000B441A331B78012B40F03784FA78FB
:10427000796813461B019B1A9B000B441B331B7868
:10428000002B40F02B84FA78796813461B019B1AA7
:104290009B000B4426331B78012B09D0FA787968F0
:1042A00013461B019B1A9B000B441B3301221A70FF
:1042B000FA78796813461B019B1A9B000B444D3317
:1042C00003221A707B681B68FA781146184604F0BE
:1042D000CCF8FA78796813461B019B1A9B000B44B3
:1042E000443300221A60F9E37B681B68FA781146B0
:1042F000184603F010FB034603F40073B3F5007F88
:1043000011D1FB785A013B69134403F5A0631A46A7
:104310004FF4007393607B681B68FA781146184667
:1043200004F0A3F8DAE37B681B68FA7811461846B4
:1043300003F0F1FA034603F00103012B68D1FA7888
:10434000796813461B019B1A9B000B4444330022DF
:104350001A607B681B68FA781146184603F0DBFA8E
:10436000034603F04003402B12D1FA7879681346D4
:104370001B019B1A9B000B44193301221A70FB7816
:104380005A013B69134403F5A0631A464023936026
:10439000FA78796813461B019B1A9B000B441B3368
:1043A0001B78002B19D0FA78796813461B019B1AE9
:1043B0009B000B441B3300221A70FB785A013B69A7
:1043C000134403F5A0635B68FA7851013A690A4423
:1043D00002F5A06223F480335360FB785A013B69F5
:1043E000134403F5A0631A4601239360FA787968B1
:1043F00013461B019B1A9B000B444D3301221A707C
:104400007B681B68FA781146184604F02EF865E3BD
:104410007B681B68FA781146184603F07CFA03465D
:1044200003F04003402B39D1FA78796813461B0119
:104430009B1A9B000B444D3305221A70FA78796859
:1044400013461B019B1A9B000B441A331B78002B4D
:1044500009D1FA78796813461B019B1A9B000B441B
:10446000193301221A70FA78796813461B019B1AD6
:104470009B000B44443300221A607B681B68FA7867
:104480001146184603F0F1FFFB785A013B691344CB
:1044900003F5A0631A46402393601FE37B681B6803
:1044A000FA781146184603F036FA034603F008037B
:1044B000082B1AD1FB785A013B69134403F5A0631A
:1044C0001A4608239360FA78796813461B019B1AF1
:1044D0009B000B444D3306221A707B681B68FA78E8
:1044E0001146184603F0C1FFF8E27B681B68FA78B2
:1044F0001146184603F00FFA034603F01003102B81
:1045000044D1FA78796813461B019B1A9B000B442F
:10451000443300221A60FA78796813461B019B1A0B
:104520009B000B444D3304221A70FA7879681346C5
:104530001B019B1A9B000B4419331B78002B14D1D1
:10454000FA78796813461B019B1A9B000B441833B9
:104550001B78002B09D1FA78796813461B019B1A46
:104560009B000B44193301221A707B681B68FA7890
:104570001146184603F079FFFB785A013B69134452
:1045800003F5A0631A4610239360A7E27B681B68BB
:10459000FA781146184603F0BEF9034603F080038B
:1045A000802B40F083807B689B79002B11D1FA78B7
:1045B000796813461B019B1A9B000B444D3307225D
:1045C0001A707B681B68FA781146184603F04DFF95
:1045D00062E0FA78796813461B019B1A9B000B4432
:1045E00044331B68591C786813461B019B1A9B00B7
:1045F000034444331960FA78796813461B019B1A07
:104600009B000B4444331B68022B22D9FA7879684B
:1046100013461B019B1A9B000B44443300221A6073
:10462000FA78796813461B019B1A9B000B444C33A4
:1046300004221A70FA78796813461B019B1A9B00B2
:104640000B444C331A78FB781946786806F06CFAFC
:1046500022E0FA78796813461B019B1A9B000B44F1
:104660004C3302221A70FB785A013B69134403F55C
:10467000A0631B68FB60FB6823F08043FB60FB6862
:1046800043F00043FB60FB785A013B69134403F598
:10469000A0631A46FB681360FB785A013B69134418
:1046A00003F5A0631A468023936017E27B681B68BA
:1046B000FA781146184603F02EF9034603F4806396
:1046C000B3F5806F1BD1FA78796813461B019B1AEA
:1046D0009B000B444D3309221A707B681B68FA78E3
:1046E0001146184603F0C1FEFB785A013B6913449A
:1046F00003F5A0631A464FF480639360EEE17B6894
:104700001B68FA781146184603F005F9034603F0D2
:104710000203022B40F0DF81FB785A013B6913440E
:1047200003F5A0631A4602239360FA78796813466A
:104730001B019B1A9B000B444D331B78012B40F04F
:104740009380FA78796813461B019B1A9B000B44EF
:104750004D3302221A70FA78796813461B019B1AAE
:104760009B000B444C3301221A70FA787968134687
:104770001B019B1A9B000B4426331B78022B0BD08A
:10478000FA78796813461B019B1A9B000B44263369
:104790001B78032B40F090817B689B79002B15D10F
:1047A000FA78796813461B019B1A9B000B443D3332
:1047B0001B78FA7883F00103D8B2796813461B019D
:1047C0009B1A9B000B443D3302461A707B689B7911
:1047D000012B40F07181FA78796813461B019B1A0E
:1047E0009B000B4434331B68002B00F06581FA7882
:1047F000796813461B019B1A9B000B4434331968DC
:10480000FA78786813461B019B1A9B0003442833EF
:104810001B880B44591EFA78786813461B019B1AB3
:104820009B00034428331B88B1FBF3F3BB60BB68D8
:1048300003F00103002B00F03F81FA7879681346FA
:104840001B019B1A9B000B443D331B78FA7883F0C5
:104850000103D8B2796813461B019B1A9B000B44D5
:104860003D3302461A7027E1FA78796813461B0136
:104870009B1A9B000B444D331B78032B20D1FA78F5
:10488000796813461B019B1A9B000B444D3302228F
:104890001A70FA78796813461B019B1A9B000B4427
:1048A0001B331B78012B40F00781FA787968134697
:1048B0001B019B1A9B000B444C3302221A70FBE035
:1048C000FA78796813461B019B1A9B000B444D3301
:1048D0001B78042B3AD1FA78796813461B019B1A8E
:1048E0009B000B444D3302221A70FA787968134604
:1048F0001B019B1A9B000B444C3302221A70FA785E
:10490000796813461B019B1A9B000B441B331B78D1
:10491000012B40F0D180FA78796813461B019B1A6D
:104920009B000B441B3300221A70FB785A013B6931
:10493000134403F5A0635B68FA7851013A690A44AD
:1049400002F5A06223F480335360B5E0FA78796809
:1049500013461B019B1A9B000B444D331B78052B00
:1049600014D1FA78796813461B019B1A9B000B44FB
:104970004D3302221A70FA78796813461B019B1A8C
:104980009B000B444C3302221A7095E0FA78796848
:1049900013461B019B1A9B000B444D331B78062BBF
:1049A00014D1FA78796813461B019B1A9B000B44BB
:1049B0004D3302221A70FA78796813461B019B1A4C
:1049C0009B000B444C3305221A7075E0FA78796825
:1049D00013461B019B1A9B000B444D331B78072B7E
:1049E0000AD0FA78796813461B019B1A9B000B4486
:1049F0004D331B78092B70D1FA78796813461B0167
:104A00009B1A9B000B444D3302221A70FA78796886
:104A100013461B019B1A9B000B4444331B68591C13
:104A2000786813461B019B1A9B00034444331960AA
:104A3000FA78796813461B019B1A9B000B44443398
:104A40001B68022B14D9FA78796813461B019B1A4C
:104A50009B000B44443300221A60FA7879681346AD
:104A60001B019B1A9B000B444C3304221A7022E05A
:104A7000FA78796813461B019B1A9B000B444C3350
:104A800002221A70FB785A013B69134403F5A063B4
:104A90001B68FB60FB6823F08043FB60FB6843F00E
:104AA0000043FB60FB785A013B69134403F5A063A4
:104AB0001A46FB68136000BFFA78796813461B0139
:104AC0009B1A9B000B444C331A78FB781946786884
:104AD00006F02AF802E000BF00E000BF1837BD462C
:104AE00080BD80B58AB000AF78607B681B687B6250
:104AF0007B6A3B627B681B681B6AFB61FB6903F096
:104B00000F03BB61FB695B0C03F00F037B61FB6967
:104B10001B09C3F30A033B617B69022B04D07B6949
:104B2000052B00F0B680B7E03B69002B00F0B380A6
:104B30007968BA6913461B019B1A9B000B442C33FE
:104B40001B68002B00F0A7807968BA6913461B0127
:104B50009B1A9B000B4438331A683B69D11878685C
:104B6000BA6913461B019B1A9B00034434331B682C
:104B7000994200F283807B6818687968BA691346A5
:104B80001B019B1A9B000B442C331B683A6992B2A1
:104B9000194602F055FE7968BA6913461B019B1A43
:104BA0009B000B442C331A683B69D1187868BA69AA
:104BB00013461B019B1A9B0003442C331960796830
:104BC000BA6913461B019B1A9B000B4438331A68C1
:104BD0003B69D1187868BA6913461B019B1A9B0080
:104BE000034438331960BB695A013B6A134403F527
:104BF000A0631B69DB0CC3F30903FB607968BA6926
:104C000013461B019B1A9B000B4428331B881A4632
:104C10003B6993423FD1FB68002B3CD0BB695A01F2
:104C20003B6A134403F5A0631B68BB60BB6823F0B9
:104C30008043BB60BB6843F00043BB60BB695A0163
:104C40003B6A134403F5A0631A46BB681360796896
:104C5000BA6913461B019B1A9B000B443C331B781B
:104C600083F00103D8B27968BA6913461B019B1A15
:104C70009B000B443C3302461A700CE07968BA6919
:104C800013461B019B1A9B000B444C3304221A70E1
:104C900001E000BF00E000BF00BF2837BD4680BD77
:104CA00080B586B000AF78607B681B687B617B69EC
:104CB0003B613B6903F588631B68FB603B6903F557
:104CC00088631B68BB60BB6823F02E03BB60FB6876
:104CD00003F00203022B0BD1FB6803F00103012B4D
:104CE00002D1786805F004FFBB6843F00203BB60A3
:104CF000FB6803F00803082B32D1BB6843F00803BC
:104D0000BB60FB6803F00403042B26D17B685B7A4D
:104D1000022B13D1FB6803F4C023B3F5802F06D117
:104D20007B681B680221184602F020FF11E07B68B7
:104D30001B680121184602F019FF0AE07B68DB7945
:104D4000012B06D13B6903F580631A464EF66023BA
:104D50005360786805F0F6FE02E0786805F000FF21
:104D6000FB6803F02003202B03D1BB6843F0200332
:104D7000BB603B6903F588631A46BB68136000BFDC
:104D80001837BD4680BD000080B588B000AF7860A0
:104D90007B68002B01D1012328E17B6893F8413027
:104DA000DBB2002B09D17B68002283F840207B68AE
:104DB000904A5A637868FCF755FE7B68022283F8B4
:104DC00041207B681B68DB697A68126823F47B6387
:104DD00023F00F03D3617B681B6802221A627B6891
:104DE0005B69022B60D07B68DB68002B02D110234B
:104DF0007B6101E020237B617B689B68202B02D8CC
:104E00007B695B007B61012001F0D8F9F8607B6869
:104E10001B69B3F5007F25D17B68DB68002B10D0C0
:104E20007B699B00FA68B2FBF3F213469B001344C4
:104E30005B001A467B685B69B2FBF3F305333B61A9
:104E40001FE07B69DB00FA68B2FBF3F213469B00BC
:104E500013445B001A467B685B69B2FBF3F30533CE
:104E60003B610EE0FA687B69B2FBF3F213469B00EC
:104E700013445B001A467B685B69B2FBF3F30533AE
:104E80003B613B695C4AA2FB0323DB083B613B6956
:104E900003F00103BB613A69BB69D31A5B08FB618C
:104EA000BB691B02BB6103E00223FB610023BB6102
:104EB000FB69012B02D9FB69FF2B07D97B685B6C6F
:104EC00043F010027B685A6401238FE07B681A6903
:104ED000BB6942EA03017B681B68FA690A431A62EC
:104EE0007B681B68DB6923F47B6323F00F037A681C
:104EF00051687A68926811437A68D26811437A6877
:104F000092690A431A437B681B6842F40062DA61C3
:104F10007B681B6A012B61D17B68384A5A637B68C6
:104F20001B68374A934201D1364B01E04FF04023D2
:104F3000DB697A68126832498A4201D1314A01E05C
:104F40004FF0402223F47B6323F00F03D3617B688F
:104F50001B682B4A934201D12A4B01E04FF04023BA
:104F600002221A627B681B68254A934201D1254BB5
:104F700001E04FF04023DB697B817B685B68B3F520
:104F8000007F03D07B685B68002B03D14FF48073F4
:104F90003B6101E000233B613B699AB27B689B68FF
:104FA0009BB213439AB27B68DB689BB213439AB2FD
:104FB0007B689B699BB213439AB27B8913439BB274
:104FC00043F400637B817B681B680D4A934201D1E7
:104FD0000C4B01E04FF040237A89DA617B680022B4
:104FE0005A647B68012283F8412000231846203749
:104FF000BD4680BDFF500008CDCCCCCC155200087A
:10500000003800400034004080B483B000AF7860C6
:1050100000BF0C37BD465DF8047B704780B483B099
:1050200000AF786000BF0C37BD465DF8047B704769
:1050300080B483B000AF786000BF0C37BD465DF828
:10504000047B704780B582B000AF78607B685B6A94
:105050001A887B681B68DA607B685B6A9A1C7B68CD
:105060005A627B685B8D9BB2013B9AB27B685A8522
:105070007B685B8D9BB2002B0ED17B681B685A68E6
:105080007B681B6822F0A0025A607B68012283F8CB
:1050900041207868FFF7B8FF00BF0837BD4680BDE4
:1050A00080B582B000AF78607B681B68DA687B6887
:1050B000DB6A92B21A807B68DB6A9A1C7B68DA62D0
:1050C0007B685B8E9BB2013B9AB27B685A867B6899
:1050D0005B8E9BB2002B0ED17B681B685A687B6885
:1050E0001B6822F060025A607B68012283F841202D
:1050F0007868FFF793FF00BF0837BD4680BD80B5D5
:1051000086B000AF78607B681B689B687B617B68BA
:1051100093F84130DBB2042B3AD17B6903F00103F1
:10512000012B09D17B681B685B6803F04003402BAF
:1051300002D17868FFF7B4FF7B6903F04003402B8E
:1051400026D17B681B685B6803F02003202B1FD1EE
:105150007B681B685A687B681B6822F060025A6093
:1051600000233B617B681B68DB683B617B681B68D5
:105170009B683B613B697B68012283F841207B6827
:105180005B6C43F002027B685A647868FFF750FF5B
:105190007B6893F84130DBB2032B36D17B6903F097
:1051A0000203022B09D17B681B685B6803F0800354
:1051B000802B02D17868FFF745FF7B6903F0080375
:1051C000082B22D17B681B685B6803F02003202B2F
:1051D0001BD17B681B685A687B681B6822F0A002A1
:1051E0005A600023FB607B681B689B68FB60FB6860
:1051F0007B68012283F841207B685B6C43F00402EA
:105200007B685A647868FFF713FF00BF1837BD4604
:1052100080BD000080B588B000AF78607B681B68F7
:105220009B68FB617B681B68924A934201D1924B59
:1052300001E04FF040239B68BB617B681B685B68A3
:105240007B617B681B688B4A934201D18A4B01E0EA
:105250004FF040235B683B617B685B68B3F5007F80
:1052600004D07B685B68002B40F09980FB6903F0F9
:105270000203022B07D17B6903F08003002B02D0CD
:10528000786800F025F9BB6903F00103012B07D111
:105290003B6903F04003002B02D0786800F0C8F9A6
:1052A000BB6903F04003402B3AD13B6903F0200374
:1052B000002B35D07B681B686E4A934201D16E4B40
:1052C00001E04FF040235A687B681B6869498B42B4
:1052D00001D1694B01E04FF0402322F060025A6097
:1052E0007B681B685A687B681B6822F0A0025A60C2
:1052F0000023FB607B681B68DB68FB607B681B68C6
:105300009B68FB60FB687B68012283F841207B6817
:105310005B6C43F002027B685A647868FFF788FE92
:10532000FB6903F00803082B40F0C3807B6903F09E
:105330002003002B00F0BD807B681B685A687B68E7
:105340001B6822F0A0025A607B681B68494A93429E
:1053500001D1494B01E04FF040235A687B681B683C
:1053600044498B4201D1444B01E04FF0402322F0ED
:1053700060025A600023BB607B681B689B68BB604F
:10538000BB687B68012283F841207B685B6C43F03B
:1053900004027B685A647868FFF74AFE89E0BB69BB
:1053A00003F00203022B07D13B6903F08003002BBB
:1053B00002D0786800F0BEF8FB6903F00103012B0E
:1053C00007D17B6903F04003002B02D0786800F01E
:1053D000FDF8FB6903F04003402B2FD17B6903F0FC
:1053E0002003002B2AD07B681B685A687B681B68E7
:1053F00022F060025A607B681B681E4A934201D10A
:105400001D4B01E04FF040235A687B681B68194927
:105410008B4201D1184B01E04FF0402322F0A00253
:105420005A607B68012283F841207B685B6C43F003
:1054300002027B685A647868FFF7FAFDBB6903F0E3
:105440000803082B36D13B6903F02003002B31D031
:105450007B681B68074A934201D1074B01E04FF07C
:1054600040235A687B681B6802498B4206D1024B75
:1054700006E000BF00380040003400404FF04023F9
:1054800022F0A0025A607B681B685A687B681B6820
:1054900022F060025A607B68012283F841207B6819
:1054A0005B6C43F004027B685A647868FFF7C0FDC8
:1054B00000E000BF00BF2037BD4680BD80B483B090
:1054C00000AF786000BF0C37BD465DF8047B7047C5
:1054D00080B582B000AF78607B685B6A991C7A689F
:1054E00051621A887B681B68DA607B685B8D9BB2AF
:1054F000013B9AB27B685A857B685B8D9BB2002B1F
:1055000013D17B681B685A687B681B6822F0A00275
:105510005A607B685B8E9BB2002B06D17B680122B0
:1055200083F841207868FFF7C9FF00BF0837BD4600
:1055300080BD000080B582B000AF78607B685B6A98
:10554000991C7A68516219887B681B681D4A9342CE
:1055500001D11D4B01E04FF040230A46DA607B6821
:105560005B8D9BB2013B9AB27B685A857B685B8DF1
:105570009BB2002B21D17B681B68124A934201D158
:10558000114B01E04FF040235A687B681B680D49BE
:105590008B4201D10C4B01E04FF0402322F0A002DE
:1055A0005A607B685B8E9BB2002B06D17B68012220
:1055B00083F841207868FFF781FF00BF0837BD46B8
:1055C00080BD00BF003800400034004080B582B08C
:1055D00000AF78607B681B68D8687B68DB6A991CC1
:1055E0007A68D16282B21A807B685B8E9BB2013B83
:1055F0009AB27B685A867B685B8E9BB2002B13D174
:105600007B681B685A687B681B6822F060025A60DE
:105610007B685B8D9BB2002B06D17B68012283F8EF
:1056200041207868FFF74AFF00BF0837BD4680BDBC
:1056300080B582B000AF78607B681B68204A9342D7
:1056400001D1204B01E04FF04023D8687B68DB6A32
:10565000991C7A68D16282B21A807B685B8E9BB299
:10566000013B9AB27B685A867B685B8E9BB2002BAB
:1056700021D17B681B68124A934201D1114B01E092
:105680004FF040235A687B681B680D498B4201D15B
:105690000C4B01E04FF0402322F060025A607B681F
:1056A0005B8D9BB2002B06D17B68012283F84120E1
:1056B0007868FFF703FF00BF0837BD4680BD00BF15
:1056C000003800400034004080B586B000AF7860FC
:1056D0007B68002B01D1012367E27B681B6803F024
:1056E0000103002B75D0884B9B6803F00C03042B3F
:1056F0000CD0854B9B6803F00C03082B12D1824B16
:105700005B6803F48003B3F5800F0BD17E4B1B68FD
:1057100003F40033002B5BD07B685B68002B57D110
:10572000012342E27B685B68B3F5803F06D1764B8C
:105730001B68754A43F4803313601DE07B685B6827
:10574000B3F5A02F0CD1704B1B686F4A43F4802334
:1057500013606D4B1B686C4A43F4803313600BE09D
:10576000694B1B68684A23F480331360664B1B68DF
:10577000654A23F4802313607B685B68002B13D099
:10578000FCF7FAFE386108E0FCF7F6FE02463B69DA
:10579000D31A642B01D9032307E25B4B1B6803F484
:1057A0000033002BF0D014E0FCF7E6FE386108E08F
:1057B000FCF7E2FE02463B69D31A642B01D90323AE
:1057C000F3E1514B1B6803F40033002BF0D100E0F0
:1057D00000BF7B681B6803F00203002B63D04A4BB9
:1057E0009B6803F00C03002B0BD0474B9B6803F026
:1057F0000C03082B1CD1444B5B6803F48003002B83
:1058000016D1414B1B6803F00203002B05D07B68C7
:10581000DB68012B01D00123C7E13B4B1B6823F060
:10582000F8027B681B69DB00374913430B603AE0E1
:105830007B68DB68002B20D0344B01221A60FCF718
:105840009BFE386108E0FCF797FE02463B69D31ADD
:10585000022B01D90323A8E12B4B1B6803F00203A1
:10586000002BF0D0284B1B6823F0F8027B681B69E3
:10587000DB00254913430B6015E0244B00221A601E
:10588000FCF77AFE386108E0FCF776FE02463B69D9
:10589000D31A022B01D9032387E11B4B1B6803F0AA
:1058A0000203002BF0D17B681B6803F00803002B78
:1058B00036D07B685B69002B16D0154B01221A602D
:1058C000FCF75AFE386108E0FCF756FE02463B69D9
:1058D000D31A022B01D9032367E10B4B5B6F03F053
:1058E0000203002BF0D01BE0094B00221A60FCF7EA
:1058F00043FE38610EE0FCF73FFE02463B69D31AD7
:10590000022B07D9032350E1003802400000474230
:10591000800E4742884B5B6F03F00203002BEAD1F5
:105920007B681B6803F00403002B00F097800023C2
:10593000FB75814B1B6C03F08053002B0FD10023B0
:10594000BB607D4B1B6C7C4A43F0805313647A4BE5
:105950001B6C03F08053BB60BB680123FB75774B66
:105960001B6803F48073002B18D1744B1B68734AB7
:1059700043F480731360FCF7FFFD386108E0FCF727
:10598000FBFD02463B69D31A022B01D903230CE12C
:105990006A4B1B6803F48073002BF0D07B689B6814
:1059A000012B06D1644B1B6F634A43F0010313675D
:1059B0001CE07B689B68052B0CD15F4B1B6F5E4A1C
:1059C00043F0040313675C4B1B6F5B4A43F0010316
:1059D00013670BE0584B1B6F574A23F00103136703
:1059E000554B1B6F544A23F0040313677B689B6875
:1059F000002B15D0FCF7C0FD38610AE0FCF7BCFDB8
:105A000002463B69D31A41F28832934201D90323FB
:105A1000CBE0494B1B6F03F00203002BEED014E0E8
:105A2000FCF7AAFD38610AE0FCF7A6FD02463B69D7
:105A3000D31A41F28832934201D90323B5E03E4B99
:105A40001B6F03F00203002BEED1FB7D012B05D170
:105A5000394B1B6C384A23F0805313647B689B6975
:105A6000002B00F0A180344B9B6803F00C03082B43
:105A70005CD07B689B69022B41D1314B00221A60BC
:105A8000FCF77AFD386108E0FCF776FD02463B69D9
:105A9000D31A022B01D9032387E0274B1B6803F09D
:105AA0000073002BF0D17B68DA697B681B6A1A43AC
:105AB0007B685B6A9B011A437B689B6A5B08013BBE
:105AC0001B041A437B68DB6A1B061B4913434B60AC
:105AD0001B4B01221A60FCF74FFD386108E0FCF710
