:020000040800F2
:100000000000022021320008612B0008692B000843
:10001000712B0008792B0008812B000800000000DC
:10002000000000000000000000000000892B000814
:10003000972B000800000000A52B0008B32B000838
:100040007132000871320008713200087132000804
:1000500071320008713200087132000871320008F4
:1000600071320008713200087132000871320008E4
:1000700071320008713200087132000871320008D4
:1000800071320008713200087132000871320008C4
:1000900071320008713200087132000871320008B4
:1000A00071320008713200087132000871320008A4
:1000B0007132000871320008713200087132000894
:1000C0007132000871320008713200087132000884
:1000D0007132000871320008C12B0008713200082B
:1000E0007132000871320008713200087132000864
:1000F0007132000871320008713200087132000854
:100100007132000871320008713200087132000843
:100110007132000871320008713200087132000833
:100120007132000871320008713200087132000823
:100130007132000871320008713200087132000813
:10014000713200087132000871320008D52B0008A6
:1001500071320008713200087132000871320008F3
:1001600071320008713200087132000871320008E3
:10017000713200087132000871320008000000007E
:08018000713200087132000821
:1001900010B5054C237833B9044B13B10448AFF3C1
:1001A00000800123237010BD200200200000000009
:1001B00084F2000808B5034B1BB103490348AFF3B1
:1001C000008008BD000000002402002084F2000826
:1001D00001F0FF01102A2BDB10F0070F08D010F8F8
:1001E000013B013A8B422DD010F0070F42B3F6D1FC
:1001F000F0B441EA012141EA014122F007047FF015
:1002000000070023F0E80256083C85EA010586EA6B
:10021000010685FA47F5A3FA87F586FA47F6A5FAA7
:1002200087F68EB9EED1F0BC01F0FF0102F00702B3
:1002300032B110F8013B013A83EA010313B1F8D15E
:100240000020704701387047002D06BF354603383F
:10025000073815F0010F07D1013015F4807F02BF78
:10026000013015F4C03F0130F0BC0138704700BFC9
:10027000034613F8012B002AFBD1181A01387047E6
:1002800081F0004102E000BF83F0004330B54FEA47
:1002900041044FEA430594EA050F08BF90EA020FB4
:1002A0001FBF54EA000C55EA020C7FEA645C7FEA47
:1002B000655C00F0E2804FEA5454D4EB5555B8BF6A
:1002C0006D420CDD2C4480EA020281EA030382EADB
:1002D000000083EA010180EA020281EA0303362D6D
:1002E00088BF30BD11F0004F4FEA01314FF4801C40
:1002F0004CEA113102D0404261EB410113F0004F52
:100300004FEA03334CEA133302D0524263EB430308
:1003100094EA050F00F0A780A4F10104D5F1200EA6
:100320000DDB02FA0EFC22FA05F2801841F1000101
:1003300003FA0EF2801843FA05F359410EE0A5F1D5
:1003400020050EF1200E012A03FA0EFC28BF4CF006
:10035000020C43FA05F3C01851EBE37101F00045BC
:1003600007D54FF0000EDCF1000C7EEB00006EEBC9
:100370000101B1F5801F1BD3B1F5001F0CD3490853
:100380005FEA30004FEA3C0C04F101044FEA4452AA
:1003900012F5800F80F09A80BCF1004F08BF5FEA31
:1003A000500C50F1000041EB045141EA050130BD11
:1003B0005FEA4C0C404141EB0101013C28BFB1F523
:1003C000801FE9D291F0000F04BF01460020B1FA6E
:1003D00081F308BF2033A3F10B03B3F120020CDA41
:1003E0000C3208DD02F1140CC2F10C0201FA0CF01F
:1003F00021FA02F10CE002F11402D8BFC2F1200C84
:1004000001FA02F120FA0CFCDCBF41EA0C01904039
:10041000E41AA2BF01EB0451294330BD6FEA040482
:100420001F3C1CDA0C340EDC04F11404C4F120026D
:1004300020FA04F001FA02F340EA030021FA04F37F
:1004400045EA030130BDC4F10C04C4F1200220FAD6
:1004500002F001FA04F340EA0300294630BD21FA14
:1004600004F0294630BD94F0000F83F4801306BFDA
:1004700081F480110134013D4EE77FEA645C18BFCE
:100480007FEA655C29D094EA050F08BF90EA020F65
:1004900005D054EA000C04BF1946104630BD91EA5D
:1004A000030F1EBF0021002030BD5FEA545C05D160
:1004B0004000494128BF41F0004130BD14F580049F
:1004C0003CBF01F5801130BD01F0004545F0FE4113
:1004D00041F470014FF0000030BD7FEA645C1ABF48
:1004E000194610467FEA655C1CBF0B46024650EA7F
:1004F000013406BF52EA033591EA030F41F40021AB
:1005000030BD00BF90F0000F04BF0021704730B530
:100510004FF4806404F132044FF000054FF0000105
:1005200050E700BF90F0000F04BF0021704730B5C6
:100530004FF4806404F1320410F0004548BF40429B
:100540004FF000013EE700BF42004FEAE2014FEAF0
:1005500031014FEA02701FBF12F07F4393F07F4FCB
:1005600081F06051704732F07F4208BF704793F0CE
:100570007F4F04BF41F40021704730B54FF46074E1
:1005800001F0004521F000411CE700BF50EA0102E4
:1005900008BF704730B54FF000050AE050EA01028D
:1005A00008BF704730B511F0004502D5404261EBFD
:1005B00041014FF4806404F132045FEA915C3FF43E
:1005C000D8AE4FF003025FEADC0C18BF03325FEADB
:1005D000DC0C18BF033202EBDC02C2F1200300FA8C
:1005E00003FC20FA02F001FA03FE40EA0E0021FAB1
:1005F00002F11444BDE600BF70B54FF0FF0C4CF49F
:10060000E06C1CEA11541DBF1CEA135594EA0C0F50
:1006100095EA0C0F00F0DEF82C4481EA030621EA8B
:100620004C5123EA4C5350EA013518BF52EA0335C6
:1006300041F4801143F4801338D0A0FB02CE4FF078
:100640000005E1FB02E506F00042E0FB03E54FF0A8
:100650000006E1FB03569CF0000F18BF4EF0010EA0
:10066000A4F1FF04B6F5007F64F5407404D25FEA9C
:100670004E0E6D4146EB060642EAC62141EA55514F
:100680004FEAC52040EA5E504FEACE2EB4F1FD0C91
:1006900088BFBCF5E06F1ED8BEF1004F08BF5FEA0F
:1006A000500E50F1000041EB045170BD06F00046C1
:1006B00046EA010140EA020081EA0301B4EB5C046E
:1006C000C2BFD4EB0C0541EA045170BD41F4801166
:1006D0004FF0000E013C00F3AB8014F1360FDEBF8B
:1006E000002001F0004170BDC4F10004203C35DA67
:1006F0000C341BDC04F11404C4F1200500FA05F3EA
:1007000020FA04F001FA05F240EA020001F000428A
:1007100021F0004110EBD37021FA04F642EB060100
:100720005EEA430E08BF20EAD37070BDC4F10C042A
:10073000C4F1200500FA04F320FA05F001FA04F2EE
:1007400040EA020001F0004110EBD37041F10001DA
:100750005EEA430E08BF20EAD37070BDC4F12005E5
:1007600000FA05F24EEA020E20FA04F301FA05F24D
:1007700043EA020321FA04F001F0004121FA04F2F5
:1007800020EA020000EBD3705EEA430E08BF20EAC5
:10079000D37070BD94F0000F0FD101F000464000FF
:1007A00041EB010111F4801F08BF013CF7D041EA81
:1007B000060195F0000F18BF704703F00046520085
:1007C00043EB030313F4801F08BF013DF7D043EA56
:1007D0000603704794EA0C0F0CEA135518BF95EA0C
:1007E0000C0F0CD050EA410618BF52EA4306D1D193
:1007F00081EA030101F000414FF0000070BD50EAB2
:10080000410606BF1046194652EA430619D094EA3B
:100810000C0F02D150EA013613D195EA0C0F05D125
:1008200052EA03361CBF104619460AD181EA030179
:1008300001F0004141F0FE4141F470014FF0000031
:1008400070BD41F0FE4141F4780170BD70B54FF0CC
:10085000FF0C4CF4E06C1CEA11541DBF1CEA13554C
:1008600094EA0C0F95EA0C0F00F0A7F8A4EB05042E
:1008700081EA030E52EA03354FEA013100F0888025
:100880004FEA03334FF0805545EA131343EA1263EE
:100890004FEA022245EA111545EA10654FEA0026A3
:1008A0000EF000419D4208BF964244F1FD0404F55C
:1008B000407402D25B084FEA3202B61A65EB0305B8
:1008C0005B084FEA32024FF480104FF4002CB6EB75
:1008D000020E75EB030E22BFB61A754640EA0C00F5
:1008E0005B084FEA3202B6EB020E75EB030E22BF35
:1008F000B61A754640EA5C005B084FEA3202B6EB76
:10090000020E75EB030E22BFB61A754640EA9C0034
:100910005B084FEA3202B6EB020E75EB030E22BF04
:10092000B61A754640EADC0055EA060E18D04FEAC2
:10093000051545EA16754FEA06164FEAC30343EA62
:1009400052734FEAC2025FEA1C1CC0D111F4801F2F
:100950000BD141EA00014FF000004FF0004CB6E728
:1009600011F4801F04BF01430020B4F1FD0C88BFC7
:10097000BCF5E06F3FF6AFAEB5EB030C04BFB6EBD2
:10098000020C5FEA500C50F1000041EB045170BDC5
:100990000EF0004E4EEA113114EB5C04C2BFD4EBF2
:1009A0000C0541EA045170BD41F480114FF0000E76
:1009B000013C90E645EA060E8DE60CEA135594EAF2
:1009C0000C0F08BF95EA0C0F3FF43BAF94EA0C0FF5
:1009D0000AD150EA01347FF434AF95EA0C0F7FF46A
:1009E00025AF104619462CE795EA0C0F06D152EABE
:1009F00003353FF4FDAE1046194622E750EA4106A2
:100A000018BF52EA43067FF4C5AE50EA41047FF4B2
:100A10000DAF52EA43057FF4EBAE12E74FF0FF3C17
:100A200006E000BF4FF0010C02E000BF4FF0010CE8
:100A30004DF804CD4FEA410C7FEA6C5C4FEA430C61
:100A400018BF7FEA6C5C1BD001B050EA410C0CBFB0
:100A500052EA430C91EA030F02BF90EA020F002012
:100A6000704710F1000F91EA030F58BF994208BF79
:100A700090422CBFD8176FEAE37040F00100704736
:100A80004FEA410C7FEA6C5C02D150EA013C07D18D
:100A90004FEA430C7FEA6C5CD6D152EA033CD3D0D8
:100AA0005DF8040B704700BF8446104662468C46D2
:100AB0001946634600E000BF01B5FFF7B7FF002805
:100AC00048BF10F1000F01BD4DF808EDFFF7F4FF2E
:100AD0000CBF012000205DF808FB00BF4DF808EDB9
:100AE000FFF7EAFF34BF012000205DF808FB00BFDC
:100AF0004DF808EDFFF7E0FF94BF012000205DF8FE
:100B000008FB00BF4DF808EDFFF7CEFF94BF0120B2
:100B100000205DF808FB00BF4DF808EDFFF7C4FFAB
:100B200034BF012000205DF808FB00BF4FEA410CF4
:100B30007FEA6C5C02D150EA013C0AD14FEA430CD7
:100B40007FEA6C5C02D152EA033C02D14FF0000014
:100B500070474FF0010070474FEA410212F5001252
:100B600015D211D56FF47873B3EB625212D94FEAF4
:100B7000C12343F0004343EA505311F0004F23FADE
:100B800002F018BF404270474FF00000704750EA33
:100B9000013005D111F0004008BF6FF000407047F0
:100BA0004FF00000704700BF53B94AB9002908BF91
:100BB00000281CBF4FF0FF314FF0FF3000F088B924
:100BC000ADF1080C6DE904CE00F006F8DDF804E0A4
:100BD000DDE9022304B070472DE9F047089D8E46F9
:100BE00004468846002B4AD18A42174662D9B2FA97
:100BF00082F64EB1C6F1200301FA06F820FA03F39B
:100C0000B74043EA0808B4404FEA174E1FFA87FC82
:100C1000B8FBFEF1230C0EFB118843EA084301FBED
:100C20000CF29A4209D9FB1801F1FF3080F0EA80FA
:100C30009A4240F2E78002393B449A1AA3B2B2FBCF
:100C4000FEF00EFB102243EA024300FB0CFC9C4525
:100C500009D9FB1800F1FF3280F0D6809C4540F2A4
:100C6000D3803B44023840EA0140A3EB0C0300214F
:100C70001DB1F3400022C5E90032BDE8F0878B4288
:100C800005D90DB1C5E9000100210846F5E7B3FA21
:100C900083F1002946D1734502D3824200F20581D7
:100CA000841A6EEB030201209046002DE5D0C5E9C1
:100CB0000048E2E7002A00F09080B2FA82F6002EA7
:100CC00040F0A4808A1A030C4FEA174E80B2BCB2DF
:100CD0000121B2FBFEFC0EFB1C2243EA024304FB93
:100CE0000CF29A4207D9FB180CF1FF3802D29A4253
:100CF00000F2E080C4469B1AB3FBFEF20EFB1233F7
:100D000040EA034302FB04F49C4207D9FB1802F1BA
:100D1000FF3002D29C4200F2CA8002461B1B42EA0C
:100D20000C40A5E7C1F120068B4022FA06F71F43CD
:100D30000EFA01F420FA06F32EFA06FE4FEA1749DE
:100D4000234300FA01F81FFA87FCBEFBF9F01C0CE4
:100D500009FB10EE44EA0E4400FB0CFEA64502FA25
:100D600001F209D93C1900F1FF3A80F09C80A645B8
:100D700040F2998002383C44A4EB0E041FFA83FE33
:100D8000B4FBF9F309FB13444EEA044403FB0CFCE7
:100D9000A44508D93C1903F1FF3E80F08280A445A8
:100DA0007FD9023B3C4443EA0040A4EB0C04A0FB87
:100DB00002EC64457346E14662D35FD05DB1B8EBA7
:100DC000030264EB090404FA06F622FA01F31E4357
:100DD000CC40C5E9006400214FE7B1FBF2FC010CF7
:100DE00041EA0E4180B240EA01423B4638463C4669
:100DF000B846BE462026B1FBF7F1A2EB080241EA55
:100E00000C4166E7014618E710462CE7C6F12002C0
:100E10002EFA02F3B740B14020FA02F24FEA174E21
:100E20000A43B3FBFEF8BCB20EFB1833110C41EAC7
:100E3000034108FB04F9B04089454FEA104380B2F2
:100E40003ED9791808F1FF3C01D289451FD8A1EBA2
:100E50000901B1FBFEF909FB04F80EFB191192B26E
:100E600042EA0142424529D2BA1809F1FF31C4D2FF
:100E70004245C2D2A9F102013A44BEE7F0459DD2F3
:100E8000BEEB02036CEB070C0138E14696E7A7EBDB
:100E900009094944A8F1020CB1FBFEF909FB04F869
:100EA000DBE773467FE7504666E70846FDE63B44CE
:100EB000023A33E7ACF1020C3B441CE749469CE79D
:100EC000A1EB0901C446B1FBFEF909FB04F8C4E734
:100ED000704700BF80B582B000AF3D4B1B889BB20E
:100EE0009B12DBB203F00103FB71FB79012B2AD1CA
:100EF000384B1B78002B26D1374B1B78002B0CBFAF
:100F000001230023DBB21A46334B1A70324B1B7895
:100F1000002B0CD001224FF48041304802F098FDA4
:100F200000224FF480512D4802F092FD0BE0002288
:100F30004FF48041294802F08BFD01224FF480518B
:100F4000264802F085FD234AFB791370224B1B785B
:100F5000002B03D0224B64221A6002E0204BC822EF
:100F60001A60204800F06CFA1B4B1B78002B15D040
:100F700001F0A6F902F0E4F902461B4B1B68D31AF4
:100F8000B3F5FA7F1FD34FF40041144802F079FD06
:100F900002F0D6F90346144A136014E000F082F818
:100FA00002F0CEF90246104B1B68D31AB3F5FA7F54
:100FB00009D34FF40041094802F063FD02F0C0F983
:100FC0000346094A1360002318460837BD4680BD12
:100FD000240500203C02002000000020000C0240FC
:100FE0001C000020A00300204002002080B500AFBC
:100FF0000C480CF08BFA00F019F801F035F90122D9
:101000004FF48041084802F023FD00224FF40041D4
:10101000054802F01DFD4FF47A7002F09DF900BF03
:1010200080BD00BFA0F20008000C024080B500AFF8
:10103000154B00221A70144B00225A70124B0022DA
:101040009A70124B1B68124A1360104B1B68114AAE
:1010500013600E4B1B68DBB21A4600210E4801F0EC
:10106000C5FF0E4B1B68DBB21A460C210A4801F083
:10107000BDFF0B4B1B68DBB21A460421064801F08A
:10108000B5FF00BF80BD00BF540200200800002053
:10109000480200204C020020580300200C000020D1
:1010A0000400002080B582B000AF9B4B1B78C3F3D7
:1010B0000013DBB2002B14BF01230023FB71FB796B
:1010C000002B1ED0954B1B7883F00103DBB2002B65
:1010D00017D0934B1B78002B0CBF01230023DBB2EE
:1010E0001A468F4B1A708E4B1B78002B02D08D4BFB
:1010F0001B6801E08C4B1B688C4A13608C4B0122EF
:101100001A70864AFB791370894B1B78002B34D0F8
:1011100001F0F0FE0246874B1B68D31A092B2CD92D
:1011200001F0E8FE0346834A1360834B1A687F4B45
:101130001B689A4205DA804B1B6801337E4A1360B4
:101140000AE07D4B1A68794B1B689A4204DD7A4BA2
:101150001B68013B784A1360774B1B68DBB21A4669
:101160000021764801F042FF734B1A686F4B1B68F1
:101170009A4202D16E4B00221A70674B1B78C3F360
:101180004013DBB2002B14BF01230023BB71BB79DA
:10119000002B3AD06A4B1B7883F00103DBB2002BA3
:1011A00033D05F4B5B78002B0CBF01230023DBB2F5
:1011B0001A465B4B5A705A4B9B78002B0CBF01238D
:1011C0000023DBB21A46564B9A70554B5B78002BC6
:1011D00003D05C4B1B68DBB202E05B4B1B68DBB2ED
:1011E0001A460C21554801F001FF4D4B9B78002B0E
:1011F00003D0564B1B68DBB202E0554B1B68DBB2D9
:101200001A4604214D4801F0F1FE4D4ABB79137096
:10121000414B1B7803F00403DBB2002B0AD0012200
:1012200080214C4802F014FCC82204214A4801F0F5
:10123000A3FE16E0384B1B7803F00803DBB2002B4B
:101240000AD000228021434802F002FCC822042177
:10125000414801F091FE04E0002204213E4801F0E3
:101260008BFE10213B4802F0DBFB0346002B14BF32
:1012700001230023DAB2394B1A702021354802F0DD
:10128000CFFB0346002B14BF01230023DAB2344BFB
:101290001A701021334802F0C3FB0346002B14BF21
:1012A00001230023DAB2304B1A7020212D4802F0BE
:1012B000B7FB0346002B14BF01230023DAB22B4BEC
:1012C0001A70154B1B7803F04003DBB2002B03D0E0
:1012D000274B01221A7009E00F4B1B7823F07F0384
:1012E000DBB2002B02D0224B02221A700A4B1B7871
:1012F00003F00103DBB2002B3ED0184B1B7883F0C8
:101300000103DBB2002B37D040F23A7200211948BA
:1013100001F0F4FE84E000BF5805002057020020D1
:101320005402002014000020080000204C0200207D
:1013300050020020440200204802002058030020F0
:1013400058020020180000200C000020100000208F
:101350000400002000100240100300205902002069
:101360005A020020000802405B0200205C020020BC
:101370005D020020780400202B4B1B7803F0020351
:10138000DBB2002B0DD0294B1B7883F00103DBB2BD
:10139000002B06D040F27E420021254801F0AEFE2F
:1013A0003EE0244B1B78012B17D1234B1B7883F095
:1013B0000103DBB2002B06D040F23A7200211C4838
:1013C00001F09CFE2CE040F2DC520021184801F0B4
:1013D00095FE184B00221A7022E0164B1B78022B48
:1013E00017D1164B1B7883F00103DBB2002B06D01C
:1013F00040F27E4200210E4801F080FE10E040F2F3
:10140000DC5200210A4801F079FE0A4B00221A70D2
:1014100006E040F2DC520021054801F06FFEFFE7D4
:1014200000BF0837BD4680BD580500205A02002085
:10143000780400205D0200205B0200205C02002096
:1014400080B588B000AF78604F4BD3ED007AFDEEE9
:10145000E77A17EE903AFB614C4BD3ED007AFDEE44
:10146000E77A17EE903ABB61FB6913F1130F04DBC7
:10147000FB69132B01DC0023FB61BB6913F1130F24
:1014800004DBBB69132B01DC0023BB6100237B6100
:1014900000233B610023FB603D4B5B7803F00103BD
:1014A000DBB2002B07D000237B6100233B61394B6B
:1014B0001B68FB602BE0364B5B7803F00203DBB26A
:1014C000002B08D000237B6100233B61314B1B685C
:1014D0005B42FB601BE02F4B1B68FA6902FB03F3C6
:1014E0002D4A82FB03121A449211DB17D31A7B6137
:1014F000284B1B68BA6902FB03F3274A82FB0312DD
:101500001A449211DB17D31A3B610023FB60FA687F
:101510003969786900F04AF8204BD3ED007A4FF42E
:101520008053B0EE670A00220221786800F01EF9AD
:101530001B4BD3ED007A4FF40053B0EE670A042240
:101540000421786800F012F9164BD3ED007A4FF4BD
:101550008043B0EE670A08224FF48071786800F08B
:1015600005F9114BD3ED007A4FF40043B0EE670A52
:101570000C224FF40071786800F0F8F80023184648
:101580002037BD4680BD00BF440500204005002037
:10159000580500201C000020090402816002002080
:1015A00064020020680200206C02002080B48DB02C
:1015B00000AFF860B9607A60FB685A42BB68D21A23
:1015C0007B68D31A07EE903AF8EEE77AC7ED0B7A0C
:1015D000BA68FB68D21A7B68D31A07EE903AF8EE25
:1015E000E77AC7ED0A7AFB685A42BB68D21A7B6871
:1015F000134407EE903AF8EEE77AC7ED097ABA6835
:10160000FB68D21A7B68134407EE903AF8EEE77A4B
:10161000C7ED087A504AFB6A1360D7ED0A7AF1EEFB
:10162000677A4E4BC3ED007A4D4A7B6A1360D7ED63
:10163000087AF1EE677A4B4BC3ED007A464BD3ED57
:10164000007AB0EEE77A454BD3ED007AF0EEE77A18
:10165000B4EEE77AF1EE10FA05DD3F4BD3ED007AF8
:10166000F0EEE77A04E03D4BD3ED007AF0EEE77A56
:10167000C7ED077A3A4BD3ED007AB0EEE77A394BF3
:10168000D3ED007AF0EEE77AB4EEE77AF1EE10FAF5
:1016900005DD334BD3ED007AF0EEE77A04E0314B11
:1016A000D3ED007AF0EEE77AC7ED067A97ED077A88
:1016B000D7ED067AB4EEE77AF1EE10FA01DDFB69B8
:1016C00000E0BB697B61284B1B6807EE903AF8EE9F
:1016D000E77A97ED057AB4EEE77AF1EE10FA33DDAA
:1016E000214B1B6807EE903AF8EEE76A97ED057A12
:1016F000C6EE877AC7ED047A174B93ED007AD7EDE3
:10170000047A67EE277A144BC3ED007A134B93EDFE
:10171000007AD7ED047A67EE277A104BC3ED007A92
:101720000F4B93ED007AD7ED047A67EE277A0C4BD6
:10173000C3ED007A0B4B93ED007AD7ED047A67EE98
:10174000277A084BC3ED007A002318463437BD468C
:101750005DF8047B704700BF600200206402002037
:10176000680200206C0200201C00002080B586B0BA
:1017700000AF78610846114687ED030A1A46034612
:101780007B820B467B7413467B81D7ED037AF5EEA3
:10179000C07AF1EE10FA0CDD7B8A012219461B4853
:1017A00002F056F97B8901221946184802F050F9D7
:1017B0001AE07B8A00221946144802F049F97B8915
:1017C00000221946114802F043F9D7ED037AFDEEE5
:1017D000E77A17EE903A002BB8BF5B4207EE903ADB
:1017E000F8EEE77AC7ED037A7B7CD7ED037AFCEE5F
:1017F000E77AC7ED017A3A79D2B21946786901F0F1
:10180000BBFB00BF1837BD4680BD00BF00080240CB
:1018100080B500AF01F02EFD00F06CF800F0EAFB9F
:1018200000F0D2F800F000F90AF04CFD00F0C4F925
:1018300000F0B6FB00F02EFA00F0A6FA00F024FB50
:1018400000F068FB00F026F90021244805F096FD21
:101850000421224805F092FD0821204805F08EFD64
:101860000C211E4805F08AFD00211D4805F086FD6B
:1018700004211B4805F082FD0C21194805F07EFD6E
:101880000021184805F07AFD0421164806F0ECF90D
:10189000144B1B685A6C134B1B6842F400425A6489
:1018A0000421114805F06AFD0021104805F066FD8D
:1018B0000F4801F0ABFA40F2DC5200210B4801F076
:1018C0001DFC4FF4FA7001F047FDFFF78FFBFFF7A7
:1018D00001FB0AF01DFD00BFF9E700BFA0030020D7
:1018E000580300201003002030040020780400205A
:1018F000C004002080B594B000AF07F1200330226F
:10190000002118460BF0E2FE07F10C0300221A60DA
:101910005A609A60DA601A610023BB60284B1B6C26
:10192000274A43F080531364254B1B6C03F080530C
:10193000BB60BB6800237B60224B1B68214A43F4D9
:10194000804313601F4B1B6803F480437B607B68FC
:1019500001233B624FF480337B620223BB634FF46D
:101960008003FB6308233B644FF4A8737B6402236A
:10197000BB640723FB6407F12003184604F04CFE08
:101980000346002B01D000F069FC0F23FB6002230B
:101990003B6100237B614FF4A053BB614FF4805344
:1019A000FB6107F10C030521184605F0ADF803466D
:1019B000002B01D000F052FC00BF5037BD4680BD67
:1019C000003802400070004080B500AF134B144A4D
:1019D0001A60124B4FF400725A60104B00229A604A
:1019E0000E4B0022DA600D4B4FF400721A610B4B64
:1019F0000C4A5A61094B00229A61084B0022DA61B5
:101A0000064B00221A62054804F066F90346002BD3
:101A100001D000F023FC00BF80BD00BF7002002099
:101A2000003C00400077010080B500AF174B184A1A
:101A30001A60164B4FF482725A60144B00229A605F
:101A4000124B0022DA60114B00221A610F4B002268
:101A50005A610E4B4FF400729A610C4B0022DA610E
:101A60000A4B00221A62094B00225A62074B0022DD
:101A70009A62064B0A22DA62044805F0A7FB034685
:101A8000002B01D000F0EAFB00BF80BDB8020020AF
:101A90000030014080B592B000AF07F14003002252
:101AA0001A605A6007F1240300221A605A609A6093
:101AB000DA601A615A619A613B1D202200211846A2
:101AC0000BF004FE3A4B3B4A1A60394B53225A60E2
:101AD000374B00229A60364B44F61F62DA60344B73
:101AE00000221A61324B00225A61314B00229A6166
:101AF0002F4805F0F4FB0346002B01D000F0AEFBAD
:101B000000233B6400237B6407F140031946284807
:101B100006F064F90346002B01D000F09FFB602320
:101B20007B6240F2DC53BB620023FB6200233B6319
:101B300000237B630023BB630023FB6307F12403C3
:101B4000002219461A4805F051FD0346002B01D02A
:101B500000F084FB0023BB6207F124030422194632
:101B6000134805F043FD0346002B01D000F076FB3F
:101B700000237B600023BB600023FB6000233B61EC
:101B800000237B614FF40053BB6100233B623B1D8C
:101B90001946074806F09EF90346002B01D000F0D5
:101BA0005DFB034800F050FE00BF4837BD4680BDD6
:101BB000100300200000014080B58AB000AF07F19B
:101BC000200300221A605A603B1D00221A605A60EE
:101BD0009A60DA601A615A619A612D4B4FF0804227
:101BE0001A602B4B53225A60294B00229A60284BD3
:101BF00044F61F62DA60264B00221A61244B002251
:101C00009A61234805F06BFB0346002B01D000F0DE
:101C100025FB00233B6200237B6207F1200319466A
:101C20001B4806F0DBF80346002B01D000F016FB42
:101C300060237B600023BB600023FB6000237B618B
:101C40003B1D00221946124805F0D0FC0346002B2C
:101C500001D000F003FB3B1D042219460C4805F09F
:101C6000C5FC0346002B01D000F0F8FA3B1D0C2206
:101C70001946074805F0BAFC0346002B01D000F0D6
:101C8000EDFA034800F0E0FD00BF2837BD4680BDF7
:101C90005803002080B58AB000AF07F1200300226E
:101CA0001A605A603B1D00221A605A609A60DA601E
:101CB0001A615A619A61324B324A1A60304B0022E3
:101CC0005A602F4B00229A602D4B41F26702DA6076
:101CD0002B4B00221A612A4B00229A61284805F0FA
:101CE000FEFA0346002B01D000F0B8FA00233B6255
:101CF00000237B6207F120031946214806F06EF8A5
:101D00000346002B01D000F0A9FA60237B6000237A
:101D1000BB600023FB6000237B613B1D0022194652
:101D2000174805F063FC0346002B01D000F096FA3B
:101D30003B1D04221946124805F058FC0346002BAF
:101D400001D000F08BFA3B1D082219460C4805F023
:101D50004DFC0346002B01D000F080FA3B1D0C2205
:101D60001946074805F042FC0346002B01D000F05D
:101D700075FA034800F068FD00BF2837BD4680BDF6
:101D8000A00300200004004080B58AB000AF07F136
:101D9000200300221A605A603B1D00221A605A601C
:101DA0009A60DA601A615A619A61354B354A1A6055
:101DB000334B53225A60324B00229A60304B40F230
:101DC000E732DA602E4B00221A612D4B80229A6195
:101DD0002B4805F084FA0346002B01D000F03EFAB0
:101DE00000233B6200237B6207F12003194624484D
:101DF00005F0F4FF0346002B01D000F02FFA60231A
:101E00007B600023BB600023FB6000237B613B1DE4
:101E1000002219461A4805F0E9FB0346002B01D0C1
:101E200000F01CFA3B1D04221946154805F0DEFBA4
:101E30000346002B01D000F011FA4FF4FA73BB6097
:101E40003B1D082219460E4805F0D0FB0346002B27
:101E500001D000F003FA0023BB603B1D0C221946A1
:101E6000074805F0C3FB0346002B01D000F0F6F94C
:101E7000034800F0E9FC00BF2837BD4680BD00BF25
:101E8000E80300200008004080B588B000AF3B1D8B
:101E900000221A605A609A60DA601A615A619A6187
:101EA0001A4B1B4A1A60194BA7225A60174B002283
:101EB0009A60164B44F61F62DA60144B00221A61D6
:101EC000124B00229A61114805F009FA0346002BD3
:101ED00001D000F0C3F960237B600023BB600023C6
:101EE000FB6000237B613B1D04221946074805F077
:101EF0007DFB0346002B01D000F0B0F9034800F051
:101F0000A3FC00BF2037BD4680BD00BF30040020C9
:101F10000040014080B588B000AF3B1D00221A6030
:101F20005A609A60DA601A615A619A611A4B1B4AC8
:101F30001A60194B53225A60174B00229A60164BB5
:101F400044F61F62DA60144B00221A61124B002221
:101F50009A61114805F0C3F90346002B01D000F047
:101F60007DF960237B6040F2DC53BB600023FB60A3
:101F700000237B613B1D00221946074805F036FB14
:101F80000346002B01D000F069F9034800F05CFC27
:101F900000BF2037BD4680BD7804002000180040F7
:101FA00080B500AF114B124A1A60104B4FF4E1326A
:101FB0005A600E4B00229A600C4B0022DA600B4BE9
:101FC00000221A61094B0C225A61084B00229A61C7
:101FD000064B0022DA61054805F0F3FF0346002BAB
:101FE00001D000F03BF900BF80BD00BFC00400205D
:101FF0000044004080B58CB000AF07F11C03002204
:102000001A605A609A60DA601A610023BB618D4BD6
:102010001B6B8C4A43F0100313638A4B1B6B03F05A
:102020001003BB61BB6900237B61864B1B6B854A38
:1020300043F004031363834B1B6B03F004037B61C6
:102040007B6900233B617F4B1B6B7E4A43F080031F
:1020500013637C4B1B6B03F080033B613B690023E4
:10206000FB60784B1B6B774A43F001031363754B9E
:102070001B6B03F00103FB60FB680023BB60714B2B
:102080001B6B704A43F0020313636E4B1B6B03F030
:102090000203BB60BB6800237B606A4B1B6B694A11
:1020A00043F008031363674B1B6B03F008037B606B
:1020B0007B68002241F28801634801F0C9FC0122DB
:1020C0000121624801F0C4FC002240F206315F4861
:1020D00001F0BEFC00224FF430415D4801F0B8FC35
:1020E00000224FF21B615B4801F0B2FC41F2880311
:1020F000FB6101233B6200237B620023BB6207F18B
:102100001C031946504801F0EFFA3023FB6100230D
:102110003B6200237B6207F11C0319464A4801F029
:10212000E3FA40F20733FB6101233B6200237B6249
:102130000023BB6207F11C031946444801F0D4FA9E
:102140000823FB6102233B6200237B620023BB6206
:102150000523FB6207F11C0319463C4801F0C4FA51
:102160000123FB614FF490133B6200237B6207F174
:102170001C031946384801F0B7FA3023FB610023ED
:102180003B6200237B6207F11C0319462F4801F0D4
:10219000ABFA0423FB6100233B6200237B6207F15F
:1021A0001C0319462A4801F09FFA4FF48063FB6133
:1021B00002233B6200237B620023BB620523FB6298
:1021C00007F11C031946224801F08EFA4FF4304300
:1021D000FB6101233B6200237B620023BB6207F1AA
:1021E0001C0319461A4801F07FFA4FF21B63FB618A
:1021F00001233B6200237B620023BB6207F11C03C7
:102200001946144801F070FA2023FB6100233B6259
:1022100000237B6207F11C0319460E4801F064FAA3
:102220000223FB614FF490133B6200237B6207F1B2
:102230001C031946044801F057FA00BF3037BD4669
:1022400080BD00BF0038024000100240000802407C
:1022500000040240000C02400000024080B400AFC5
:1022600072B600BF00BFFDE780B500AF0F4B37224D
:102270001A600F4B5A221A600E4B00221A600E4B46
:1022800000221A60962001F067F8094B1B68DBB248
:102290001A460421094800F0EBFE0421074805F026
:1022A0006DF8962001F058F800BF80BD2000002096
:1022B00024000020080500200C0500203004002028
:1022C00080B582B000AF01F03BF878606D4B1B78B1
:1022D000C3F30013DBB2002B14BF01230023FB70F8
:1022E000684B1B78C3F34013DBB2002B14BF0123F0
:1022F0000023BB70BB78002B02D1FB78002B73D07E
:10230000614B1B78BA789A4214BF012300237B707B
:102310007B78002B0DD05D4B1B78002B09D008215A
:102320005B4805F0F3F8594B00221A70012001F0C8
:1023300013F8BB78002B09D001224FF48051554887
:1023400000F00EFF504B01221A7008E000224FF4FB
:102350008051504800F004FF4B4B00221A704B4B49
:102360001B7883F00103DBB2002B0CD040F2DC526F
:102370000821474800F010FF0821454804F0FEFFFF
:10238000424B01221A70444B1B687A689A423BD038
:10239000414A7B681360BB78002B12D03F4B1B680F
:1023A000B3F52F5F05DA3D4B1B6801333B4A1360E1
:1023B0002AE00821364805F0A9F8344B00221A70AB
:1023C00022E0364B1B6813F52F5F05DD334B1B688E
:1023D000013B324A136017E008212D4805F096F8BA
:1023E0002A4B00221A700FE0284B1B78002B06D0D6
:1023F0000821274805F08AF8244B00221A70274B41
:102400001B68274A136000E000BF264B1B687A68F0
:10241000D31A132B30D9234A7B681360194B1B78CE
:1024200003F00403DBB2002B04D01F4B1B68013305
:102430001D4A1360134B1B7803F00803DBB2002B1B
:1024400004D0194B1B68013B174A1360164B1B68DD
:10245000B42B02DD144BB4221A60134B1B68002B03
:1024600002DA114B00221A600F4B1B68DBB21A46CE
:1024700004210E4800F0FCFD00F01AF800BF0837F8
:10248000BD4680BD58050020280000201005002012
:10249000E803002000100240140500200C05002075
:1024A000080500201805002024000020300400202A
:1024B00080B582B000AF214B1B7823F07F03DBB2E5
:1024C000002B14BF01230023FB71FB79002B2ED0BE
:1024D0001B4B1B7883F00103DBB2002B27D0194B79
:1024E0001B78002B14BF01230023DBB283F0010310
:1024F000DBB203F00103DAB2124B1A70114B1B78F6
:10250000002B0AD0012201210F4801F0A1FA00227C
:1025100002210D4801F09CFA09E0002201210A483D
:1025200001F096FA01220221074801F091FA044ACB
:10253000FB79137000BF0837BD4680BD58050020E9
:102540001C0500201D050020000C024080B582B053
:1025500000AF00237B60104B5B6C0F4A43F4804359
:1025600053640D4B5B6C03F480437B607B680023FA
:102570003B60094B1B6C084A43F080531364064BC5
:102580001B6C03F080533B603B68072000F0D8FFD2
:1025900000BF0837BD4680BD0038024080B58EB010
:1025A00000AF786007F1240300221A605A609A6035
:1025B000DA601A6107F1140300221A605A609A6007
:1025C000DA607B681B68314A93425AD101237B61F0
:1025D000C023BB610223FB6107F11403184604F01A
:1025E000B3FC0346002B01D0FFF738FE00233B610C
:1025F000274B1B6C264A43F400431364244B1B6C8B
:1026000003F400433B613B690023FB60204B1B6BE1
:102610001F4A43F0010313631D4B1B6B03F00103BF
:10262000FB60FB680023BB60194B1B6B184A43F02F
:1026300004031363164B1B6B03F00403BB60BB68FE
:1026400010237B620223BB620023FB6200233B63F7
:1026500006237B6307F1240319460E4801F044F872
:102660004FF4A4537B620223BB620023FB6200236E
:102670003B6306237B6307F124031946064801F0F8
:1026800033F800BF3837BD4680BD00BF003C004076
:1026900000380240000002400008024080B58AB0C5
:1026A00000AF786007F1140300221A605A609A6044
:1026B000DA601A617B681B68194A93422BD10023A8
:1026C0003B61184B5B6C174A43F480535364154BC2
:1026D0005B6C03F480533B613B690023FB60114B4F
:1026E0001B6B104A43F0010313630E4B1B6B03F08B
:1026F0000103FB60FB68E0237B610223BB610023D5
:10270000FB6100233B6205237B6207F1140319463A
:10271000054800F0E9FF00BF2837BD4680BD00BF77
:1027200000300140003802400000024080B489B00F
:1027300000AF78607B681B683D4A93420ED100234E
:10274000FB613C4B5B6C3B4A43F001035364394BE8
:102750005B6C03F00103FB61FB6962E07B681B6853
:10276000B3F1804F0ED10023BB61324B1B6C314A59
:1027700043F0010313642F4B1B6C03F00103BB6197
:10278000BB694EE07B681B682B4A93420ED1002345
:102790007B61284B1B6C274A43F002031364254BD3
:1027A0001B6C03F002037B617B693AE07B681B686A
:1027B000224A93420ED100233B611E4B1B6C1D4AE3
:1027C00043F0040313641B4B1B6C03F004033B61D5
:1027D0003B6926E07B681B68194A93420ED10023AF
:1027E000FB60144B5B6C134A43F480335364114B0E
:1027F0005B6C03F48033FB60FB6812E07B681B6852
:10280000104A93420DD10023BB600A4B1B6C094A4E
:1028100043F040031364074B1B6C03F04003BB60A1
:10282000BB6800BF2437BD465DF8047B704700BF1E
:102830000000014000380240000400400008004051
:10284000004001400018004080B590B000AF7860B3
:1028500007F12C0300221A605A609A60DA601A614C
:102860007B681B688C4A93421FD10023BB628B4B51
:102870001B6B8A4A43F010031363884B1B6B03F0F6
:102880001003BB62BB6A4FF4C063FB6202233B636D
:1028900000237B630023BB630123FB6307F12C034D
:1028A00019467F4800F020FFF2E07B681B68B3F117
:1028B000804F3ED100237B62784B1B6B774A43F0FD
:1028C00001031363754B1B6B03F001037B627B6A8F
:1028D00000233B62714B1B6B704A43F0020313638E
:1028E0006E4B1B6B03F002033B623B6A48F2020330
:1028F000FB6202233B6300237B630023BB63012352
:10290000FB6307F12C031946664800F0EDFE4FF417
:102910000063FB6202233B6300237B630023BB63F2
:102920000123FB6307F12C0319465F4800F0DCFE2E
:10293000AEE07B681B685D4A93423CD10023FB619B
:10294000564B1B6B554A43F002031363534B1B6BEF
:1029500003F00203FB61FB690023BB614F4B1B6B60
:102960004E4A43F0040313634C4B1B6B03F0040308
:10297000BB61BB692323FB6202233B6300237B63B0
:102980000023BB630223FB6307F12C03194646486F
:1029900000F0AAFE4023FB6202233B6300237B631B
:1029A0000023BB630223FB6307F12C031946404855
:1029B00000F09AFE6CE07B681B683E4A93421FD190
:1029C00000237B61354B1B6B344A43F002031363D6
:1029D000324B1B6B03F002037B617B694FF4707316
:1029E000FB6202233B6300237B630023BB63022360
:1029F000FB6307F12C0319462B4800F075FE47E0F6
:102A00007B681B682C4A93421ED100233B61234BF9
:102A10001B6B224A43F010031363204B1B6B03F024
:102A200010033B613B694023FB6202233B630023AD
:102A30007B630023BB630323FB6307F12C0319466D
:102A4000174800F051FE23E07B681B681B4A934245
:102A50001ED10023FB60114B1B6B104A43F0020395
:102A600013630E4B1B6B03F00203FB60FB684FF418
:102A70008043FB6202233B6300237B630023BB6331
:102A80000923FB6307F12C031946074800F02CFECD
:102A900000BF4037BD4680BD000001400038024005
:102AA0000010024000000240000402400004004008
:102AB00000080240000800400040014000180040AB
:102AC00080B58AB000AF786007F1140300221A6065
:102AD0005A609A60DA601A617B681B681D4A9342EB
:102AE00033D100233B611C4B1B6C1B4A43F4003366
:102AF0001364194B1B6C03F400333B613B690023E7
:102B0000FB60154B1B6B144A43F001031363124B1C
:102B10001B6B03F00103FB60FB680C237B6102234A
:102B2000BB610023FB6103233B6207237B6207F148
:102B300014031946094800F0D7FD00220021262081
:102B400000F009FD262000F022FD00BF2837BD4619
:102B500080BD00BF00440040003802400000024039
:102B600080B400AF00BFFDE780B400AF00BFFDE759
:102B700080B400AF00BFFDE780B400AF00BFFDE749
:102B800080B400AF00BFFDE780B400AF00BFBD461A
:102B90005DF8047B704780B400AF00BFBD465DF8B0
:102BA000047B704780B400AF00BFBD465DF8047B76
:102BB000704780B500AF00F0AFFB00BF80BD0000E4
:102BC00080B500AF024805F071FA00BF80BD00BFBC
:102BD000C004002080B500AF024801F029FA00BF10
:102BE00080BD00BF5809002080B582B000AF78607A
:102BF0007B681B68044A934202D1786800F016F99A
:102C000000BF0837BD4680BD0044004080B483B09B
:102C100000AF0346FB710F4B1B680E4A43F08073F5
:102C200013600D4B1B680C4A43F00103136000BF97
:102C30004FF060431B6803F00103002BF8D04FF006
:102C40006042FB79136000BF0C37BD465DF8047B22
:102C5000704700BFFCED00E0000E00E080B400AF64
:102C600001231846BD465DF8047B704780B582B0ED
:102C700000AF786039600AF08BFD034616221A60B7
:102C80004FF0FF3318460837BD4680BD80B582B08F
:102C900000AF78604FF0FF317868FFF7E7FF00BFC3
:102CA000FDE780B586B000AFF860B9607A600023B8
:102CB0007B610AE0AFF300800146BB685A1CBA6032
:102CC000CAB21A707B6901337B617A697B689A4268
:102CD000F0DB7B6818461837BD4680BD80B586B0EE
:102CE00000AFF860B9607A6000237B6109E0BB68DF
:102CF0005A1CBA601B781846FFF788FF7B690133BE
:102D00007B617A697B689A42F1DB7B6818461837E9
:102D1000BD4680BD80B483B000AF78604FF0FF3314
:102D200018460C37BD465DF8047B704780B483B00D
:102D300000AF786039603B684FF400525A6000235E
:102D400018460C37BD465DF8047B704780B483B0ED
:102D500000AF7860012318460C37BD465DF8047B50
:102D6000704780B485B000AFF860B9607A60002326
:102D700018461437BD465DF8047B704780B586B0B1
:102D800000AF7860144A154BD31A7B617B693B61B5
:102D9000134B1B68002B02D1114B124A1A60104BC7
:102DA0001A687B6813443A699A4207D20AF0F0FC29
:102DB00003460C221A604FF0FF3309E0084B1B68F2
:102DC000FB60074B1A687B681344054A1360FB6875
:102DD00018461837BD4680BD0000022000040000E0
:102DE00020050020880E002080B400AF064BD3F8E9
:102DF0008830054A43F47003C2F8883000BFBD46EE
:102E00005DF8047B704700BF00ED00E080B582B044
:102E100000AF786001220449786805F022F900BF0C
:102E20000837BD4680BD00BF5B050020B0B582B04D
:102E300000AF7860294B1B78022B21D0022B43DC9A
:102E4000002B02D0012B08D03EE0254B1B78AA2B8B
:102E500037D1224B01221A7033E0214B1A78214BD3
:102E60001A70204B1B781A2B06D11F4B00221A70A8
:102E70001A4B02221A7027E0184B00221A7023E026
:102E8000194B1B785A1CD1B2174A11701A46144BB1
:102E90001978164B9954144B1A78124B1B789A4296
:102EA00011D3134A114B14461D460FCD0FC495E89C
:102EB000070003C4228000F025F8084B00221A7096
:102EC00001E000BF00E000BF01220549786805F07D
:102ED000C8F800BF0837BD46B0BD00BF5A05002086
:102EE0005B05002077050020760500205C050020AA
:102EF0002405002080B500AF00F022FA03461846F2
:102F000080BD000080B400AF134B144A12881A80B1
:102F1000124BD3F80230124A1360104BD3F806302C
:102F2000104A13600D4BD3F80A300F4A13600B4B55
:102F3000D3F80E300D4A1360084BD3F812300C4A08
:102F40001360064BD3F816300A4A136000BFBD4623
:102F50005DF8047B704700BF580500202405002061
:102F60004005002044050020480500204C050020B5
:102F7000500500205405002080B487B000AFF860F1
:102F8000B9601346FB71FB681B68DB6A7B61FB79E8
:102F90007A69013202FB03F3134AA2FB0323DB0924
:102FA0003B61BB68002B04D1FB681B683A695A631C
:102FB00013E0BB68042B04D1FB681A683B69936378
:102FC0000BE0BB68082B04D1FB681A683B69D3632C
:102FD00003E0FB681A683B69136400BF1C37BD46F9
:102FE0005DF8047B704700BF8180808080B485B02D
:102FF00000AF78600B46FB701346BB70BB78B42BF8
:1030000001D9B423BB70BB784FF47A7202FB03F38F
:10301000164A82FB03121A44D211DB17D31A9BB251
:1030200003F57A73FB81FB78002B04D17B681B6866
:10303000FA895A6313E0FB78042B04D17B681A6881
:10304000FB8993630BE0FB78082B04D17B681A683B
:10305000FB89D36303E07B681A68FB89136400BFB4
:103060001437BD465DF8047B704700BFB7600BB6F0
:1030700080B487B000AFF860B9601346FB71FB798C
:10308000B42B01D9B423FB714FF4FA73FB8240F6E1
:10309000C413BB82FB79B98AFA8A8A1A02FB03F34A
:1030A0009B08154AA2FB03239B089AB2FB8A134490
:1030B0007B82BB68002B04D1FB681B687A8A5A6349
:1030C00013E0BB68042B04D1FB681A687B8A936306
:1030D0000BE0BB68082B04D1FB681A687B8AD363BA
:1030E00003E0FB681A687B8A136400BF1C37BD4687
:1030F0005DF8047B704700BF176CC11680B485B0C3
:1031000000AFF860B9601346FB80FB88B3F57A7FA7
:1031100020D3FB88B3F5FA6F1CD8BB68002B04D111
:10312000FB681B68FA885A6315E0BB68042B04D15E
:10313000FB681A68FB8893630DE0BB68082B04D119
:10314000FB681A68FB88D36305E0FB681A68FB8894
:10315000136400E000BF1437BD465DF8047B704780
:1031600080B582B000AF78600B467B8013467B70E1
:103170007B78012B06D17B8801221946786800F004
:1031800067FC05E07B8800221946786800F060FC47
:1031900000BF0837BD4680BD80B487B000AFF8607F
:1031A000B9607A607B68092B01D80A237B601B4ACF
:1031B0007B68B2FBF3F3013B7B61FB681B687A69B8
:1031C000DA62FB687A69DA60BB68002B05D1FB68BC
:1031D0001B687A6952085A6316E0BB68042B05D154
:1031E000FB681A687B695B0893630DE0BB68082B7A
:1031F00005D1FB681A687B695B08D36304E0FB6850
:103200001A687B695B081364FB681B6801225A61BA
:1032100000BF1C37BD465DF8047B704740420F007D
:10322000DFF834D0FFF7E0FD0C480D490D4A0023CC
:1032300002E0D458C4500433C4188C42F9D30A4A6B
:103240000A4C002301E013600432A242FBD30AF0CF
:10325000A5FAFEF7DDFA704700000220000000200A
:10326000200200206CF6000820020020840E0020BE
:10327000FEE7000080B500AF0E4B1B680D4A43F41B
:10328000007313600B4B1B680A4A43F4806313609E
:10329000084B1B68074A43F480731360032000F057
:1032A0004FF9002000F008F8FFF750F90023184606
:1032B00080BD00BF003C024080B582B000AF7860A6
:1032C000124B1A68124B1B7819464FF47A73B3FBF2
:1032D000F1F3B2FBF3F3184600F067F90346002B55
:1032E00001D001230EE07B680F2B0AD800227968F9
:1032F0004FF0FF3000F02FF9064A7B68136000237F
:1033000000E0012318460837BD4680BD2C00002090
:10331000340000203000002080B400AF064B1B7842
:103320001A46064B1B681344044A136000BFBD468F
:103330005DF8047B704700BF340000207805002052
:1033400080B400AF034B1B681846BD465DF8047B94
:10335000704700BF7805002080B584B000AF78606A
:10336000FFF7EEFFB8607B68FB60FB68B3F1FF3FDF
:1033700005D00A4B1B781A46FB681344FB6000BF5C
:10338000FFF7DEFF0246BB68D31AFA689A42F7D805
:1033900000BF00BF1037BD4680BD00BF3400002015
:1033A00080B485B000AF78607B6803F00703FB60F2
:1033B0000C4BDB68BB60BA684FF6FF031340BB6081
:1033C000FB681A02BB68134343F0BF6343F4003346
:1033D000BB60044ABB68D36000BF1437BD465DF8CC
:1033E000047B704700ED00E080B400AF044BDB6865
:1033F0001B0A03F007031846BD465DF8047B7047BF
:1034000000ED00E080B483B000AF0346FB7197F994
:103410000730002B0BDBFB7903F01F02074997F9FC
:1034200007305B09012000FA02F241F8232000BFB7
:103430000C37BD465DF8047B704700BF00E100E03B
:1034400080B483B000AF03463960FB7197F9073051
:10345000002B0ADB3B68DAB20C4997F907301201FE
:10346000D2B20B4483F800230AE03B68DAB2084981
:10347000FB7903F00F03043B1201D2B20B441A761E
:1034800000BF0C37BD465DF8047B704700E100E0EB
:1034900000ED00E080B489B000AFF860B9607A60F8
:1034A000FB6803F00703FB61FB69C3F10703042B0F
:1034B00028BF0423BB61FB690433062B02D9FB69D7
:1034C000033B00E000237B614FF0FF32BB6902FA4F
:1034D00003F3DA43BB681A407B699A404FF0FF312F
:1034E0007B6901FA03F3D9437B680B401343184609
:1034F0002437BD465DF8047B7047000080B582B07C
:1035000000AF78607B68013BB3F1807F01D301237A
:103510000FE00A4A7B68013B53600F214FF0FF30F8
:10352000FFF78EFF054B00229A60044B07221A60BA
:10353000002318460837BD4680BD00BF10E000E0FC
:1035400080B582B000AF78607868FFF729FF00BFD0
:103550000837BD4680BD80B586B000AF0346B96070
:103560007A60FB7300237B61FFF73EFF78617A6826
:10357000B9687869FFF78EFF024697F90F30114658
:103580001846FFF75DFF00BF1837BD4680BD80B508
:1035900082B000AF0346FB7197F907301846FFF77A
:1035A00031FF00BF0837BD4680BD80B582B000AF97
:1035B00078607868FFF7A2FF034618460837BD46D3
:1035C00080BD80B584B000AF78607B689B6DFB6088
:1035D000FFF7B6FEB8607B6893F83530DBB2022B9C
:1035E00008D07B6880225A657B68002283F83420EB
:1035F000012352E07B681B681A687B681B6822F015
:1036000016021A607B681B685A697B681B6822F087
:1036100080025A617B681B6C002B03D17B689B6C1A
:10362000002B07D07B681B681A687B681B6822F038
:1036300008021A607B681B681A687B681B6822F0A6
:1036400001021A6013E0FFF77BFE0246BB68D31A43
:10365000052B0CD97B6820225A657B68032283F8EE
:1036600035207B68002283F83420032315E07B6833
:103670001B681B6803F00103002BE4D17B68DB6D42
:103680003F229A40FB689A607B68012283F83520CC
:103690007B68002283F83420002318461037BD468B
:1036A00080BD80B483B000AF78607B6893F835301C
:1036B000DBB2022B04D07B6880225A6501230CE028
:1036C0007B68052283F835207B681B681A687B6855
:1036D0001B6822F001021A60002318460C37BD4611
:1036E0005DF8047B7047000080B489B000AF78605B
:1036F000396000237B6100233B610023BB61002311
:10370000FB616BE10122FB6902FA03F37B613B6819
:103710001B687A6913403B613A697B699A4240F0C1
:103720005A813B685B6803F00303012B05D03B68BB
:103730005B6803F00303022B30D17B689B68BB619D
:10374000FB695B00032202FA03F3DB43BA6913400F
:10375000BB613B68DA68FB695B0002FA03F3BA6994
:103760001343BB617B68BA699A607B685B68BB6125
:103770000122FB6902FA03F3DB43BA691340BB6120
:103780003B685B681B0903F00102FB6902FA03F363
:10379000BA691343BB617B68BA695A603B685B686E
:1037A00003F00303032B17D07B68DB68BB61FB6965
:1037B0005B00032202FA03F3DB43BA691340BB61E7
:1037C0003B689A68FB695B0002FA03F3BA6913432A
:1037D000BB617B68BA69DA603B685B6803F003032E
:1037E000022B23D1FB69DA087B68083253F82230B8
:1037F000BB61FB6903F007039B000F2202FA03F38E
:10380000DB43BA691340BB613B681A69FB6903F08B
:1038100007039B0002FA03F3BA691343BB61FB6918
:10382000DA087B680832B96943F822107B681B68A4
:10383000BB61FB695B00032202FA03F3DB43BA6955
:103840001340BB613B685B6803F00302FB695B00EC
:1038500002FA03F3BA691343BB617B68BA691A6061
:103860003B685B6803F44033002B00F0B480002316
:10387000FB60604B5B6C5F4A43F4804353645D4B79
:103880005B6C03F48043FB60FB685B4AFB699B084D
:10389000023352F82330BB61FB6903F003039B0042
:1038A0000F2202FA03F3DB43BA691340BB617B6862
:1038B000524A93422BD07B68514A934225D07B6871
:1038C000504A93421FD07B684F4A934219D07B687D
:1038D0004E4A934213D07B684D4A93420DD07B6889
:1038E0004C4A934207D07B684B4A934201D107234D
:1038F0000EE008230CE006230AE0052308E0042379
:1039000006E0032304E0022302E0012300E0002399
:10391000FA6902F0030292009340BA691343BB6153
:103920003549FB699B080233BA6941F823203B4BB8
:103930009B68BB613B69DB43BA691340BB613B6871
:103940005B6803F48013002B03D0BA693B6913430F
:10395000BB61324ABB699360304BDB68BB613B693A
:10396000DB43BA691340BB613B685B6803F4001337
:10397000002B03D0BA693B691343BB61274ABB697B
:10398000D360264B5B68BB613B69DB43BA6913407C
:10399000BB613B685B6803F40033002B03D0BA695A
:1039A0003B691343BB611D4ABB6953601B4B1B68DA
:1039B000BB613B69DB43BA691340BB613B685B6831
:1039C00003F48033002B03D0BA693B691343BB6116
:1039D000124ABB691360FB690133FB61FB690F2B62
:1039E0007FF690AE00BF00BF2437BD465DF8047B74
:1039F000704700BF0038024000380140000002401C
:103A00000004024000080240000C02400010024086
:103A10000014024000180240001C0240003C01401B
:103A200080B485B000AF78600B467B807B681A69F4
:103A30007B881340002B02D00123FB7301E000239D
:103A4000FB73FB7B18461437BD465DF8047B70475B
:103A500080B483B000AF78600B467B8013467B70E8
:103A60007B78002B03D07A887B689A6103E07B889F
:103A70001A047B689A6100BF0C37BD465DF8047B71
:103A8000704780B485B000AF78600B467B807B6860
:103A90005B69FB607A88FB6813401A04FB68D943B2
:103AA0007B880B401A437B689A6100BF1437BD4680
:103AB0005DF8047B704780B586B002AF78607B68A4
:103AC000002B01D1012359E07B681B68FB607B68F8
:103AD00093F8D533DBB2002B06D17B68002283F844
:103AE000D423786808F04CFC7B68032283F8D52344
:103AF000FB68B3F1A04F02D17B6800229A717B680A
:103B00001B68184605F059FA7B6818687B681A7CB0
:103B10008DF8002004330ECB05F0DAF90346002BB4
:103B200005D07B68022283F8D523012326E07B6839
:103B30001B680121184605F051FA0346002B05D0F9
:103B40007B68022283F8D523012317E07B6818687D
:103B50007B681A7C8DF8002004330ECB05F0FAFB4D
:103B60000346002B05D07B68022283F8D52301236E
:103B700004E07B68012283F8D52300231846103720
:103B8000BD4680BD90B58BB004AF78600846114645
:103B90001A460346FB700B46BB7013467B703B8E88
:103BA0007B617B6893F8D433012B01D102239DE024
:103BB0007B68012283F8D423FA78796813461B01C5
:103BC0009B1A9B000B44193300221A70FA7879680B
:103BD00013461B019B1A9B000B4414337A781A700E
:103BE000FA78796813461B019B1A9B000B44153326
:103BF000FA781A70FA78796813461B019B1A9B00B1
:103C00000B44263397F82C201A70FA78BB7803F00F
:103C10007F03D8B2796813461B019B1A9B000B44A3
:103C2000163302461A70FB781946786800F0A4FB38
:103C300097F90230002B0ADAFA78796813461B01EB
:103C40009B1A9B000B44173301221A7009E0FA7883
:103C5000796813461B019B1A9B000B441733002203
:103C60001A707B681B68184605F0D8FC386197F815
:103C70002C30012B0BD197F82830012B07D13B6951
:103C8000002B04D17B69BC2B01D9BC237B61FA7862
:103C9000796813461B019B1A9B000B44183397F855
:103CA00028201A70FA787B6998B2796813461B014C
:103CB0009B1A9B000B44283302461A807B681868C5
:103CC0007B699BB27C78BA78F978029397F82C30AC
:103CD000019397F828300093234605F0C7FC03466C
:103CE000FB737B68002283F8D423FB7B18461C37C8
:103CF000BD4690BD80B582B000AF786008461146E1
:103D00001A460346FB700B46BB7013467B70FA786D
:103D1000796813461B019B1A9B000B441733BA7832
:103D20001A70FA78796813461B019B1A9B000B44A2
:103D300026337A781A703B7C002B14D1FA78796894
:103D400013461B019B1A9B000B442A3303221A7053
:103D5000FA78796813461B019B1A9B000B441933B0
:103D60003A7F1A7009E0FA78796813461B019B1AAA
:103D70009B000B442A3302221A707B78032B00F23B
:103D8000028101A252F823F0993D0008713F00081A
:103D90005D3E0008E73E00083B7C012B40F0F580CB
:103DA000BB78002B2DD13B8B002B09D1FA78796899
:103DB00013461B019B1A9B000B443D3301221A70D2
:103DC000FA78796813461B019B1A9B000B443D331C
:103DD0001B78002B0AD1FA78796813461B019B1ACD
:103DE0009B000B442A3300221A70CEE0FA787968DF
:103DF00013461B019B1A9B000B442A3302221A70A4
:103E0000C3E0FA78796813461B019B1A9B000B44A8
:103E10001A331B78012B40F0B880FA787968134682
:103E20001B019B1A9B000B443C331B78002B0AD1CF
:103E3000FA78796813461B019B1A9B000B442A33BE
:103E400000221A70A1E0FA78796813461B019B1AC8
:103E50009B000B442A3302221A7096E0BB78002B99
:103E600020D1FA78796813461B019B1A9B000B44FA
:103E70003D331B78002B0AD1FA78796813461B0171
:103E80009B1A9B000B442A3300221A707EE0FA78BA
:103E9000796813461B019B1A9B000B442A330222AC
:103EA0001A7073E0FA78796813461B019B1A9B001D
:103EB0000B443C331B78002B0AD1FA7879681346FF
:103EC0001B019B1A9B000B442A3300221A705DE0F1
:103ED000FA78796813461B019B1A9B000B442A331E
:103EE00002221A7052E0BB78002B20D1FA78796850
:103EF00013461B019B1A9B000B443D331B78002B80
:103F00000AD1FA78796813461B019B1A9B000B446F
:103F10002A3300221A7039E0FA78796813461B01B7
:103F20009B1A9B000B442A3302221A702EE0FA7867
:103F3000796813461B019B1A9B000B443C331B788A
:103F4000002B0AD1FA78796813461B019B1A9B0053
:103F50000B442A3300221A7018E0FA787968134665
:103F60001B019B1A9B000B442A3302221A700DE09E
:103F7000FA78796813461B019B1A9B000B442A337D
:103F800000221A7002E000BF00E000BFFA787968F2
:103F900013461B019B1A9B000B442C337A691A6051
:103FA000FA78398B786813461B019B1A9B000344EF
:103FB00034331960FA78796813461B019B1A9B0009
:103FC0000B444C3300221A70FA78796813461B01AF
:103FD0009B1A9B000B44383300221A60FA787968E8
:103FE00013461B019B1A9B000B441533FA781A7079
:103FF000FA78796813461B019B1A9B000B444D33DA
:1040000000221A707B681868FA7813461B019B1A05
:104010009B0010337A681344191D7B689B791A46FC
:1040200005F050FC034618460837BD4680BD00BF6A
:1040300080B586B000AF78607B681B683B613B69E8
:10404000FB607B681B68184605F03EF90346012BB0
:1040500040F0FB807B681B68184605F001F90346B9
:10406000002B00F0F1807B681B68184605F0F8F81B
:10407000034603F40013B3F5001F04D17B681B68EB
:104080004FF400125A617B681B68184605F0E8F887
:10409000034603F48013B3F5801F04D17B681B68CB
:1040A0004FF480125A617B681B68184605F0D8F8F7
:1040B000034603F08063B3F1806F04D17B681B6813
:1040C0004FF080625A617B681B68184605F0C8F89B
:1040D000034603F00203022B03D17B681B68022214
:1040E0005A617B681B68184605F0BAF8034603F06E
:1040F0000053B3F1005F20D17B681B684FF0005282
:104100005A61FB6803F588631B6803F00103002B09
:1041100013D11021386904F0ADFF386904F0DCFFD9
:104120007B685B7A022B05D17B681B6801211846EE
:1041300005F0D4F9786808F0A1F97B681B68184687
:1041400005F08EF8034603F08073B3F1807F02D14F
:10415000786801F04DFD7B681B68184605F080F813
:10416000034603F00803082B06D1786808F06AF9C3
:104170007B681B6808225A617B681B68184605F03B
:104180006FF8034603F00073B3F1007F39D17B6809
:104190001B68184605F010FEB86000237B6125E01F
:1041A0007B6903F00F03BA6822FA03F303F00103FB
:1041B000002B18D07B695A01FB68134403F5A063F8
:1041C0001B6803F40043B3F5004F06D17B69DBB2F3
:1041D0001946786800F005F905E07B69DBB21946FD
:1041E000786800F067FF7B6901337B617B685B79EE
:1041F0001A467B699342D3D37B681B684FF00072E9
:104200005A617B681B68184605F02AF8034603F0DC
:104210001003102B01D1012300E00023002B14D048
:104220007B681B689A697B681B6822F010029A61A0
:10423000786801F0FEFB7B681B689A697B681B68E5
:1042400042F010029A6100E000BF1837BD4680BD01
:1042500080B582B000AF78607B6893F8D433012BCF
:1042600001D1022313E07B68012283F8D4237B6809
:104270001B680121184605F098F97B681B681846F1
:1042800004F08AFE7B68002283F8D42300231846BA
:104290000837BD4680BD80B582B000AF78607B68CE
:1042A00093F8D433012B01D102230DE07B68012266
:1042B00083F8D4237B681B68184605F0EBFE7B6807
:1042C000002283F8D423002318460837BD4680BD5A
:1042D00080B582B000AF78607B681B68184605F037
:1042E0003AF9034618460837BD4680BD80B483B00E
:1042F00000AF78600B46FB70FA78796813461B01B3
:104300009B1A9B000B444C331B7818460C37BD4658
:104310005DF8047B704780B483B000AF78600B46D3
:10432000FB70FA78796813461B019B1A9B000B44BB
:1043300038331B6818460C37BD465DF8047B704760
:1043400080B582B000AF78607B681B68184605F0C6
:104350007CF9034618460837BD4680BD80B582B05B
:1043600000AF78607B681B68184605F057F9034674
:1043700018460837BD4680BD80B483B000AF786072
:104380000B46FB70FA78796813461B019B1A9B0059
:104390000B441A3300221A70FA78796813461B010D
:1043A0009B1A9B000B441B3300221A70FA78796821
:1043B00013461B019B1A9B000B44253300221A70E5
:1043C000FA78796813461B019B1A9B000B4424332F
:1043D00000221A70002318460C37BD465DF8047B96
:1043E000704780B586B000AF78600B46FB707B6885
:1043F0001B687B617B693B617B681B68FA781146AF
:10440000184604F040FF034603F00403042B1AD1BE
:10441000FB785A013B69134403F5A0631A46042351
:104420009360FA78796813461B019B1A9B000B4432
:104430004D3307221A707B681B68FA7811461846BC
:1044400005F0CBFC9EE07B681B68FA7811461846A5
:1044500004F019FF034603F48073B3F5807F1BD18A
:10446000FB785A013B69134403F5A0631A464FF4E5
:1044700080739360FA78796813461B019B1A9B003E
:104480000B444D3308221A707B681B68FA7811467A
:10449000184605F0A2FC75E07B681B68FA781146A7
:1044A000184604F0F0FE034603F00803082B1AD167
:1044B000FB785A013B69134403F5A0631A460823AD
:1044C0009360FA78796813461B019B1A9B000B4492
:1044D0004D3306221A707B681B68FA78114618461D
:1044E00005F07BFC4EE07B681B68FA7811461846A5
:1044F00004F0C9FE034603F48063B3F5806F1BD15B
:10450000FB785A013B69134403F5A0631A464FF444
:1045100080639360FA78796813461B019B1A9B00AD
:104520000B444D3309221A707B681B68FA781146D8
:10453000184605F052FC25E07B681B68FA781146A6
:10454000184604F0A0FE034603F08003802B19D127
:10455000FB785A013B69134403F5A0631A46802394
:104560009360FA78796813461B019B1A9B000B44F1
:104570004D3307221A707B681B68FA78114618467B
:1045800005F02BFC7B681B68FA781146184604F08E
:104590007AFE034603F40073B3F5007F12D17B6803
:1045A0001B68FA781146184605F017FCFB785A018B
:1045B0003B69134403F5A0631A464FF400739360FC
:1045C00000F075BD7B681B68FA781146184604F048
:1045D0005AFE034603F00103012B40F02881FB78CB
:1045E0005A013B69134403F5A0631A4620239360E4
:1045F000FA78796813461B019B1A9B000B441B3306
:104600001B78012B19D1FA78796813461B019B1A84
:104610009B000B441B3300221A70FB785A013B6944
:10462000134403F5A0635B68FA7851013A690A44C0
:1046300002F5A06223F4803353607B689B79002BE2
:104640001BD0FA78796813461B019B1A9B000B4418
:1046500030331968FB785A013B69134403F5A063B2
:104660001B69C3F31203FA78C91A786813461B0151
:104670009B1A9B00034438331960FA787968134613
:104680001B019B1A9B000B444D3301221A70FA78D0
:10469000796813461B019B1A9B000B44443300228C
:1046A0001A60FB785A013B69134403F5A0631A466C
:1046B00001239360FA78796813461B019B1A9B00CB
:1046C0000B4426331B78002B0AD0FA7879681346FE
:1046D0001B019B1A9B000B4426331B78022B10D125
:1046E0007B681B68FA781146184605F076FBFB7864
:1046F0005A013B69134403F5A0631A4610239360E3
:104700003DE0FA78796813461B019B1A9B000B4425
:1047100026331B78032B0AD0FA78796813461B01DD
:104720009B1A9B000B4426331B78012B27D1FB7867
:104730005A013B69134403F5A0631B68FA785101E1
:104740003A690A4402F5A06243F000531360FA7814
:10475000796813461B019B1A9B000B444C330122C2
:104760001A70FA78796813461B019B1A9B000B4458
:104770004C331A78FB781946786807F08DFE7B6811
:104780009B79012B3BD1FA78796813461B019B1A60
:104790009B000B4438331968FA78786813461B017C
:1047A0009B1A9B00034428331B880B44591EFA783C
:1047B000786813461B019B1A9B00034428331B880F
:1047C000B1FBF3F303F00103002B00F07084FA78DF
:1047D000796813461B019B1A9B000B443C331B78E2
:1047E000FA7883F00103D8B2796813461B019B1A4B
:1047F0009B000B443C3302461A7000F058BCFA7818
:10480000796813461B019B1A9B000B443C331B78B1
:10481000FA7883F00103D8B2796813461B019B1A1A
:104820009B000B443C3302461A7000F040BC7B688E
:104830001B68FA781146184604F025FD034603F07C
:104840002003202B31D1FB785A013B69134403F537
:10485000A0631A4620239360FA78796813461B01F7
:104860009B1A9B000B441A331B78012B40F01F84CA
:10487000FA78796813461B019B1A9B000B441B3383
:1048800001221A70FA78796813461B019B1A9B0063
:104890000B444D3303221A707B681B68FA7811466B
:1048A000184605F09AFA00F002BC7B681B68FA789B
:1048B0001146184604F0E7FC034603F00203022BFE
:1048C00040F00583FB785A013B69134403F5A0636C
:1048D0001A4602239360FA78796813461B019B1AE3
:1048E0009B000B444D331B78012B14D1FA78796867
:1048F00013461B019B1A9B000B444D3302221A7076
:10490000FA78796813461B019B1A9B000B444C33C1
:1049100001221A70CCE2FA78796813461B019B1ABF
:104920009B000B444D331B78062B14D1FA78796821
:1049300013461B019B1A9B000B444D3302221A7035
:10494000FA78796813461B019B1A9B000B444C3381
:1049500005221A70ACE2FA78796813461B019B1A9B
:104960009B000B444D331B78072B0BD0FA787968EA
:1049700013461B019B1A9B000B444D331B78092BDC
:1049800040F0A680FA78796813461B019B1A9B00B9
:104990000B444D3302221A70FA78796813461B01D2
:1049A0009B1A9B000B4444331B68591C78681346C0
:1049B0001B019B1A9B00034444331960FA78796801
:1049C00013461B019B1A9B000B4444331B68022BAC
:1049D00043D9FA78796813461B019B1A9B000B4454
:1049E000443300221A60FA78796813461B019B1A37
:1049F0009B000B441A331B78012B23D1FA7879687A
:104A000013461B019B1A9B000B441B3300221A7098
:104A1000FA78796813461B019B1A9B000B441C33E0
:104A200000221A70FB785A013B69134403F5A06316
:104A30005B68FA7851013A690A4402F5A06223F4EE
:104A400080335360FA78796813461B019B1A9B00E8
:104A50000B444C3304221A7029E2FA787968134621
:104A60001B019B1A9B000B444C3302221A70FA78EC
:104A7000796813461B019B1A9B000B4426331B7855
:104A8000002B0BD0FA78796813461B019B1A9B0008
:104A90000B4426331B78022B40F00982FB785A0125
:104AA0003B69134403F5A0631B68FB60FB6823F0BC
:104AB0008043FB60FB6843F00043FB60FB785A01D6
:104AC0003B69134403F5A0631A46FB681360EEE1EB
:104AD000FA78796813461B019B1A9B000B444D33EF
:104AE0001B78052B40F0C880FA78796813461B01C3
:104AF0009B1A9B000B444D3302221A70FA78796896
:104B000013461B019B1A9B000B441B331B78012B84
:104B100040F0CE81FA78796813461B019B1A9B00FE
:104B20000B4426331B78032B6BD1FA787968134634
:104B30001B019B1A9B000B4448331B68591C786867
:104B400013461B019B1A9B00034448331960FA78F3
:104B5000796813461B019B1A9B000B4448331B6862
:104B6000022B43D9FA78796813461B019B1A9B00E4
:104B70000B44483300221A60FA78796813461B0107
:104B80009B1A9B000B441B3300221A70FA78796839
:104B900013461B019B1A9B000B4444331B68022BDA
:104BA00009D8FA78796813461B019B1A9B000B44BD
:104BB0001C3301221A70FB785A013B69134403F538
:104BC000A0635B68FA7851013A690A4402F5A06271
:104BD00023F480335360FA78796813461B019B1ADB
:104BE0009B000B444C3304221A7014E0FA78796865
:104BF00013461B019B1A9B000B444C3302221A7074
:104C000009E0FA78796813461B019B1A9B000B4454
:104C10004C3302221A70FA78796813461B019B1AEA
:104C20009B000B4426331B78002B0BD0FA78796855
:104C300013461B019B1A9B000B4426331B78022B47
:104C400040F03681FB785A013B69134403F5A063B9
:104C50001B68FB60FB6823F08043FB60FB6843F04C
:104C60000043FB60FB785A013B69134403F5A063E2
:104C70001A46FB6813601BE1FA78796813461B013A
:104C80009B1A9B000B444D331B78032B40F0818013
:104C9000FA78796813461B019B1A9B000B444D332D
:104CA00002221A70FA78796813461B019B1A9B003E
:104CB0000B441B331B78012B40F0FA80FA7879689B
:104CC00013461B019B1A9B000B444C3302221A70A3
:104CD000FB785A013B69134403F5A0635B68FA78DB
:104CE00051013A690A4402F5A06243F480335360EB
:104CF000FB785A013B69134403F5A063DB68FA783B
:104D000051013A690A4402F5A06243F04003D360BE
:104D1000FB785A013B69134403F5A063DB68FA781A
:104D200051013A690A4402F5A06223F02003D360DE
:104D3000FA78796813461B019B1A9B000B442633B3
:104D40001B78002B0BD0FA78796813461B019B1A4D
:104D50009B000B4426331B78022B40F0A980FB7884
:104D60005A013B69134403F5A0631B68FB60FB68B1
:104D700023F08043FB60FB6843F00043FB60FB785B
:104D80005A013B69134403F5A0631A46FB6813609C
:104D90008EE0FA78796813461B019B1A9B000B443E
:104DA0004D331B78042B43D1FA78796813461B01E5
:104DB0009B1A9B000B444D3302221A70FA787968D3
:104DC00013461B019B1A9B000B444C3302221A70A2
:104DD000FA78796813461B019B1A9B000B44263313
:104DE0001B78002B0AD0FA78796813461B019B1AAE
:104DF0009B000B4426331B78022B59D1FB785A01B8
:104E00003B69134403F5A0631B68FB60FB6823F058
:104E10008043FB60FB6843F00043FB60FB785A0172
:104E20003B69134403F5A0631A46FB6813603FE037
:104E3000FA78796813461B019B1A9B000B444D338B
:104E40001B78082B26D1FA78796813461B019B1A28
:104E50009B000B444D3302221A70FA78796813468E
:104E60001B019B1A9B000B4444331B68591C786838
:104E700013461B019B1A9B00034444331960FA78C4
:104E8000796813461B019B1A9B000B444C33042288
:104E90001A700DE0FA78796813461B019B1A9B0083
:104EA0000B444D331B78022B00F0008100E000BF63
:104EB000FA78796813461B019B1A9B000B444C330C
:104EC0001A78FB781946786807F0E6FAEFE07B6815
:104ED0001B68FA781146184604F0D5F9034603F02A
:104EE0004003402B2FD1FB785A013B69134403F553
:104EF000A0631A4640239360FA78796813461B0131
:104F00009B1A9B000B444D3305221A70FA7879687E
:104F100013461B019B1A9B000B441A331B78002B72
:104F200009D1FA78796813461B019B1A9B000B4440
:104F3000443300221A607B681B68FA7811461846D1
:104F400004F04BFFB3E07B681B68FA781146184603
:104F500004F099F9034603F01003102B40F0A780EA
:104F6000FA78796813461B019B1A9B000B44263381
:104F70001B78032B1BD1FA78796813461B019B1A07
:104F80009B000B44443300221A60FA787968134678
:104F90001B019B1A9B000B444D3304221A707B6843
:104FA0001B68FA781146184604F017FF3FE0FA78BC
:104FB000796813461B019B1A9B000B4426331B7810
:104FC000002B0AD0FA78796813461B019B1A9B00C4
:104FD0000B4426331B78022B29D1FA7879681346C3
:104FE0001B019B1A9B000B44443300221A607B6810
:104FF0009B79002B0AD0FA78796813461B019B1A1B
:105000009B000B441B331B78012B10D1FA78796875
:1050100013461B019B1A9B000B444D3304221A704C
:105020007B681B68FA781146184604F0D6FEFA78B9
:10503000796813461B019B1A9B000B441B331B789A
:10504000012B29D1FA78796813461B019B1A9B0022
:105050000B441B3300221A70FB785A013B6913443E
:1050600003F5A0635B68FA7851013A690A4402F5D6
:10507000A06223F480335360FB785A013B691344E8
:1050800003F5A063DB68FA7851013A690A4402F536
:10509000A06243F02003D360FB785A013B691344BC
:1050A00003F5A0631A461023936000E000BF183791
:1050B000BD4680BD80B586B000AF78600B46FB7002
:1050C0007B681B687B617B693B617B681B68FA7846
:1050D0001146184604F0D7F8034603F00403042BE6
:1050E0001BD1FB785A013B69134403F5A0631A46B0
:1050F00004239360FA78796813461B019B1A9B007E
:105100000B444D3307221A707B681B68FA781146EE
:10511000184604F062FE00F089BC7B681B68FA78D0
:105120001146184604F0AFF8034603F02003202B85
:1051300040F08280FB785A013B69134403F5A06379
:105140001A4620239360FA78796813461B019B1A4C
:105150009B000B4419331B78012B24D1FA78796812
:1051600013461B019B1A9B000B44193300221A7033
:10517000FA78796813461B019B1A9B000B444C3349
:1051800002221A70FA78796813461B019B1A9B0059
:105190000B444D3303221A707B681B68FA78114662
:1051A000184604F01AFEFA78796813461B019B1A18
:1051B0009B000B441A331B78012B40F03784FA789C
:1051C000796813461B019B1A9B000B441B331B7809
:1051D000002B40F02B84FA78796813461B019B1A48
:1051E0009B000B4426331B78012B09D0FA78796891
:1051F00013461B019B1A9B000B441B3301221A70A0
:10520000FA78796813461B019B1A9B000B444D33B7
:1052100003221A707B681B68FA781146184604F05E
:10522000DCFDFA78796813461B019B1A9B000B443E
:10523000443300221A60F9E37B681B68FA78114650
:10524000184604F020F8034603F40073B3F5007F1A
:1052500011D1FB785A013B69134403F5A0631A4648
:105260004FF4007393607B681B68FA781146184608
:1052700004F0B3FDDAE37B681B68FA781146184640
:1052800004F001F8034603F00103012B68D1FA781A
:10529000796813461B019B1A9B000B444433002280
:1052A0001A607B681B68FA781146184603F0EBFF1A
:1052B000034603F04003402B12D1FA787968134675
:1052C0001B019B1A9B000B44193301221A70FB78B7
:1052D0005A013B69134403F5A0631A4640239360C7
:1052E000FA78796813461B019B1A9B000B441B3309
:1052F0001B78002B19D0FA78796813461B019B1A8A
:105300009B000B441B3300221A70FB785A013B6947
:10531000134403F5A0635B68FA7851013A690A44C3
:1053200002F5A06223F480335360FB785A013B6995
:10533000134403F5A0631A4601239360FA78796851
:1053400013461B019B1A9B000B444D3301221A701C
:105350007B681B68FA781146184604F03EFD65E349
:105360007B681B68FA781146184603F08CFF0346E9
:1053700003F04003402B39D1FA78796813461B01BA
:105380009B1A9B000B444D3305221A70FA787968FA
:1053900013461B019B1A9B000B441A331B78002BEE
:1053A00009D1FA78796813461B019B1A9B000B44BC
:1053B000193301221A70FA78796813461B019B1A77
:1053C0009B000B44443300221A607B681B68FA7808
:1053D0001146184604F001FDFB785A013B6913445D
:1053E00003F5A0631A46402393601FE37B681B68A4
:1053F000FA781146184603F046FF034603F0080307
:10540000082B1AD1FB785A013B69134403F5A063BA
:105410001A4608239360FA78796813461B019B1A91
:105420009B000B444D3306221A707B681B68FA7888
:105430001146184604F0D1FCF8E27B681B68FA7844
:105440001146184603F01FFF034603F01003102B0C
:1054500044D1FA78796813461B019B1A9B000B44D0
:10546000443300221A60FA78796813461B019B1AAC
:105470009B000B444D3304221A70FA787968134666
:105480001B019B1A9B000B4419331B78002B14D172
:10549000FA78796813461B019B1A9B000B4418335A
:1054A0001B78002B09D1FA78796813461B019B1AE7
:1054B0009B000B44193301221A707B681B68FA7831
:1054C0001146184604F089FCFB785A013B691344E5
:1054D00003F5A0631A4610239360A7E27B681B685C
:1054E000FA781146184603F0CEFE034603F0800317
:1054F000802B40F083807B689B79002B11D1FA7858
:10550000796813461B019B1A9B000B444D330722FD
:105510001A707B681B68FA781146184604F05DFC27
:1055200062E0FA78796813461B019B1A9B000B44D2
:1055300044331B68591C786813461B019B1A9B0057
:10554000034444331960FA78796813461B019B1AA7
:105550009B000B4444331B68022B22D9FA787968EC
:1055600013461B019B1A9B000B44443300221A6014
:10557000FA78796813461B019B1A9B000B444C3345
:1055800004221A70FA78796813461B019B1A9B0053
:105590000B444C331A78FB781946786806F07CFF88
:1055A00022E0FA78796813461B019B1A9B000B4492
:1055B0004C3302221A70FB785A013B69134403F5FD
:1055C000A0631B68FB60FB6823F08043FB60FB6803
:1055D00043F00043FB60FB785A013B69134403F539
:1055E000A0631A46FB681360FB785A013B691344B9
:1055F00003F5A0631A468023936017E27B681B685B
:10560000FA781146184603F03EFE034603F4806321
:10561000B3F5806F1BD1FA78796813461B019B1A8A
:105620009B000B444D3309221A707B681B68FA7883
:105630001146184604F0D1FBFB785A013B6913442C
:1056400003F5A0631A464FF480639360EEE17B6834
:105650001B68FA781146184603F015FE034603F05E
:105660000203022B40F0DF81FB785A013B691344AF
:1056700003F5A0631A4602239360FA78796813460B
:105680001B019B1A9B000B444D331B78012B40F0F0
:105690009380FA78796813461B019B1A9B000B4490
:1056A0004D3302221A70FA78796813461B019B1A4F
:1056B0009B000B444C3301221A70FA787968134628
:1056C0001B019B1A9B000B4426331B78022B0BD02B
:1056D000FA78796813461B019B1A9B000B4426330A
:1056E0001B78032B40F090817B689B79002B15D1B0
:1056F000FA78796813461B019B1A9B000B443D33D3
:105700001B78FA7883F00103D8B2796813461B013D
:105710009B1A9B000B443D3302461A707B689B79B1
:10572000012B40F07181FA78796813461B019B1AAE
:105730009B000B4434331B68002B00F06581FA7822
:10574000796813461B019B1A9B000B44343319687C
:10575000FA78786813461B019B1A9B000344283390
:105760001B880B44591EFA78786813461B019B1A54
:105770009B00034428331B88B1FBF3F3BB60BB6879
:1057800003F00103002B00F03F81FA78796813469B
:105790001B019B1A9B000B443D331B78FA7883F066
:1057A0000103D8B2796813461B019B1A9B000B4476
:1057B0003D3302461A7027E1FA78796813461B01D7
:1057C0009B1A9B000B444D331B78032B20D1FA7896
:1057D000796813461B019B1A9B000B444D33022230
:1057E0001A70FA78796813461B019B1A9B000B44C8
:1057F0001B331B78012B40F00781FA787968134638
:105800001B019B1A9B000B444C3302221A70FBE0D5
:10581000FA78796813461B019B1A9B000B444D33A1
:105820001B78042B3AD1FA78796813461B019B1A2E
:105830009B000B444D3302221A70FA7879681346A4
:105840001B019B1A9B000B444C3302221A70FA78FE
:10585000796813461B019B1A9B000B441B331B7872
:10586000012B40F0D180FA78796813461B019B1A0E
:105870009B000B441B3300221A70FB785A013B69D2
:10588000134403F5A0635B68FA7851013A690A444E
:1058900002F5A06223F480335360B5E0FA787968AA
:1058A00013461B019B1A9B000B444D331B78052BA1
:1058B00014D1FA78796813461B019B1A9B000B449C
:1058C0004D3302221A70FA78796813461B019B1A2D
:1058D0009B000B444C3302221A7095E0FA787968E9
:1058E00013461B019B1A9B000B444D331B78062B60
:1058F00014D1FA78796813461B019B1A9B000B445C
:105900004D3302221A70FA78796813461B019B1AEC
:105910009B000B444C3305221A7075E0FA787968C5
:1059200013461B019B1A9B000B444D331B78072B1E
:105930000AD0FA78796813461B019B1A9B000B4426
:105940004D331B78092B70D1FA78796813461B0107
:105950009B1A9B000B444D3302221A70FA78796827
:1059600013461B019B1A9B000B4444331B68591CB4
:10597000786813461B019B1A9B000344443319604B
:10598000FA78796813461B019B1A9B000B44443339
:105990001B68022B14D9FA78796813461B019B1AED
:1059A0009B000B44443300221A60FA78796813464E
:1059B0001B019B1A9B000B444C3304221A7022E0FB
:1059C000FA78796813461B019B1A9B000B444C33F1
:1059D00002221A70FB785A013B69134403F5A06355
:1059E0001B68FB60FB6823F08043FB60FB6843F0AF
:1059F0000043FB60FB785A013B69134403F5A06345
:105A00001A46FB68136000BFFA78796813461B01D9
:105A10009B1A9B000B444C331A78FB781946786824
:105A200006F03AFD02E000BF00E000BF1837BD46B7
:105A300080BD80B58AB000AF78607B681B687B62F0
:105A40007B6A3B627B681B681B6AFB61FB6903F036
:105A50000F03BB61FB695B0C03F00F037B61FB6908
:105A60001B09C3F30A033B617B69022B04D07B69EA
:105A7000052B00F0B680B7E03B69002B00F0B38047
:105A80007968BA6913461B019B1A9B000B442C339F
:105A90001B68002B00F0A7807968BA6913461B01C8
:105AA0009B1A9B000B4438331A683B69D1187868FD
:105AB000BA6913461B019B1A9B00034434331B68CD
:105AC000994200F283807B6818687968BA69134646
:105AD0001B019B1A9B000B442C331B683A6992B242
